:020000040000FA
:20000000E07F0010CD1B0000FD1B0000FF1B0000011C0000031C0000051C000000000000FA
:20002000000000000000000000000000071C0000091C0000000000000B1C00000D1C000028
:200040000F1C00000F1C00000F1C00000F1C00000F1C00000F1C00000F1C00000F1C000048
:200060000F1C00000F1C00000F1C00000F1C00000F1C00000F1C00000F1C00000F1C000028
:200080000F1C00000F1C00000F1C00000F1C00000F1C00000F1C00000F1C00000F1C000008
:2000A0000F1C00000F1C00000F1C00000F1C00000F1C00000F1C00000F1C00000F1C0000E8
:2000C0000F1C00000F1C00000F1C000000000000000000000000000000000000000000009F
:2000E000000000000000000000000000000000000000000000000000000000000000000000
:200100000000000000000000000000000000000000000000000000000000000000000000DF
:200120000000000000000000000000000000000000000000000000000000000000000000BF
:2001400000000000000000000000000000000000000000000000000000000000000000009F
:2001600000000000000000000000000000000000000000000000000000000000000000007F
:2001800000000000000000000000000000000000000000000000000000000000000000005F
:2001A00000000000000000000000000000000000000000000000000000000000000000003F
:2001C00000000000000000000000000000000000000000000000000000000000000000001F
:2001E0000000000000000000000000000000000000000000000000000000000000000000FF
:200200000000000000000000000000000000000000000000000000000000000000000000DE
:200220000000000000000000000000000000000000000000000000000000000000000000BE
:2002400000000000000000000000000000000000000000000000000000000000000000009E
:2002600000000000000000000000000000000000000000000000000000000000000000007E
:2002800000000000000000000000000000000000000000000000000000000000000000005E
:2002A00000000000000000000000000000000000000000000000000000000000000000003E
:2002C00000000000000000000000000000000000000000000000000000000000000000001E
:2002E00000000000000000000000000000000000000000000000000000000000FFFFFFFF02
:2003000010B5054C237833B9044B13B10448AFF300800123237010BDB00B00100000000070
:200320004823010008B5034B1BB103490348AFF3008008BD00000000B40B001048230100C1
:20034000154B002B08BF134B9D46A3F5803A00218B460F461348144A121A09F039F90F4B07
:20036000002B00D098470E4B002B00D098470020002104000D000D48002802D00C4801F08A
:20038000FEF808F0C1FC2000290001F067FB01F0F3F800BF00000800E07F00100000000004
:2003A0004D1A0000B00B0010F51200107F15000000000000C36810B504460BB19B68984788
:2003C000204610BD884238B504460D460AD0FFF7F1FF3CB1EB681BB15B6829462046984753
:2003E000EB68E360204638BD03680BB9031D036000687047F8B50646044600250F46124B21
:20040000182246F8043B0021304609F0E1F82946C4E907556562102204F1280009F0D8F865
:200420002946102204F1380009F0D2F82346074A394604F11C0001F0F1FC3046394600F01E
:200440007BFB2046F8BD00BFD41501000D05000010B5044600F0A8FF04F11C0001F076FD35
:20046000BDE8104000F0AABF10B5044600F09CFF04F11C0001F072FDBDE8104000F09EBFE1
:2004800010B50446074B40F81C3B01F001FD04F13800FFF78FFF04F12800FFF78BFF2046C9
:2004A00010BD00BFD415010010B50446FFF7E8FF204601F0BDF9204610BDF0B50F46044656
:2004C00085B000F071FFFD6804F138061C3465B139463046FFF776FF01220221204601F08C
:2004E000DFFC00F06BFF05B0F0BD10222946684609F06EF869463046FFF764FF6846FFF795
:2005000059FF2A46E9E7C3681B681847012908B502D0022907D008BD436B002BFBD02830BA
:20052000FFF7F1FFF7E7436C002BF4D03830F7E70368184708B10B680360704770470368E1
:200540001B69184703689B69184703689B6A18474FF0FF307047112070477047704700F0B0
:2005600096B8A0F13000FFF7FABF00F093B8A0F13000FFF7FABF000010B50446084B303050
:2005800003F1080240F8302C03F1280284330260436000F087FE204600F006F9204610BDF2
:2005A000E8150100A0F13000E6E7A0F13400E3E710B50446FFF7E0FF204601F039F920464D
:2005C00010BDA0F13000F3E7A0F13400F0E770477047000038B504461D46049B00F062F826
:2005E000294604F1300000F035FE054B204603F10802226003F1280284332263636338BDF9
:20060000E8150100704700EB01139A690C3312B1126818461047704770B505460E4604462D
:2006200055F8043B1B6898472846314601F0A8FD2368E6622046BDE870405B6818472DE98B
:20064000F04105460E4617469846044655F8043B1B689847434628463A46314601F056FE24
:2006600023682046BDE8F0415B68184738B5054655F8043B04461B689847284601F094FE30
:200680000546236820465B689847284638BD043001F070BE10B50C46043001F0B1FE204675
:2006A00010BD00002DE9FF47044600259A46884691461F4B00F10C070360C0E901552946DE
:2006C00004F11C061022384608F082FF29461022304608F07DFF10222946C4F82CA0684678
:2006E00008F076FF69463846FFF76CFE6846FFF761FE10222946684608F06AFF6946304628
:20070000FFF760FE251D6846FFF754FE4A464146284601F00FFFE16A284601F031FD284683
:200720002246044901F00CFE204604B0BDE8F0877C160100070600002DE9FF410446164637
:200740008846036804EB06151B68984700F02CFED8F80C200C35EB68271DA2B10BB900F0FF
:200760004BFA41462846FFF72DFE01223146384601F0F2FD00F022FE236820465B68984783
:2007800004B0BDE8F0810BB100F050FA10220021684608F01DFF69462846FFF713FE6846B2
:2007A000FFF708FE0022E1E77FB50446154B102203600021684608F00BFF002269462046D8
:2007C000FFF7BAFF6846FFF7F5FD10220021684608F0FEFE012269462046FFF7ADFF684657
:2007E000FFF7E8FD14F10C0608D004F12C05AE4204D0103D2846FFF7DDFDF8E7204604B0C1
:2008000070BD00BF7C16010010B50446FFF7CCFF204601F00DF8204610BD2DE9F048D0E9F3
:200820000245D0E908BC06461BEB04024CEB050300F01AF9736B2BB106F128001B68BDE859
:20084000F0481847BDE8F088D0B5044616461F4600F0AAFD204600F011F9C4E90867A06938
:2008600000F0B6FB821941EB0703204600F0FCF8BDE8D04000F0A2BD30B5044685B000F064
:2008800093FD204600F0FAF8636B23B194F838300BB100F0CBF904F1280510220021684657
:2008A00008F096FE2846FFF785FD3DB1039B1BB15B68694628469847039B63636846FFF7A7
:2008C00079FD00F07BFD05B030BD000038B505460446064B45F8283BFFF7CEFF2846FFF7FE
:2008E00069FD204600F0D0F8204638BD9416010010B50446FFF7EAFF204600F099FF20462C
:2009000010BD10B5044600F04FFD23681BB1237F0BB100F08BF90023236000F04FFD20464E
:2009200010BD10B5044600F03FFD236853B9237F0BB100F061F9A06900F04AFB0123C4E961
:2009400002012360BDE8104000F038BDF8B5044600F02AFD236883B1A06900F039FB04F148
:200960000805D5E90045041B61EB050526462F4600F024FD30463946F8BD00260027F7E72B
:200980002DE91848044600F00FFD2046FFF7DEFFD4E9042310EB020B41EB030C2368C4E903
:2009A00004BC1BB1237F0BB100F040F900232360BDE8184800F002BD2DE9F041064600F047
:2009C000F3FCD6E904783046FFF7C0FF3C1848EB010500F0F3FC20462946BDE8F08108B5AE
:2009E000FFF7EAFF08BD10B5044600F0DDFCA06900F0EEFA00220023C4E90201C4E90423D1
:200A0000BDE8104000F0DABC002310B5002203600023C0E90223C0E90423044600F0ECFA0D
:200A20000123A06123772046FFF7DDFF204610BD03689B6818470000094B10B50022036021
:200A40000023C0E902230023C0E90433044600F0D3FA0449A06100F043FA204610BD00BF2E
:200A6000A8160100310A000007B5009000F10801806900F068FA03B05DF804FB00F10801FA
:200A8000806900F08ABA000010B50446024B0360FFF7F4FF204610BDA81601000368012211
:200AA0001B69002118470022036811461B691847EFF31083DB4372B6044A117829B90449AA
:200AC00003F001030B70012313707047D50B0010D40B00100022034B1A70034B1B7803B1D8
:200AE00062B67047D50B0010D40B001070B50E460446154601F0E8F8013609D020460021C2
:200B000001F0FCF829462046BDE8704001F0F3B870BD38B504460D4643685AB1C26820462D
:200B20001360012101F0EAF829462046BDE8384001F0E1B80269F2E70322FFF7D7BF70B5B7
:200B40000E460446154601F0BFF8013606D02A462046BDE870400221FFF7DBBF70BD0022BA
:200B6000FFF7EDBF10B5044601300DD110BDA34209D12046896801F0FDF92046BDE8104090
:200B8000022101F010BA0C310B685A1CEFD10248BDE8104000F034BCE5160100884208B5EF
:200BA00008D0431C06D0013106D0044800F028FC4FF0FF31084608BD0146FBE7B41601004A
:200BC0000B685A1C01D118467047834201D1486870470C31F4E70000421C10B5044607D0EB
:200BE000FFF7EEFF431C044602D1024800F008FC204610BDC516010008B500F0D5FB094B78
:200C00001A884FF6FF739A4204D100F0D7FB064800F0F6FB0121034800F0DEFBBDE80840B6
:200C200000F0CCBBD60B0010F616010008B500F0BBFB084B1B8823B900F0C0FB064800F021
:200C4000DFFB0121034800F0D1FBBDE8084000F0B5BB00BFD60B0010231701002DE9F84FFC
:200C6000D0E9003405465B6898476B681B6A83423DD0236AE268C31A2062A6682A48134067
:200C8000864298464FF0000929D0D4E90AABA3FB0023B6F5004F104619462AD147F6FF76DE
:200CA00000274FEAD23830401AEB000248EA41484FEAD13901EA07014BEB01039F4208BF80
:200CC000964202D3C4E90A2309E018F1010849F10009B2F5004A43F1FF3BC4E90AABD4E9D1
:200CE0000C0110EB080241EB0903C4E90C23BDE8F88F002732463B4605F0DEFE804612EBEE
:200D00000A00894643EB0B01B94208BFB04202D2C4E90A01E3E718F1010849F10009821BC4
:200D200061EB0703CEE700BF40420F00824206D98A420BD9884294BF002001207047884226
:200D400006D98A428CBF00200120704701207047002070472DE9F14F8146D0F80480FFF797
:200D60007DFFD9F80450D9F800A0696800294FD0D5E90C23D1E90067BB4208BFB24205D3AA
:200D8000DAF8143001B0BDE8F04F1847B61A67EB0307D5E90623BB4208BFB2422C6906D310
:200DA000AB68244A93421DD1B44228BF34462A6AD8F820301444EA681440A342E0D0DAF87F
:200DC000103020469847D9F800305B68984722460146D8F82000FFF7A9FF38B3D9F80030C2
:200DE0005B69CFE7B3F5004F0BD10023F903114AF00341EA564105F05FFE844228BF04462E
:200E0000D5E7A3FB06010B4A03FB07110023F2E7D8F81030D8F82000D8F80C201844DAF8E0
:200E20001030104001B0BDE8F04F184701B0BDE8F08F00BF40420F002DE9F84F43680546B6
:200E400093F838B0BBF1000F46D10368234E1B6898472B684FF007089B6998474468D0F8D7
:200E60000090231FB9F1000F08BFB1461D2B28BF2024231F08FA03F8002319F1FF3043F1E7
:200E8000FF314A46C6FB080105F016FED5F804A02B68CAE900BB5B680F4606469847CAF848
:200EA0002000012000230022696800FA04F4013CC1E90A23C1F80890C1E90348C1E9066778
:200EC000C1E90C2381F838002846FFF7C7FE2846BDE8F84FFFF73EBFBDE8F88F40420F0055
:200EE00038B505460C46FFF7A7FF00F05DFA6B681C60BDE8384000F061BA70B5044600F0AF
:200F000053FA2368DB68984763685B68A3B12046FFF7A4FE65686E68D5E90C01D6E90023A7
:200F2000994208BF904207D3F3686B602B68002BEAD0B0689847E7E72046FFF70BFFBDE8F5
:200F4000704000F03BBA2DE9F84305460C4616461F46DDF8208000F027FA2846FFF77EFEE7
:200F600000226968C4E900674B68C4F808804BB9E36082B94C602846FFF7ECFEBDE8F84317
:200F800000F01CBAD3E900894F4508BF4645EFD31A46DB68EBE7D460EDE738B505460C4697
:200FA00000F002FA6A685368A34209D1DB6828465360FFF7CFFEBDE8384000F0FFB91346B4
:200FC000002BF8D0DA68A242F9D1E268DA60F2E710B50446FFF730FF00F0E6F92046FFF772
:200FE0003DFE00F0EBF96368D3E90C0110BD08B5FFF7EEFF08BD0000004870474C170100B9
:20100000024B1B680BB1024818477047CC0000104C17010038B5CB6804460D460BB15B6868
:201020009847EB682046E36038BD007B7047000038B50B4B0D46036000230446C0E901316D
:2010400002730848FFF7D0F945B1074B1A681C6062600448FFF7C8F9204638BD6560F8E702
:20106000781701001C0C0010180C001010B504460E4B03600E48FFF7B7F9A3682BB10D4A6F
:201080001368A3420CD1636813600948FFF7ACF9237B13B9201F00F0D1FB204610BD1346F8
:2010A0005A68A242FBD162685A60EEE7781701001C0C0010180C001010B50446FFF7D6FF8F
:2010C000204600F0B5FB204610BD000070B506460C480D46FFF788F90B4B1C685CB1A06859
:2010E00070B12A46314609F043F848B9A06809F011F8A84204D10348FFF776F9204670BDA7
:201100006468EBE71C0C0010180C00100020704700207047036870B51B6901220021044675
:201120009847051E0DDB236802221B690021204698470646236829461B69002220469847FB
:201140003546284670BD000070B50E4600250446C0E900550B49304609F054F829463044A1
:20116000206023681A782F2A06D101332360FFF7ADFF6060204670BD002AF8D0013301319E
:201180002360EEE7251C010000687047406808B520B1FFF74AFF431E5842584108BD10B503
:2011A0000446FFF7F3FF10B1606800B1043810BD406808B520B1FFF738FFB0FA80F04009F4
:2011C00008BD10B50446FFF7F3FF10B1606800B1043810BD4068003018BF012070477047D2
:2011E000704700207047F8B50E4603680446DB6C8F1835469847BD42236806D05B6C15F82F
:20120000011B204698470130F5D1236820461B6D9847A81BF8BDF8B50E4603680446DB6CA9
:201220008F1835469847BD42236807D09B6C20469847431C02D005F8010BF4E723682046FA
:201240001B6D9847A81BF8BD00207047002070477047000010B504460E4B002240F8043B49
:20126000FFF7E6FE0C4B0D4923605C33636000232046636100F02CFB606118B100F081F9BA
:20128000204610BD06F06EFD0168054800F0B8F8F6E700BF8817010054180100281801007A
:2012A0002B18010010B50446094B03F10802643302604360406906F0C3FD2046054B236055
:2012C0004C3340F8043FFFF7D1FE204610BD00BF4C180100D417010070B504460D461646EE
:2012E0000368DB6C9847606906F08AFE62693146284600F049F90546236820461B6D984791
:20130000284670BD0EB477B50446036807AD55F8046BDB6C98476069019506F071FE019A9A
:20132000314660690CF066FC0546236820461B6D9847284603B0BDE8704003B0704707F095
:2013400097BD08F0B9B907F07BB806F0D5BC000010B586B000F028F812496846FFF7FFFB1A
:201360000424039B019A96201A6000F0ADFB049B019A96201A6000F0A7FB013CF1D1042421
:20138000039B019A4FF4C8701A6000F09DFB049B019A4FF4C8701A6000F096FB013CEFD1EA
:2013A000DEE700BF32C0092008B5FFF781FB024A13680133136008BD240C0010054B1A681A
:2013C00032B11A68013A1A601B680BB9FFF782BB704700BF240C0010D0E85F3F0B449BB2D1
:2013E000C0E8523F002AF7D118467047D0E85F3F5B1A9BB2C0E8523F002AF7D11846704755
:201400000FB408B5054B1A781AB90120187000F0B3F8BDE8084004B0704700BF280C0010F8
:2014200000F02EBB6FF01C0070476FF015007047012070470020704770470000F8B5154608
:201440000C46064E8F18BC4205D014F8011B304600F0D6FFF7E72846F8BD00BFC81200105F
:2014600038B58DB215F0010405D0084800F09CFF041C18BF0124EB0605D5044800F09AFFCA
:2014800008B144F01004204638BD00BFC812001010B5044607F0E4FC204610BD10B50C4617
:2014A0002AB1044800F066FF2070012010BD1046FCE700BFC812001038B51D46074B044664
:2014C0000360074B1B6833B9064801F033F82946044800F055FE204638BD00BFCC18010081
:2014E0000C0D0010C812001000207047002070470148FFF785BF00BFB818010008B501203A
:2015000000F03AF80C4B10B51A681044EFF30881884206D30C22094B1A604FF0FF321046E7
:2015200010BD07490C6824B10649096821448842F0D21860F3E700BFD0010010D0120010B0
:201540003C0C0010400C001008B5094C05462368986806F055FD2368D86806F051FDFFF7A2
:201560005FFF08B100F081FA0DB1FFF7F1FEFEE7E80100100120704708B5FFF7E5FF0120D8
:201580007047002108F0FABA06F0C2BD7047704708B5FFF7FBFF08BD08B5FFF7F8FF08BD03
:2015A000037803F00302012A1DBF43F002030370012000207047037823F0030343F0010343
:2015C000037070473F2870B504462FDC184D55F820305A1C13D1022811DCFFF787FF0346C8
:2015E00058B92046FFF780FF034630B9114E3378BFF35B8FDB0704D50F4B45F82430184623
:2016000070BD3046FFF7CCFF0028F5D04FF416530A4A0B490848FFF74FFF3046FFF7CBFF5B
:20162000084A09490448FFF7A5FFE5E70023E6E7D00000102C0C0010380C001003C00920FC
:2016400002C00920C80000103914000038B505460024FFF7B7FF0B4B43F8254030B906F09D
:2016600081FB092303604FF0FF3038BD03685B699847051E04DA06F075FB6D420560F2E79A
:201680002046F2E7D0000010FFF7E0BF38B50C461546FFF797FF38B906F064FB092303609B
:2016A0004FF0FF34204638BD03682146DB682A469847041EF6DA06F055FB64420460EFE7E1
:2016C00008B5131E06DA06F04DFB162303604FF0FF3008BD04D0FFF7D9FF40EAE070F8E734
:2016E0001846F6E738B50C461546FFF76BFF38B906F038FB092303604FF0FF34204638BD3F
:20170000036821469B682A469847041EF6DA06F029FB64420460EFE7002A08B503DBBDE84F
:201720000840FFF7DFBF06F01DFB162303604FF0FF3008BD10B5FFF745FF044628B906F0D0
:2017400011FB09230360204610BD0368DB699847041EF8DA06F006FB644204600024F2E73B
:201760001FB504220C4640230DEB020101900DF109008DF8083007F053FE214602A806F01B
:2017800007FE044630B10198FFF7D4FF10B12046FFF7F7FE204604B010BDFFF7CBBF38B551
:2017A0000C461546FFF70EFF38B906F0DBFA092303604FF0FF34204638BD036821461B690B
:2017C0002A469847041EF6DA06F0CCFA64420460EFE7FFF7E4BF38B50D46FFF7F3FE044622
:2017E00030B906F0BFFA092303604FF0FF3038BD0368DB699847002814BF4FF400534FF4FD
:2018000000436B60236820469B6A984728610020EDE7FFF7E0BF000010B507F019FB0446B9
:2018200010B90248FFF7ECFD204610BD1819010007F016BB004870471019010010B5044651
:201840000948FEF7D1FD00231946084A52F82300A04208BF42F823100133402BF6D102486D
:20186000FEF7C2FD10BD00BF300C0010D000001010B503240E48FEF7B7FD0E4B53F8242029
:201880006AB10134402CF9D106F06CFA182303600748FEF7A9FD4FF0FF34204610BD4FF0FA
:2018A000FF32034843F82420FEF79EFDF5E700BF300C0010D000001010B50446FFF7D8FFFA
:2018C0000028A4BF014B43F8204010BDD000001070B506460C46FFF7EFFF054690B121464F
:2018E000FFF73EFF044630B9074B53F82520964203D143F82500204670BD06F033FA0923B2
:201900000360F8E70446F6E7D00000100EB42DE9F04185B00546FFF7ABFF041E13DB002322
:20192000294602A80193FFF70FFC02A8FFF752FC1B4D064668B906F015FA1323036045F85B
:2019400024604FF0FF34204605B0BDE8F04103B0704702A8FFF72CFC074602A837B1FFF799
:2019600030FC0190019B45F82430ECE7FFF717FC06460028DFD0036802A8D3F80880FFF720
:2019800003FC0B9B024601A93046C04706460028E8D006F0E7F97642066045F82470D0E78B
:2019A000D000001073B50E461849054608F0D4FA044620B9FFF706FE204602B070BD14499A
:2019C000284608F0C9FA20B90120FFF7FBFD0124F2E71049284608F0BFFA20B90220FFF78F
:2019E000F1FD0224E8E72B78402B07D10422691C0DEB020007F014FD019CDDE726F40041B5
:201A00002846FFF783FF0446D6E700BF3D19010044190100351901007047704770470000F1
:201A2000084B094998684FF08053C21802F17042126843F8042B8B42F7D14FF08052014B9A
:201A40009A60704700ED00E0C400001008B5FFF7E7FFFFF7E2FFFFF7E1FF08BD08B5FFF776
:201A6000DBFFBDE8084002F0A1B830B585B018246D4620462946ABBE0446204605B030BDBB
:201A8000024B186800F00100704700BFF0ED00E070B50446FFF7B0FA0646FFF7A8FA054617
:201AA0003046FFF7A4FA401BA042F9D370BD000008B5044904F08AFE04F0D8FFBDE80840A8
:201AC000FFF7E6BF002474494FF47A735843FFF7DFBF00000C4B00781A6822F0FF021A604D
:201AE0000122196882400A431A601A6842F080721A6058680028FCDA1A68C0F30B1022F079
:201B000080721A60704700BF0040034070B50646FFF7E0FF04463046FFF7DCFF05463046C8
:201B2000FFF7D8FFAC4282BF23462C461D46A84228BF2846A04238BF204670BD70B50C4649
:201B4000164D064629462046FFF746F8144B3070D3F8C420294642F48052C3F8C420D3F83E
:201B6000A8212046BDE8704022F04072C3F8A821D3F8A82142F08072C3F8A821094B1A6887
:201B8000094B1344094A93FBF2F3013B1B02084A43F400131360FEF7E5BF00BF4C190100AE
:201BA00000C00F40D40100103F5DC600405DC6000040034008B5FFF7A9FF04F0AFFD0249A3
:201BC00004F004FE08BD00BF010880390649074A074B9A42BEBF51F8040B42F8040BF8E7FE
:201BE00004488047044800475C260100C8000010AC0B0010111C000041030000FEE7FEE7E2
:201C0000FEE7FEE7FEE7FEE7FEE7FEE7FEE7FEE72022264BC3F8A021D3F8A021920603D571
:201C2000D3F8A0215006FBD50222C3F8042100220120C3F8A821C3F8AC210B22C3F80C01AA
:201C4000AA21C3F884205522C3F88C10C3F88C20C3F88000C3F88C10C3F88C20134B1A466E
:201C6000D3F888104901FBD50321C3F88010AA21C3F88C105521C3F88C10D2F8883013F004
:201C8000407FFAD00523C2F80831094BC2F8C4300023C2F8C831136823F4704323F03A0333
:201CA00043F4405343F03A031360704700C00F40DE87280410B50021044600F05BF901208B
:201CC00004F01F04A04010BD38B505464B1C0C4629600FD00846FFF7EDFF24F01F0404F18B
:201CE0001803EB6004F11C032B6104F1140368606B61AC6038BD006800F055B911B10129EB
:201D000007D0704782684168136823EA0103136070478268416813680B43F8E72DE9F74F55
:201D20004FF0010A3A4C3B4AD4F80490DFF8E8B0D4F80880676AA66AB9F1000F15D1DFF8D4
:201D4000D490DFF8D4A0B8F1000F22D14FF0010ADFF8C080DFF8C09077BB2E4FDFF8B880E3
:201D6000002E3ED103B0BDE8F08FB9FA89F5C5F11F05EDB252F8250028B1DBF80030012138
:201D800001929847019A0AFA05F5E560A9EB0509D2E7B8FA88F5C5F11F05EDB259F825007A
:201DA00018B1DAF8003002219847012303FA05F5E560A8EB0508C6E7B7FA87F5C5F11F05A2
:201DC000EDB20F2D08D805F1200358F8230018B1D9F80030012198470AFA05F5E5627F1B12
:201DE000BAE7B6FA86F5C5F11F05EDB20F2D08D805F1200357F8230018B1D8F8003002210B
:201E00009847012303FA05F5E562761BA8E700BF80800240440C0010040D001070B51E4656
:201E20004B1C044623D0134B134D1A6021F01F03036001F01F0321F05F01A942436002D04C
:201E40000E48FFF7DDFAD4E900320D49AB4218BF20320C4BA26041F822609B680A4A002079
:201E6000C3F894204FF40012084B1A6070BD0846FCE700BF040D001000C00920B8190100D8
:201E8000440C001000ED00E01D1D000000E100E000218268014B43F822107047440C00103F
:201EA00030B50368264CA34207D0264DAB4215D001292AD1A34208D030BD01234468012996
:201EC00003FA04F3204CE36021D1012341688B401D4992B10A6913430B61EDE70124436853
:201EE000A14204FA03F5184BDD62406820D181403AB11A6B11431963DEE70A6922EA030383
:201F0000EAE71A6B22EA0101F5E7A342D4D1012341688B400C491AB14A6913434B61CBE7D8
:201F20004A6922EA0303F9E75A6B22EA010105E004FA00F1002AF7D05A6B11435963BBE7ED
:201F400000C0092040C00920808002404FF40012014B1A60704700BF00E100E04FF4001286
:201F6000034BC3F88020BFF34F8FBFF36F8F704700E100E010B5032400F16040A0F51C20B2
:201F800043000009800000F1804000F53030026803F01E039C4022EA04020260026899405E
:201FA0001143016010BD00F16040A0F51C2043099B0003F1804303F5303330B500F01F024E
:201FC0009C6EC1F3800505FA02F224EA02049C669C6E22439A6695B9032443000009800005
:201FE00000F1804000F53030026C03F01E039C4022EA04020264026C99401143016430BD18
:20200000012810B424D0022824D13823124803FB0103586801300FD10023382251430E48D1
:2020200042184058B0B113B992F8362092B10B4A1946126810BC104718699C68046093F899
:202040003630002BE8D1506820F001005060E4E70346E2E710BC7047100D0010080D00100B
:20206000034A00219068C0F34200FFF7C9BF00BF00C00040034A01219068C0F34200FFF776
:20208000BFBF00BF00000140034A02219068C0F34200FFF7B5BF00BF00800940034A032102
:2020A0009068C0F34200FFF7ABBF00BF00C0094030B52A4B04689C4224D006DCA3F5804336
:2020C0009C420CD000231D460BE0254B9C421CD003F580439C42F5D1224B082501E0052597
:2020E000214BAAB10122606802FA01F1014361601E4905F110008968AA4041F820301C4B03
:202100001A6030BD1B4B0625EBE71B4B0725E8E701290AD042683820184B00FB023292F872
:20212000363092F83520D342EBD1012303FA01F2B1FA81F16068490920EA020060606268A8
:2021400003FA01F11142DCD1094AAB40C2F88030BFF34F8FBFF36F8FD3E700BF00000140EE
:20216000008009409D2000006120000000ED00E000E100E07520000089200000100D00105F
:202180002DE9F74F03685D4A824693420F464AD028DCA2F58042934237D0594BD3F800B06D
:2021A0003B01BBFBF3F5ACB203FB15B5002D40F093804FF00108DAF8003045EA08151A7B84
:2021C000EDB242F080021A73C4F30722E4B21A711C7083F828501A7B02F07F021A7303B057
:2021E000BDE8F08F474A934229D002F580429342D3D1454BD3F8AC2122F44022C3F8AC2102
:20220000D3F8AC2142F4802224E03F4BD3F8A82122F0C002C3F8A821D3F8A82142F04002CC
:20222000C3F8A821B9E7384BD3F8A82122F44072C3F8A821D3F8A82142F48072F0E7324B07
:20224000D3F8AC2122F44032C3F8AC21D3F8AC2142F48032C3F8AC219FE72A4621461D460E
:202260000BFB06FCAB1903FB07F05FEA4C0455BF4FEA8C04B4FBF0F4B4FBF0F4240958BFBD
:2022800064090134C4F34F049CB315B1012C08BF022403FB04F0C000BCFBF0F00130C7EB37
:2022A0005000CDE9002105F023FDDDE90021484519DA874219D08146B0462A466B1CDBB288
:2022C000B3421546C9D300230136F6B2102E3FF472AF002BC1D06EE701260025B9462146BB
:2022E000B0462A46BCE70C46E8E7B946B0460123EAE7002D14BF02240124CAE7000001408D
:20230000D40100100080094000C00F40013AD2B2032A88BF002210B597BF084C1446A256EA
:202320000124013B053941EA830141EAC401006841EA0211C9B2017310BD00BFE51901003F
:20234000034B1960382341684B430249CA507047080D0010100D001030B431B938254368E0
:20236000034C05FB034383F8362030BCFFF7A0BE100D001010B50268137DDB07FCD53824BC
:2023800043680848117804FB03035868C9B2013006D058699B680360536843F001035360A6
:2023A000084610BD100D00100368187D00F00100704700003821114A436801FB0323DA6969
:2023C000013209D01A6B1B6A12681A4214D10368187DC0F3801070470268127D920604D5C8
:2023E0000022012083F83420704793F834000F288CBF00200120704700207047100D0010D7
:2024000038B504460D462046FFF7D4FF0028FAD038212368EDB2054A1D70636801FB0323C5
:2024200093F83420013283F8342038BD100D00102DE9F84FD0E9004699463A4B17469C429E
:2024400008BF237C4FF0FF3204BF03F03F0323744FF03803DFF8D8A0884603FB06A3DA619E
:202460005A604FF0000283F83520114618BF00240546FFF71DFEB8F1000F2CD02A4938463E
:20248000FEF79EFB294983464846FEF799FBA8F10203012B1AD8B9F1FF3F0BD0214B984297
:2024A0000CD15CB1237C214943F0800323744846FEF758FBB8F1030F0DD10AE0382000FB30
:2024C00006A049461C30FEF737FBF3E7B8F1010FF0D17B1C01D1BDE8F88F07222B681A7223
:2024E000104B9B450AD14CB1237C384643F0400323740D49BDE8F84FFEF734BB382404FB1E
:2025000006A0394600220430FEF719FB01226B68284604FB03A383F835200021BDE8F84F51
:20252000FFF7C6BD00000140101A0100EC190100100D00102DE9F0410F460546474938468E
:202540001646FEF749FB464904463046FEF744FB01462046FEF722FB424B0446984228606B
:202560005ED048D8A3F58043984251D001234FF0000823724FF416512846C4F80480FFF769
:20258000FFFD03222B6835491A733846FEF7EAFA33493046FEF7E6FA7A1C03D041463846F0
:2025A000FFF701FD731C03D000213046FFF7FBFC2C4B9C424CD03FD8A3F580439C4244D06C
:2025C00038216A68284B284601FB02324FF0FF3300215360D3611A46FFF72AFF234B9C427B
:2025E0003AD10122224B2946BDE8F0411A602148082206F015BF204B984217D003F580433D
:202600009842B3D11D4AD2F8C43043F0007304E01A4AD2F8C43043F00803C2F8C430A5E713
:20262000164AD2F8C43043F01003F6E7134AD2F8C43043F08073F0E70F4B9C420AD003F537
:2026400080439C42BCD1032300E000236B60B7E70123FBE70223F9E7BDE8F081A01A0100DE
:20266000341A010000000140100D001000C000400C0D0010C81200100080094000C00F40B2
:20268000104B1868E0B901210F4A1960D2F8C43043F40003C2F8C430A2F5D022106702200A
:2026A0000A4B1B6850600A48B3FBF0F3013BD360084B51609B68084A1A651022074B1A606A
:2026C000704700BFF00D001000C00F40D401001000093D0000ED00E00110000000E100E09E
:2026E00008B5044B1B680BB9FFF7CAFF024B986808BD00BFF00D001000400940034B98611A
:202700005A6942F001025A61704700BF004009401022024BC3F80021704700BF00E100E075
:20272000024A536923F0010353617047004009400122014B1A60704700400940436811B1F0
:20274000C268136070470269FBE743691A6843681A4214BF01200020704710B5044601F0D8
:20276000CDFB204610BD022310B5C2B08DF80030002340916946CDE9013301F0C0FD0446C8
:20278000684601F0BBFB204642B010BD032110B5C2B08DF800100021CDE9011140A9C1E953
:2027A0000023694601F0ABFD0446684601F0A6FB204642B010BD000000F1080373B5044691
:2027C00003600D46E1B1084607F0A4FC0F2805EB0006019007D9002201A9204601F0A2FF6A
:2027E000019B2060A36032462946206801F0C6FF00212046019B22686360D15402B070BD21
:20280000014801F05FFF00BFDC1B01000000000070B52D4886B001F01FFF2C4C05462C4952
:202820006846FFF7C9FF6946204601F011FD0646284603F0DBFB02460B463046FFF7A6FFEB
:20284000684601F093FF23496846FFF7B5FF6946204601F0FDFC20490646284604F06AF80B
:2028600003F0C4FB16A3D3E9002303F017FC03F04FFE1A4903F0AAFF03F0B8FB02460B468A
:202880003046FFF783FF684601F070FF14496846FFF792FF6946204601F0DAFC114B044628
:2028A000186803F0A3FB02460B462046FFF76EFF684601F05BFF06B070BD00BFAFF30080E8
:2028C0004D36D964934D1E4088100010800F0010C71B0100CF1B010000C07F4400006643B9
:2028E000D51B0100E810001070B504460D4616460021182206F06CFE204632462946FEF7C4
:202900001EF9204670BD000010B50446FEF794F82046064B102240F8283B002106F058FE8C
:202920000123204684F8383010BD00BF9416010030B5C9B004466846FFF73EFF04238DF8BD
:20294000183000231820CDE90733FEF765FF0546694602F00FF906A92046469501F0CFFCEB
:20296000044606A801F0CAFA684601F0FFFE204649B030BD027B03461AB1002202738068B2
:202980007047D0E900218A4203D14FF0FF309860704781680A2902BF016901310161511CA1
:2029A00001601078F3E7836801331CBF01230373704710B504462046FFF7DCFF2028FAD0B1
:2029C000A0F10903012BF6D90D28F4D02046FFF7EAFF10BD38B504460D46FFF7EAFF204685
:2029E000FFF7C8FFA84204D02046FFF7DCFF002038BD0120FCE7F8B506460D460C68D5E98E
:202A0000003213449C4227460BD03046FFF7B2FF3B7801349842F2D03046FFF7C4FF002017
:202A2000F8BD0120FCE7000070B5C8B004460D4668462B49FFF7C0FE04238DF818300023B6
:202A40001820CDE90733FEF7E7FE0646694602F091F806A92046469601F051FC06A801F030
:202A60004DFA684601F082FED4F800412846FFF781FF1F2804DC2846FFF795FF00202CE0B4
:202A8000222829D05C2825D12846FFF773FF431C0146F3D0622817D009DC2F2803D05C2836
:202AA00001D02228EAD1204601F002FFDEE76E280CD003DC6628E1D10C21F4E7722807D019
:202AC0007428DBD10921EEE70821ECE70A21EAE70D21E8E7C1B2E6E7012048B070BD00BF75
:202AE0004918010070B5CAB004AB0293002305460C4647F6ED7603938DF810302046FFF77A
:202B000039FFA0F12B030E2B03D826FA03F3DA0703D420F02003452B04D1C1B202A801F056
:202B2000C7FEEBE72046FFF73EFF2E21029807F09FF900B301A9029808F028FB03238DF830
:202B400020300023CDE9093348ABC3E9000108A9284601F0D4FB08A801F0D0F9DDE902431C
:202B60002344019C02A8E31A5C425C4101F0FEFD20464AB070BD6521029807F079F9002845
:202B8000D8D12B21029807F073F904460028D1D101A9029808F0FAFA0223CDE909448DF852
:202BA000203003F08DFC4890D1E7000070B50C46C2B005460846FFF7FCFE2046FFF7DAFE13
:202BC000662837D012DC222860D05B2864D0A0F13003092B02D92D2840F081802046FFF78C
:202BE000E2FE21462846FFF77DFF53E0742838D07B286FD06E28EAD13C496846FFF7DCFDA2
:202C000020466946FFF7F7FE0446684601F0AEFD0CB900240BE00023CDE901338DF800308A
:202C20006946284601F06BFB684601F067F9204642B070BD2E496846FFF7BEFD20466946B1
:202C4000FFF7D9FE0446684601F090FD002CE0D001238DF800300023CDE901338DF80031B9
:202C6000DEE724496846FFF7A7FD20466946FFF7C2FE0446684601F079FD002CC9D00123C7
:202C800000228DF80030CDE90122E7E721462846FFF7CAFE0446CAE75D212046FFF79AFEB6
:202CA000064600BB3146284601F034FA2146FFF77DFF0028ADD02C2120460136FFF78AFE23
:202CC0000028EFD120465D21FFF784FE041C18BF0124ACE72146284600F00EF8DAE720460F
:202CE000FFF761FE95E70124A1E700BF491C0100431C01003E1C0100F0B50D46ADF50B7D54
:202D000007467D212846FFF765FE00284AD104460646222128468DF81860CDE907448DF8F4
:202D2000206149944A94FFF755FE88B3294606A8FFF77AFE60B33A212846FFF74BFE38B342
:202D4000294648A8FFF732FF10B3469B68461968FFF732FD6946384601F07AFA48A901F081
:202D6000CEFA684601F002FD48A801F0C7F806A801F0C4F82C212846FFF72CFE0028C8D156
:202D80007D212846FFF726FE003018BF012006E048A801F0B3F806A801F0B0F800200DF50A
:202DA0000B7DF0BD0120FAE730B50546134C87B02369626801461A60684601F0DBFE10492E
:202DC000684601F08FFE6946284601F0E3FC684601F0CCFC286806F05BFC29680948FEF7BF
:202DE00091FAE36862684FF07C501A60FEF760FE236962681A6007B030BD00BF0411001003
:202E000048180100140F0010002370B54C4CCEB0214668468DF83030CDE90D33FFF7CCFC12
:202E200069460CA801F014FA2146464C054606A8FFF7C2FC06A9204601F00AFA01462846CB
:202E400001F05DFA06A801F091FC684601F08EFC3D4906A8FFF7B0FC06A90CA801F0F8F9BA
:202E60003A4D3B49FFF764FD06A801F07FFC29466846FFF7A1FC69460CA801F0E9F9294681
:202E8000064606A8FFF798FC06A9204601F0E0F90146304601F033FA2E4D06A801F066FC78
:202EA000684601F063FC29466846FFF785FC69460CA801F0CDF92946064606A8FFF77CFC8F
:202EC00006A9204601F0C4F90146304601F017FA214D06A801F04AFC684601F047FC2946CC
:202EE0006846FFF769FC69460CA801F0B1F92946064606A8FFF760FC06A9204601F0A8F969
:202F00000146304601F0FBF906A801F02FFC684601F02CFC0CA9684601F08CF9694606A848
:202F200001F028FE06A8FFF73FFF06A801F01EFC684601F01BFC0CA800F0E0FF4EB070BD7B
:202F4000031C0100800F0010511B0100CF1B0100561B0100C71B0100D51B0100002330B50C
:202F6000CFB00446A44968468DF83030CDE90D33FFF722FC69460CA801F06AF99E49054615
:202F800006A8FFF719FC06A99C4801F061F90146284601F0B4F906A801F0E8FB684601F026
:202FA000E5FB601E08285AD8DFE810F009007C00D1003E019301E8013D02AC0201039049AE
:202FC00006A8FFF7F9FB06A98C4801F041F9D0F8004106A801F0CAFB012C8A4B55D11A6993
:202FE0005B688749136006A8FFF7E6FB06A9834801F02EF90021FFF7B6FB06A801F0B6FB9C
:20300000814906A8FFF7D8FB06A90CA801F020F90121FFF7A8FB06A801F0A8FB7B4906A893
:20302000FFF7CAFB06A90CA801F012F97849FFF77FFC06A801F09AFB764906A8FFF7BCFBF6
:2030400006A90CA801F004F904466E48FFF77DFB01462046FFF787FB06A801F087FB0CA9B6
:20306000684601F0E7F8694606A801F083FD06A8FFF79AFE06A801F079FB684601F076FBA5
:203080000CA800F03BFF4FB030BDDA685B685C49136006A8FFF790FB06A9584801F0D8F80A
:2030A0000121A8E75C4906A8FFF786FB06A9534801F0CEF8D0F8004106A801F057FB012C6D
:2030C000564B37D11A695B685349136006A8FFF773FB06A9494801F0BBF80021FFF743FBA7
:2030E00006A801F043FB484906A8FFF765FB06A90CA801F0ADF80221FFF735FB06A801F07D
:2031000035FB424906A8FFF757FB06A90CA801F09FF83F49FFF70CFC06A801F027FB3D4946
:2031200006A8FFF749FB06A90CA801F091F804463A488BE7DA685B683749136006A8FFF7F0
:203140003BFB06A92D4801F083F80121C6E7344906A8FFF731FB06A9284801F079F8D0F844
:20316000004106A801F002FB012C2E4B37D11A695B682B49136006A8FFF71EFB06A91F48C4
:2031800001F066F80021FFF7EEFA06A801F0EEFA1D4906A8FFF710FB06A90CA801F058F8A1
:2031A0000321FFF7E0FA06A801F0E0FA174906A8FFF702FB06A90CA801F04AF81449FFF7B8
:2031C000B7FB06A801F0D2FA124906A8FFF7F4FA06A90CA801F03CF80446124836E7DA685A
:2031E0005B680F49136006A8FFF7E6FA06A9034801F02EF80121C6E7031C0100800F00101E
:203200000C1B0100240E0010111B0100511B0100171B01001B1B0100211B01003C0E0010A9
:20322000261B0100540E0010A94906A8FFF7C4FA06A9A84801F00CF8D0F8004106A801F04A
:2032400095FA012CA44B37D11A695B68A049136006A8FFF7B1FA06A99E4800F0F9FF00212C
:20326000FFF781FA06A801F081FA9C4906A8FFF7A3FA06A90CA800F0EBFF0421FFF773FAD8
:2032800006A801F073FA964906A8FFF795FA06A90CA800F0DDFF9349FFF74AFB06A801F02B
:2032A00065FA914906A8FFF787FA06A90CA800F0CFFF04468848C9E6DA685B688449136081
:2032C00006A8FFF779FA06A9824800F0C1FF0121C6E7864906A8FFF76FFA06A97D4800F09F
:2032E000B7FFD0F8004106A801F040FA012C804B37D11A695B687D49136006A8FFF75CFABD
:2033000006A9744800F0A4FF0021FFF72CFA06A801F02CFA714906A8FFF74EFA06A90CA8A4
:2033200000F096FF0521FFF71EFA06A801F01EFA6B4906A8FFF740FA06A90CA800F088FFB1
:203340006849FFF7F5FA06A801F010FA664906A8FFF732FA06A90CA800F07AFF04466448ED
:2033600074E6DA685B686149136006A8FFF724FA06A9584800F06CFF0121C6E75D4906A842
:20338000FFF71AFA06A9534800F062FFD0F8004106A801F0EBF9012C574B37D11A695B68DF
:2033A0005449136006A8FFF707FA06A9494800F04FFF0021FFF7D7F906A801F0D7F94749F4
:2033C00006A8FFF7F9F906A90CA800F041FF0621FFF7C9F906A801F0C9F9414906A8FFF756
:2033E000EBF906A90CA800F033FF3E49FFF7A0FA06A801F0BBF93C4906A8FFF7DDF906A94C
:203400000CA800F025FF04463B481FE6DA685B683849136006A8FFF7CFF906A92D4800F099
:2034200017FF0121C6E7354906A8FFF7C5F906A9284800F00DFFD0F8004106A801F096F975
:20344000012C2F4B37D11A695B682C49136006A8FFF7B2F906A91F4800F0FAFE0021FFF72B
:2034600082F906A801F082F91C4906A8FFF7A4F906A90CA800F0ECFE0721FFF774F906A89B
:2034800001F074F9164906A8FFF796F906A90CA800F0DEFE1349FFF74BFA06A801F066F978
:2034A000114906A8FFF788F906A90CA800F0D0FE04461348CAE5DA685B681049136006A899
:2034C000FFF77AF906A9034800F0C2FE0121C6E72B1B0100800F00106C0E0010111B01006D
:2034E000511B0100171B01001B1B0100301B0100840E0010351B01009C0E00103A1B0100A6
:20350000B40E0010424906A8FFF756F906A9414800F09EFED0F8004106A801F027F9012CA2
:203520003D4B37D11A695B683949136006A8FFF743F906A9374800F08BFE0021FFF713F916
:2035400006A801F013F9354906A8FFF735F906A90CA800F07DFE0821FFF705F906A801F0E6
:2035600005F92F4906A8FFF727F906A90CA800F06FFE2C49FFF7DCF906A801F0F7F82A4910
:2035800006A8FFF719F906A90CA800F061FE044621485BE5DA685B681D49136006A8FFF74E
:2035A0000BF906A91B4800F053FE0121C6E71F48FFF7CBF8B0FA80F11C484909FFF7BEF848
:2035C000164906A8FFF7F8F806A90CA800F040FE0921FFF7C8F806A801F0C8F8104906A821
:2035E000FFF7EAF806A90CA800F032FE1049FFF79FF906A801F0BAF80B4906A8FFF7DCF86C
:2036000006A90CA800F024FE044608481EE500BF3F1B0100800F0010CC0E0010111B0100C8
:20362000511B0100171B01001B1B0100F40D0010441B0100034BD3F88C0008B1FFF78EBCA4
:20364000704700BF60110010F0B5874CCFB087490CA8FFF7B1F80CA9204600F0F9FD002137
:20366000FFF781F80CA801F081F881490CA8FFF7A3F80CA9204600F0EBFD0021FFF773F839
:203680000CA801F073F87B490CA8FFF795F80CA9204600F0DDFD0021FFF765F80CA801F021
:2036A00065F875490CA8FFF787F80CA9204600F0CFFD0021FFF757F80CA801F057F86F49DD
:2036C0000CA8FFF779F80CA9204600F0C1FD002600210027FFF747F80CA801F047F86849CE
:2036E0000CA8FFF769F80CA9204600F0B1FD0021FFF739F80CA801F039F862490CA8FFF793
:203700005BF80CA9204600F0A3FD0021FFF72BF80CA801F02BF85C490CA8FFF74DF80CA960
:20372000204600F095FD0021FFF71DF80CA801F01DF856490CA8FFF73FF80CA9204600F030
:2037400087FD0021FFF70FF80CA801F00FF850490CA8FFF731F80CA9204600F079FD00210D
:20376000FFF701F80CA801F001F84A490CA8FFF723F80CA9204600F06BFD0021FEF7F3FFE9
:203780000CA800F0F3FF44490CA8FFF715F80CA9204600F05DFD0021FEF7E5FF0CA800F04C
:2037A000E5FF3E490CA8FFF707F80CA9204600F04FFD32463B46FEF7E9FF0CA800F0D6FF4F
:2037C00037490CA8FEF7F8FF0CA9204600F040FD32463B46FEF7DAFF0CA800F0C7FF00232D
:2037E000304D684629468DF83030CDE90D33FEF7E3FF69460CA800F02BFD2946064606A899
:20380000FEF7DAFF06A9204600F022FD0146304600F075FD06A800F0A9FF684600F0A6FF0E
:20382000214906A8FEF7C8FF06A90CA800F010FD1E49FFF77DF806A800F098FF0CA96846EA
:2038400000F0F8FC694606A801F094F906A8FFF7ABFA06A800F08AFF684600F087FF0CA861
:2038600000F04CFB4FB0F0BD800F00100C1B0100211B0100261B01002B1B0100301B01008C
:20388000351B01003A1B01003F1B0100591B0100631B01006D1B0100771B0100CF1B01002B
:2038A000D51B0100031C0100511B0100811B010000B5D1B01022002101A805F089FE142209
:2038C00000210DEB020005F083FE3A230093184B05A91B6868469847164910A8FEF76CFFCF
:2038E00010A9154800F0B4FC1449FFF721F810A800F03CFF059AC2B9069B114910A806F000
:2039000051FADDE907230E4910A806F04BFA09490AA8FEF751FF0AA9074800F099FC10A999
:20392000FFF706F80AA800F021FF51B05DF804FBD8010010031C0100800F00104918010072
:20394000481B010070B50024E0B006468DF87840CDE91F4406F0DEFB4FF0FF33059301238C
:2039600030440AAD049003A91EA8CDE908548DF8284003968DF818400793FFF717F9B0B998
:203980003649079A0EA806F00DFA0EA908A801F071F803A8FEF7EEFF431C08D00A2806D0C7
:2039A0001F28F6DDC1B208A800F082FFF1E708A800F0DCFE2A490EA8FEF7FEFE0EA91EA870
:2039C00000F046FCD0F800410EA800F0CFFE25490EA8FEF7F1FE0EA91EA800F039FCD0F8C7
:2039E00000110EA8019100F0C1FE631E0199072B08D8DFE803F0042426282A2C2E301A484C
:203A0000FEF79CFE00231EA90EA809938DF82830089500F00FFC0EA908A800F0BBFE0EA8A0
:203A200000F0A4FE089A11491148FDF76BFC08A800F09CFE1EA800F061FA60B070BD0D4867
:203A4000DEE70D48DCE70D48DAE70D48D8E70D48D6E70D48D4E70D48D2E700BF881B0100CC
:203A6000A71B0100B31B0100240E0010BF1B0100140F00103C0E0010540E00106C0E00100E
:203A8000840E00109C0E0010B40E0010CC0E001000B50848A1B0FCF7E9FD38B16A226946BB
:203AA0000548FDF719FC6846FFF74CFF21B05DF804FB00BFE40E0010140F00102DE97043DF
:203AC000044699460E469046FDF76EFC636B23B994F838300BB1FDF78FF804F12805B54247
:203AE00007D02846FCF766FC1DB131462846FDF791FA42464B462046FCF7A6FEBDE870438C
:203B0000FDF75CBC38B504460D461022002105F05FFD0CB12B682360014BE36038BD00BF55
:203B2000DC1501000000000000B51B4B8BB00AA941F8243D02A8FFF7E5FF02A906A8FDF71F
:203B400069FA164A06A900231548FFF7B7FF06A8FCF730FC02A8FCF72DFC124B0AA941F8EB
:203B6000283D02A8FFF7CEFF02A906A8FDF752FA07A3D3E9002306A90B48FFF79FFF06A80D
:203B8000FCF718FC02A8FCF715FC0BB05DF804FB404B4C00000000001128000080969800A3
:203BA00090100010092E0000201100107FB54FF08040FDF77DFF2A4B4FF4E131DA685B686B
:203BC00028481360FCF728FD0022012308212548FCF735FD244B06A941F8183D02A8FFF79D
:203BE00091FF002202A91F48FCF7A6FD02A8FCF7E1FB4FF07E50FDF75BFF4FF4E1311B48DF
:203C0000FCF70AFD4FF08040FDF752FF184B06A941F8143D02A8FFF775FF1648FCF7CAFBA0
:203C200002A91448FDF7F6F902A8FCF7C3FB124800F0B2FC02F076FD104B1860FFF738FEE3
:203C4000FFF702FDFFF770FF4FF07E50FDF730FF0B4805F01DFD0A490A48FDF753FBFEE7AC
:203C6000EC100010E40E0010913A0000F011001035360000D811001088100010E810001046
:203C8000061C0100140F00102DE9F34100244E4D4E484F4E2A464F494F4F0470C0E901448A
:203CA000FDF768FC3046FEF72FFE30464B4E2A463946FDF75FFC3046FEF726FE39464FF476
:203CC00016572A463046FDF755FC224644494548FEF70AFEDFF8A081224643494348FEF761
:203CE00003FE224642494348FEF7FEFD424E23460097424A42494046FCF76CFC4046DFF870
:203D00007C812A463146FDF735FC234600973D4A3D494046FCF75EFC4046DFF864812A4608
:203D20003146FDF727FC23460097384C384A39494046FCF74FFC2A4631464046FDF71AFC32
:203D4000354A3649204600F09BFB2A4634492046FDF710FC012233493348FEF7C5FD012232
:203D600032493348FEF7C0FD012232493248FEF7BBFD012231493248FEF7B6FD012231497A
:203D80003148FEF7B1FD012230493148FEF7ACFD012230493048FEF7A7FD01222F49304894
:203DA000FEF7A2FD01222F492F48FEF79DFD01222E492F48FEF798FD02212E4802B0BDE843
:203DC000F04100F0ADBB00BFC8000010800F0010901000105B270000CD08000020110010DC
:203DE00032C00920EC10001033C00920D010001034C00920041100107905000003C00920E4
:203E000002C0092010C009200FC00920601100100BC009200AC0092045C0092044C0092003
:203E2000853E000035C00920240E001036C009203C0E001037C00920540E001038C0092033
:203E40006C0E001039C00920840E00103AC009209C0E00103BC00920B40E00103CC009201C
:203E6000CC0E001040C00920F40D001041C009200C0E001088100010F0110010E40E00100F
:203E8000300F001010B504467830FCF793FA04F11800FCF7F5FA204610BD10B50446006803
:203EA00000F006FD204610BD00F1080373B5044603600D46E1B1084606F02CF90F2805EB96
:203EC0000006019007D9002201A9204600F02AFC019B2060A36032462946206800F04EFC5B
:203EE00000212046019B22686360D15402B070BD014800F0E7FB00BFDC1B0100F8B5037854
:203F00000446052B28D0062B0DD0042B08D1D0F800512DB1284600F029FC2846FDF788FCB9
:203F200000232370F8BD002500F10C06A368AB4226DD56F8047B2FB13846FFF7DFFF384676
:203F4000FDF776FCF76C2FB1384600F00FFC3846FDF76EFC0135E9E7002500F1AC076368C9
:203F6000AB420ADD57F8046B2EB13046FFF7C6FF3046FDF75DFC0135F1E700236360CFE732
:203F80000023A360CCE773B502ADD0E9004645F8041D2644331B002B05DD14F8011B2846B9
:203FA000FFF77BFFF6E702B070BD00002DE9F04F074689B008AC44F8181D0D4620462221D9
:203FC000FFF76BFFDFF8D8903E68DFF8D8A0D7E9003213449E424CD032780C2A3BD007D83E
:203FE000092A3ED00A2A38D0082A06D1254924E0222A21D01AD80D2A31D01F2A01D97F2A96
:2040000031D14FF0000B494620460DF1200805F0C9FE48F81C5D14F80B1040460BF1010B0F
:20402000FFF73BFFBBF1060FF5D110E02F2A10D05C2AE2D1144900E051462046FFF734FF04
:2040400020462946FFF79FFF204600F08FFB0136BDE70E49F1E70E49EFE70E49EDE70E495E
:20406000EBE70E49E9E7029531782046FFF715FFEDE7222120460295FFF70FFF09B0BDE821
:20408000F08F00BF271C0100211C0100241C01002A1C01002D1C0100301C0100331C0100F1
:2040A000361C01001E1C01001FB50B780446032B24D8DFE803F00209121A11492046FFF700
:2040C000F3FE204604B010BD91F800110D4A0E4B002914BF11461946F0E7D1F8002101A8A2
:2040E0000A4905F05FFE01A9E8E701F58071D1E9002301A8064905F055FEF4E70021DDE7DE
:20410000481C01003D1C0100421C01004D1C0100501C010038B5052313290446037018DCA8
:2041200045688D420FD14FF48470FDF775FB00230370C0E90133636804EB85050133C5F8E0
:20414000AC00636038BD04DD00EB8104D4F8AC00F8E74FF48470FDF75FFB00230370C0E98F
:204160000133EFE72DE9F043037887B0052B05460C460AD0062B28D0042B4FD1D0F8000152
:20418000FFF714FF07B0BDE8F08306AE46F8181D30465B21FFF781FE00276B68BB420EDDD7
:2041A00027B12C2130460094FFF777FE39462846FFF7B0FF2146FFF7D5FF0137EDE75D2118
:2041C00000943046FFF769FEDCE706AE46F8181D30467B21FFF761FE002705F10C08AB68E3
:2041E000BB4218DD27B12C2130460094FFF755FED8F850002146FFF7D9FE3A21304600949C
:20420000FFF74BFED8F80000214608F10408FFF7A9FF0137E3E700947D21D2E701466846A3
:20422000FFF742FF68462146FFF7ADFE684600F09DFAA7E710B5044604F108032360002319
:204240000846636023722146FFF78CFF204610BDF8B50646062304460F46002506F85C3B22
:20426000A368AB420CDD56F8043B3868196805F073FE18B904EB8504E068F8BD0135EFE7F7
:20428000142B08BF13234FF0180008BFA360FDF7C3FA0546394600F06DFCA3684FF48470AB
:2042A00004EB8303DD65FDF7B7FA00230370C0E90133A36804EB83020133D060A360DCE786
:2042C000F8B504460F46002500F15C06A368AB420CDD56F8043B3868196805F03DFE18B98A
:2042E00004EB8504E068F8BD0135EFE74FF48470FDF792FA00230370C0E90133F3E72DE923
:20430000F04188428CB005460C4639D0FFF7F6FD23782B70013B052B32D8DFE803F02D350F
:204320003A430309002604F1AC076368B34244DC002604F15C07A368B34221DD396868467B
:2043400000F018FC69462846FFF782FF57F8041B804606A800F00EFC06A92046FFF7B0FF2F
:2043600001464046FFF7CBFF06A800F0FFF9684600F0FCF90136DEE794F8003185F8003120
:2043800028460CB0BDE8F081D4F80031C5F80031F6E704F5807405F58073D4E90001C3E9D1
:2043A0000001EDE71820FDF737FA0646D4F8001100F0E0FBC5F80061E2E731462846FFF715
:2043C000A9FE57F8041BFFF79AFF0136ADE7034610B107C983E8070070477047034610B4A7
:2043E000446881686210E40701EB02001B6848BF8A5810BC48BFD3581847F8B500F1180658
:2044000004463046FCF730F800236169C4F88C3063680A681A42FCD00A20FDF739FB002580
:204420000127236F626E02201A60FDF731FB636907FA05F21968636801351942D4F8883011
:204440004FF002000CBF13439343C4F88830D4F888301A42E36E626E18BFC4F88C501A60C6
:20446000FDF716FB102DDCD1D4F8843004F178001B6898473046BDE8F840FBF7E9BF000011
:20448000F0B504460D46174685B01822002105F09FF829462046FCF74FFB2946002504F1C6
:2044A00018063046FBF7A6FF04F1600318461822002105F08DF83946FCF751FB0021102235
:2044C00004F1780005F084F8E36E626EC4F888501A60FCF769FF10222946684605F078F8C0
:2044E000094B6946CDE90035084B304603930294FBF7E3FF039B13B19B6868469847FCF720
:204500005DFF204605B0F0BDFB430000541C0100704710B50446FDF78BF9204610BD000057
:20452000054B19B1012904D1044A00E0044A1A607047044AFBE700BF3C120010CDCCCC3DC6
:20454000A4703D3E022B873D08B50248FBF74CFF08BD00BFCC0B001008B50248FBF744FFF0
:2045600008BD00BFCC0B001038B5084C2046FBF73BFF0748FDF71EFB05462046FBF734FFCB
:204580000449284602F022F938BD00BFCC0B00104412001000007A4470B532250024FFF7FE
:2045A000E3FF0646204602F0BDF8314602F006F802F05CFA04460A20FDF786FA013DEED12C
:2045C000322394FBF3F40A235C43204602F0AAF8014B1860204670BDDC0100102DE9F843B5
:2045E000194E1A48B6FBF1F6FCF79BF91748FCF7F6F9002481462546DFF858801348FCF73F
:20460000EEF9A0EB0900B0420DD2D8F80070FFF7ABFF0146384601F0CFFF02F027FA0134A2
:2046200000FB0055EAE70948FCF7AAF9B5FBF4F002F074F801F0DAFC0022054B0BF0D2FE7C
:2046400001F066FFBDE8F88340420F00481200100000E03FDC0100103721FFF7BFBF000011
:20466000F8B5104C104D2046FCF7CEF920462C460E4E0F493246FCF77DFF0E4F0E4B38460D
:2046800044F8043BFBF7B0FE0C492046FDF756FA3846FBF7A9FE32462846BDE8F8400849D5
:2046A000FCF768BF4812001040120010C800001003090000CC0B0010681C01001AC00920C1
:2046C0001145000038B50546082000F0DBFA2946044601F077F92046044A054901F032F828
:2046E000204600F0E7FA00F009FB00BF415900001C1E010038B50546082000F0C3FA29467F
:20470000044601F073F92046044A054901F01AF8204600F0CFFA00F0F1FA00BF9559000046
:20472000281E0100086808B500281ADB90420AD95200904207D2002A0ADBBDE808400A60D0
:20474000501CFDF769B80130BDE80840FDF764B86FF000434FF000400B60BDE80840FDF73D
:204760005BB80148FFF7C6FFD81C010050F8083B834202D01846FDF75BB87047521A012A58
:2047800003D002B9704704F04BBE0B7810B4037010BC704788422CD02DE9F041804658F877
:2047A000087B4E68B8450CBF0F22826882B0B2420D4604460CD32EB1012E29681AD10B782E
:2047C0003B70276800236660BB5502B0BDE8F08102A941F8046DFFF7A5FF07462068804555
:2047E00001D0FDF725F8019B2760A360002EE9D0E2E770473846324604F012FE2768E1E7F9
:204800002DE9F04F04460D4683B00C9E40682168914604F10808B21A024488450192A0EBBF
:20482000050714BFA2680F2201A920469B46FFF779FFA7EB0907824625B1012D216827D110
:204840000B780370BBF1000F00D0C6B920685FB12E44012F4D440AEB060300EB05011BD1B2
:20486000435D0AF806302068804501D0FCF7E0FF019BC4F800A0A36003B0BDE8F08F012E6F
:204880000AEB05000ED19BF800300AF80530DDE72A4604F0C5FDD5E73A46184604F0C0FD10
:2048A0002068E1E75946324604F0BAFDCEE700BF0346F0B553F8082B46689A420CBF0F237F
:2048C0008368751C9D4283B004460F4607D901220023009231461A46FFF792FF22680021EA
:2048E000975523686560595503B0F0BD2DE9F04F164685B0044602F100424068013A0E9D7B
:20490000121A954200F2B180224652F8088BA5EB060A90450CBF0F22A26800EB0A07BA42B9
:20492000894636D3421A921B4345029208EB010B1BD2029A5AB1AE4209D0012A0BEB0500F8
:204940000BEB060149D11BF806200BF8052025B1012D24D11B7808F8093000222046236807
:204960006760DA5505B0BDE8F08F40448342E0D815B3AE4239D2029A1ABB5E445A19964246
:2049800044D3012DE6D02A461946584604F0BEFDE3E7009532462046FFF732FFDDE72A4668
:2049A0001946584604F03CFDD7E719462A465846039304F0ABFD039B029A002ACDD0AE427F
:2049C000CBD0029A0BEB0500012A0BEB060117D11BF806200BF805200FE0029A039304F01F
:2049E00095FD039B002DB3D1B7E7012DDDD11A7808F80120029A002AE1D1AE42BDD3ACE71E
:204A0000029A039304F082FD039BF6E79E4208D8012D03EB0A0118D02A46584604F000FDA8
:204A20009BE7F61A012E0CD0CEB9AA1B012A0BEB06000BEB05010DD0002A8ED004F0F0FC25
:204A40008BE71B7808F80930EFE713F80A3008F8093082E71BF805300BF806307DE7194617
:204A60003246584604F052FDDFE70148FFF742FE781C010030B5044683B008460D4605F00B
:204A800049FB62682B46009000212046FFF72EFF03B030BDF0B5044650F8085B676885428D
:204AA0000CBF0F20A068BE18864283B00DD832B1012A05EB070011D10B78EB5525680023E4
:204AC00020466660AB5503B0F0BD00920B46002239462046FFF794FE2568F0E704F0A0FCE4
:204AE0002568ECE738B5044608460D4605F012FB6FF0004362689B1A834205D30246294607
:204B00002046FFF7C7FF38BD0148FFF7F3FD00BFC01C010070B5054682B0F1B1541A0F2CC6
:204B20000E4601940CD80268012C104619D10B7813702A680021019B6B60D15402B070BDAD
:204B4000002201A9FFF7EEFD019B2860AB602246314604F065FC2A68ECE72AB90192026800
:204B6000E8E7002CE6D0F2E70148FFF7ABFD00BF941C010010B5044600F108030360D1E92C
:204B8000003219461A444FF00003FFF7C3FF204610BD00BFFCF74CBEF0B4204CA0F108068E
:204BA00063682BB350F8087CF519AB4220D81AD0596851B38D4204D32BE095420B4604D22F
:204BC00011464A681C1D002AF7D1954215D023681A6899188E4215D05B6840E90273236886
:204BE0005E60F0BC7047D3E90023174440F8087C40F8043C6660F0BC7047D5E900231744C1
:204C00004B60E4E717441F60F5E70A4604341946DBE70A4604341946D7E700BF68120010D1
:204C200030B4174C00F108026368082A38BF082203B30732196822F007028A4204D81BE0E6
:204C400001688A4205D9034658680028F8D130BC704704338C1A072C456808D981184D60C0
:204C60008450186802601960083030BC704701601D60F9E71846EAE71846231DEAE700BF0F
:204C80006812001010B500F18004204604F0E0F838B1034680220021184604F099FC803092
:204CA00010BD2046FFF7BCFF03460028F2D100F0D3FC00BF064A80389368984203D9D2686B
:204CC0001344984201D304F0CBB8FFF765BF00BF6812001038B54FF41E65074C2846E5603C
:204CE00004F0B6F8A06020B100236060C0E9005338BDE060606038BD681200101EB400F02C
:204D00008DF81EBC02F0E6FDF0B5027883B0472A0D461F461ED00023254C019323682046DD
:204D20009B68984780B10226019B1B6801932B68214628461C6901AA0123A04730B130468B
:204D4000019B3B6003B0F0BD0126F0E70646304603B0F0BD43784E2BDDD18378552BDAD194
:204D6000C378432BD7D10379462B15D00379432BD1D143792B2BCED183792B2BCBD1C379A9
:204D8000012BC8D850F8204C02D058300190C5E7204654F8784CF9E743794F2BE6D18379BD
:204DA000522BE3D1C379002BE0D10193014CB5E70C1D0100041D010010B5044600F0FEF8EC
:204DC0002378A4F12002472B04D0836823BB8260012010BD63784E2BF7D1A378552BF4D126
:204DE000E378432BF1D12379432BEED163792B2BEBD1A3792B2BE8D1E379012BE5D854F8B5
:204E0000043C0133012B44F8043CE1D1836844F8083C8260012010BD00F01EFC08B500F0D2
:204E2000CDF8836883B393F82020472A04D00022826003F1200008BD93F821204E2AF6D194
:204E400093F82220552AF2D193F82320432AEED193F82420432AEAD193F825202B2AE6D176
:204E600093F826202B2AE2D193F82720012ADED8DA69013ADA61002ADBD100229969816012
:204E80009A6103F1200008BD00F0E6FB38B5044600F094F822780368472AA4F1200104D0BA
:204EA0008BBB1C460160204638BD62784E2AF7D1A278552AF4D1E278432AF1D12279432A85
:204EC000EED162792B2AEBD1A2792B2AE8D1E279012AE5D854F80C2C002A11DB0132456841
:204EE0008B4205F1FF3544F80C2C45601CBF44F8103C01602046646A02F024F9204638BD40
:204F0000C2F10102EBE700F0A7FB00BF08B500F051F80246006870B390F82030472B06D0CF
:204F2000002320301360BDE8084002F00DB990F821304E2BF4D190F82230552BF0D190F82C
:204F40002330432BECD190F82430432BE8D190F825302B2BE4D190F826302B2BE0D190F87B
:204F60002730012BDCD84369002B05DB013B002B07D00DDB436108BD0133FBD101691160D9
:204F8000F8E7036920301360BDE8084002F0DCB800F062FB704700BF704700BF0048704758
:204FA000F01C010010B504460421FFF7F3FD204610BD00BF00487047781200100048704740
:204FC000781200105028F8B51CD000F00F040C2C56D8DFE804F0074151071F5555555527C8
:204FE00023071F00144654F8045B45B100F07006102E08BF114602060D4448BF2D681D6039
:205000002046F8BD033222F0030454F8045B1D602046F8BD144654F8085BE6E7144634F987
:20502000025BE2E7002514462F4614F801CB0CF07F06BE401CF0800F45EA060507F1070724
:20504000F3D11F2FD1D81CF0400FCED04FF0FF3606FA07F73D43C9E7002514462F4614F8FA
:2050600001CB0CF07F06BE401CF0800F45EA060507F10707F3D1B8E7144634F8025BB4E729
:2050800002F02EFE00F07000202811D00BD9402806D050280AD030280DD1084602F016BEAB
:2050A000084602F003BE08B1102804D100207047084602F00FBE08B502F012FEF8B50C4687
:2050C0001546074608B102F0F1FD286026780134FF2E28D168602378601CFF2B2B7532D063
:2050E0000024102322462B7510F8011B01F07F039340090644EA030402F10702F4D4044497
:20510000EC6000242246037801306B7510F8011B01F07F0393401C430B0602F10702F5D48C
:2051200004442C61F8BD39463046FFF7ABFF224601462B1D3046FFF745FF04462378601C48
:20514000FF2B2B75CCD10023EB60DAE700232DE9F04F00F0030499B0012C884617460C930A
:2051600000F095800DD3022C40F05F823946404602F086FD002800F09A80092019B0BDE8C8
:20518000F08F0207F2D401230493002318AA42F82C8D009219460C22384601F0FDFF384626
:2051A00002F08AFD05900028E0D012AB1A46059938460693FFF782FF05469DF85C00FF285D
:2051C00000F0E4803946FFF75DFF044600230DF1440B1946CDF800B00F223846149401F0D4
:2051E000B9FF119E169B26F001069D4206F1FF3680F0D3800DF13C0A0DF140099DF85D40EF
:205200000021FF2C03D02046FFF73CFF01462A4620465346FFF7D6FE9DF85D400546FF2CB0
:205220004FF0000103D02046FFF72CFF01462A4620464B46FFF7C6FE9DF85D400546FF2CC4
:205240004FF0000103D02046FFF71CFF01462A4620465B46FFF7B6FE00240546214615F879
:20526000012B02F07F038B401C43130601F10701F5D4129B0F9A1344B3421FD9049BDB076D
:2052800000F19180049B1C0715D500F0E5F910F008041CD018AA42F82C1D009244F0020489
:2052A00019460C223846049401F076FF77E7082019B0BDE8F08F404600F0B4FC109A13444B
:2052C000B34200F28880169BAB4297D8D6E712AB009306930D22234621463846D8F820506F
:2052E00001F038FF129B9D4202D0022304934CE718AB43F82C8D0093214623460C22384673
:2053000001F04AFFD8F830300393002BD3D0D8F828300DF13C0A1A46D8F82C300DF1400980
:2053200005931346002B1C46C0F228810325002318AA42F8288D1946009238461A4601F0D8
:205340002BFF002301221946CDF800A038460F9401F022FF00230F221946CDF80090384660
:2053600001F0F8FE0023109A039C02F001021443CDF80090384619460F22109401F00CFF8B
:20538000022D05D0072019B0BDE8F08F00241DE74046FFF711FD0720F0E6049BD9077FF553
:2053A00071AF0DF140090024039400230D221946CDF8009038460C9D01F0CCFE059A109B99
:2053C000C8F82C20039AC8E90954C8F83020C8F820300620D2E6119B002B3FF4C7AE139AEC
:2053E0009A180392002C00F0F180169B013C2344002A3FF4BBAE002B00F0F980049A12F08A
:205400000802099200F0048147254E245520432146224F264FF0520C4FF0000E88F8005024
:2054200088F8014088F8020088F8031088F8042088F8056088F806C088F807E00022CDE988
:205440000A7A0792CDF820900024214600E02B461D4615F8010B00F07F028A40060644EAED
:20546000020401F10701F2D41F2905D8400603D501228A40524214430026A146314613F8BC
:20548000010F00F07F028A401643020601F10701F5D41F2905D8470603D501238B405B42C7
:2054A0001E43002C4CD04EDC159B04F1010ACAEB8A7203EB820753F82210B8F1000F01D03B
:2054C000099B2BB151B3002E00F08A80AB19BBE70C9B119329B990E057F8041F002900F092
:2054E0008C8039445B4600224046FFF70DFC0028F2D0E8E7E3005B42159A14991A44089B45
:20550000FFF760FD109949B1B8F1000FDBD00CAB00224046FFF7F8FB0028D4D0049B4A46EF
:20552000DDE90A7AD807DDF820903FF53EAF099B002B3FF4F6AE002CBFF6F8AE00F09AF8ED
:2055400001230793BFE79DF85C00FF283AD000F00703042B69D801A252F823F0775500008F
:205560002B5600007155000077550000F554000063005B42C0E7A3005B42BDE701331D46AD
:20558000DDE905123846FFF799FD9DF85C00FF281AD03946FFF776FDC5EB8572159D92004F
:2055A0001490AB58154433B12A46002352F8041F01330029FAD10422C8E90A30C8E90C25EC
:2055C0000325B4E6002397E70020E5E7039B002B3FF4CCAD049BDA073FF5C8AD0225A6E62B
:2055E000DDE90A7ADDE90739002B3FF4BFAD049BDD073FF5BBAD0024F0E7049B5546DE0758
:205600000A9FDDF82CA0DDF820903FF5CEAEB7E798F80720012A0CBF58F8202C08F15802D1
:205620000C920BE7FFF732FC2FE602F059FB00BF08B5804702F054FBFFF728FC02F050FB80
:205640000D460446FFF762FC013501D0FFF756FB204600F0F7FA00BF08B5034B1868BFF3C8
:205660005B8FFFF7E5FF00BFE401001008B58047FFF7F2FF08B5034B1868BFF35B8FFFF72A
:20568000F5FF00BFE0010010024B1868BFF35B8F704700BFE4010010024B1868BFF35B8F29
:2056A000704700BFE0010010012810B51AD8BFF35B8FA1F1280353E8002F013A43E800205A
:2056C0000028F8D1BFF35B8F5AB951F81C3C01F158040BB1204698472046BDE81040FFF7E9
:2056E000E9BA10BD51F8140CFFF7A2FFF8B5002540E91E1240F8805C0446FFF7CDFF44F8B3
:20570000700CFFF7C1FF472143222B234E27552604F8581C0A4904F8515C04F8577C04F815
:20572000566C44F8501C04F8552C04F8542C04F8533C04F8523C44F86C0CA4F18000F8BD73
:20574000A9560000F8B505460E461746FFF736FC044643683A460133314663602846FFF732
:20576000C5FF0123044644F8283B204602F0A0F82046FFF78BFBFFF76FFF00BF10B5FFF7A8
:205780001DFCD0E900420132426064B194F82020472A0AD0002202602034204602F0ACF820
:2057A0002046FFF773FBFFF757FF94F821204E2AF0D194F82220552AECD194F82320432A87
:2057C000E8D194F82420432AE4D194F825202B2AE0D194F826202B2ADCD194F82720012A75
:2057E000D8D8626952426261D6E700BF10B50446024B036000F09CF9204610BDE01D0100E6
:2058000010B50446044B036000F092F920460C21FFF7C0F9204610BDE01D010070B582B082
:20582000069C0E469442054609D0A8683146056806942C6AA44602B0BDE87040604719465D
:205840000192009300F064F8DDE900320028ECD0062002B070BD00BF2DE9F04F894681B0E1
:205860001946DDE90A4ADDE90CB81D461646074600F04EF888B1B9F1000FC8F8004088F871
:2058800004601BDB4C44A3450CBF0624012488F80640002001B0BDE8F08F5C4515D0B868BB
:2058A0002B460568CDE90CB8CDE90A4AEC6932464946A44601B0BDE8F04F604719F1020FE9
:2058C000E7D1012388F80630E3E75146384600F01FF80028E3D088F80560DAE72DE9F04188
:2058E00007460C4615461E4600F05CF908B1BDE8F081B868334606682146B4692A46A44651
:20590000BDE8F041604700BF704700BF0020704781420FD008B5406803782A2B0CD049689A
:205920000B782A2B08BF013104F016FBB0FA80F0400908BD01207047002008BD406870474D
:2059400010B5044643680C4A0C49A3F10C00904282B0216005D12046FFF71CFB204602B05C
:2059600010BD53F8042C511E002A43F8041CF2DC01A900F071F8EEE784120010601E010020
:2059800010B50446FFF7DCFF2046FBF751FF204610BD00BF10B50446024B0360FFF7D0FF09
:2059A000204610BD741E010010B50446044B0360FFF7C6FF2046FBF73BFF204610BD00BF21
:2059C000741E010010B5084B82B0044601AA40F8043B00F075F8204602B010BD2046FFF7E0
:2059E000D9FAFFF78BF900BF601E010010B50446FFF7E8FF014B2046236010BD741E01009B
:205A0000134B10B598421FD88842044614D94A00904238BF144604F11D02B2F5805F04F195
:205A20000D000BD9A14209D204F58054C2F30B02A41A9C4228BF1C4604F10D00FBF7ECFE65
:205A40000022C0E9014210BD0248FEF753FE00BFFCFFFF3FAC1E0100FBF7EABE884215D0CF
:205A600070B5054610B30C1A20460021FFF7C8FF012C064600F10C0305D054B90D4A9642FF
:205A80000ED1184670BD2A780273F7E70A4B1846704718462946224603F0C2FC0346EDE73A
:205AA000002231193460B2600A73EAE70348FEF709FE00BF8412001090120010801E010089
:205AC00070B5054616460C4661B1084604F022FB2118324620464FF00003FFF7BFFF2860A2
:205AE000284670BD4FF0FF31F3E700BF70B500241026036884B01546CDE9026412689E69ED
:205B000000946B468DF80440B0479DF8043003F00603062B09BF01202046009B2B6004B061
:205B200070BD00BF009890420CBF06200120704710B50446024B0360FFF7E6FE204610BD7A
:205B4000FC1E010010B50446044B0360FFF7DCFE20460821FFF71EF8204610BDFC1E0100B0
:205B60002DE9F041069D089990468D421F460646099C0CD039463046FFF7CAFE20B101231B
:205B8000256084F80480A3710020BDE8F0810799FFF7BEFE0028EDD084F805800020BDE839
:205BA000F08100BF38B515461C46FFF7B1FE20B1082206232560E260237138BD2DE9F041AB
:205BC00017461C4606460D46FFF7A2FE08B9032C01D9BDE8F0812B683A4631462846BDE854
:205BE000F0415B69184700BF0378472B01D00020704743784E2BFAD18378552BF7D1C37880
:205C0000432BF4D10379432BF1D143792B2BEED183792B2BEBD1C07901288CBF00200120D8
:205C2000704700BF10B530B10446FFF72FF92046FFF7DAFF08B9FFF70FFD54F8140CFFF786
:205C4000F7FC00BF2DE9F04F85B00246FFF7CCFF60B1D2E90C7452F8188C104652F8145CB5
:205C6000966AFFF713F94046FFF700FD1046FFF70DF9FFF7FFFCFFF709F9FFF7EDFC4FF050
:205C80000008FFF703F9FFF795F9C14603680DF1100A93F8272027F0030B012A0CBF1A688D
:205CA00003F17802203301934AF8082DB1451BDA276807B127445346002239460198FFF7B2
:205CC00023F8E8B93B6804AA1B6942F8040D0093384601231049009FB847002818BF8046F7
:205CE00009F101095C44E1E7B8F1000F10D00420FEF7C8FF094B0A4A03600749FFF722FD50
:205D0000FFF73CFDFFF702F9FFF700F9FEF7F6FF2846FFF78DFC00BF141D0100981D0100F6
:205D2000994F000081F0004102E000BF83F0004330B54FEA41044FEA430594EA050F08BF35
:205D400090EA020F1FBF54EA000C55EA020C7FEA645C7FEA655C00F0E2804FEA5454D4EBFE
:205D60005555B8BF6D420CDD2C4480EA020281EA030382EA000083EA010180EA020281EA67
:205D80000303362D88BF30BD11F0004F4FEA01314FF4801C4CEA113102D0404261EB410172
:205DA00013F0004F4FEA03334CEA133302D0524263EB430394EA050F00F0A780A4F1010469
:205DC000D5F1200E0DDB02FA0EFC22FA05F2801841F1000103FA0EF2801843FA05F359419F
:205DE0000EE0A5F120050EF1200E012A03FA0EFC28BF4CF0020C43FA05F3C01851EBE371CD
:205E000001F0004507D54FF0000EDCF1000C7EEB00006EEB0101B1F5801F1BD3B1F5001F8E
:205E20000CD349085FEA30004FEA3C0C04F101044FEA445212F5800F80F09A80BCF1004F53
:205E400008BF5FEA500C50F1000041EB045141EA050130BD5FEA4C0C404141EB010111F4A1
:205E6000801FA4F10104E9D191F0000F04BF01460020B1FA81F308BF2033A3F10B03B3F1F6
:205E800020020CDA0C3208DD02F1140CC2F10C0201FA0CF021FA02F10CE002F11402D8BF72
:205EA000C2F1200C01FA02F120FA0CFCDCBF41EA0C019040E41AA2BF01EB0451294330BD57
:205EC0006FEA04041F3C1CDA0C340EDC04F11404C4F1200220FA04F001FA02F340EA0300D7
:205EE00021FA04F345EA030130BDC4F10C04C4F1200220FA02F001FA04F340EA030029463A
:205F000030BD21FA04F0294630BD94F0000F83F4801306BF81F480110134013D4EE77FEAB0
:205F2000645C18BF7FEA655C29D094EA050F08BF90EA020F05D054EA000C04BF194610462C
:205F400030BD91EA030F1EBF0021002030BD5FEA545C05D14000494128BF41F0004130BDDD
:205F600014F580043CBF01F5801130BD01F0004545F0FE4141F470014FF0000030BD7FEA40
:205F8000645C1ABF194610467FEA655C1CBF0B46024650EA013406BF52EA033591EA030FE0
:205FA00041F4002130BD00BF90F0000F04BF0021704730B54FF4806404F132044FF000053A
:205FC0004FF0000150E700BF90F0000F04BF0021704730B54FF4806404F1320410F00045E5
:205FE00048BF40424FF000013EE700BF42004FEAE2014FEA31014FEA02701FBF12F07F43DE
:2060000093F07F4F81F06051704732F07F4208BF704793F07F4F04BF41F40021704730B5EF
:206020004FF4607401F0004521F000411CE700BF50EA010208BF704730B54FF000050AE031
:2060400050EA010208BF704730B511F0004502D5404261EB41014FF4806404F132045FEAD8
:20606000915C3FF4D8AE4FF003025FEADC0C18BF03325FEADC0C18BF033202EBDC02C2F13E
:20608000200300FA03FC20FA02F001FA03FE40EA0E0021FA02F11444BDE600BF70B54FF078
:2060A000FF0C4CF4E06C1CEA11541DBF1CEA135594EA0C0F95EA0C0F00F0DEF82C4481EAC0
:2060C000030621EA4C5123EA4C5350EA013518BF52EA033541F4801143F4801338D0A0FB75
:2060E00002CE4FF00005E1FB02E506F00042E0FB03E54FF00006E1FB03569CF0000F18BFE2
:206100004EF0010EA4F1FF04B6F5007F64F5407404D25FEA4E0E6D4146EB060642EAC621EA
:2061200041EA55514FEAC52040EA5E504FEACE2EB4F1FD0C88BFBCF5E06F1ED8BEF1004F7A
:2061400008BF5FEA500E50F1000041EB045170BD06F0004646EA010140EA020081EA0301D9
:20616000B4EB5C04C2BFD4EB0C0541EA045170BD41F480114FF0000E013C00F3AB8014F1AF
:20618000360FDEBF002001F0004170BDC4F10004203C35DA0C341BDC04F11404C4F120055C
:2061A00000FA05F320FA04F001FA05F240EA020001F0004221F0004110EBD37021FA04F6E9
:2061C00042EB06015EEA430E08BF20EAD37070BDC4F10C04C4F1200500FA04F320FA05F012
:2061E00001FA04F240EA020001F0004110EBD37041F100015EEA430E08BF20EAD37070BD05
:20620000C4F1200500FA05F24EEA020E20FA04F301FA05F243EA020321FA04F001F00041F5
:2062200021FA04F220EA020000EBD3705EEA430E08BF20EAD37070BD94F0000F0FD101F0D5
:206240000046400041EB010111F4801F08BF013CF7D041EA060195F0000F18BF704703F0D4
:206260000046520043EB030313F4801F08BF013DF7D043EA0603704794EA0C0F0CEA1355FC
:2062800018BF95EA0C0F0CD050EA410618BF52EA4306D1D181EA030101F000414FF0000052
:2062A00070BD50EA410606BF1046194652EA430619D094EA0C0F02D150EA013613D195EA08
:2062C0000C0F05D152EA03361CBF104619460AD181EA030101F0004141F0FE4141F4700136
:2062E0004FF0000070BD41F0FE4141F4780170BD70B54FF0FF0C4CF4E06C1CEA11541DBFA5
:206300001CEA135594EA0C0F95EA0C0F00F0A7F8A4EB050481EA030E52EA03354FEA01315A
:2063200000F088804FEA03334FF0805545EA131343EA12634FEA022245EA111545EA106595
:206340004FEA00260EF000419D4208BF964244F1FD0404F5407402D25B084FEA3202B61ACA
:2063600065EB03055B084FEA32024FF480104FF4002CB6EB020E75EB030E22BFB61A754625
:2063800040EA0C005B084FEA3202B6EB020E75EB030E22BFB61A754640EA5C005B084FEA47
:2063A0003202B6EB020E75EB030E22BFB61A754640EA9C005B084FEA3202B6EB020E75EB74
:2063C000030E22BFB61A754640EADC0055EA060E18D04FEA051545EA16754FEA06164FEA64
:2063E000C30343EA52734FEAC2025FEA1C1CC0D111F4801F0BD141EA00014FF000004FF0AC
:20640000004CB6E711F4801F04BF01430020B4F1FD0C88BFBCF5E06F3FF6AFAEB5EB030C92
:2064200004BFB6EB020C5FEA500C50F1000041EB045170BD0EF0004E4EEA113114EB5C0431
:20644000C2BFD4EB0C0541EA045170BD41F480114FF0000E013C90E645EA060E8DE60CEACC
:20646000135594EA0C0F08BF95EA0C0F3FF43BAF94EA0C0F0AD150EA01347FF434AF95EAE5
:206480000C0F7FF425AF104619462CE795EA0C0F06D152EA03353FF4FDAE1046194622E751
:2064A00050EA410618BF52EA43067FF4C5AE50EA41047FF40DAF52EA43057FF4EBAE12E7E2
:2064C0004FEA410212F5001215D211D56FF47873B3EB625212D94FEAC12343F0004343EA0F
:2064E000505311F0004F23FA02F018BF404270474FF00000704750EA013005D111F0004012
:2065000008BF6FF0004070474FF00000704700BF4FEA4102B2F1E04324BFB3F5001CDCF1F3
:20652000FE5C0DD901F0004C4FEAC0024CEA5070B2F1004F40EB830008BF20F001007047BE
:2065400011F0804F21D113F13872BCBF01F00040704741F480114FEA5252C2F11802C2F145
:20656000200C10FA0CF320FA02F018BF40F001004FEAC1234FEAD32303FA0CFC40EA0C004B
:2065800023FA02F34FEA4303CCE77FEA625307D150EA01331EBF4FF0FE4040F440007047CE
:2065A00001F0004040F0FE4040F40000704700BF80F0004002E000BF81F0004142001FBF6F
:2065C0005FEA410392EA030F7FEA226C7FEA236C6AD04FEA1262D2EB1363C1BFD2184140AC
:2065E00048404140B8BF5B42192B88BF704710F0004F40F4000020F07F4018BF404211F090
:20660000004F41F4000121F07F4118BF494292EA030F3FD0A2F1010241FA03FC10EB0C004E
:20662000C3F1200301FA03F100F0004302D5494260EB4000B0F5000F13D3B0F1807F06D361
:2066400040084FEA310102F10102FE2A51D2B1F1004F40EBC25008BF20F0010040EA030013
:206660007047490040EB000010F4000FA2F10102EDD1B0FA80FCACF1080CB2EB0C0200FA0C
:206680000CF0AABF00EBC25052421843BCBFD0401843704792F0000F81F4000106BF80F4CC
:2066A00000000132013BB5E74FEA41037FEA226C18BF7FEA236C21D092EA030F04D092F0B7
:2066C000000F08BF0846704790EA010F1CBF0020704712F07F4F04D1400028BF40F0004067
:2066E000704712F100723CBF00F50000704700F0004343F0FE4040F4000070477FEA22624B
:2067000016BF08467FEA23630146420206BF5FEA412390EA010F40F4800070474FF0000333
:2067200004E000BF10F0004348BF40425FEA000C08BF704743F0964301464FF000001CE089
:2067400050EA010208BF70474FF000030AE000BF50EA010208BF704711F0004302D540423B
:2067600061EB41015FEA010C02BF84460146002043F0B64308BFA3F18053A3F50003BCFA98
:206780008CF2083AA3EBC25310DB01FA02FC634400FA02FCC2F12002BCF1004F20FA02F234
:2067A00043EB020008BF20F00100704702F1200201FA02FCC2F1200250EA4C0021FA02F2A2
:2067C00043EB020008BF20EADC7070474FF0FF0C1CEAD0521EBF1CEAD15392EA0C0F93EA28
:2067E0000C0F6FD01A4480EA010C400218BF5FEA41211ED04FF0006343EA501043EA5111FA
:20680000A0FB01310CF00040B1F5000F3EBF490041EAD3715B0040EA010062F17F02FD2A84
:206820001DD8B3F1004F40EBC25008BF20F00100704790F0000F0CF0004C08BF49024CEA85
:20684000502040EA51207F3AC2BFD2F1FF0340EAC250704740F400004FF00003013A5DDC51
:2068600012F1190FDCBF00F000407047C2F10002410021FA02F1C2F1200200FA02FC5FEA51
:20688000310040F1000053EA4C0308BF20EADC70704792F0000F00F0004C02BF400010F464
:2068A000000F013AF9D040EA0C0093F0000F01F0004C02BF490011F4000F013BF9D041EA72
:2068C0000C018FE70CEAD15392EA0C0F18BF93EA0C0F0AD030F0004C18BF31F0004CD8D1E2
:2068E00080EA010000F00040704790F0000F17BF90F0004F084691F0000F91F0004F14D080
:2069000092EA0C0F01D142020FD193EA0C0F03D14B0218BF084608D180EA010000F0004098
