:020000040000FA
:20000000E07F0010F11A0000211B0000231B0000251B0000271B0000291B00000000000026
:200020000000000000000000000000002B1B00002D1B0000000000002F1B0000311B00009C
:20004000331B0000331B0000331B0000331B0000331B0000331B0000331B0000331B000030
:20006000331B0000331B0000331B0000331B0000331B0000331B0000331B0000331B000010
:20008000331B0000331B0000331B0000331B0000331B0000331B0000331B0000331B0000F0
:2000A000331B0000331B0000331B0000331B0000331B0000331B0000331B0000331B0000D0
:2000C000331B0000331B0000331B0000000000000000000000000000000000000000000036
:2000E000000000000000000000000000000000000000000000000000000000000000000000
:200100000000000000000000000000000000000000000000000000000000000000000000DF
:200120000000000000000000000000000000000000000000000000000000000000000000BF
:2001400000000000000000000000000000000000000000000000000000000000000000009F
:2001600000000000000000000000000000000000000000000000000000000000000000007F
:2001800000000000000000000000000000000000000000000000000000000000000000005F
:2001A00000000000000000000000000000000000000000000000000000000000000000003F
:2001C00000000000000000000000000000000000000000000000000000000000000000001F
:2001E0000000000000000000000000000000000000000000000000000000000000000000FF
:200200000000000000000000000000000000000000000000000000000000000000000000DE
:200220000000000000000000000000000000000000000000000000000000000000000000BE
:2002400000000000000000000000000000000000000000000000000000000000000000009E
:2002600000000000000000000000000000000000000000000000000000000000000000007E
:2002800000000000000000000000000000000000000000000000000000000000000000005E
:2002A00000000000000000000000000000000000000000000000000000000000000000003E
:2002C00000000000000000000000000000000000000000000000000000000000000000001E
:2002E00000000000000000000000000000000000000000000000000000000000FFFFFFFF02
:2003000010B5054C237833B9044B13B10448AFF300800123237010BDB00A00100000000071
:20032000501E010008B5034B1BB103490348AFF3008008BD00000000B40A0010501E0100BC
:20034000154B002B08BF134B9D46A3F5803A00218B460F461348144A121A09F0E1FF0F4B59
:20036000002B00D098470E4B002B00D098470020002104000D000D48002802D00C4801F08A
:20038000F2F909F069FB2000290001F039FB01F0E7F900BF00000800E07F001000000000A0
:2003A000F1190000B00A00106D1600106717000000000000C36810B504460BB19B68984780
:2003C000204610BD884238B504460D460AD0FFF7F1FF3CB1EB681BB15B6829462046984753
:2003E000EB68E360204638BD03680BB9031D036000687047F8B50646044600250F46124B21
:20040000182246F8043B0021304609F089FF2946C4E907556562102204F1280009F080FF07
:200420002946102204F1380009F07AFF2346074A394604F11C0001F083FC3046394600F0DD
:20044000F1FA2046F8BD00BFF4100100F904000038B504460D4600F023FF2946201D01F09C
:20046000DCFBBDE8384000F031BF000010B50446074B40F81C3B01F09DFC04F13800FFF70B
:2004800099FF04F12800FFF795FF204610BD00BFF410010010B50446FFF7E8FF204601F0E3
:2004A0009DF9204610BDF0B50F46044685B000F0F7FEFD6804F138061C3465B13946304622
:2004C000FFF780FF01220221204601F07BFC00F0FDFE05B0F0BD10222946684609F020FFDF
:2004E00069463046FFF76EFF6846FFF763FF2A46E9E7C3681B681847012908B502D002293D
:2005000007D008BD436B002BFBD02830FFF7F1FFF7E7436C002BF4D03830F7E703681847D1
:2005200008B10B6803607047704703681B69184703689B69184703689B6A18474FF0FF3065
:200540007047112070477047704700F096B8A0F13000FFF7FABF00F093B8A0F13000FFF7EE
:20056000FABF000010B50446084B303003F1080240F8302C03F1280284330260436000F0A4
:20058000F3FD204600F006F9204610BD08110100A0F13000E6E7A0F13400E3E710B504469D
:2005A000FFF7E0FF204601F019F9204610BDA0F13000F3E7A0F13400F0E770477047000025
:2005C00038B504461D46049B00F062F8294604F1300000F0A1FD054B204603F10802226040
:2005E00003F1280284332263636338BD08110100704700EB01139A690C3312B11268184639
:200600001047704770B505460E46044655F8043B1B6898472846314601F09AFD2368E66290
:200620002046BDE870405B6818472DE9F04105460E4617469846044655F8043B1B68984784
:20064000434628463A46314601F048FE23682046BDE8F0415B68184738B5054655F8043BC8
:2006600004461B689847284601F086FE0546236820465B689847284638BD043001F062BE65
:2006800010B50C46043001F0A3FE204610BD00002DE9FF47044600259A46884691461F4B90
:2006A00000F10C070360C0E90155294604F11C061022384609F034FE29461022304609F063
:2006C0002FFE10222946C4F82CA0684609F028FE69463846FFF776FE6846FFF76BFE102221
:2006E0002946684609F01CFE69463046FFF76AFE251D6846FFF75EFE4A464146284601F08F
:2007000001FFE16A284601F023FD28462246044901F0FEFD204604B0BDE8F0879C1101001C
:20072000F30500002DE9FF41044616468846036804EB06151B68984700F0B2FDD8F80C2085
:200740000C35EB68271DA2B10BB900F0CBF941462846FFF737FE01223146384601F0E4FDEC
:2007600000F0B4FD236820465B68984704B0BDE8F0810BB100F0D0F910220021684609F00C
:20078000CFFD69462846FFF71DFE6846FFF712FE0022E1E77FB50446154B1022036000212D
:2007A000684609F0BDFD002269462046FFF7BAFF6846FFF7FFFD10220021684609F0B0FDAB
:2007C000012269462046FFF7ADFF6846FFF7F2FD14F10C0608D004F12C05AE4204D0103D86
:2007E0002846FFF7E7FDF8E7204604B070BD00BF9C11010010B50446FFF7CCFF204600F0F8
:20080000EDFF204610BD2DE9F048D0E90245D0E908BC06461BEB04024CEB050300F0B8F8B7
:20082000736B2BB106F128001B68BDE8F0481847BDE8F088D0B5044616461F4600F030FD56
:20084000204600F0AFF8C4E90867A06900F029FB821941EB0703204600F09AF8BDE8D040F4
:2008600000F034BD30B5044685B000F019FD204600F098F8636B23B194F838300BB100F005
:200880004BF904F1280510220021684609F048FD2846FFF78FFD3DB1039B1BB15B686946F9
:2008A00028469847039B63636846FFF783FD00F00DFD05B030BD000038B505460446064BF4
:2008C00045F8283BFFF7CEFF2846FFF773FD204600F06EF8204638BDB411010010B50446F5
:2008E000FFF7EAFF204600F079FF204610BD10B5044600F0D5FC23681BB1237F0BB100F0A3
:200900000BF90023236000F0E1FC204610BD10B5044600F0C5FCA06900F0C3FA0022002372
:20092000C4E90201C4E90423BDE8104000F0CEBC002310B5002203600023C0E90223C0E9BD
:200940000423044600F0BCFA0123A06123772046FFF7DDFF204610BD03689B681847000089
:20096000094B10B5002203600023C0E902230023C0E90433044600F0A3FA0449A06100F0D0
:2009800021FA204610BD00BFC81101005909000007B5009000F10801806900F03DFA03B005
:2009A0005DF804FB00F10801806900F05FBA000010B50446024B0360FFF7F4FF204610BD1C
:2009C000C8110100036801221B69002118470022036811461B69184770B50E4604461546C6
:2009E00001F004F9013609D02046002101F018F929462046BDE8704001F00FB970BD38B573
:200A000004460D4643685AB1C26820461360012101F006F929462046BDE8384001F0FDB8D6
:200A20000269F2E70322FFF7D7BF70B50E460446154601F0DBF8013606D02A462046BDE857
:200A400070400221FFF7DBBF70BD0022FFF7EDBF10B5044601300DD110BDA34209D1204632
:200A6000896801F005FA2046BDE81040022101F018BA0C310B685A1CEFD10248BDE810402F
:200A800000F052BC05120100884208B508D0431C06D0013106D0044800F046FC4FF0FF31B7
:200AA000084608BD0146FBE7D41101000B685A1C01D118467047834201D1486870470C3109
:200AC000F4E70000421C10B5044607D0FFF7EEFF431C044602D1024800F026FC204610BD09
:200AE000E511010008B500F0DBFB094B1A884FF6FF739A4204D100F0E9FB064800F014FCFC
:200B00000121034800F0F6FBBDE8084000F0DEBBD40A00101612010008B500F0C1FB084B3E
:200B20001B8823B900F0D2FB064800F0FDFB0121034800F0ECFBBDE8084000F0C7BB00BFE1
:200B4000D40A0010431201002DE9F84FD0E9003405465B6898476B681B6A83423DD0236A63
:200B6000E268C31A2062A6682A481340864298464FF0000929D0D4E90AABA3FB0023B6F534
:200B8000004F104619462AD147F6FF7600274FEAD23830401AEB000248EA41484FEAD139C5
:200BA00001EA07014BEB01039F4208BF964202D3C4E90A2309E018F1010849F10009B2F5F4
:200BC000004A43F1FF3BC4E90AABD4E90C0110EB080241EB0903C4E90C23BDE8F88F0027C5
:200BE00032463B4606F0C6FD804612EB0A00894643EB0B01B94208BFB04202D2C4E90A012D
:200C0000E3E718F1010849F10009821B61EB0703CEE700BF40420F00824206D98A420BD96A
:200C2000884294BF002001207047884206D98A428CBF002001207047012070470020704738
:200C40002DE9F14F8046D0F80490FFF77DFFD8F80450D8F800A0696800294BD0D5E90C2314
:200C6000D1E90067BB4208BFB24205D3DAF8143001B0BDE8F04F1847B61A67EB0307D5E9CF
:200C80000623BB4208BFB2422C6906D3AB68224A934219D1B44228BF34462A6ADAF81030CA
:200CA0001444EA68144020469847D8F800305B68984722460146D9F82000FFF7ADFF38B322
:200CC000D8F800305B69D3E7B3F5004F0BD10023F903114AF00341EA564106F04BFD844290
:200CE00028BF0446D9E7A3FB06010B4A03FB07110023F2E7D9F81030D9F82000D9F80C20F8
:200D00001844DAF81030104001B0BDE8F04F184701B0BDE8F08F00BF40420F002DE9F84F9F
:200D20004368054693F838B0BBF1000F46D10368234E1B6898472B684FF007089B69984776
:200D40004468D0F80090231FB9F1000F08BFB1461D2B28BF2024231F08FA03F8002319F1F7
:200D6000FF3043F1FF314A46C6FB080106F002FDD5F804A02B68CAE900BB5B680F460646BB
:200D80009847CAF82000012000230022696800FA04F4013CC1E90A23C1F80890C1E903480F
:200DA000C1E90667C1E90C2381F838002846FFF7CBFE2846BDE8F84FFFF742BFBDE8F88FE8
:200DC00040420F0038B505460C46FFF7A7FF6B681C6038BD036870B5DB6804469847636851
:200DE0005B68A3B12046FFF7AFFE65686E68D5E90C01D6E90023994208BF904207D3F368DA
:200E00006B602B68002BEAD0B0689847E7E72046BDE87040FFF714BF2DE9F84305460C4658
:200E200016461F46DDF8208000F03AFA2846FFF78BFE00226968C4E900674B68C4F808806D
:200E40004BB9E36082B94C602846FFF7F9FEBDE8F84300F03BBAD3E900894F4508BF464519
:200E6000EFD31A46DB68EBE7D460EDE738B505460C4600F015FA6A685368A34209D1DB681B
:200E800028465360FFF7DCFEBDE8384000F01EBA1346002BF8D0DA68A242F9D1E268DA60BC
:200EA000F2E710B50446FFF739FF2046FFF74CFE6368D3E90C0110BD08B5FFF7F2FF08BDAC
:200EC000004870476C120100024B1B680BB1024818477047CC0000106C12010038B5CB682D
:200EE00004460D460BB15B689847EB682046E36038BD007B7047000038B50B4B0D460360DB
:200F000000230446C0E9013102730848FFF76CFA45B1074B1A681C6062600448FFF764FAC0
:200F2000204638BD6560F8E7981201001C0B0010180B001010B504460E4B03600E48FFF786
:200F400053FAA3682BB10D4A1368A3420CD1636813600948FFF748FA237B13B9201F00F069
:200F600043FC204610BD13465A68A242FBD162685A60EEE7981201001C0B0010180B0010C6
:200F800010B50446FFF7D6FF204600F027FC204610BD000070B506460C480D46FFF724FA9F
:200FA0000B4B1C685CB1A06870B12A46314609F073FF48B9A06809F041FFA84204D1034883
:200FC000FFF712FA204670BD6468EBE71C0B0010180B00100020704700207047036870B536
:200FE0001B690122002104469847051E0DDB236802221B6900212046984706462368294616
:201000001B690022204698473546284670BD00F0AFBB002310B5C0E900330A7804462F2A8C
:201020000DD14A785AB1481C1946206023681A782F2A06D101332360FFF7ACFF60602046F7
:2010400010BD002AF8D0013301312360EEE700687047406808B520B1FFF74BFF431E584283
:20106000584108BD10B50446FFF7F3FF10B1606800B1043810BD406808B520B1FFF739FF74
:20108000B0FA80F0400908BD10B50446FFF7F3FF10B1606800B1043810BD4068003018BF3F
:2010A000012070477047704700207047F8B50E4603680446DB6C8F1835469847BD4223688B
:2010C00006D05B6C15F8011B204698470130F5D1236820461B6D9847A81BF8BDF8B50E463D
:2010E00003680446DB6C8F1835469847BD42236807D09B6C20469847431C02D005F8010B0C
:20110000F4E7236820461B6D9847A81BF8BD0020704700207047704710B504460E4B002235
:2011200040F8043BFFF7E8FE0C4B0D4923605C336360002320466361FFF769FF606118B1A5
:2011400000F013FB204610BD07F06AFC0168054800F0EAF8F6E700BFA8120100741301009A
:20116000481301004B13010010B50446094B03F10802643302604360406907F0BFFC2046F6
:20118000054B23604C3340F8043FFFF7D3FE204610BD00BF6C130100F412010038B504460B
:2011A0000D460368DB6C9847606907F087FD6169284607F095FF0546236820461B6D9847A1
:2011C000284638BD70B504460D4616460368DB6C9847606907F072FD62693146284600F02E
:2011E000E5FA0546236820461B6D9847284670BD0EB477B50446036807AD55F8046BDB6C78
:2012000098476069019507F059FD019A314660690DF068FB0546236820461B6D98472846F7
:2012200003B0BDE8704003B0704708F0C9BC09F0D7B807F0ADBF07F0BDBB000010B586B06A
:2012400000F02EF812496846FFF7FFFB0424039B019A96201A6000F009FC049B019A962009
:201260001A6000F003FC013CF1D10424039B019A4FF4C8701A6000F0F9FB049B019A4FF44F
:20128000C8701A6000F0F2FB013CEFD1DEE700BF32C00920EFF31080C04300F00100704706
:2012A00008B5FFF7F7FF72B6064B1A6822B980F00100054AC0B210701A681A6801321A604C
:2012C00008BD00BF280B0010240B001008B5074B1A6852B1FFF7DEFF1A68013A1A601B68E7
:2012E0001BB9034B1B7803B962B608BD280B0010240B001038B505460C46FFF7D1FF29881D
:201300000C44A4B22C80FFF7E1FF204638BD70B505460E46FFF7C4FF2C88A41BA4B22C8058
:20132000FFF7D4FF204670BD0FB408B5054B1A781AB90120187000F013FABDE8084004B0D5
:20134000704700BF2C0B001000F06CBB426970B5A2F14604442C2BD8D0E900314FF46165A6
:20136000866812F0030F05FB06F54FF03C0606FB01511944C368104D03F1FF3305FB03137B
:201380000CBF0C2100210069462A01440B4850F82100184408D040F26D13013A9210113A4C
:2013A00003FB042205FB0200002801DB002170BD4FF0FF300146FAE780510100D813010061
:2013C0002DE9F843061E0D461446C0F281803C22002306F07FF90023226030463C22294661
:2013E00006F078F93C22002306F074F90023626030464FF46162294606F06CF9182200231A
:2014000006F068F90023A2603046324A294606F061F9064604300F464FF007024FF0000340
:2014200041F1000106F056F94623A26163614FF4B67000216FF4B6724FF0FF3340F26D18C7
:201440004FF00009656915F0030C0AD1B04579EB070E0FDA0135B6F5B776656147F1FF37EE
:20146000F0E7B04271EB070E04DA0135B61865615F41E7E7174B184DA6FB038903FB07998A
:201480000B23E66123610C2700232E46BCFA8CF2520907FB023E55F82EE0C64514D9013B29
:2014A00023610C25236905FB023256F822500023B8EB0500074A69F1000106F00BF9013055
:2014C000E0600120BDE8F88301330C2BDED1E8E70020F7E780510100D813010008B5084BD6
:2014E0001B685BB907490848084A01F00BF8BDE808404FF41651044800F02ABE08BD00BF30
:20150000100D001002C009204016001003C00920022810B501DC002010BD00210B4AC31E51
:2015200052F8230042F8231030B907F079FA092303604FF0FF30EFE703685B699847041E7B
:20154000E9DA07F06DFA64420460F2E7300B00100228F8B50D4614460EDC134B1B680BB929
:20156000FFF7BCFF114E2F19BD4210D015F8011B304600F02DFFF7E70D4B033853F820009D
:2015800038B907F04DFA09234FF0FF3403602046F8BD0368DB689847041EF8DA07F040FA4E
:2015A00063420360F3E700BF100D001040160010300B0010022810B50C460BDC104B1B68A6
:2015C0000BB9FFF78BFF0F4800F0BCFE20700124204610BD0C4B033853F8200030B907F001
:2015E0001FFA09234FF0FF340360F1E703689B689847041EECDA07F013FA63420360E7E7EA
:20160000100D001040160010300B0010022810B516DD0C4B033853F820402CB907F000FAF7
:2016200009230360204610BD23682046DB699847041EF7DA07F0F4F9644204600024F1E7F7
:201640000124EFE7300B0010022810B507DC07F0E7F91D2303604FF0FF34204610BD094BFF
:20166000033853F8200018B907F0DAF90923F1E703681B699847041EEFDA07F0D1F9644205
:201680000460E8E7300B0010022838B50D4604DC4FF400534B6000200AE00E4B033853F858
:2016A000204034B907F0BCF9092303604FF0FF3038BD23682046DB699847002814BF4FF4ED
:2016C00000534FF400436B60236820469B6A98472861E0E7300B00100148FFF725BE00BF15
:2016E0003814010008B5012000F03AF80C4B10B51A681044EFF30881884206D30C22094B1B
:201700001A604FF0FF32104610BD07490C6824B10649096821448842F0D21860F3E700BF61
:20172000D000001048160010380C00103C0C001008B5094C05462368986807F0BFFA23688C
:20174000D86807F0BBFAFFF7FFFD08B100F05FF90DB1FFF773FDFEE7F400001001207047C5
:2017600008B5FFF7E5FF01207047002109F09AB81FB504220C463A230DEB020101900DF15B
:2017800009008DF8083008F0F3FC214602A807F05DFC044638B101980368DB69984710B120
:2017A0002046FFF7E2FF204604B010BD07F00EBB7047704708B5FFF7FBFF08BD08B5FFF7B2
:2017C000F8FF08BD10B508F0EBF9044610B90248FFF7AAFD204610BD4C14010008F0E8B985
:2017E000004870474414010010B504460948FEF7FBFD00231946084A52F82300A04208BF5A
:2018000042F823100133402BF6D10248FEF7ECFD10BD00BF300C0010300B00102DE9FF474E
:2018200089464049064609F02BFA044628B9FFF755FE204604B0BDE8F0873B49304609F049
:201840001FFA18B9FFF74AFE0124F2E73749304609F016FA18B9FFF741FE0224E9E7344DE6
:201860003448FEF7C1FD0024A84655F82470002F40D00134402CF8D107F0D2F8182303603E
:201880002C48FEF7B1FD0EE0314602A8FFF7C1FB02A8FFF702FC064640B907F0C1F81323A7
:2018A000036045F824604FF0FF34C2E702A8FFF7E2FB074602A81FB1FFF7E6FB01902BE032
:2018C000FFF7D0FB06460028E7D0036802A8D3F808A0FFF7BCFB29F40043024601A930461F
:2018E000D0470646C0B107F09BF87642066045F82470D8E74FF0FF330E4845F82430FEF78F
:2019000073FD337801973A2BBED10422711C02A808F02EFC029B0193019B48F82430033409
:2019200087E700BF711401007814010069140100300B0010300C001038B5044608480D4678
:20194000FEF752FD074B1B6803B19847064B1B6813B12046294698470148FEF745FD38BD1A
:20196000400C0010DC000010D400001070B506460F48FEF739FD0F4B1B682BB1984718B9DF
:2019800000200021FFF7D8FF0B4B1B685BB1984704460D460EB1C6E900450548FEF724FDC2
:2019A0002046294670BD4FF0FF344FF0FF35F1E7400C0010D8000010E000001070477047C6
:2019C00070470000084B094998684FF08053C21802F17042126843F8042B8B42F7D14FF062
:2019E0008052014B9A60704700ED00E0C400001008B5FFF7E7FFFFF7E2FFFFF7E1FF08BD6C
:201A000008B5FFF7DBFFBDE8084002F007BD30B585B018246D4620462946ABBE044620469F
:201A200005B030BD024B186800F00100704700BFF0ED00E070B50446FFF742FA0646FFF730
:201A40003BFA05463046FFF737FA401BA042F9D370BD000008B5044905F0C6FC05F014FE6B
:201A6000BDE80840FFF7E6BF002474494FF47A735843FFF7DFBF000070B50C46164D064678
:201A800029462046FFF71EF8144B3070D3F8C420294642F48052C3F8C420D3F8A8212046A7
:201AA000BDE8704022F04072C3F8A821D3F8A82142F08072C3F8A821094B1A68094B1344CC
:201AC000094A93FBF2F3013B1B02084A43F400131360FEF7BDBF00BF8014010000C00F4004
:201AE000E40000103F5DC600405DC600004003400649074A074B9A42BEBF51F8040B42F8CD
:201B0000040BF8E7044880470448004764210100C8000010B00A0010351B00004103000075
:201B2000FEE7FEE7FEE7FEE7FEE7FEE7FEE7FEE7FEE7FEE72022264BC3F8A021D3F8A021F8
:201B4000920603D5D3F8A0215006FBD50222C3F8042100220120C3F8A821C3F8AC210B22E3
:201B6000C3F80C01AA21C3F884205522C3F88C10C3F88C20C3F88000C3F88C10C3F88C2045
:201B8000134B1A46D3F888104901FBD50321C3F88010AA21C3F88C105521C3F88C10D2F8E2
:201BA000883013F0407FFAD00523C2F80831094BC2F8C4300023C2F8C831136823F47043A9
:201BC00023F03A0343F4405343F03A031360704700C00F40DE87280410B50021044600F091
:201BE00047F9012004F01F04A04010BD38B505464B1C0C4629600FD00846FFF7EDFF24F023
:201C00001F0404F11803EB6004F11C032B6104F1140368606B61AC6038BD006800F041B9B3
:201C200011B1012907D0704782684168136823EA0103136070478268416813680B43F8E7A6
:201C40002DE9F74F4FF0010A3A4C3B4AD4F80490DFF8E8B0D4F80880676AA66AB9F1000F16
:201C600015D1DFF8D490DFF8D4A0B8F1000F22D14FF0010ADFF8C080DFF8C09077BB2E4F16
:201C8000DFF8B880002E3ED103B0BDE8F08FB9FA89F5C5F11F05EDB252F8250028B1DBF85C
:201CA0000030012101929847019A0AFA05F5E560A9EB0509D2E7B8FA88F5C5F11F05EDB27F
:201CC00059F8250018B1DAF8003002219847012303FA05F5E560A8EB0508C6E7B7FA87F5E7
:201CE000C5F11F05EDB20F2D08D805F1200358F8230018B1D9F80030012198470AFA05F5FA
:201D0000E5627F1BBAE7B6FA86F5C5F11F05EDB20F2D08D805F1200357F8230018B1D8F85D
:201D2000003002219847012303FA05F5E562761BA8E700BF80800240480C0010080D001065
:201D400070B51E464B1C044623D0134B134D1A6021F01F03036001F01F0321F05F01A94219
:201D6000436002D00E48FFF7DFFAD4E900320D49AB4218BF20320C4BA26041F822609B6857
:201D80000A4A0020C3F894204FF40012084B1A6070BD0846FCE700BF080D001000C0092013
:201DA000EC140100480C001000ED00E0411C000000E100E000218268014B43F82210704758
:201DC000480C001030B50368264CA34207D0264DAB4215D001292AD1A34208D030BD0123E9
:201DE0004468012903FA04F3204CE36021D1012341688B401D4992B10A6913430B61EDE72E
:201E000001244368A14204FA03F5184BDD62406820D181403AB11A6B11431963DEE70A69A5
:201E200022EA0303EAE71A6B22EA0101F5E7A342D4D1012341688B400C491AB14A69134305
:201E40004B61CBE74A6922EA0303F9E75A6B22EA010105E004FA00F1002AF7D05A6B1143CE
:201E60005963BBE700C0092040C009208080024010B5032400F16040A0F51C204300000916
:201E8000800000F1804000F53030026803F01E039C4022EA040202600268994011430160F6
:201EA00010BD00F16040A0F51C2043099B0003F1804303F5303330B500F01F029C6EC1F346
:201EC000800505FA02F224EA02049C669C6E22439A6695B9032443000009800000F1804013
:201EE00000F53030026C03F01E039C4022EA04020264026C99401143016430BD074AD2F8AF
:201F0000C43043F40073C2F8C4300022044B1A721A7A42F001021A72704700BF00C00F409E
:201F200000400240024B187A00F00100704700BF0040024000B50E4B8BB093F8202001A89A
:201F4000019293F82420029293F82820039293F82C20049293F838209B8F013AA3F26C73FA
:201F600005920693FFF7F2F90BB05DF804FB00BF0040024000B58BB001AAFFF721FA10B391
:201F8000124B1A7A42F002021A729DF8042083F820209DF8082083F824209DF80C2083F862
:201FA00028209DF8102083F82C20059A0132D2B283F83820069A02F26C7292B29A871A7AB9
:201FC00002F0FD021A720BB05DF804FB00400240012810B424D0022824D13823124803FB40
:201FE0000103586801300FD10023382251430E4842184058B0B113B992F8362092B10B4A0E
:202000001946126810BC104718699C68046093F83630002BE8D1506820F001005060E4E7C2
:202020000346E2E710BC7047140D00100C0D0010034A00219068C0F34200FFF7C9BF00BF19
:2020400000C00040034A01219068C0F34200FFF7BFBF00BF00000140034A02219068C0F395
:202060004200FFF7B5BF00BF00800940034A03219068C0F34200FFF7ABBF00BF00C00940A6
:2020800030B52A4B04689C4224D006DCA3F580439C420CD000231D460BE0254B9C421CD006
:2020A00003F580439C42F5D1224B082501E00525214BAAB10122606802FA01F10143616077
:2020C0001E4905F110008968AA4041F820301C4B1A6030BD1B4B0625EBE71B4B0725E8E79D
:2020E00001290AD042683820184B00FB023292F8363092F83520D342EBD1012303FA01F294
:20210000B1FA81F16068490920EA02006060626803FA01F11142DCD1094AAB40C2F880305B
:20212000BFF34F8FBFF36F8FD3E700BF00000140008009406D2000003120000000ED00E031
:2021400000E100E04520000059200000140D00102DE9F74F03685D4A824693420F464AD035
:2021600028DCA2F58042934237D0594BD3F800B03B01BBFBF3F5ACB203FB15B5002D40F0AA
:2021800093804FF00108DAF8003045EA08151A7BEDB242F080021A73C4F30722E4B21A7120
:2021A0001C7083F828501A7B02F07F021A7303B0BDE8F08F474A934229D002F58042934247
:2021C000D3D1454BD3F8AC2122F44022C3F8AC21D3F8AC2142F4802224E03F4BD3F8A821A1
:2021E00022F0C002C3F8A821D3F8A82142F04002C3F8A821B9E7384BD3F8A82122F440727C
:20220000C3F8A821D3F8A82142F48072F0E7324BD3F8AC2122F44032C3F8AC21D3F8AC21EA
:2022200042F48032C3F8AC219FE72A4621461D460BFB06FCAB1903FB07F05FEA4C0455BF00
:202240004FEA8C04B4FBF0F4B4FBF0F4240958BF64090134C4F34F049CB315B1012C08BF96
:20226000022403FB04F0C000BCFBF0F00130C7EB5000CDE9002106F099FBDDE900214845E7
:2022800019DA874219D08146B0462A466B1CDBB2B3421546C9D300230136F6B2102E3FF4F9
:2022A00072AF002BC1D06EE701260025B9462146B0462A46BCE70C46E8E7B946B0460123F7
:2022C000EAE7002D14BF02240124CAE700000140E40000100080094000C00F40013AD2B265
:2022E000032A88BF002210B597BF084C1446A2560124013B053941EA830141EAC4010068E1
:2023000041EA0211C9B2017310BD00BF19150100034B1960382341684B430249CA50704760
:202320000C0D0010140D001030B431B938254368034C05FB034383F8362030BCFFF7A0BEC7
:20234000140D001010B50268137DDB07FCD5382443680848117804FB03035868C9B2013089
:2023600006D058699B680360536843F001035360084610BD140D00100368187D00F001007E
:20238000704700003821114A436801FB0323DA69013209D01A6B1B6A12681A4214D1036886
:2023A000187DC0F3801070470268127D920604D50022012083F83420704793F834000F2865
:2023C0008CBF00200120704700207047140D001038B504460D462046FFF7D4FF0028FAD007
:2023E00038212368EDB2054A1D70636801FB032393F83420013283F8342038BD140D00108A
:202400002DE9F84FD0E9004699463A4B17469C4208BF237C4FF0FF3204BF03F03F0323745C
:202420004FF03803DFF8D8A0884603FB06A3DA615A604FF0000283F83520114618BF002406
:202440000546FFF71DFEB8F1000F2CD02A493846FEF72CFB294983464846FEF727FBA8F1E6
:202460000203012B1AD8B9F1FF3F0BD0214B98420CD15CB1237C214943F080032374484662
:20248000FEF7E6FAB8F1030F0DD10AE0382000FB06A049461C30FEF7C5FAF3E7B8F1010FC9
:2024A000F0D17B1C01D1BDE8F88F07222B681A72104B9B450AD14CB1237C384643F04003D8
:2024C00023740D49BDE8F84FFEF7C2BA382404FB06A0394600220430FEF7A7FA01226B6850
:2024E000284604FB03A383F835200021BDE8F84FFFF7C6BD000001404415010020150100A2
:20250000140D00102DE9F0410F460546474938461646FEF7D7FA464904463046FEF7D2FA63
:2025200001462046FEF7B0FA424B0446984228605ED048D8A3F58043984251D001234FF00F
:20254000000823724FF416512846C4F80480FFF7FFFD03222B6835491A733846FEF778FAEC
:2025600033493046FEF774FA7A1C03D041463846FFF797FC731C03D000213046FFF791FC93
:202580002C4B9C424CD03FD8A3F580439C4244D038216A68284B284601FB02324FF0FF33B9
:2025A00000215360D3611A46FFF72AFF234B9C423AD10122224B2946BDE8F0411A60214885
:2025C000082207F0D5BD204B984217D003F580439842B3D11D4AD2F8C43043F0007304E054
:2025E0001A4AD2F8C43043F00803C2F8C430A5E7164AD2F8C43043F01003F6E7134AD2F8D9
:20260000C43043F08073F0E70F4B9C420AD003F580439C42BCD1032300E000236B60B7E7FF
:202620000123FBE70223F9E7BDE8F081D41501006815010000000140140D001000C000409F
:20264000100D0010401600100080094000C00F40104B1868E0B901210F4A1960D2F8C430E9
:2026600043F40003C2F8C430A2F5D022106702200A4B1B6850600A48B3FBF0F3013BD36076
:20268000084B51609B68084A1A651022074B1A60704700BFF40D001000C00F40E4000010DA
:2026A00000093D0000ED00E0C90E000000E100E008B5044B1B680BB9FFF7CAFF024B986810
:2026C00008BD00BFF40D001000400940034B98615A6942F001025A61704700BF00400940E3
:2026E0001022024BC3F80021704700BF00E100E0024A536923F00103536170470040094035
:202700000122014B1A60704700400940436811B1C268136070470269FBE743691A684368A9
:202720001A4214BF012000207047704710B5044602F0F0F9204610BD10B50446FFF74EF853
:20274000204610BD022310B5C2B08DF80030002340916946CDE9013302F0DDFB04466846E6
:2027600002F0D8F9204642B010BD032110B5C2B08DF800100021CDE9011140A9C1E90023E2
:20278000694602F0C8FB0446684602F0C3F9204642B010BD00F1080373B5044603600D46E6
:2027A000E1B1084608F04AFB0F2805EB0006019007D9002201A9204602F0C2FD019B20605F
:2027C000A36032462946206802F0E6FD00212046019B22686360D15402B070BD014802F003
:2027E0007FFD00BF3D170100F0B51C4C87B0204602F0A2FC0021204602F066FC0746204681
:2028000002F05FFC164C054616496846FFF7C2FF6946204602F028FB0646384604F0F4F925
:2028200002460B463046FFF7A0FF684602F0ACFD0D496846FFF7AEFF6946204602F014FBEE
:202840000446284604F0E0F902460B462046FFF78CFF684602F098FD07B0F0BD881400102E
:2028600008100010261701002B17010070B504460D4616460021182207F052FD2046324612
:202880002946FEF7D2F8204670BD000010B50446FEF766F82046064B102240F8283B002170
:2028A00007F03EFD0123204684F8383010BD00BFB411010030B5C9B004466846FFF76AFF71
:2028C00004238DF8183000231820CDE90733FEF779FF0546694602F05BFF06A92046469516
:2028E00002F019FB044606A802F014F9684602F04BFD204649B030BD027B03461AB10022F4
:20290000027380687047D0E900218A4203D14FF0FF309860704781680A2902BF0169013193
:202920000161511C01601078F3E7836801331CBF01230373704710B504462046FFF7DCFF74
:202940002028FAD0A0F10903012BF6D90D28F4D02046FFF7EAFF10BD38B504460D46FFF742
:20296000EAFF2046FFF7C8FFA84204D02046FFF7DCFF002038BD0120FCE7F8B506460D46F1
:202980000C68D5E9003213449C4227460BD03046FFF7B2FF3B7801349842F2D03046FFF749
:2029A000C4FF0020F8BD0120FCE7000070B5C8B004460D4668462B49FFF7ECFE04238DF893
:2029C000183000231820CDE90733FEF7FBFE0646694602F0DDFE06A92046469602F09BFA36
:2029E00006A802F097F8684602F0CEFCD4F800412846FFF781FF1F2804DC2846FFF795FF2E
:202A000000202CE0222829D05C2825D12846FFF773FF431C0146F3D0622817D009DC2F28E1
:202A200003D05C2801D02228EAD1204602F04EFDDEE76E280CD003DC6628E1D10C21F4E768
:202A4000722807D07428DBD10921EEE70821ECE70A21EAE70D21E8E7C1B2E6E7012048B070
:202A600070BD00BF6913010070B5CAB004AB0293002305460C4647F6ED7603938DF810304F
:202A80002046FFF739FFA0F12B030E2B03D826FA03F3DA0703D420F02003452B04D1C1B216
:202AA00002A802F013FDEBE72046FFF73EFF2E21029808F071F800B301A9029809F0DEF9EE
:202AC00003238DF820300023CDE9093348ABC3E9000108A9284602F01EFA08A802F01AF869
:202AE000DDE902432344019C02A8E31A5C425C4102F04AFC20464AB070BD6521029808F008
:202B00004BF80028D8D12B21029808F045F804460028D1D101A9029809F0B0F90223CDE9B1
:202B200009448DF8203004F0D9FA4890D1E7000070B50C46C2B005460846FFF7FCFE204644
:202B4000FFF7DAFE662837D012DC222860D05B2864D0A0F13003092B02D92D2840F081809A
:202B60002046FFF7E2FE21462846FFF77DFF53E0742838D07B286FD06E28EAD13C49684695
:202B8000FFF708FE20466946FFF7F7FE0446684602F0FAFB0CB900240BE00023CDE9013379
:202BA0008DF800306946284602F0B5F9684601F0B1FF204642B070BD2E496846FFF7EAFDCD
:202BC00020466946FFF7D9FE0446684602F0DCFB002CE0D001238DF800300023CDE9013390
:202BE0008DF80031DEE724496846FFF7D3FD20466946FFF7C2FE0446684602F0C5FB002CD8
:202C0000C9D0012300228DF80030CDE90122E7E721462846FFF7CAFE0446CAE75D21204607
:202C2000FFF79AFE064600BB3146284602F07EF82146FFF77DFF0028ADD02C21204601364A
:202C4000FFF78AFE0028EFD120465D21FFF784FE041C18BF0124ACE72146284600F00EF838
:202C6000DAE72046FFF761FE95E70124A1E700BF921701008C17010087170100F0B50D460B
:202C8000ADF50B7D07467D212846FFF765FE00284AD104460646222128468DF81860CDE91B
:202CA00007448DF8206149944A94FFF755FE88B3294606A8FFF77AFE60B33A212846FFF727
:202CC0004BFE38B3294648A8FFF732FF10B3469B68461968FFF75EFD6946384602F0C4F83B
:202CE00048A902F018F9684602F04EFB48A801F011FF06A801F00EFF2C212846FFF72CFE7F
:202D00000028C8D17D212846FFF726FE003018BF012006E048A801F0FDFE06A801F0FAFE4B
:202D200000200DF50B7DF0BD0120FAE730B50546114C87B0E368626801461A60684602F000
:202D400027FD0E49684602F0DBFC6946284602F02FFB684602F018FB29680948FEF71EFAA6
:202D60002369626807481A60FEF774FEE36862681A6007B030BD00BF4C15001068130100EE
:202D800094150010CDCC4C3E002370B5684CCEB0214668468DF83030CDE90D33FFF7FAFC01
:202DA00069460CA802F060F82146624C054606A8FFF7F0FC06A9204602F056F8014628466C
:202DC00002F0A9F806A802F0DFFA684602F0DCFA594906A8FFF7DEFC06A90CA802F044F8C0
:202DE000564D5749FFF766FD06A802F0CDFA29466846FFF7CFFC69460CA802F035F8294601
:202E0000064606A8FFF7C6FC06A9204602F02CF80146304602F07FF84A4D06A802F0B4FACA
:202E2000684602F0B1FA29466846FFF7B3FC69460CA802F019F82946064606A8FFF7AAFC1A
:202E400006A9204602F010F80146304602F063F83D4D06A802F098FA684602F095FA2946FF
:202E60006846FFF797FC69460CA801F0FDFF2946064606A8FFF78EFC06A9204601F0F4FFE9
:202E80000146304602F047F8304D06A802F07CFA684602F079FA29466846FFF77BFC694665
:202EA0000CA801F0E1FF2946064606A8FFF772FC06A9204601F0D8FF0146304602F02BF811
:202EC000234D06A802F060FA684602F05DFA29466846FFF75FFC69460CA801F0C5FF29469C
:202EE000064606A8FFF756FC06A9204601F0BCFF0146304602F00FF806A802F045FA68468C
:202F000002F042FA0CA9684601F0A0FF694606A802F03EFC06A8FFF709FF06A802F034FA8D
:202F2000684602F031FA0CA801F0F4FD4EB070BD6417010008100010961601002F1701006D
:202F40009B16010036170100261701002B1701009E16010070B5384CCEB02046FFF7DDFBE0
:202F6000B0FA80F120464909FFF7D0FB0023334D684629468DF83030CDE90D33FFF70AFC26
:202F800069460CA801F070FF2946064606A8FFF701FC06A92A4801F067FF0146304601F0EC
:202FA000BAFF06A802F0F0F9684602F0EDF9254906A8FFF7EFFB06A90CA801F055FF22493A
:202FC000FFF778FC06A802F0DFF9204906A8FFF7E1FB06A90CA801F047FF0121FFF7B2FBC7
:202FE00006A802F0D1F91A4906A8FFF7D3FB06A90CA801F039FF05462046FFF78EFB01468F
:203000002846FFF79FFB06A802F0BEF90CA9684601F01CFF694606A802F0BAFB06A8FFF744
:2030200085FE06A802F0B0F9684602F0ADF90CA801F070FD4EB070BD280E0010641701007F
:203040000810001096160100581601005C1601006216010070B5384CCEB02046FFF75DFB65
:20306000B0FA80F120464909FFF750FB0023334D684629468DF83030CDE90D33FFF78AFB26
:2030800069460CA801F0F0FE2946064606A8FFF781FB06A92A4801F0E7FE0146304601F06E
:2030A0003AFF06A802F070F9684602F06DF9254906A8FFF76FFB06A90CA801F0D5FE2249BA
:2030C000FFF7F8FB06A802F05FF9204906A8FFF761FB06A90CA801F0C7FE0221FFF732FB47
:2030E00006A802F051F91A4906A8FFF753FB06A90CA801F0B9FE05462046FFF70EFB01468F
:203100002846FFF71FFB06A802F03EF90CA9684601F09CFE694606A802F03AFB06A8FFF744
:2031200005FE06A802F030F9684602F02DF90CA801F0F0FC4EB070BD400E00106417010067
:203140000810001096160100581601005C1601006216010070B5384CCEB02046FFF7DDFAE5
:20316000B0FA80F120464909FFF7D0FA0023334D684629468DF83030CDE90D33FFF70AFB26
:2031800069460CA801F070FE2946064606A8FFF701FB06A92A4801F067FE0146304601F0ED
:2031A000BAFE06A802F0F0F8684602F0EDF8254906A8FFF7EFFA06A90CA801F055FE22493D
:2031C000FFF778FB06A802F0DFF8204906A8FFF7E1FA06A90CA801F047FE0321FFF7B2FAC8
:2031E00006A802F0D1F81A4906A8FFF7D3FA06A90CA801F039FE05462046FFF78EFA014691
:203200002846FFF79FFA06A802F0BEF80CA9684601F01CFE694606A802F0BAFA06A8FFF746
:2032200085FD06A802F0B0F8684602F0ADF80CA801F070FC4EB070BD580E00106417010051
:203240000810001096160100581601005C1601006216010070B5384CCEB02046FFF75DFA64
:20326000B0FA80F120464909FFF750FA0023334D684629468DF83030CDE90D33FFF78AFA26
:2032800069460CA801F0F0FD2946064606A8FFF781FA06A92A4801F0E7FD0146304601F06F
:2032A0003AFE06A802F070F8684602F06DF8254906A8FFF76FFA06A90CA801F0D5FD2249BD
:2032C000FFF7F8FA06A802F05FF8204906A8FFF761FA06A90CA801F0C7FD0421FFF732FA48
:2032E00006A802F051F81A4906A8FFF753FA06A90CA801F0B9FD05462046FFF70EFA014691
:203300002846FFF71FFA06A802F03EF80CA9684601F09CFD694606A802F03AFA06A8FFF746
:2033200005FD06A802F030F8684602F02DF80CA801F0F0FB4EB070BD700E00106417010039
:203340000810001096160100581601005C1601006216010070B5384CCEB02046FFF7DDF9E4
:20336000B0FA80F120464909FFF7D0F90023334D684629468DF83030CDE90D33FFF70AFA26
:2033800069460CA801F070FD2946064606A8FFF701FA06A92A4801F067FD0146304601F0EE
:2033A000BAFD06A801F0F0FF684601F0EDFF254906A8FFF7EFF906A90CA801F055FD224932
:2033C000FFF778FA06A801F0DFFF204906A8FFF7E1F906A90CA801F047FD0521FFF7B2F9C2
:2033E00006A801F0D1FF1A4906A8FFF7D3F906A90CA801F039FD05462046FFF78EF901468C
:203400002846FFF79FF906A801F0BEFF0CA9684601F01CFD694606A802F0BAF906A8FFF741
:2034200085FC06A801F0B0FF684601F0ADFF0CA801F070FB4EB070BD880E00106417010015
:203440000810001096160100581601005C1601006216010070B5384CCEB02046FFF75DF963
:20346000B0FA80F120464909FFF750F90023334D684629468DF83030CDE90D33FFF78AF926
:2034800069460CA801F0F0FC2946064606A8FFF781F906A92A4801F0E7FC0146304601F070
:2034A0003AFD06A801F070FF684601F06DFF254906A8FFF76FF906A90CA801F0D5FC2249B2
:2034C000FFF7F8F906A801F05FFF204906A8FFF761F906A90CA801F0C7FC0621FFF732F942
:2034E00006A801F051FF1A4906A8FFF753F906A90CA801F0B9FC05462046FFF70EF901468C
:203500002846FFF71FF906A801F03EFF0CA9684601F09CFC694606A802F03AF906A8FFF741
:2035200005FC06A801F030FF684601F02DFF0CA801F0F0FA4EB070BDA00E001064170100FD
:203540000810001096160100581601005C1601006216010070B5384CCEB02046FFF7DDF8E3
:20356000B0FA80F120464909FFF7D0F80023334D684629468DF83030CDE90D33FFF70AF926
:2035800069460CA801F070FC2946064606A8FFF701F906A92A4801F067FC0146304601F0EF
:2035A000BAFC06A801F0F0FE684601F0EDFE254906A8FFF7EFF806A90CA801F055FC224935
:2035C000FFF778F906A801F0DFFE204906A8FFF7E1F806A90CA801F047FC0721FFF7B2F8C3
:2035E00006A801F0D1FE1A4906A8FFF7D3F806A90CA801F039FC05462046FFF78EF801468E
:203600002846FFF79FF806A801F0BEFE0CA9684601F01CFC694606A802F0BAF806A8FFF743
:2036200085FB06A801F0B0FE684601F0ADFE0CA801F070FA4EB070BDB80E001064170100E7
:203640000810001096160100581601005C1601006216010070B5384CCEB02046FFF75DF862
:20366000B0FA80F120464909FFF750F80023334D684629468DF83030CDE90D33FFF78AF826
:2036800069460CA801F0F0FB2946064606A8FFF781F806A92A4801F0E7FB0146304601F071
:2036A0003AFC06A801F070FE684601F06DFE254906A8FFF76FF806A90CA801F0D5FB2249B5
:2036C000FFF7F8F806A801F05FFE204906A8FFF761F806A90CA801F0C7FB0821FFF732F843
:2036E00006A801F051FE1A4906A8FFF753F806A90CA801F0B9FB05462046FFF70EF801468E
:203700002846FFF71FF806A801F03EFE0CA9684601F09CFB694606A802F03AF806A8FFF743
:2037200005FB06A801F030FE684601F02DFE0CA801F0F0F94EB070BDD00E001064170100CF
:203740000810001096160100581601005C1601006216010070B5384CCEB02046FEF7DDFFDB
:20376000B0FA80F120464909FEF7D0FF0023334D684629468DF83030CDE90D33FFF70AF81F
:2037800069460CA801F070FB2946064606A8FFF701F806A92A4801F067FB0146304601F0F0
:2037A000BAFB06A801F0F0FD684601F0EDFD254906A8FEF7EFFF06A90CA801F055FB224931
:2037C000FFF778F806A801F0DFFD204906A8FEF7E1FF06A90CA801F047FB0121FEF7B2FFBE
:2037E00006A801F0D1FD1A4906A8FEF7D3FF06A90CA801F039FB05462046FEF78EFF014682
:203800002846FEF79FFF06A801F0BEFD0CA9684601F01CFB694606A801F0BAFF06A8FFF737
:2038200085FA06A801F0B0FD684601F0ADFD0CA801F070F94EB070BDF80D001064170100AA
:203840000810001096160100681601005C1601006216010070B5384CCEB02046FEF75DFF4A
:20386000B0FA80F120464909FEF750FF0023334D684629468DF83030CDE90D33FEF78AFF18
:2038800069460CA801F0F0FA2946064606A8FEF781FF06A92A4801F0E7FA0146304601F06B
:2038A0003AFB06A801F070FD684601F06DFD254906A8FEF76FFF06A90CA801F0D5FA2249B1
:2038C000FEF7F8FF06A801F05FFD204906A8FEF761FF06A90CA801F0C7FA0221FEF732FF37
:2038E00006A801F051FD1A4906A8FEF753FF06A90CA801F0B9FA05462046FEF70EFF014682
:203900002846FEF71FFF06A801F03EFD0CA9684601F09CFA694606A801F03AFF06A8FFF737
:2039200005FA06A801F030FD684601F02DFD0CA801F0F0F84EB070BD100E00106417010091
:203940000810001096160100681601005C1601006216010070B5CEB041490CA8FEF71AFF38
:203960000CA9404801F080FAD0F800410CA801F00BFD092C72DC3A490CA8FEF70BFF651CAF
:203980000CA9384801F070FA2946FEF7DBFE0CA801F0FAFC0023344968468DF83030CDE9D6
:2039A0000D33FEF7F7FE69460CA801F05DFA2E49064606A8FEF7EEFE06A92A4801F054FA80
:2039C0000146304601F0A7FA06A801F0DDFC684601F0DAFC254906A8FEF7DCFE06A90CA85D
:2039E00001F042FA2249FEF765FF06A801F0CCFC204906A8FEF7CEFE06A90CA801F034FA15
:203A00000121FEF79FFE06A801F0BEFC1A4906A8FEF7C0FE06A90CA801F026FA2946FEF7FD
:203A200091FE06A801F0B0FC04F1610213491448FDF7DEFB0CA9684601F008FA694606A81C
:203A400001F0A6FE06A8FFF771F906A801F09CFC684601F099FC0CA801F05CF84EB070BD34
:203A60007A160100081000106417010096160100841601005C16010062160100891601003D
:203A8000301500102DE9F041434FCEB0434C39460CA8FEF77FFE0CA9204601F0E5F9D0F894
:203AA00000510CA801F070FC39460CA8FEF772FE6E1E0CA9204601F0D7F93146FEF742FEF8
:203AC0000CA801F061FC0023354F684639468DF83030CDE90D33FEF75DFE69460CA801F091
:203AE000C3F93946804606A8FEF754FE06A9204601F0BAF90146404601F00DFA06A801F0B3
:203B000043FC684601F040FC264906A8FEF742FE06A90CA801F0A8F92349FEF7CBFE06A86C
:203B200001F032FC214906A8FEF734FE06A90CA801F09AF90121FEF705FE06A801F024FC67
:203B40001B4906A8FEF726FE06A90CA801F08CF93146FEF7F7FD06A801F016FC05F15F02F9
:203B600014491548FDF744FB0CA9684601F06EF9694606A801F00CFE06A8FFF7D7F806A824
:203B800001F002FC684601F0FFFB0CA800F0C2FF4EB0BDE8F08100BF7A16010008100010AC
:203BA0006417010096160100751601005C16010062160100891601003015001070B5CEB0CC
:203BC00041490CA8FEF7E6FD0CA9404801F04CF9D0F800410CA801F0D7FB092C72DC3A49D6
:203BE0000CA8FEF7D7FD651C0CA9384801F03CF92946FEF7A7FD0CA801F0C6FB002334495E
:203C000068468DF83030CDE90D33FEF7C3FD69460CA801F029F92E49064606A8FEF7BAFDD3
:203C200006A92A4801F020F90146304601F073F906A801F0A9FB684601F0A6FB254906A8A0
:203C4000FEF7A8FD06A90CA801F00EF92249FEF731FE06A801F098FB204906A8FEF79AFD0B
:203C600006A90CA801F000F90221FEF76BFD06A801F08AFB1A4906A8FEF78CFD06A90CA861
:203C800001F0F2F82946FEF75DFD06A801F07CFB04F1610213491448FDF7AAFA0CA968466A
:203CA00001F0D4F8694606A801F072FD06A8FFF73DF806A801F068FB684601F065FB0CA8FC
:203CC00000F028FF4EB070BD8C160100081000106417010096160100841601005C160100A0
:203CE0006216010089160100301500102DE9F041434FCEB0434C39460CA8FEF74BFD0CA94B
:203D0000204601F0B1F8D0F800510CA801F03CFB39460CA8FEF73EFD6E1E0CA9204601F0B3
:203D2000A3F83146FEF70EFD0CA801F02DFB0023354F684639468DF83030CDE90D33FEF700
:203D400029FD69460CA801F08FF83946804606A8FEF720FD06A9204601F086F8014640460C
:203D600001F0D9F806A801F00FFB684601F00CFB264906A8FEF70EFD06A90CA801F074F855
:203D80002349FEF797FD06A801F0FEFA214906A8FEF700FD06A90CA801F066F80221FEF7C3
:203DA000D1FC06A801F0F0FA1B4906A8FEF7F2FC06A90CA801F058F83146FEF7C3FC06A83B
:203DC00001F0E2FA05F15F0214491548FDF710FA0CA9684601F03AF8694606A801F0D8FC5F
:203DE00006A8FEF7A3FF06A801F0CEFA684601F0CBFA0CA800F08EFE4EB0BDE8F08100BFB0
:203E00008C160100081000106417010096160100751601005C160100621601008916010096
:203E200030150010F0B59E4CCFB09E490CA8FEF7B1FC0CA9204601F017F80021FEF782FC33
:203E40000CA801F0A1FA98490CA8FEF7A3FC0CA9204601F009F80021FEF774FC0CA801F0C1
:203E600093FA92490CA8FEF795FC0CA9204600F0FBFF0021FEF766FC0CA801F085FA8C492A
:203E80000CA8FEF787FC0CA9204600F0EDFF0021FEF758FC0CA801F077FA86490CA8FEF707
:203EA00079FC0CA920460026002700F0DDFF0021FEF748FC0CA801F067FA7F490CA8FEF788
:203EC00069FC0CA9204600F0CFFF0021FEF73AFC0CA801F059FA79490CA8FEF75BFC0CA9E9
:203EE000204600F0C1FF0021FEF72CFC0CA801F04BFA73490CA8FEF74DFC0CA9204600F0CB
:203F0000B3FF0021FEF71EFC0CA801F03DFA6D490CA8FEF73FFC0CA9204600F0A5FF002179
:203F2000FEF710FC0CA801F02FFA67490CA8FEF731FC0CA9204600F097FF0021FEF702FC77
:203F40000CA801F021FA61490CA8FEF723FC0CA9204600F089FF0021FEF7F4FB0CA801F0F2
:203F600013FA5B490CA8FEF715FC0CA9204600F07BFF0021FEF7E6FB0CA801F005FA554918
:203F80000CA8FEF707FC0CA9204600F06DFF32463B46FEF7EAFB0CA801F0F6F94E490CA84C
:203FA000FEF7F8FB0CA9204600F05EFF32463B46FEF7DBFB0CA801F0E7F948490CA8FEF72E
:203FC000E9FB0CA9204600F04FFF32463B46FEF7CCFB0CA801F0D8F941490CA8FEF7DAFB71
:203FE0000CA9204600F040FF32463B46FEF7BDFB0CA801F0C9F93B490CA8FEF7CBFB0CA9C2
:20400000204600F031FF32463B46FEF7AEFB0CA801F0BAF90023344D684629468DF8303085
:20402000CDE90D33FEF7B6FB69460CA800F01CFF2946064606A8FEF7ADFB06A9204600F06B
:2040400013FF0146304600F066FF06A801F09CF9684601F099F9254906A8FEF79BFB06A981
:204060000CA800F001FF2249FEF724FC06A801F08BF90CA9684600F0E9FE694606A801F071
:2040800087FB06A8FEF752FE06A801F07DF9684601F07AF90CA800F03DFD4FB0F0BD00BF3B
:2040A00008100010A4160100A9160100AE160100B3160100B8160100BD160100C216010052
:2040C000C7160100CC1601007A160100D61601008C160100261701002B1701009E160100C8
:2040E0002F170100361701006417010096160100E016010000B5D1B01022002101A806F0E3
:204100000FF9142200210DEB020006F009F93A230093184B05A91B6868469847164910A826
:20412000FEF738FB10A9154800F09EFE1449FEF7C1FB10A801F028F9059AC2B9069B1149C8
:2041400010A806F0C3FCDDE907230E4910A806F0BDFC09490AA8FEF71DFB0AA9074800F041
:2041600083FE10A9FEF7A6FB0AA801F00DF951B05DF804FBE80000106417010008100010D5
:20418000691301006C16010070B50024E0B006468DF87840CDE91F4406F050FE4FF0FF33EF
:2041A0000593012330440AAD049003A91EA8CDE908548DF8284003968DF818400793FEF70E
:2041C000B7FCB0B93849079A0EA806F07FFC0EA908A801F05DFA03A8FEF78EFB431C08D06B
:2041E0000A2806D01F28F6DDC1B208A801F06EF9F1E708A801F0C8F82C490EA8FEF7CAFA05
:204200000EA91EA800F030FED0F800410EA801F0BBF827490EA8FEF7BDFA0EA91EA800F061
:2042200023FED0F800110EA8019101F0ADF8631E0199092B09D8DFE803F0052527292B2DEA
:204240002F3133351B48FEF761FA00231EA90EA809938DF82830089500F0F8FD0EA908A8E1
:2042600001F0A6F80EA801F08FF8089A12491348FCF7BEFF08A801F087F81EA800F04AFC5D
:2042800060B070BD0E48DEE70E48DCE70E48DAE70E48D8E70E48D6E70E48D4E70E48D2E74E
:2042A0000E48D0E70E48CEE7E71601000617010012170100280E00101E170100941500106B
:2042C000400E0010580E0010700E0010880E0010A00E0010B80E0010D00E0010F80D00103F
:2042E000100E001000B50848A1B0FCF7B5F938B16A2269460548FCF765FF6846FFF744FFEA
:2043000021B05DF804FB00BF64150010941500102DE97043044699460E469046FCF7C0FFA9
:20432000636B23B994F838300BB1FCF7DBFB04F12805B54207D02846FCF73CF81DB1314690
:204340002846FCF7CBFD42464B462046FCF772FABDE87043FCF7BABF08B50248FCF744F85C
:2043600008BD00BFCC0A001008B50248FCF73CF808BD00BFCC0A001038B504460D4610227F
:20438000002105F0CDFF0CB12B682360014BE36038BD00BFFC10010000B51B4B8BB00AA90F
:2043A00041F8243D02A8FFF7E7FF02A906A8FCF795FD164A06A900231548FFF7A9FF06A824
:2043C000FBF7F8FF02A8FBF7F5FF124B0AA941F8283D02A8FFF7D0FF02A906A8FCF77EFD80
:2043E00007A3D3E9002306A90B48FFF791FF06A8FBF7E0FF02A8FBF7DDFF0BB05DF804FBA6
:20440000404B4C0000000000E927000080841E00C0140010892D00004814001000B54FF495
:20442000165195B09848FCF7EDF80022012308219548FCF7FAF8954B14A941F8143D10A808
:20444000FFF79AFF002210A98F48FCF76BF910A8FBF7B0FF4FF08040FDF7FCFA4FF41651D8
:204460008B48FCF7CFF80022012308218848FCF7DCF88848FDF7EEFAFFF73CFEFFF7D2FC09
:20448000FFF78AFF4FF07E50FDF7E4FA00218248FBF7DEFF00218148FBF7DAFF0021804866
:2044A000FBF7D6FF00217F48FBF7D2FF00217E48FBF7CEFF00217D48FBF7CAFF00217C485E
:2044C000FBF7C6FF00217B48FBF7C2FF00217A48FBF7BEFF00217948FBF7BAFF002178488E
:2044E000FBF7B6FF00217748FBF7B2FF00217648FBF7AEFF00217548FBF7AAFF744B14A91F
:2045000041F8183D10A8FFF737FF10A96248FBF7CAFF10A8FBF74EFF6E4B14A941F81C3D0C
:2045200010A8FFF729FF10A95C48FBF7BCFF10A8FBF740FF684B14A941F8203D10A8FFF7FE
:204540001BFF10A95648FBF7AEFF10A8FBF732FF624B14A941F8243D10A8FFF70DFF10A9F9
:204560005048FBF7A0FF10A8FBF724FF5C4B14A941F8283D10A8FFF7FFFE10A94A48FBF75B
:2045800092FF10A8FBF716FF564B14A941F82C3D10A8FFF7F1FE10A94448FBF784FF10A8BC
:2045A000FBF708FF504B14A941F8303D10A8FFF7E3FE10A93E48FBF776FF10A8FBF7FAFE2D
:2045C0004A4B14A941F8343D10A8FFF7D5FE10A93848FBF768FF10A8FBF7ECFE444B14A9EC
:2045E00041F8383D10A8FFF7C7FE10A93248FBF75AFF10A8FBF7DEFE3E4B14A941F83C3D9E
:2046000010A8FFF7B9FE10A92C48FBF74CFF10A8FBF7D0FE384B14A941F8403D10A8FFF7AF
:20462000ABFE10A92648FBF73EFF10A8FBF7C2FE324B14A941F8443D10A8FFF79DFE10A91B
:204640002048FBF730FF10A8FBF7B4FE2C4B14A941F8483D10A8FFF78FFE10A91A48FBF73B
:2046600022FF10A8FBF7A6FE264B14A941F84C3D10A8FFF781FE154810A9FBF714FF10A8DB
:20468000FBF798FEFEE700BF64150010E5420000001500100000404010110010A0110010A7
:2046A000E81100103012001078120010C01200100813001050130010981300105811001051
:2046C000300F0010E80E0010C00F0010780F0010552F0000553000005531000055320000F9
:2046E00055330000553400005535000055360000553700005538000055390000853A00002E
:20470000BD3B0000ED3C00002DE9F34100254FF416589B4C9B489C4F22469C499C4E0570F7
:20472000C0E90155FDF71AF83846FEF7AFF83846984F22463146FDF711F83846FEF7A6F808
:204740003846954F22463146FDF708F83846FEF79DF83146914E22463846FCF7FFFF904F10
:204760002B46CDF800808F4A8F493046FBF728FF30468E4E22463946FCF7F0FF2B46CDF8F2
:2047800000808B4A8B493046FBF71AFF224639463046FCF7E3FF884B18221846294605F06E
:2047A000BFFD8649FCF751F9012285498548FEF75DF82A4684498548FEF758F82A4684499D
:2047C0008448FEF753F82A4683498448FEF74EF82A4683498348FEF749F82A468249834847
:2047E000FEF744F82A4682498248FEF73FF82A4681498248FEF73AF82A4681498148FEF734
:2048000035F8814E2A4681498148FEF72FF82A4680498148814DFEF729F881493046FBF765
:20482000E9FD30467F4E22462946FCF797FF7E493046FBF7DFFD30467C4E22462946FCF7DA
:204840008DFF7B493046FBF7D5FD3046794E22462946FCF783FF78493046FBF7CBFD3046DE
:20486000764E22462946FCF779FF75493046FBF7C1FD3046734E22462946FCF76FFF724924
:204880003046FBF7B7FD3046704E22462946FCF765FF6F493046FBF7ADFD30466D4E224637
:2048A0002946FCF75BFF6C493046FBF7A3FD30466A4E22462946FCF751FF69493046FBF71D
:2048C00099FD3046674E22462946FCF747FF66493046FBF78FFD3046644E22462946FCF772
:2048E0003DFF63493046FBF785FD3046614E22462946FCF733FF60493046FBF77BFD3046C6
:204900005E4E22462946FCF729FF5D493046FBF771FD30465B4E22462946FCF71FFF5A49D3
:204920003046FBF767FD3046584E294635462246FCF714FF564F574B384645F8043BFBF704
:2049400053FD55492846FDF797F8544D3846FBF74BFD224652493046FCF700FF0B225149ED
:20496000284600F08FFB22464F492846FCF7F6FE02214E4802B0BDE8F04100F035BB00BF1A
:20498000C800001008100010C01400102D270000B9080000E8130010481400100015001082
:2049A0006505000003C0092002C009206415001010C009200FC009202814001030C00920D7
:2049C00031C009204C15001044C00920280E001045C00920400E001046C00920580E0010A8
:2049E00047C00920700E001048C00920880E001015C00920A00E001016C00920B80E001091
:204A000020C00920D00E0010101100103CC00920F80D00103DC00920100E00106D0400006F
:204A200004C00920A011001005C00920E811001006C009203012001007C009207812001006
:204A400008C00920C012001009C009200813001011C009205013001012C009209813001043
:204A600013C009205811001014C00920300F001000C00920E80E001001C00920C00F0010BD
:204A800041C00920780F001040C0092040140010CC0A00104816010019C0092088140010D5
:204AA0002B27000018C009208F500000E013001010B50446006800F009FD204610BD000021
:204AC00000F1080373B5044603600D46E1B1084606F0B4F90F2805EB0006019007D900226F
:204AE00001A9204600F02CFC019B2060A36032462946206800F050FC00212046019B226817
:204B00006360D15402B070BD014800F0E9FB00BF3D170100F8B503780446052B28D0062BD2
:204B20000DD0042B08D1D0F800512DB1284600F02BFC2846FCF752FE00232370F8BD0025D3
:204B400000F10C06A368AB4226DD56F8047B2FB13846FFF7DFFF3846FCF740FEF76C2FB166
:204B6000384600F011FC3846FCF738FE0135E9E7002500F1AC076368AB420ADD57F8046BE7
:204B80002EB13046FFF7C6FF3046FCF727FE0135F1E700236360CFE70023A360CCE773B5CC
:204BA00002ADD0E9004645F8041D2644331B002B05DD14F8011B2846FFF77AFFF6E702B090
:204BC00070BD00002DE9F04F074689B008AC44F8181D0D4620462221FFF76AFFDFF8D8900E
:204BE0003E68DFF8D8A0D7E9003213449E424CD032780C2A3BD007D8092A3ED00A2A38D034
:204C0000082A06D1254924E0222A21D01AD80D2A31D01F2A01D97F2A31D14FF0000B49460B
:204C200020460DF1200805F051FF48F81C5D14F80B1040460BF1010BFFF73AFFBBF1060F45
:204C4000F5D110E02F2A10D05C2AE2D1144900E051462046FFF734FF20462946FFF79FFF60
:204C6000204600F091FB0136BDE70E49F1E70E49EFE70E49EDE70E49EBE70E49E9E7029509
:204C800031782046FFF714FFEDE7222120460295FFF70EFF09B0BDE8F08F00BF70170100C1
:204CA0006A1701006D1701007317010076170100791701007C1701007F1701006717010099
:204CC0001FB50B780446032B24D8DFE803F00209121A11492046FFF7F3FE204604B010BD8A
:204CE00091F800110D4A0E4B002914BF11461946F0E7D1F8002101A80A4905F0E7FE01A977
:204D0000E8E701F58071D1E9002301A8064905F0DDFEF4E70021DDE7911701008617010031
:204D20008B170100961701009917010038B5052313290446037018DC45688D420FD14FF4D0
:204D40008470FCF73FFD00230370C0E90133636804EB85050133C5F8AC00636038BD04DD43
:204D600000EB8104D4F8AC00F8E74FF48470FCF729FD00230370C0E90133EFE72DE9F0438A
:204D8000037887B0052B05460C460AD0062B28D0042B4FD1D0F80001FFF714FF07B0BDE814
:204DA000F08306AE46F8181D30465B21FFF780FE00276B68BB420EDD27B12C2130460094E2
:204DC000FFF776FE39462846FFF7B0FF2146FFF7D5FF0137EDE75D2100943046FFF768FEB6
:204DE000DCE706AE46F8181D30467B21FFF760FE002705F10C08AB68BB4218DD27B12C2108
:204E000030460094FFF754FED8F850002146FFF7D9FE3A2130460094FFF74AFED8F8000079
:204E2000214608F10408FFF7A9FF0137E3E700947D21D2E701466846FFF742FF684621463A
:204E4000FFF7ADFE684600F09FFAA7E710B5044604F108032360002308466360237221462A
:204E6000FFF78CFF204610BDF8B50646062304460F46002506F85C3BA368AB420CDD56F8D4
:204E8000043B3868196805F0FBFE18B904EB8504E068F8BD0135EFE7142B08BF13234FF0F7
:204EA000180008BFA360FCF78DFC0546394600F06FFCA3684FF4847004EB8303DD65FCF783
:204EC00081FC00230370C0E90133A36804EB83020133D060A360DCE7F8B504460F460025C8
:204EE00000F15C06A368AB420CDD56F8043B3868196805F0C5FE18B904EB8504E068F8BDD2
:204F00000135EFE74FF48470FCF75CFC00230370C0E90133F3E72DE9F04188428CB005461E
:204F20000C4639D0FFF7F6FD23782B70013B052B32D8DFE803F02D353A430309002604F1C1
:204F4000AC076368B34244DC002604F15C07A368B34221DD3968684600F01AFC69462846D0
:204F6000FFF782FF57F8041B804606A800F010FC06A92046FFF7B0FF01464046FFF7CBFF95
:204F800006A800F001FA684600F0FEF90136DEE794F8003185F8003128460CB0BDE8F0813C
:204FA000D4F80031C5F80031F6E704F5807405F58073D4E90001C3E90001EDE71820FCF7E5
:204FC00001FC0646D4F8001100F0E2FBC5F80061E2E731462846FFF7A9FE57F8041BFFF711
:204FE0009AFF0136ADE70000054B19B1012904D1044A00E0044A1A607047044AFBE700BF98
:20500000B0150010CDCCCC3DA4703D3E022B873DF8B5104C104D2046FBF78AFC20462C467D
:205020000E4E0F493246FCF799FB0E4F0E4B384644F8043BFBF7D8F90C492046FCF71CFD84
:205040003846FBF7D1F932462846BDE8F8400849FCF784BBC0150010B4150010C80000103A
:20506000EF080000CC0A0010481601001AC009202B27000043691A6843681A4214BF012076
:205080000020704782610122016102757047704708B583690B2B03D0162B05D0002002E022
:2050A000406A02F04DF908BD436A806A03F07F0200EB02200A2290FBF2F01B0648BF4042EE
:2050C000EFE7C06870470000012908B580680AD10D4902F089F90D4902F03AFA4FF0844127
:2050E00002F07AF808BD0229FCD101F08DFD04A3D3E9002301F02AFC02F018F8F2E700BFDD
:205100006666666666127140000010410000A04008B583690B2B03D0162B05D0002002E0D3
:20512000C06902F00DF908BDD0E907230A2003EB022393FBF0F0F4E72DE9F04F0446B1B020
:205140000020FCF713FC2769182205460E4601A8002105F0E5F8394601A8FBF763FC00238C
:205160001A4607AF47F823200133292BFAD1237D2BB92368EB1A012B04DC0720AAE0C4E9C6
:20518000005622754FF07E080220FCF753FC01A8FFF770FF00284BD0FCF782F8012101A870
:2051A000FCF73EFDFCF792F8059B029A12201A60FCF75CFC049B029A28201A60FCF73AFCEB
:2051C000FCF76EF8002101A8FCF72AFD4FF02908FCF77CF80120FCF72DFC01A8FFF74AFF96
:2051E00001282AD05020FCF725FCB8460DF1BC0B4FF000094FF04C0A0120FCF71BFC01A894
:20520000FFF738FFF0B12820FCF714FC01A8FFF731FF4FF0650A48F8290001A8FFF72AFFC7
:20522000012814D1BAF1010A11D0FCF703FCF4E7B8F10108A8D101204CE0B8F10108C9D138
:20524000022047E0BAF1010AD6D1052042E009F10109B9F1080FCDD108F12008D845C7D128
:20526000FCF71EF8012101A8FCF7DAFCFCF72EF84FF0010E029A049B04F1300C1A6004F14F
:205280001C020123002157F8230020B1C3F108000EFA00F001430133092BF4D142F8041BEA
:2052A000624507F12007ECD1D4E907321344626A1344A26A1344E26ADBB29A420DD1C4E958
:2052C00000562046FFF7E4FEA0602046FFF720FFE060002031B0BDE8F08F0620FAE7000053
:2052E00038B50546082000F0DBFA2946044601F077F92046044A054901F032F8204600F0FC
:20530000E7FA00F009FB00BF5D6500004019010038B50546082000F0C3FA2946044601F026
:2053200073F92046044A054901F01AF8204600F0CFFA00F0F1FA00BFB16500004C190100C7
:20534000086808B500281ADB90420AD95200904207D2002A0ADBBDE808400A60501CFCF78C
:2053600031BA0130BDE80840FCF72CBA6FF000434FF000400B60BDE80840FCF723BA0148B9
:20538000FFF7C6FFFC17010050F8083B834202D01846FCF723BA7047521A012A03D002B912
:2053A000704704F0E5BE0B7810B4037010BC704788422CD02DE9F041804658F8087B4E6806
:2053C000B8450CBF0F22826882B0B2420D4604460CD32EB1012E29681AD10B783B70276801
:2053E00000236660BB5502B0BDE8F08102A941F8046DFFF7A5FF07462068804501D0FCF79F
:20540000EDF9019B2760A360002EE9D0E2E770473846324604F0ACFE2768E1E72DE9F04FD9
:2054200004460D4683B00C9E40682168914604F10808B21A024488450192A0EB050714BF09
:20544000A2680F2201A920469B46FFF779FFA7EB0907824625B1012D216827D10B780370CD
:20546000BBF1000F00D0C6B920685FB12E44012F4D440AEB060300EB05011BD1435D0AF8DA
:2054800006302068804501D0FCF7A8F9019BC4F800A0A36003B0BDE8F08F012E0AEB050029
:2054A0000ED19BF800300AF80530DDE72A4604F05FFED5E73A46184604F05AFE2068E1E758
:2054C0005946324604F054FECEE700BF0346F0B553F8082B46689A420CBF0F238368751C8C
:2054E0009D4283B004460F4607D901220023009231461A46FFF792FF2268002197552368C3
:205500006560595503B0F0BD2DE9F04F164685B0044602F100424068013A0E9D121A9542C2
:2055200000F2B180224652F8088BA5EB060A90450CBF0F22A26800EB0A07BA42894636D3B8
:20554000421A921B4345029208EB010B1BD2029A5AB1AE4209D0012A0BEB05000BEB0601A7
:2055600049D11BF806200BF8052025B1012D24D11B7808F809300022204623686760DA55E2
:2055800005B0BDE8F08F40448342E0D815B3AE4239D2029A1ABB5E445A19964244D3012DCB
:2055A000E6D02A461946584604F058FEE3E7009532462046FFF732FFDDE72A4619465846E9
:2055C00004F0D6FDD7E719462A465846039304F045FE039B029A002ACDD0AE42CBD0029AE4
:2055E0000BEB0500012A0BEB060117D11BF806200BF805200FE0029A039304F02FFE039B5F
:20560000002DB3D1B7E7012DDDD11A7808F80120029A002AE1D1AE42BDD3ACE7029A0393EF
:2056200004F01CFE039BF6E79E4208D8012D03EB0A0118D02A46584604F09AFD9BE7F61AE7
:20564000012E0CD0CEB9AA1B012A0BEB06000BEB05010DD0002A8ED004F08AFD8BE71B78EB
:2056600008F80930EFE713F80A3008F8093082E71BF805300BF806307DE7194632465846DA
:2056800004F0ECFDDFE70148FFF742FE9C17010030B5044683B008460D4605F0CFFB6268A8
:2056A0002B46009000212046FFF72EFF03B030BDF0B5044650F8085B676885420CBF0F2075
:2056C000A068BE18864283B00DD832B1012A05EB070011D10B78EB55256800232046666086
:2056E000AB5503B0F0BD00920B46002239462046FFF794FE2568F0E704F03AFD2568ECE7E9
:2057000038B5044608460D4605F098FB6FF0004362689B1A834205D3024629462046FFF758
:20572000C7FF38BD0148FFF7F3FD00BFE417010070B5054682B0F1B1541A0F2C0E460194EE
:205740000CD80268012C104619D10B7813702A680021019B6B60D15402B070BD002201A99E
:20576000FFF7EEFD019B2860AB602246314604F0FFFC2A68ECE72AB901920268E8E7002C0B
:20578000E6D0F2E70148FFF7ABFD00BFB817010010B5044600F108030360D1E9003219464B
:2057A0001A444FF00003FFF7C3FF204610BD00BFFCF714B8F0B4204CA0F1080663682BB388
:2057C00050F8087CF519AB4220D81AD0596851B38D4204D32BE095420B4604D211464A68A3
:2057E0001C1D002AF7D1954215D023681A6899188E4215D05B6840E9027323685E60F0BCF9
:205800007047D3E90023174440F8087C40F8043C6660F0BC7047D5E9002317444B60E4E788
:2058200017441F60F5E70A4604341946DBE70A4604341946D7E700BFE015001030B4174C59
:2058400000F108026368082A38BF082203B30732196822F007028A4204D81BE001688A42CC
:2058600005D9034658680028F8D130BC704704338C1A072C456808D981184D608450186875
:2058800002601960083030BC704701601D60F9E71846EAE71846231DEAE700BFE015001032
:2058A00010B500F18004204604F07AF938B1034680220021184604F033FD803010BD204687
:2058C000FFF7BCFF03460028F2D100F0D3FC00BF064A80389368984203D9D2681344984241
:2058E00001D304F065B9FFF765BF00BFE015001038B54FF41E65074C2846E56004F050F9EE
:20590000A06020B100236060C0E9005338BDE060606038BDE01500101EB400F08DF81EBCC7
:2059200002F036FEF0B5027883B0472A0D461F461ED00023254C0193236820469B689847DD
:2059400080B10226019B1B6801932B68214628461C6901AA0123A04730B13046019B3B600A
:2059600003B0F0BD0126F0E70646304603B0F0BD43784E2BDDD18378552BDAD1C378432BF6
:20598000D7D10379462B15D00379432BD1D143792B2BCED183792B2BCBD1C379012BC8D85A
:2059A00050F8204C02D058300190C5E7204654F8784CF9E743794F2BE6D18379522BE3D12C
:2059C000C379002BE0D10193014CB5E7301801002818010010B5044600F0FEF82378A4F183
:2059E0002002472B04D0836823BB8260012010BD63784E2BF7D1A378552BF4D1E378432B61
:205A0000F1D12379432BEED163792B2BEBD1A3792B2BE8D1E379012BE5D854F8043C0133DD
:205A2000012B44F8043CE1D1836844F8083C8260012010BD00F01EFC08B500F0CDF883686A
:205A400083B393F82020472A04D00022826003F1200008BD93F821204E2AF6D193F822204B
:205A6000552AF2D193F82320432AEED193F82420432AEAD193F825202B2AE6D193F8262046
:205A80002B2AE2D193F82720012ADED8DA69013ADA61002ADBD10022996981609A6103F1C8
:205AA000200008BD00F0E6FB38B5044600F094F822780368472AA4F1200104D08BBB1C46D5
:205AC0000160204638BD62784E2AF7D1A278552AF4D1E278432AF1D12279432AEED1627967
:205AE0002B2AEBD1A2792B2AE8D1E279012AE5D854F80C2C002A11DB013245688B4205F1EC
:205B0000FF3544F80C2C45601CBF44F8103C01602046646A02F074F9204638BDC2F10102D0
:205B2000EBE700F0A7FB00BF08B500F051F80246006870B390F82030472B06D000232030E6
:205B40001360BDE8084002F05DB990F821304E2BF4D190F82230552BF0D190F82330432B62
:205B6000ECD190F82430432BE8D190F825302B2BE4D190F826302B2BE0D190F82730012B8D
:205B8000DCD84369002B05DB013B002B07D00DDB436108BD0133FBD101691160F8E70369E5
:205BA00020301360BDE8084002F02CB900F062FB704700BF704700BF0048704714180100F9
:205BC00010B504460421FFF7F3FD204610BD00BF00487047F015001000487047F015001091
:205BE0005028F8B51CD000F00F040C2C56D8DFE804F0074151071F555555552723071F00ED
:205C0000144654F8045B45B100F07006102E08BF114602060D4448BF2D681D602046F8BD3A
:205C2000033222F0030454F8045B1D602046F8BD144654F8085BE6E7144634F9025BE2E750
:205C4000002514462F4614F801CB0CF07F06BE401CF0800F45EA060507F10707F3D11F2F0C
:205C6000D1D81CF0400FCED04FF0FF3606FA07F73D43C9E7002514462F4614F801CB0CF018
:205C80007F06BE401CF0800F45EA060507F10707F3D1B8E7144634F8025BB4E702F07EFE57
:205CA00000F07000202811D00BD9402806D050280AD030280DD1084602F066BE084602F00D
:205CC00053BE08B1102804D100207047084602F05FBE08B502F062FEF8B50C461546074603
:205CE00008B102F041FE286026780134FF2E28D168602378601CFF2B2B7532D00024102337
:205D000022462B7510F8011B01F07F039340090644EA030402F10702F4D40444EC60002451
:205D20002246037801306B7510F8011B01F07F0393401C430B0602F10702F5D404442C61FB
:205D4000F8BD39463046FFF7ABFF224601462B1D3046FFF745FF04462378601CFF2B2B7527
:205D6000CCD10023EB60DAE700232DE9F04F00F0030499B0012C884617460C9300F09580A3
:205D80000DD3022C40F05F823946404602F0D6FD002800F09A80092019B0BDE8F08F0207C9
:205DA000F2D401230493002318AA42F82C8D009219460C22384602F04DF8384602F0DAFD6F
:205DC00005900028E0D012AB1A46059938460693FFF782FF05469DF85C00FF2800F0E48056
:205DE0003946FFF75DFF044600230DF1440B1946CDF800B00F223846149402F009F8119E4B
:205E0000169B26F001069D4206F1FF3680F0D3800DF13C0A0DF140099DF85D400021FF2CDD
:205E200003D02046FFF73CFF01462A4620465346FFF7D6FE9DF85D400546FF2C4FF0000190
:205E400003D02046FFF72CFF01462A4620464B46FFF7C6FE9DF85D400546FF2C4FF0000198
:205E600003D02046FFF71CFF01462A4620465B46FFF7B6FE00240546214615F8012B02F06F
:205E80007F038B401C43130601F10701F5D4129B0F9A1344B3421FD9049BDB0700F191805D
:205EA000049B1C0715D500F0E5F910F008041CD018AA42F82C1D009244F0020419460C22D2
:205EC0003846049401F0C6FF77E7082019B0BDE8F08F404600F0B4FC109A1344B34200F275
:205EE0008880169BAB4297D8D6E712AB009306930D22234621463846D8F8205001F088FFB2
:205F0000129B9D4202D0022304934CE718AB43F82C8D0093214623460C22384601F09AFFE4
:205F2000D8F830300393002BD3D0D8F828300DF13C0A1A46D8F82C300DF14009059313469D
:205F4000002B1C46C0F228810325002318AA42F8288D1946009238461A4601F07BFF002300
:205F600001221946CDF800A038460F9401F072FF00230F221946CDF80090384601F048FFF9
:205F80000023109A039C02F001021443CDF80090384619460F22109401F05CFF022D05D0F2
:205FA000072019B0BDE8F08F00241DE74046FFF711FD0720F0E6049BD9077FF571AF0DF10D
:205FC00040090024039400230D221946CDF8009038460C9D01F01CFF059A109BC8F82C202E
:205FE000039AC8E90954C8F83020C8F820300620D2E6119B002B3FF4C7AE139A9A18039285
:20600000002C00F0F180169B013C2344002A3FF4BBAE002B00F0F980049A12F008020992FF
:2060200000F0048147254E245520432146224F264FF0520C4FF0000E88F8005088F80140DC
:2060400088F8020088F8031088F8042088F8056088F806C088F807E00022CDE90A7A079200
:20606000CDF820900024214600E02B461D4615F8010B00F07F028A40060644EA020401F1E6
:206080000701F2D41F2905D8400603D501228A40524214430026A146314613F8010F00F088
:2060A0007F028A401643020601F10701F5D41F2905D8470603D501238B405B421E43002C0E
:2060C0004CD04EDC159B04F1010ACAEB8A7203EB820753F82210B8F1000F01D0099B2BB11C
:2060E00051B3002E00F08A80AB19BBE70C9B119329B990E057F8041F002900F08C8039445D
:206100005B4600224046FFF70DFC0028F2D0E8E7E3005B42159A14991A44089BFFF760FD4E
:20612000109949B1B8F1000FDBD00CAB00224046FFF7F8FB0028D4D0049B4A46DDE90A7ACC
:20614000D807DDF820903FF53EAF099B002B3FF4F6AE002CBFF6F8AE00F09AF8012307934D
:20616000BFE79DF85C00FF283AD000F00703042B69D801A252F823F0936100004762000050
:206180008D610000936100001161000063005B42C0E7A3005B42BDE701331D46DDE90512AC
:2061A0003846FFF799FD9DF85C00FF281AD03946FFF776FDC5EB8572159D92001490AB5859
:2061C000154433B12A46002352F8041F01330029FAD10422C8E90A30C8E90C250325B4E6A5
:2061E000002397E70020E5E7039B002B3FF4CCAD049BDA073FF5C8AD0225A6E6DDE90A7A77
:20620000DDE90739002B3FF4BFAD049BDD073FF5BBAD0024F0E7049B5546DE070A9FDDF8F7
:206220002CA0DDF820903FF5CEAEB7E798F80720012A0CBF58F8202C08F158020C920BE793
:20624000FFF732FC2FE602F0A9FB00BF08B5804702F0A4FBFFF728FC02F0A0FB0D46044657
:20626000FFF762FC013501D0FFF756FB204600F0F7FA00BF08B5034B1868BFF35B8FFFF759
:20628000E5FF00BFF000001008B58047FFF7F2FF08B5034B1868BFF35B8FFFF7F5FF00BF20
:2062A000EC000010024B1868BFF35B8F704700BFF0000010024B1868BFF35B8F704700BF24
:2062C000EC000010012810B51AD8BFF35B8FA1F1280353E8002F013A43E800200028F8D1A8
:2062E000BFF35B8F5AB951F81C3C01F158040BB1204698472046BDE81040FFF7E9BA10BD3E
:2063000051F8140CFFF7A2FFF8B5002540E91E1240F8805C0446FFF7CDFF44F8700CFFF784
:20632000C1FF472143222B234E27552604F8581C0A4904F8515C04F8577C04F8566C44F85D
:20634000501C04F8552C04F8542C04F8533C04F8523C44F86C0CA4F18000F8BDC56200001E
:20636000F8B505460E461746FFF736FC044643683A460133314663602846FFF7C5FF01231D
:20638000044644F8283B204602F0F0F82046FFF78BFBFFF76FFF00BF10B5FFF71DFCD0E942
:2063A00000420132426064B194F82020472A0AD0002202602034204602F0FCF82046FFF71A
:2063C00073FBFFF757FF94F821204E2AF0D194F82220552AECD194F82320432AE8D194F872
:2063E0002420432AE4D194F825202B2AE0D194F826202B2ADCD194F82720012AD8D8626913
:2064000052426261D6E700BF10B50446024B036000F09CF9204610BD0419010010B5044605
:20642000044B036000F092F920460C21FFF7C0F9204610BD0419010070B582B0069C0E464F
:206440009442054609D0A8683146056806942C6AA44602B0BDE87040604719460192009301
:2064600000F064F8DDE900320028ECD0062002B070BD00BF2DE9F04F894681B01946DDE9B6
:206480000A4ADDE90CB81D461646074600F04EF888B1B9F1000FC8F8004088F804601BDB10
:2064A0004C44A3450CBF0624012488F80640002001B0BDE8F08F5C4515D0B8682B4605680B
:2064C000CDE90CB8CDE90A4AEC6932464946A44601B0BDE8F04F604719F1020FE7D10123BF
:2064E00088F80630E3E75146384600F01FF80028E3D088F80560DAE72DE9F04107460C4699
:2065000015461E4600F05CF908B1BDE8F081B868334606682146B4692A46A446BDE8F041ED
:20652000604700BF704700BF0020704781420FD008B5406803782A2B0CD049680B782A2B6C
:2065400008BF013104F09CFBB0FA80F0400908BD01207047002008BD4068704710B5044664
:2065600043680C4A0C49A3F10C00904282B0216005D12046FFF71CFB204602B010BD53F827
:20658000042C511E002A43F8041CF2DC01A900F071F8EEE7FC1500108419010010B5044663
:2065A000FFF7DCFF2046FBF719F9204610BD00BF10B50446024B0360FFF7D0FF204610BDF7
:2065C0009819010010B50446044B0360FFF7C6FF2046FBF703F9204610BD00BF9819010095
:2065E00010B5084B82B0044601AA40F8043B00F075F8204602B010BD2046FFF7D9FAFFF77E
:206600008BF900BF8419010010B50446FFF7E8FF014B2046236010BD98190100134B10B5D6
:2066200098421FD88842044614D94A00904238BF144604F11D02B2F5805F04F10D000BD99B
:20664000A14209D204F58054C2F30B02A41A9C4228BF1C4604F10D00FBF7B4F80022C0E99D
:20666000014210BD0248FEF753FE00BFFCFFFF3FD0190100FBF7B2B8884215D070B505461D
:2066800010B30C1A20460021FFF7C8FF012C064600F10C0305D054B90D4A96420ED1184606
:2066A00070BD2A780273F7E70A4B1846704718462946224603F05CFD0346EDE70022311944
:2066C0003460B2600A73EAE70348FEF709FE00BFFC15001008160010A419010070B5054643
:2066E00016460C4661B1084604F0A8FB2118324620464FF00003FFF7BFFF2860284670BDC5
:206700004FF0FF31F3E700BF70B500241026036884B01546CDE9026412689E6900946B4616
:206720008DF80440B0479DF8043003F00603062B09BF01202046009B2B6004B070BD00BF8E
:20674000009890420CBF06200120704710B50446024B0360FFF7E6FE204610BD201A0100FF
:2067600010B50446044B0360FFF7DCFE20460821FFF71EF8204610BD201A01002DE9F04138
:20678000069D089990468D421F460646099C0CD039463046FFF7CAFE20B10123256084F835
:2067A0000480A3710020BDE8F0810799FFF7BEFE0028EDD084F805800020BDE8F08100BFDE
:2067C00038B515461C46FFF7B1FE20B1082206232560E260237138BD2DE9F04117461C46F0
:2067E00006460D46FFF7A2FE08B9032C01D9BDE8F0812B683A4631462846BDE8F0415B69F2
:20680000184700BF0378472B01D00020704743784E2BFAD18378552BF7D1C378432BF4D115
:206820000379432BF1D143792B2BEED183792B2BEBD1C07901288CBF00200120704700BF69
:2068400010B530B10446FFF72FF92046FFF7DAFF08B9FFF70FFD54F8140CFFF7F7FC00BF1E
:206860002DE9F04F85B00246FFF7CCFF60B1D2E90C7452F8188C104652F8145C966AFFF745
:2068800013F94046FFF700FD1046FFF70DF9FFF7FFFCFFF709F9FFF7EDFC4FF00008FFF71C
:2068A00003F9FFF795F9C14603680DF1100A93F8272027F0030B012A0CBF1A6803F17802F1
:2068C000203301934AF8082DB1451BDA276807B127445346002239460198FFF723F8E8B938
:2068E0003B6804AA1B6942F8040D0093384601231049009FB847002818BF804609F1010983
:206900005C44E1E7B8F1000F10D00420FEF7C8FF094B0A4A03600749FFF722FDFFF73CFDF8
