:020000040000FA
:20000000E07F0010451C0000751C0000771C0000791C00007B1C00007D1C00000000000027
:200020000000000000000000000000007F1C0000811C000000000000831C0000851C000048
:20004000871C0000871C0000871C0000871C0000871C0000871C0000871C0000871C000088
:20006000871C0000871C0000871C0000871C0000871C0000871C0000871C0000871C000068
:20008000871C0000871C0000871C0000871C0000871C0000871C0000871C0000871C000048
:2000A000871C0000871C0000871C0000871C0000871C0000871C0000871C0000871C000028
:2000C000871C0000871C0000871C0000000000000000000000000000000000000000000037
:2000E000000000000000000000000000000000000000000000000000000000000000000000
:200100000000000000000000000000000000000000000000000000000000000000000000DF
:200120000000000000000000000000000000000000000000000000000000000000000000BF
:2001400000000000000000000000000000000000000000000000000000000000000000009F
:2001600000000000000000000000000000000000000000000000000000000000000000007F
:2001800000000000000000000000000000000000000000000000000000000000000000005F
:2001A00000000000000000000000000000000000000000000000000000000000000000003F
:2001C00000000000000000000000000000000000000000000000000000000000000000001F
:2001E0000000000000000000000000000000000000000000000000000000000000000000FF
:200200000000000000000000000000000000000000000000000000000000000000000000DE
:200220000000000000000000000000000000000000000000000000000000000000000000BE
:2002400000000000000000000000000000000000000000000000000000000000000000009E
:2002600000000000000000000000000000000000000000000000000000000000000000007E
:2002800000000000000000000000000000000000000000000000000000000000000000005E
:2002A00000000000000000000000000000000000000000000000000000000000000000003E
:2002C00000000000000000000000000000000000000000000000000000000000000000001E
:2002E00000000000000000000000000000000000000000000000000000000000FFFFFFFF02
:2003000010B5054C237833B9044B13B10448AFF300800123237010BDB00B00100000000070
:200320008007010008B5034B1BB103490348AFF3008008BD00000000B40B00108007010089
:20034000154B002B08BF134B9D46A3F5803A00218B460F461348144A121A09F045F90F4BFB
:20036000002B00D098470E4B002B00D098470020002104000D000D48002802D00C4801F08A
:200380003CF908F0CDFC2000290001F0A3FB01F031F900BF00000800E07F0010000000003E
:2003A000C51A0000B00B001045130010FB15000000000000C36810B504460BB19B68984743
:2003C000204610BD884238B504460D460AD0FFF7F1FF3CB1EB681BB15B6829462046984753
:2003E000EB68E360204638BD03680BB9031D03600068704770470000024B1A680AB91A1DBB
:200400001A607047D40B001010B5044601F04CFA204610BD074B10B5044603600020064B0E
:20042000C4E90103201D01F023FE044B20461C6010BD00BF1CFB0000A0860100DC0B0010CA
:2004400070B504460368084D1B6898472B68A34204D0A168201D01F0FFFD2C60236820460F
:20046000BDE870405B681847DC0B0010F7B504460E4617461D4603681B6898472046FFF7DB
:20048000DFFF9DF82030314683F0010300933A462B46201D01F096FE0646236820465B6865
:2004A0009847A81B18BF012003B0F0BDF7B504460E4617461D4603681B6898472046FFF70F
:2004C000BFFF9DF82030314683F0010300933A462B46201D01F01AFE0646236820465B68C1
:2004E0009847A81B18BF012003B0F0BDF8B50646044600250F46124B182246F8043B002110
:20050000304609F071F82946C4E907556562102204F1280009F068F82946102204F138004E
:2005200009F062F82346074A394604F11C0001F0B1FC3046394600F053FB2046F8BD00BF73
:2005400034FB00000506000010B5044600F06AFF04F11C0001F036FDBDE8104000F06CBFB4
:2005600010B5044600F05EFF04F11C0001F032FDBDE8104000F060BF10B50446074B40F851
:200580001C3B01F0C1FC04F13800FFF713FF04F12800FFF70FFF204610BD00BF34FB0000DF
:2005A00010B50446FFF7E8FF204601F07DF9204610BDF0B50F46044685B000F033FFFD684F
:2005C00004F138061C3465B139463046FFF7FAFE01220221204601F09FFC00F02DFF05B096
:2005E000F0BD10222946684608F0FEFF69463046FFF7E8FE6846FFF7DDFE2A46E9E7C3681F
:200600001B681847012908B502D0022907D008BD436B002BFBD02830FFF7F1FFF7E7436C09
:20062000002BF4D03830F7E70368184708B10B6803607047704703681B69184703689B6901
:20064000184703689B6A18474FF0FF307047112070477047704700F06EB8A0F13000FFF724
:20066000FABF00F06BB8A0F13000FFF7FABF000010B50446084B303003F1080240F8302CEA
:2006800003F1280284330260436000F05FFE204600F0DEF8204610BD48FB0000A0F13000D0
:2006A000E6E7A0F13400E3E710B50446FFF7E0FF204601F0F9F8204610BDA0F13000F3E7E4
:2006C000A0F13400F0E770477047000038B504461D46049B00F03AF8294604F1300000F031
:2006E0000DFE054B204603F10802226003F1280284332263636338BD48FB0000704700EBBF
:2007000001139A690C3312B1126818461047704770B505460E46044655F8043B1B689847DE
:200720002846314601F09CFE2368E6622046BDE870405B681847043001F072BF10B50C462C
:20074000043001F0B3FF204610BD00002DE9FF47044600259A46884691461F4B00F10C07D1
:200760000360C0E90155294604F11C061022384608F03AFF29461022304608F035FF10223B
:200780002946C4F82CA0684608F02EFF69463846FFF718FE6846FFF70DFE10222946684658
:2007A00008F022FF69463046FFF70CFE251D6846FFF700FE4A464146284602F011F8E16A4C
:2007C000284601F04DFE28462246044901F00EFF204604B0BDE8F087DCFB0000FF0600003C
:2007E0002DE9FF41044616468846036804EB06151B68984700F016FED8F80C200C35EB68C4
:20080000271DA2B10BB900F04BFA41462846FFF7D9FD01223146384601F0F4FE00F00CFE92
:20082000236820465B68984704B0BDE8F0810BB100F050FA10220021684608F0D5FE6946EA
:200840002846FFF7BFFD6846FFF7B4FD0022E1E77FB50446154B102203600021684608F0FF
:20086000C3FE002269462046FFF7BAFF6846FFF7A1FD10220021684608F0B6FE0122694610
:200880002046FFF7ADFF6846FFF794FD14F10C0608D004F12C05AE4204D0103D2846FFF791
:2008A00089FDF8E7204604B070BD00BFDCFB000010B50446FFF7CCFF204600F0F5FF204676
:2008C00010BD2DE9F048D0E90245D0E908BC06461BEB04024CEB050300F01AF9736B2BB12C
:2008E00006F128001B68BDE8F0481847BDE8F088D0B5044616461F4600F094FD204600F096
:2009000011F9C4E90867A06900F0B6FB821941EB0703204600F0FCF8BDE8D04000F08CBDFE
:2009200030B5044685B000F07DFD204600F0FAF8636B23B194F838300BB100F0CBF904F1A6
:20094000280510220021684608F04EFE2846FFF731FD3DB1039B1BB15B686946284698477C
:20096000039B63636846FFF725FD00F065FD05B030BD000038B505460446064B45F8283BE6
:20098000FFF7CEFF2846FFF715FD204600F0D0F8204638BDF4FB000010B50446FFF7EAFFC8
:2009A000204600F081FF204610BD10B5044600F039FD23681BB1237F0BB100F08BF90023AD
:2009C000236000F039FD204610BD10B5044600F029FD236853B9237F0BB100F061F9A069CE
:2009E00000F04AFB0123C4E902012360BDE8104000F022BDF8B5044600F014FD236883B1F0
:200A0000A06900F039FB04F10805D5E90045041B61EB050526462F4600F00EFD304639465E
:200A2000F8BD00260027F7E72DE91848044600F0F9FC2046FFF7DEFFD4E9042310EB020B0C
:200A400041EB030C2368C4E904BC1BB1237F0BB100F040F900232360BDE8184800F0ECBCCD
:200A60002DE9F041064600F0DDFCD6E904783046FFF7C0FF3C1848EB010500F0DDFC2046F8
:200A80002946BDE8F08108B5FFF7EAFF08BD10B5044600F0C7FCA06900F0EEFA0022002388
:200AA000C4E90201C4E90423BDE8104000F0C4BC002310B5002203600023C0E90223C0E946
:200AC0000423044600F0ECFA0123A06123772046FFF7DDFF204610BD03689B6818470000D8
:200AE000094B10B5002203600023C0E902230023C0E90433044600F0D3FA0449A06100F01F
:200B000043FA204610BD00BF08FC0000D90A000007B5009000F10801806900F068FA03B08B
:200B20005DF804FB00F10801806900F08ABA000010B50446024B0360FFF7F4FF204610BD6F
:200B400008FC0000036801221B69002118470022036811461B691847EFF31083DB4372B67D
:200B6000044A117829B9044903F001030B70012313707047E10B0010E00B00100022034B38
:200B80001A70034B1B7803B162B67047E10B0010E00B001070B50E460446154601F0D0F899
:200BA000013609D02046002101F0E4F829462046BDE8704001F0DBB870BD38B504460D466C
:200BC00043685AB1C26820461360012101F0D2F829462046BDE8384001F0C9B80269F2E7D7
:200BE0000322FFF7D7BF70B50E460446154601F0A7F8013606D02A462046BDE8704002213B
:200C0000FFF7DBBF70BD0022FFF7EDBF10B5044601300DD110BDA34209D12046896801F061
:200C200018FB2046BDE81040022101F02BBB0C310B685A1CEFD10248BDE8104000F01EBC5D
:200C400045FC0000884208B508D0431C06D0013106D0044800F012FC4FF0FF31084608BDEB
:200C60000146FBE714FC00000B685A1C01D118467047834201D1486870470C31F4E7000055
:200C8000421C10B5044607D0FFF7EEFF431C044602D1024800F0F2FB204610BD25FC000036
:200CA00008B500F0BFFB094B1A884FF6FF739A4204D100F0C1FB064800F0E0FB012103483D
:200CC00000F0C8FBBDE8084000F0B6BBE20B001056FC000008B500F0A5FB084B1B8823B9A5
:200CE00000F0AAFB064800F0C9FB0121034800F0BBFBBDE8084000F09FBB00BFE20B001057
:200D000083FC00002DE9F84FD0E9003405465B6898476B681B6A83423DD0236AE268C31A3F
:200D20002062A6682A481340864298464FF0000929D0D4E90AABA3FB0023B6F5004F1046F4
:200D400019462AD147F6FF7600274FEAD23830401AEB000248EA41484FEAD13901EA0701B5
:200D60004BEB01039F4208BF964202D3C4E90A2309E018F1010849F10009B2F5004A43F1A7
:200D8000FF3BC4E90AABD4E90C0110EB080241EB0903C4E90C23BDE8F88F002732463B4688
:200DA00005F018FF804612EB0A00894643EB0B01B94208BFB04202D2C4E90A01E3E718F13E
:200DC000010849F10009821B61EB0703CEE700BF40420F00824206D98A420BD9884294BF5F
:200DE000002001207047884206D98A428CBF00200120704701207047002070472DE9F14F3E
:200E00008146D0F80480FFF77DFFD9F80450D9F800A0696800294FD0D5E90C23D1E9006790
:200E2000BB4208BFB24205D3DAF8143001B0BDE8F04F1847B61A67EB0307D5E90623BB4208
:200E400008BFB2422C6906D3AB68244A93421DD1B44228BF34462A6AD8F820301444EA6870
:200E60001440A342E0D0DAF8103020469847D9F800305B68984722460146D8F82000FFF7FA
:200E8000A9FF38B3D9F800305B69CFE7B3F5004F0BD10023F903114AF00341EA564105F04D
:200EA00099FE844228BF0446D5E7A3FB06010B4A03FB07110023F2E7D8F81030D8F82000DC
:200EC000D8F80C201844DAF81030104001B0BDE8F04F184701B0BDE8F08F00BF40420F003F
:200EE0002DE9F84F4368054693F838B0BBF1000F46D10368234E1B6898472B684FF007083B
:200F00009B6998474468D0F80090231FB9F1000F08BFB1461D2B28BF2024231F08FA03F87F
:200F2000002319F1FF3043F1FF314A46C6FB080105F050FED5F804A02B68CAE900BB5B681F
:200F40000F4606469847CAF82000012000230022696800FA04F4013CC1E90A23C1F80890A1
:200F6000C1E90348C1E90667C1E90C2381F838002846FFF7C7FE2846BDE8F84FFFF73EBF65
:200F8000BDE8F88F40420F0038B505460C46FFF7A7FF00F047FA6B681C60BDE8384000F0E1
:200FA0004BBA70B5044600F03DFA2368DB68984763685B68A3B12046FFF7A4FE65686E6866
:200FC000D5E90C01D6E90023994208BF904207D3F3686B602B68002BEAD0B0689847E7E7B3
:200FE0002046FFF70BFFBDE8704000F025BA2DE9F84305460C4616461F46DDF8208000F053
:2010000011FA2846FFF77EFE00226968C4E900674B68C4F808804BB9E36082B94C6028464B
:20102000FFF7ECFEBDE8F84300F006BAD3E900894F4508BF4645EFD31A46DB68EBE7D460AA
:20104000EDE738B505460C4600F0ECF96A685368A34209D1DB6828465360FFF7CFFEBDE845
:20106000384000F0E9B91346002BF8D0DA68A242F9D1E268DA60F2E710B50446FFF730FF99
:2010800000F0D0F92046FFF73DFE00F0D5F96368D3E90C0110BD08B5FFF7EEFF08BD00007C
:2010A00000487047ACFC0000024B1B680BB1024818477047CC000010ACFC000038B5CB68F9
:2010C00004460D460BB15B689847EB682046E36038BD007B7047000038B50B4B0D460360F9
:2010E00000230446C0E9013102730848FFF77CF945B1074B1A681C6062600448FFF774F9C1
:20110000204638BD6560F8E7D8FC00002C0C0010280C001010B504460E4B03600E48FFF759
:2011200063F9A3682BB10D4A1368A3420CD1636813600948FFF758F9237B13B9201F00F069
:20114000B9FB204610BD13465A68A242FBD162685A60EEE7D8FC00002C0C0010280C001024
:2011600010B50446FFF7D6FF204600F09DFB204610BD000070B506460C480D46FFF734F939
:201180000B4B1C685CB1A06870B12A46314608F087FF48B9A06808F055FFA84204D103487B
:2011A000FFF722F9204670BD6468EBE72C0C0010280C00100020704700207047036870B523
:2011C0001B690122002104469847051E0DDB236802221B6900212046984706462368294634
:2011E0001B690022204698473546284670BD000070B50E4600250446C0E900550B4930463E
:2012000008F098FF29463044206023681A782F2A06D101332360FFF7ADFF6060204670BDE3
:20122000002AF8D0013301312360EEE7F301010000687047406808B520B1FFF74AFF431E14
:201240005842584108BD10B50446FFF7F3FF10B1606800B1043810BD406808B520B1FFF730
:2012600038FFB0FA80F0400908BD10B50446FFF7F3FF10B1606800B1043810BD40680030FD
:2012800018BF012070477047704700207047F8B50E4603680446DB6C8F1835469847BD425D
:2012A000236806D05B6C15F8011B204698470130F5D1236820461B6D9847A81BF8BDF8B524
:2012C0000E4603680446DB6C8F1835469847BD42236807D09B6C20469847431C02D005F8E2
:2012E000010BF4E7236820461B6D9847A81BF8BD00207047002070477047000010B50446C3
:201300000E4B002240F8043BFFF7E6FE0C4B0D4923605C33636000232046636100F014FB33
:20132000606118B100F06BF9204610BD06F0A8FD0168054800F0A2F8F6E700BFE8FC000041
:20134000B4FD000088FD00008BFD000010B50446094B03F10802643302604360406906F033
:20136000FDFD2046054B23604C3340F8043FFFF7D1FE204610BD00BFACFD000034FD0000AF
:201380000EB477B50446036807AD55F8046BDB6C98476069019506F0C1FE019A3146606925
:2013A0000BF004FC0546236820461B6D9847284603B0BDE8704003B0704707F065BD08F09E
:2013C00087B907F049B806F025BD000010B586B000F028F812496846FFF715FC0424039B1C
:2013E000019A96201A6000F0ABFB049B019A96201A6000F0A5FB013CF1D10424039B019A32
:201400004FF4C8701A6000F09BFB049B019A4FF4C8701A6000F094FB013CEFD1DEE700BF22
:2014200032C0092008B5FFF797FB024A13680133136008BD340C0010054B1A6832B11A6892
:20144000013A1A601B680BB9FFF798BB704700BF340C0010D0E85F3F0B449BB2C0E8523F56
:20146000002AF7D118467047D0E85F3F5B1A9BB2C0E8523F002AF7D1184670470FB408B58D
:20148000054B1A781AB90120187000F0B3F8BDE8084004B0704700BF380C001000F02CBB11
:2014A0006FF01C0070476FF015007047012070470020704770470000F8B515460C46064EBB
:2014C0008F18BC4205D014F8011B304601F0EEF8F7E72846F8BD00BF1813001038B58DB2F6
:2014E00015F0010405D0084801F0B4F8041C18BF0124EB0605D5044801F0B2F808B144F065
:201500001004204638BD00BF1813001010B5044607F0B2FC204610BD10B50C462AB104483D
:2015200001F07EF82070012010BD1046FCE700BF1813001038B51D46074B04460360074BF2
:201540001B6833B9064801F04BF92946044800F087FF204638BD00BF2CFE00001C0D0010EB
:201560001813001000207047002070470148FFF785BF00BF18FE000008B5012000F03AF82A
:201580000C4B10B51A681044EFF30881884206D30C22094B1A604FF0FF32104610BD07496C
:2015A0000C6824B10649096821448842F0D21860F3E700BFD0010010201300104C0C001094
:2015C000500C001008B5094C05462368986806F0A5FD2368D86806F0A1FDFFF75FFF08B1B3
:2015E00000F07FFA0DB1FFF7F1FEFEE7E80100100120704708B5FFF7E5FF01207047002199
:2016000008F0C8BA7047704708B5FFF7FBFF08BD08B5FFF7F8FF08BD037803F00302012A63
:201620001DBF43F002030370012000207047037823F0030343F00103037070473F2870B5AA
:2016400004462FDC184D55F820305A1C13D1022811DCFFF789FF034658B92046FFF782FF0D
:20166000034630B9114E3378BFF35B8FDB0704D50F4B45F82430184670BD3046FFF7CCFF2A
:201680000028F5D04FF416530A4A0B490848FFF751FF3046FFF7CBFF084A09490448FFF757
:2016A000A7FFE5E70023E6E7D00000103C0C0010480C001003C0092002C00920C80000107D
:2016C000B514000038B505460024FFF7B7FF0B4B43F8254030B906F0D3FB092303604FF0C8
:2016E000FF3038BD03685B699847051E04DA06F0C7FB6D420560F2E72046F2E7D0000010F3
:20170000FFF7E0BF38B50C461546FFF797FF38B906F0B6FB092303604FF0FF34204638BD1A
:2017200003682146DB682A469847041EF6DA06F0A7FB64420460EFE708B5131E06DA06F017
:201740009FFB162303604FF0FF3008BD04D0FFF7D9FF40EAE070F8E71846F6E738B50C46AB
:201760001546FFF76BFF38B906F08AFB092303604FF0FF34204638BD036821469B682A46A1
:201780009847041EF6DA06F07BFB64420460EFE7002A08B503DBBDE80840FFF7DFBF06F0F0
:2017A0006FFB162303604FF0FF3008BD10B5FFF745FF044628B906F063FB0923036020467D
:2017C00010BD0368DB699847041EF8DA06F058FB644204600024F2E71FB504220C464023BB
:2017E0000DEB020101900DF109008DF8083007F023FE214602A806F0D7FD044630B10198E2
:20180000FFF7D4FF10B12046FFF7F9FE204604B010BDFFF7CBBF38B50C461546FFF70EFFE7
:2018200038B906F02DFB092303604FF0FF34204638BD036821461B692A469847041EF6DAA6
:2018400006F01EFB64420460EFE7FFF7E4BF38B50D46FFF7F3FE044630B906F011FB092378
:2018600003604FF0FF3038BD0368DB699847002814BF4FF400534FF400436B602368204641
:201880009B6A984728610020EDE7FFF7E0BF000010B507F0E9FA044610B90248FFF7EEFD75
:2018A000204610BD78FE000007F0E6BA0048704770FE000010B504460948FEF795FD002371
:2018C0001946084A52F82300A04208BF42F823100133402BF6D10248FEF786FD10BD00BF20
:2018E000400C0010D000001010B503240E48FEF77BFD0E4B53F824206AB10134402CF9D18F
:2019000006F0BEFA182303600748FEF76DFD4FF0FF34204610BD4FF0FF32034843F82420EE
:20192000FEF762FDF5E700BF400C0010D000001010B50446FFF7D8FF0028A4BF014B43F88E
:20194000204010BDD000001070B506460C46FFF7EFFF054690B12146FFF73EFF044630B97A
:20196000074B53F82520964203D143F82500204670BD06F085FA09230360F8E70446F6E7DC
:20198000D00000100EB42DE9F04185B00546FFF7ABFF041E13DB0023294602A80193FFF768
:2019A00027FC02A8FFF76AFC1B4D064668B906F067FA1323036045F824604FF0FF342046A0
:2019C00005B0BDE8F04103B0704702A8FFF744FC074602A837B1FFF748FC0190019B45F8AF
:2019E0002430ECE7FFF72FFC06460028DFD0036802A8D3F80880FFF71BFC0B9B024601A96F
:201A00003046C04706460028E8D006F039FA7642066045F82470D0E7D000001073B50E46F2
:201A20001849054608F030FA044620B9FFF706FE204602B070BD1449284608F025FA20B9BB
:201A40000120FFF7FBFD0124F2E71049284608F01BFA20B90220FFF7F1FD0224E8E72B782E
:201A6000402B07D10422691C0DEB020007F0E4FC019CDDE726F400412846FFF783FF0446BB
:201A8000D6E700BF9DFE0000A4FE000095FE00007047704770470000084B094998684FF0F1
:201AA0008053C21802F17042126843F8042B8B42F7D14FF08052014B9A60704700ED00E080
:201AC000C400001008B5FFF7E7FFFFF7E2FFFFF7E1FF08BD08B5FFF7DBFFBDE8084001F0BC
:201AE0007BBE30B585B018246D4620462946ABBE0446204605B030BD024B186800F0010056
:201B0000704700BFF0ED00E070B50446FFF7C8FA0646FFF7C0FA05463046FFF7BCFA401BA7
:201B2000A042F9D370BD000008B5044904F0DCFE05F02AF8BDE80840FFF7E6BF0024744972
:201B40004FF47A735843FFF7DFBF00000C4B00781A6822F0FF021A600122196882400A4395
:201B60001A601A6842F080721A6058680028FCDA1A68C0F30B1022F080721A60704700BFC9
:201B80000040034070B50646FFF7E0FF04463046FFF7DCFF05463046FFF7D8FFAC4282BF2E
:201BA00023462C461D46A84228BF2846A04238BF204670BD70B50C46164D06462946204641
:201BC000FFF75EF8144B3070D3F8C420294642F48052C3F8C420D3F8A8212046BDE87040A6
:201BE00022F04072C3F8A821D3F8A82142F08072C3F8A821094B1A68094B1344094A93FBFF
:201C0000F2F3013B1B02084A43F400131360FEF7FDBF00BFACFE000000C00F40D401001069
:201C20003F5DC600405DC6000040034008B5FFF7A9FF04F001FE024904F056FE08BD00BFF7
:201C4000010880390649074A074B9A42BEBF51F8040B42F8040BF8E7044880470448004751
:201C60007C0A0100C8000010AC0B0010891C000041030000FEE7FEE7FEE7FEE7FEE7FEE7F7
:201C8000FEE7FEE7FEE7FEE72022264BC3F8A021D3F8A021920603D5D3F8A0215006FBD5D3
:201CA0000222C3F8042100220120C3F8A821C3F8AC210B22C3F80C01AA21C3F8842055223B
:201CC000C3F88C10C3F88C20C3F88000C3F88C10C3F88C20134B1A46D3F888104901FBD512
:201CE0000321C3F88010AA21C3F88C105521C3F88C10D2F8883013F0407FFAD00523C2F896
:201D00000831094BC2F8C4300023C2F8C831136823F4704323F03A0343F4405343F03A03E3
:201D20001360704700C00F40DE87280410B50021044600F08EFA012004F01F04A04010BD4C
:201D400038B505464B1C0C4629600FD00846FFF7EDFF24F01F0404F11803EB6004F11C0354
:201D60002B6104F1140368606B61AC6038BD006800F088BA11B1012907D07047826841688F
:201D8000136823EA0103136070478268416813680B43F8E72DE9F74F4FF0010A3A4C3B4AA1
:201DA000D4F80490DFF8E8B0D4F80880676AA66AB9F1000F15D1DFF8D490DFF8D4A0B8F151
:201DC000000F22D14FF0010ADFF8C080DFF8C09077BB2E4FDFF8B880002E3ED103B0BDE826
:201DE000F08FB9FA89F5C5F11F05EDB252F8250028B1DBF80030012101929847019A0AFA3C
:201E000005F5E560A9EB0509D2E7B8FA88F5C5F11F05EDB259F8250018B1DAF8003002211C
:201E20009847012303FA05F5E560A8EB0508C6E7B7FA87F5C5F11F05EDB20F2D08D805F15E
:201E4000200358F8230018B1D9F80030012198470AFA05F5E5627F1BBAE7B6FA86F5C5F1C0
:201E60001F05EDB20F2D08D805F1200357F8230018B1D8F8003002219847012303FA05F512
:201E8000E562761BA8E700BF80800240540C0010140D001070B51E464B1C044623D0134BAE
:201EA000134D1A6021F01F03036001F01F0321F05F01A942436002D00E48FFF7DFFAD4E9EC
:201EC00000320D49AB4218BF20320C4BA26041F822609B680A4A0020C3F894204FF4001215
:201EE000084B1A6070BD0846FCE700BF140D001000C0092018FF0000540C001000ED00E08A
:201F0000951D000000E100E000218268014B43F822107047540C001030B50368264CA342BC
:201F200007D0264DAB4215D001292AD1A34208D030BD01234468012903FA04F3204CE36019
:201F400021D1012341688B401D4992B10A6913430B61EDE701244368A14204FA03F5184B39
:201F6000DD62406820D181403AB11A6B11431963DEE70A6922EA0303EAE71A6B22EA0101DA
:201F8000F5E7A342D4D1012341688B400C491AB14A6913434B61CBE74A6922EA0303F9E717
:201FA0005A6B22EA010105E004FA00F1002AF7D05A6B11435963BBE700C0092040C0092000
:201FC000808002404FF40012014B1A60704700BF00E100E04FF40012034BC3F88020BFF3BD
:201FE0004F8FBFF36F8F704700E100E00168054B0A68120701D500207047013BF8D14FF0A6
:20200000FF307047A18601003421036810B51A689961120748BF08224FF024010446196040
:2020200048BF9A61FFF7E2FF2022236858689A6110BD0000102203681A6008229A61054AE7
:20204000186810F0100000D17047013AF8D10120704700BFA1860100044B49001B689B08E7
:20206000B3FBF1F10368596119617047D4010010F8B50E460446204930461546FEF700FE1D
:202080001E4907462846FEF7FBFD01463846FEF7D9FD1B4B2060984221D003F58823984273
:2020A00023D0A3F50423984206D1164AD2F8C43043F08003C2F8C43020461349FFF7CCFFB8
:2020C0003C22236830469A6140220B491A60FEF79DFD2846BDE8F8400849FEF797BD094AAF
:2020E000D2F8C43043F40023E4E7064AD2F8C43043F08063DEE700BF84FF000048FF00008B
:2021000000C0054000C00F40A08601002DE9F04E04460E4691461D46FFF776FF102809D0DC
:20212000082807D02046FFF785FF6FF001052846BDE8F08E0827236846F001069E60204667
:202140009F61FFF753FF23685B68402B2BD02046FFF770FF4FF0FF35E9E7C3F800B02046A4
:202160009F61FFF743FF23689A685B68502B04D02046FFF75FFF3546D9E709F80620013635
:20218000B2452368E9DCC3F818B020469F61FFF72DFF23689A685B68582B0AD02046FFF7E4
:2021A00049FF5546C3E7002605F1FF3A4FF0040BE6E7089B09F80620002BB8D02046FFF749
:2021C00039FFB4E72DE9F843089F04460E4691461D46FFF719FF102809D0082807D02046D0
:2021E000FFF728FF6FF001052846BDE8F8834FF00808236806F0FE069E602046C3F8188044
:20220000FFF7F4FE23685B68182B20D02046FFF711FF4FF0FF35E7E7236819F80620204680
:202220009A60C3F81880FFF7E1FE23685B68282B04D02046FFF7FEFE3546D5E70136AE4251
:20224000EADB002FD0D02046FFF7F4FECCE70026F5E710B5032400F16040A0F51C20430056
:202260000009800000F1804000F53030026803F01E039C4022EA040202600268994011436A
:20228000016010BD00F16040A0F51C2043099B0003F1804303F5303330B500F01F029C6EB5
:2022A000C1F3800505FA02F224EA02049C669C6E22439A6695B9032443000009800000F13B
:2022C000804000F53030026C03F01E039C4022EA04020264026C99401143016430BD000026
:2022E000012810B424D0022824D13823124803FB0103586801300FD10023382251430E48EF
:2023000042184058B0B113B992F8362092B10B4A1946126810BC104718699C68046093F8B6
:202320003630002BE8D1506820F001005060E4E70346E2E710BC7047200D0010180D001008
:20234000034A00219068C0F34200FFF7C9BF00BF00C00040034A01219068C0F34200FFF793
:20236000BFBF00BF00000140034A02219068C0F34200FFF7B5BF00BF00800940034A03211F
:202380009068C0F34200FFF7ABBF00BF00C0094030B52A4B04689C4224D006DCA3F5804353
:2023A0009C420CD000231D460BE0254B9C421CD003F580439C42F5D1224B082501E00525B4
:2023C000214BAAB10122606802FA01F1014361601E4905F110008968AA4041F820301C4B20
:2023E0001A6030BD1B4B0625EBE71B4B0725E8E701290AD042683820184B00FB023292F890
:20240000363092F83520D342EBD1012303FA01F2B1FA81F16068490920EA020060606268C5
:2024200003FA01F11142DCD1094AAB40C2F88030BFF34F8FBFF36F8FD3E700BF000001400B
:20244000008009407D2300004123000000ED00E000E100E05523000069230000200D0010E0
:202460002DE9F74F03685D4A824693420F464AD028DCA2F58042934237D0594BD3F800B08A
:202480003B01BBFBF3F5ACB203FB15B5002D40F093804FF00108DAF8003045EA08151A7BA1
:2024A000EDB242F080021A73C4F30722E4B21A711C7083F828501A7B02F07F021A7303B074
:2024C000BDE8F08F474A934229D002F580429342D3D1454BD3F8AC2122F44022C3F8AC211F
:2024E000D3F8AC2142F4802224E03F4BD3F8A82122F0C002C3F8A821D3F8A82142F04002EA
:20250000C3F8A821B9E7384BD3F8A82122F44072C3F8A821D3F8A82142F48072F0E7324B24
:20252000D3F8AC2122F44032C3F8AC21D3F8AC2142F48032C3F8AC219FE72A4621461D462B
:202540000BFB06FCAB1903FB07F05FEA4C0455BF4FEA8C04B4FBF0F4B4FBF0F4240958BFDA
:2025600064090134C4F34F049CB315B1012C08BF022403FB04F0C000BCFBF0F00130C7EB54
:202580005000CDE9002105F041FCDDE90021484519DA874219D08146B0462A466B1CDBB288
:2025A000B3421546C9D300230136F6B2102E3FF472AF002BC1D06EE701260025B9462146D8
:2025C000B0462A46BCE70C46E8E7B946B0460123EAE7002D14BF02240124CAE700000140AA
:2025E000D40100100080094000C00F40034B1960382341684B430249CA507047180D001074
:20260000200D001030B431B938254368034C05FB034383F8362030BCFFF7BABE200D0010AA
:2026200010B50268137DDB07FCD5382443680848117804FB03035868C9B2013006D0586940
:202640009B680360536843F001035360084610BD200D00100368187D00F00100704700006F
:202660003821114A436801FB0323DA69013209D01A6B1B6A12681A4214D10368187DC0F312
:20268000801070470268127D920604D50022012083F83420704793F834000F288CBF00205F
:2026A0000120704700207047200D001038B504460D462046FFF7D4FF0028FAD0382123689F
:2026C000EDB2054A1D70636801FB032393F83420013283F8342038BD200D00102DE9F84F22
:2026E000D0E9004699463A4B17469C4208BF237C4FF0FF3204BF03F03F0323744FF038035D
:20270000DFF8D8A0884603FB06A3DA615A604FF0000283F83520114618BF00240546FFF75C
:2027200037FEB8F1000F2CD02A493846FEF79CFA294983464846FEF797FAA8F10203012B1B
:202740001AD8B9F1FF3F0BD0214B98420CD15CB1237C214943F0800323744846FEF756FA6B
:20276000B8F1030F0DD10AE0382000FB06A049461C30FEF735FAF3E7B8F1010FF0D17B1CF3
:2027800001D1BDE8F88F07222B681A72104B9B450AD14CB1237C384643F0400323740D4960
:2027A000BDE8F84FFEF732BA382404FB06A0394600220430FEF717FA01226B68284604FB0D
:2027C00003A383F835200021BDE8F84FFFF7E0BD00000140E4FF0000C0FF0000200D0010C3
:2027E0002DE9F0410F460546474938461646FEF747FA464904463046FEF742FA0146204625
:20280000FEF720FA424B0446984228605ED048D8A3F58043984251D001234FF000082372CC
:202820004FF416512846C4F80480FFF719FE03222B6835491A733846FEF7E8F9334930462A
:20284000FEF7E4F97A1C03D041463846FFF71AFD731C03D000213046FFF714FD2C4B9C42D6
:202860004CD03FD8A3F580439C4244D038216A68284B284601FB02324FF0FF330021536057
:20288000D3611A46FFF72AFF234B9C423AD10122224B2946BDE8F0411A602148082206F056
:2028A000CBBD204B984217D003F580439842B3D11D4AD2F8C43043F0007304E01A4AD2F86E
:2028C000C43043F00803C2F8C430A5E7164AD2F8C43043F01003F6E7134AD2F8C43043F0FD
:2028E0008073F0E70F4B9C420AD003F580439C42BCD1032300E000236B60B7E70123FBE73E
:202900000223F9E7BDE8F081740001000800010000000140200D001000C000401C0D001067
:20292000181300100080094000C00F40104B1868E0B901210F4A1960D2F8C43043F4000324
:20294000C2F8C430A2F5D022106702200A4B1B6850600A48B3FBF0F3013BD360084B5160C9
:202960009B68084A1A651022074B1A60704700BF000E001000C00F40D401001000093D00B7
:2029800000ED00E0A910000000E100E008B5044B1B680BB9FFF7CAFF024B986808BD00BF0D
:2029A000000E001000400940034B98615A6942F001025A61704700BF004009401022024BF8
:2029C000C3F80021704700BF00E100E0024A536923F0010353617047004009400122014B62
:2029E0001A60704700400940436811B1C268136070470269FBE743691A6843681A4214BF07
:202A0000012000207047704710B50446FEF74CFF204610BD10B5044601F06AFA204610BDEE
:202A2000022310B5C2B08DF80030002340916946CDE9013301F05DFC0446684601F058FA73
:202A4000204642B010BD032110B5C2B08DF800100021CDE9011140A9C1E90023694601F022
:202A600048FC0446684601F043FA204642B010BD00F1080373B5044603600D46E1B10846C3
:202A800007F0E0FA0F2805EB0006019007D9002201A9204601F0A8FF019B2060A360324666
:202AA0002946206801F0CCFF00212046019B22686360D15402B070BD014801F065FF00BF92
:202AC0009E0101000000000070B52D4886B001F005FD2C4C05462C496846FFF7C9FF694640
:202AE000204601F0AFFB0646284603F00DFB02460B463046FFF7A7FF684601F099FF2349D2
:202B00006846FFF7B5FF6946204601F09BFB20490646284603F09CFF03F0F6FA16A3D3E9B8
:202B2000002303F049FB03F081FD1A4903F0DCFE03F0EAFA02460B463046FFF784FF68468D
:202B400001F076FF14496846FFF792FF6946204601F078FB114B0446186803F0D5FA0246D4
:202B60000B462046FFF76FFF684601F061FF06B070BD00BFAFF300804D36D964934D1E4079
:202B800088100010800F0010890101009101010000C07F440000664397010100E810001003
:202BA00070B504460D4616460021182206F01CFD204632462946FEF716F8204670BD0000AA
:202BC00010B50446FDF78CFF2046064B102240F8283B002106F008FD0123204684F8383059
:202BE00010BD00BFF4FB000030B5C9B004466846FFF73EFF04238DF8183000231820CDE9CC
:202C00000733FEF745FE0546694602F041F806A92046469501F06DFB044606A801F068F98A
:202C2000684601F005FF204649B030BD30B50546134C87B02369626801461A60684602F028
:202C400027F81049684601F0DBFF6946284601F003FF684601F0ECFE286806F025FD2968B1
:202C60000948FEF78DFBE36862684FF07C501A60FEF75AFF236962681A6007B030BD00BF6B
:202C800004110010A8FD00006C120010002330B5CFB00446A44968468DF83030CDE90D3395
:202CA000FFF7E6FE69460CA801F0CCFA9E49054606A8FFF7DDFE06A99C4801F0C3FA0146E7
:202CC000284601F016FB06A801F0B2FE684601F0AFFE601E08285AD8DFE810F009007C00BD
:202CE000D1003E019301E8013D02AC020103904906A8FFF7BDFE06A98C4801F0A3FAD0F845
:202D0000004106A801F094FE012C8A4B55D11A695B688749136006A8FFF7AAFE06A98348CA
:202D200001F090FA0021FFF77BFE06A801F080FE814906A8FFF79CFE06A90CA801F082FA93
:202D40000121FFF76DFE06A801F072FE7B4906A8FFF78EFE06A90CA801F074FA7849FFF774
:202D600043FF06A801F064FE764906A8FFF780FE06A90CA801F066FA04466E48FFF73BFE4C
:202D800001462046FFF74CFE06A801F051FE0CA9684601F049FA694606A801F079FF06A84D
:202DA000FFF744FF06A801F043FE684601F040FE0CA801F09DF84FB030BDDA685B685C494D
:202DC000136006A8FFF754FE06A9584801F03AFA0121A8E75C4906A8FFF74AFE06A953488A
:202DE00001F030FAD0F8004106A801F021FE012C564B37D11A695B685349136006A8FFF722
:202E000037FE06A9494801F01DFA0021FFF708FE06A801F00DFE484906A8FFF729FE06A963
:202E20000CA801F00FFA0221FFF7FAFD06A801F0FFFD424906A8FFF71BFE06A90CA801F09D
:202E400001FA3F49FFF7D0FE06A801F0F1FD3D4906A8FFF70DFE06A90CA801F0F3F90446DF
:202E60003A488BE7DA685B683749136006A8FFF7FFFD06A92D4801F0E5F90121C6E7344987
:202E800006A8FFF7F5FD06A9284801F0DBF9D0F8004106A801F0CCFD012C2E4B37D11A6916
:202EA0005B682B49136006A8FFF7E2FD06A91F4801F0C8F90021FFF7B3FD06A801F0B8FD02
:202EC0001D4906A8FFF7D4FD06A90CA801F0BAF90321FFF7A5FD06A801F0AAFD174906A800
:202EE000FFF7C6FD06A90CA801F0ACF91449FFF77BFE06A801F09CFD124906A8FFF7B8FD68
:202F000006A90CA801F09EF90446124836E7DA685B680F49136006A8FFF7AAFD06A90348F0
:202F200001F090F90121C6E7C5010100800F0010F8000100340E0010FD0001000301010094
:202F4000080101000C010100120101004C0E001017010100640E0010A94906A8FFF788FD25
:202F600006A9A84801F06EF9D0F8004106A801F05FFD012CA44B37D11A695B68A049136090
:202F800006A8FFF775FD06A99E4801F05BF90021FFF746FD06A801F04BFD9C4906A8FFF777
:202FA00067FD06A90CA801F04DF90421FFF738FD06A801F03DFD964906A8FFF759FD06A962
:202FC0000CA801F03FF99349FFF70EFE06A801F02FFD914906A8FFF74BFD06A90CA801F051
:202FE00031F904468848C9E6DA685B688449136006A8FFF73DFD06A9824801F023F9012113
:20300000C6E7864906A8FFF733FD06A97D4801F019F9D0F8004106A801F00AFD012C804B42
:2030200037D11A695B687D49136006A8FFF720FD06A9744801F006F90021FFF7F1FC06A83B
:2030400001F0F6FC714906A8FFF712FD06A90CA801F0F8F80521FFF7E3FC06A801F0E8FC5E
:203060006B4906A8FFF704FD06A90CA801F0EAF86849FFF7B9FD06A801F0DAFC664906A892
:20308000FFF7F6FC06A90CA801F0DCF80446644874E6DA685B686149136006A8FFF7E8FC26
:2030A00006A9584801F0CEF80121C6E75D4906A8FFF7DEFC06A9534801F0C4F8D0F8004117
:2030C00006A801F0B5FC012C574B37D11A695B685449136006A8FFF7CBFC06A9494801F0D7
:2030E000B1F80021FFF79CFC06A801F0A1FC474906A8FFF7BDFC06A90CA801F0A3F8062139
:20310000FFF78EFC06A801F093FC414906A8FFF7AFFC06A90CA801F095F83E49FFF764FD69
:2031200006A801F085FC3C4906A8FFF7A1FC06A90CA801F087F804463B481FE6DA685B68FF
:203140003849136006A8FFF793FC06A92D4801F079F80121C6E7354906A8FFF789FC06A99D
:20316000284801F06FF8D0F8004106A801F060FC012C2F4B37D11A695B682C49136006A8F8
:20318000FFF776FC06A91F4801F05CF80021FFF747FC06A801F04CFC1C4906A8FFF768FCBE
:2031A00006A90CA801F04EF80721FFF739FC06A801F03EFC164906A8FFF75AFC06A90CA88D
:2031C00001F040F81349FFF70FFD06A801F030FC114906A8FFF74CFC06A90CA801F032F8D9
:2031E00004461348CAE5DA685B681049136006A8FFF73EFC06A9034801F024F80121C6E7F6
:203200001C010100800F00107C0E0010FD00010003010100080101000C0101002101010019
:20322000940E001026010100AC0E00102B010100C40E0010424906A8FFF71AFC06A941485E
:2032400001F000F8D0F8004106A801F0F1FB012C3D4B37D11A695B683949136006A8FFF755
:2032600007FC06A9374800F0EDFF0021FFF7D8FB06A801F0DDFB354906A8FFF7F9FB06A91B
:203280000CA800F0DFFF0821FFF7CAFB06A801F0CFFB2F4906A8FFF7EBFB06A90CA800F00A
:2032A000D1FF2C49FFF7A0FC06A801F0C1FB2A4906A8FFF7DDFB06A90CA800F0C3FF04468E
:2032C00021485BE5DA685B681D49136006A8FFF7CFFB06A91B4800F0B5FF0121C6E71F480D
:2032E000FFF789FBB0FA80F11C484909FFF77CFB164906A8FFF7BCFB06A90CA800F0A2FF68
:203300000921FFF78DFB06A801F092FB104906A8FFF7AEFB06A90CA800F094FF1049FFF7FE
:2033200063FC06A801F084FB0B4906A8FFF7A0FB06A90CA800F086FF044608481EE500BF49
:2033400030010100800F0010DC0E0010FD00010003010100080101000C010100040E001065
:2033600035010100034BD3F88C0008B1FFF78EBC704700BF60110010F0B5A54CCFB0A5497E
:203380000CA8FFF775FB0CA9204600F05BFF0021FFF746FB0CA801F04BFB9F490CA8FFF7D9
:2033A00067FB0CA9204600F04DFF0021FFF738FB0CA801F03DFB99490CA8FFF759FB0CA998
:2033C000204600F03FFF0021FFF72AFB0CA801F02FFB93490CA8FFF74BFB0CA9204600F077
:2033E00031FF0021FFF71CFB0CA801F021FB8D490CA8FFF73DFB0CA920460026002700F09E
:2034000021FF0021FFF70CFB0CA801F011FB86490CA8FFF72DFB0CA9204600F013FF0021DE
:20342000FFF7FEFA0CA801F003FB80490CA8FFF71FFB0CA9204600F005FF0021FFF7F0FA5E
:203440000CA801F0F5FA7A490CA8FFF711FB0CA9204600F0F7FE0021FFF7E2FA0CA801F0C7
:20346000E7FA74490CA8FFF703FB0CA9204600F0E9FE0021FFF7D4FA0CA801F0D9FA6E4900
:203480000CA8FFF7F5FA0CA9204600F0DBFE0021FFF7C6FA0CA801F0CBFA68490CA8FFF713
:2034A000E7FA0CA9204600F0CDFE0021FFF7B8FA0CA801F0BDFA62490CA8FFF7D9FA0CA953
:2034C000204600F0BFFE0021FFF7AAFA0CA801F0AFFA5C490CA8FFF7CBFA0CA9204600F0B1
:2034E000B1FE32463B46FFF7AEFA0CA801F0A0FA55490CA8FFF7BCFA0CA9204600F0A2FE9E
:2035000032463B46FFF79FFA0CA801F091FA4F490CA8FFF7ADFA0CA9204600F093FE3246F6
:203520003B46FFF790FA0CA801F082FA48490CA8FFF79EFA0CA9204600F084FE32463B4610
:20354000FFF781FA0CA801F073FA42490CA8FFF78FFA0CA9204600F075FE32463B46FFF7BD
:2035600072FA0CA801F064FA3B490CA8FFF780FA0CA9204600F066FE32463B46FFF763FA79
:203580000CA801F055FA0023344D684629468DF83030CDE90D33FFF76BFA69460CA800F0ED
:2035A00051FE2946064606A8FFF762FA06A9204600F048FE0146304600F09BFE06A801F0D1
:2035C00037FA684601F034FA254906A8FFF750FA06A90CA800F036FE2249FFF705FB06A8FB
:2035E00001F026FA0CA9684600F01EFE694606A801F04EFB06A8FFF719FB06A801F018FA4B
:20360000684601F015FA0CA800F072FC4FB0F0BD800F0010F8000100120101001701010079
:203620001C01010021010100260101002B01010030010100450101004F01010059010100CF
:203640006301010091010100970101006D01010072010100760101007C010100C501010039
:20366000030101008201010000B5D1B01022002101A805F0B9FF142200210DEB020005F09C
:20368000B3FF3A230093184B05A91B6868469847164910A8FFF7ECF910A9154800F0D2FDA0
:2036A0001449FFF7A1FA10A801F0C2F9059AC2B9069B114910A806F081FBDDE907230E4932
:2036C00010A806F07BFB09490AA8FFF7D1F90AA9074800F0B7FD10A9FFF786FA0AA801F08A
:2036E000A7F951B05DF804FBD8010010C5010100800F0010A9FD0000390101002DE97043DC
:20370000044699460E469046FDF78CFE636B23B994F838300BB1FDF7C3FA04F12805B542B4
:2037200007D02846FCF746FE1DB131462846FDF7C5FC42464B462046FDF7DAF8BDE8704308
:20374000FDF77ABE0000000010B588B010220021684605F049FF1A4C1A4B694604A8009349
:203760000394FDF7ABFC002304A9174A1748FFF7C5FF04A8FCF71EFE6846FCF71BFE102226
:203780000021684605F030FF114B694604A800930394FDF793FC08A3D3E9002304A90D4846
:2037A000FFF7ACFF04A8FCF705FE6846FCF702FE08B010BDAFF30080404B4C0000000000A7
:2037C0003CFB0000C92A00008096980090100010A1380000201100101FB54FF08040FEF77F
:2037E000A3F91E4B4FF07E50DA685B681360FEF79BF94FF4E1311A48FCF78AFF4FF0804084
:20380000FEF792F910220021684605F0EDFE154B15480093154B0393FCF7CCFD694612483C
:20382000FDF74CFC6846FCF7C5FD114800F0F6FD03F006F80F4B1860FFF716FFFFF79CFD50
:20384000FFF782FF4FF07E50FEF76EF90A4805F02BFF09490948FDF793FDFEE7EC100010FF
:20386000F011001065330000D81100103CFB000088100010E8100010C80101006C12001067
:2038800008B50248FCF7B0FD08BD00BFCC0B001008B50248FCF7A8FD08BD00BFCC0B00100C
:2038A000002370B57D4CCEB0214668468DF83030CDE90D33FFF7DCF869460CA800F0C2FCAE
:2038C0002146774C054606A8FFF7D2F806A9204600F0B8FC0146284600F00BFD06A801F000
:2038E000A7F8684601F0A4F86E4906A8FFF7C0F806A90CA800F0A6FC6B4D6C49FFF774F916
:2039000006A801F095F829466846FFF7B1F869460CA800F097FC2946064606A8FFF7A8F8DA
:2039200006A9204600F08EFC0146304600F0E1FC5F4D06A801F07CF8684601F079F8294630
:203940006846FFF795F869460CA800F07BFC2946064606A8FFF78CF806A9204600F072FC16
:203960000146304600F0C5FC524D06A801F060F8684601F05DF829466846FFF779F869461C
:203980000CA800F05FFC2946064606A8FFF770F806A9204600F056FC0146304600F0A9FCB8
:2039A00006A801F045F8684601F042F8424906A8FFF75EF806A90CA800F044FC3F4C054664
:2039C000204600F0D7FE02F09FFB02460B462846FFF739F806A801F02BF8394906A8FFF71A
:2039E00047F806A90CA800F02DFC0546204600F077FF02F089FB02460B462846FFF723F867
:203A000006A801F015F82F4906A8FFF731F806A90CA800F017FC0546204600F0EBFE02F0D3
:203A200073FB02460B462846FFF70DF806A800F0FFFF254906A8FFF71BF806A90CA800F002
:203A400001FC224C05462046FCF7CEFC2048FEF7EDF806462046FCF7C7FC304602F054FB2C
:203A600002460B462846FEF7EEFF06A800F0E0FF0CA9684600F0D8FB694606A801F008F96B
:203A800006A8FFF7D3F806A800F0D2FF684600F0CFFF0CA800F02CFA4EB070BDC501010020
:203AA000800F001003010100910101004201010089010100970101006D010100480F001091
:203AC00072010100760101007C010100CC0B0010F80E00102DE9F3470025604C6048614E07
:203AE00022466149614F0570C0E90155FDF780FD3046FFF765F830465D4E22463946FDF75A
:203B000077FD3046FFF75CF839464FF4165722463046FDF76DFD2A4656495748FFF740F82A
:203B2000DFF8FC812A4655495548FFF739F82A4654495548FFF734F8544E2B460097544A4B
:203B400054494046FCF7C2FD4046DFF8D88122463146FDF74DFD2B4600974F4A4F494046FE
:203B6000FCF7B4FDDFF8C091DFF8C0A14046DFF8C08122463146FDF73BFD2B4600974A4600
:203B80004146474D5046FCF7A1FD224631465046FDF72EFD434A4449284600F02FF9224647
:203BA00042492846FDF724FD012241494148FEF7F7FF012240494148FEF7F2FF012240490F
:203BC0004048FEF7EDFF01223F494048FEF7E8FF01223F493F48FEF7E3FF01223E493F4833
:203BE000FEF7DEFF01223E493E48FEF7D9FF01223D493E48FEF7D4FF01223D493D48FEF7DC
:203C0000CFFF3D4D01223D493D48FEF7C9FF3D4E02213D4800F0D6FBEC234A4641462846D9
:203C200000F08AFD2846354622463849FDF7E0FC374F384B384645F8043BFCF7D5FB364926
:203C40002846FDF7B7FF3846FCF7CEFB22463046324902B0BDE8F047FDF7CABCC8000010D9
:203C6000800F001090100010152A0000750900002011001032C00920EC10001033C00920B4
:203C8000D010001034C00920041100107106000003C0092002C0092010C009200FC00920B3
:203CA0006011001045C0092044C00920353D000035C00920340E001036C009204C0E0010BD
:203CC00037C00920640E001038C009207C0E001039C00920940E00103AC00920AC0E0010C6
:203CE0003BC00920C40E00103CC00920DC0E001040C00920040E0010480F001041C00920C3
:203D00001C0E0010F40E00108810001049450000CC0B0010E800010019C00920072A00001E
:203D2000F01100103C1200100BC00920FC0E00100AC0092010B504467830FCF73BFB04F13E
:203D40001800FCF719FC204610BD034610B107C983E8070070477047034610B444688168B4
:203D60006210E40701EB02001B6848BF8A5810BC48BFD3581847F8B500F1180604463046B3
:203D8000FCF7EEFB00236169C4F88C3063680A681A42FCD00A20FDF7B7FE00250127236FCB
:203DA000626E02201A60FDF7AFFE636907FA05F21968636801351942D4F888304FF0020090
:203DC0000CBF13439343C4F88830D4F888301A42E36E626E18BFC4F88C501A60FDF794FE08
:203DE000102DDCD1D4F8843004F178001B6898473046BDE8F840FCF7A7BB0000F0B50446F3
:203E00000D46174685B01822002105F0EDFB29462046FCF7E5FE2946002504F118063046BD
:203E2000FCF764FB04F1600318461822002105F0DBFB3946FCF7E7FE0021102204F178003D
:203E400005F0D2FBE36E626EC4F888501A60FDF7E9FA10222946684605F0C6FB094B694692
:203E6000CDE90035084B304603930294FCF7A1FB039B13B19B6868469847FDF7DDFA2046B0
:203E800005B0F0BD773D0000E001010010B50446006800F06FFE204610BD000000F1080327
:203EA00073B5044603600D46E1B1084606F0CAF80F2805EB0006019007D9002201A9204672
:203EC00000F092FD019B2060A36032462946206800F0B6FD00212046019B22686360D1549D
:203EE00002B070BD014800F04FFD00BF9E010100F8B503780446052B28D0062B0DD0042B28
:203F000008D1D0F800512DB1284600F091FD2846FDF7CAFC00232370F8BD002500F10C062A
:203F2000A368AB4226DD56F8047B2FB13846FFF7DFFF3846FDF7B8FCF76C2FB1384600F0B0
:203F400077FD3846FDF7B0FC0135E9E7002500F1AC076368AB420ADD57F8046B2EB130464E
:203F6000FFF7C6FF3046FDF79FFC0135F1E700236360CFE70023A360CCE773B502ADD0E96E
:203F8000004645F8041D2644331B002B05DD14F8011B2846FFF77AFFF6E702B070BD0000F7
:203FA0002DE9F04F074689B008AC44F8181D0D4620462221FFF76AFFDFF8D8903E68DFF8EA
:203FC000D8A0D7E9003213449E424CD032780C2A3BD007D8092A3ED00A2A38D0082A06D1D4
:203FE000254924E0222A21D01AD80D2A31D01F2A01D97F2A31D14FF0000B494620460DF1DD
:20400000200805F0DBFE48F81C5D14F80B1040460BF1010BFFF73AFFBBF1060FF5D110E096
:204020002F2A10D05C2AE2D1144900E051462046FFF734FF20462946FFF79FFF204600F0EC
:20404000F7FC0136BDE70E49F1E70E49EFE70E49EDE70E49EBE70E49E9E702953178204615
:20406000FFF714FFEDE7222120460295FFF70EFF09B0BDE8F08F00BFF5010100EF0101009C
:20408000F2010100F8010100FB010100FE0101000102010004020100EC0101001FB50B78E5
:2040A0000446032B24D8DFE803F00209121A11492046FFF7F3FE204604B010BD91F8001173
:2040C0000D4A0E4B002914BF11461946F0E7D1F8002101A80A4905F071FE01A9E8E701F5EE
:2040E0008071D1E9002301A8064905F067FEF4E70021DDE7160201000B02010010020100A6
:204100001B0201001E02010038B5052313290446037018DC45688D420FD14FF48470FDF7D7
:20412000B7FB00230370C0E90133636804EB85050133C5F8AC00636038BD04DD00EB810470
:20414000D4F8AC00F8E74FF48470FDF7A1FB00230370C0E90133EFE72DE9F043037887B0FD
:20416000052B05460C460AD0062B28D0042B4FD1D0F80001FFF714FF07B0BDE8F08306AECB
:2041800046F8181D30465B21FFF780FE00276B68BB420EDD27B12C2130460094FFF776FECB
:2041A00039462846FFF7B0FF2146FFF7D5FF0137EDE75D2100943046FFF768FEDCE706AED5
:2041C00046F8181D30467B21FFF760FE002705F10C08AB68BB4218DD27B12C2130460094A1
:2041E000FFF754FED8F850002146FFF7D9FE3A2130460094FFF74AFED8F80000214608F150
:204200000408FFF7A9FF0137E3E700947D21D2E701466846FFF742FF68462146FFF7ADFE25
:20422000684600F005FCA7E710B5044604F10803236000230846636023722146FFF78CFF0E
:20424000204610BDF8B50646062304460F46002506F85C3BA368AB420CDD56F8043B3868A2
:20426000196805F011FE18B904EB8504E068F8BD0135EFE7142B08BF13234FF0180008BF0D
:20428000A360FDF705FB0546394600F001FDA3684FF4847004EB8303DD65FDF7F9FA00236C
:2042A0000370C0E90133A36804EB83020133D060A360DCE7F8B504460F46002500F15C0641
:2042C000A368AB420CDD56F8043B3868196805F0DBFD18B904EB8504E068F8BD0135EFE730
:2042E0004FF48470FDF7D4FA00230370C0E90133F3E72DE9F04188428CB005460C4639D085
:20430000FFF7F6FD23782B70013B052B32D8DFE803F02D353A430309002604F1AC076368CA
:20432000B34244DC002604F15C07A368B34221DD3968684600F0ACFC69462846FFF782FF71
:2043400057F8041B804606A800F0A2FC06A92046FFF7B0FF01464046FFF7CBFF06A800F008
:2043600067FB684600F064FB0136DEE794F8003185F8003128460CB0BDE8F081D4F800313A
:20438000C5F80031F6E704F5807405F58073D4E90001C3E90001EDE71820FDF779FA06464E
:2043A000D4F8001100F074FCC5F80061E2E731462846FFF7A9FE57F8041BFFF79AFF013623
:2043C000ADE70000054B19B1012904D1044A00E0044A1A607047044AFBE700BF88120010EA
:2043E000CDCCCC3DA4703D3E022B873D38B5084C2046FBF7F9FF0748FDF718FC0546204602
:20440000FBF7F2FF0449284602F06EFA38BD00BFCC0B00109012001000007A4470B532251D
:204420000024FFF7E3FF0646204602F009FA314602F052F902F0A8FB04460A20FDF780FBAD
:20444000013DEED1322394FBF3F40A235C43204602F0F6F9014B1860204670BDDC0100103D
:204460002DE9F843194E1A48B6FBF1F6FCF7ADFA1748FCF708FB002481462546DFF8588096
:204480001348FCF700FBA0EB0900B0420DD2D8F80070FFF7ABFF0146384602F01BF902F0D1
:2044A00073FB013400FB0055EAE70948FCF7BCFAB5FBF4F002F0C0F901F026FE0022054B78
:2044C0000AF032FA02F0B2F8BDE8F88340420F00981200100000E03FDC0100103721FFF755
:2044E000BFBF0000F8B5104C104D2046FCF7E0FA20462C460E4E0F493246FDF779F80E4FDF
:204500000E4B384644F8043BFBF76EFF0C492046FDF750FB3846FBF767FF32462846BDE88F
:20452000F8400849FDF764B8981200108C120010C8000010AB090000CC0B0010E80001001E
:204540001AC00920072A0000054B10B504460360406810B10368DB689847204610BD00BF7D
:204560002C02010010B50446FFF7EEFF2046FDF79BF9204610BD70B54FF4F973002588B0C8
:2045800008AE26F8143D017B00950446324602238068FBF76BFF42F2F473217BADF80C30A2
:2045A000324600950223A068FBF760FF4AF2F503217BADF80C30324600950223A068FBF793
:2045C00055FF8823217B8DF80C30324600950123A068FBF74BFF217B324600950623A06830
:2045E000FBF764FF9DF80D209DF80C30217B43EA0223E3819DF80F209DF80E30009543EA28
:20460000022323829DF811209DF81030A06843EA022363828E2332468DF80C300123FBF7F6
:2046200025FF217B324600951223A068FBF73EFF9DF80D209DF80C30217B43EA0223A3829B
:204640009DF80F209DF80E30009543EA0223E3829DF811209DF81030A06843EA02232383DC
:204660009DF813209DF8123043EA022363839DF815209DF8143043EA0223A3839DF817207C
:204680009DF8163043EA0223E3839DF819209DF8183043EA022323849DF81B209DF81A3034
:2046A00043EA022363849DF81D209DF81C3043EA0223A384A12332468DF80C300123FBF782
:2046C000D5FE217B324600950123A068FBF7EEFEE12308AE06F8133D217B3246009501237F
:2046E000A068FBF7C3FE217B324600950723A068FBF7DCFE9DF80C309DF80E20E3849DF8C8
:204700000D309DF8101043EA022363859DF80F3023859DF8113003F00F0242EA0112A285B1
:204720009DF812201B0943EA0213E3859DF81330238608B070BD00002DE9F0411E460C4B7C
:20474000044603600F4690460C20FDF7A1F8424639460546FBF75EFE00232046C4E901559C
:2047600026736363FFF707FF2046BDE8F08100BF2C02010030B5FA230025044685B004AA20
:2047800002F8043D017B009501238068FBF76EFE217B0DF10D0200950323A068FBF786FE81
:2047A0009DF80E309DF80D001B0143EA00339DF80F0043EA1013E089C0EB13125243400006
:2047C000C0EBD303B4F91000120B4343B4F912005043800B00EBD320606300EB800080305F
:2047E000001202F02DF8024902F032F905B030BD0000C84230B5F7230025044685B004AA2B
:2048000002F8043D017B009501238068FBF72EFE217B03230DF10D020095A068FBF746FE80
:20482000626BB4F918105210A2F57A4293105B4358134143B4F916005043401000EBE1007F
:204840008014A18A00F500404843C11341D0B4F91C50B4F91E006A43DB12520000FB032204
:204860009DF80F309DF80E001B1143EA00139DF80D0043EA0033B4F91A00000400EBA202F9
:2048800003EB2232144B534303F1434000F5A0000028ABBF4000B0FBF1F0B0FBF1F04000AB
:2048A000C3085B43B4F924205B0B5A43B4F9223081084B435B1303EB2233B4F92020134490
:2048C00000EB231001F0B8FF044902F0C1F805B030BD0020FBE700BFCBF3FFFF0000C842F1
:2048E00030B5FD230025044685B004AA02F8043D017B009501238068FBF7B8FD217B0DF1C8
:204900000D0200950223A068FBF7D0FD606B238DA0F596314B43DB1203F50042B4F930306E
:20492000B4F92C004B439B125343B4F92A209B1203F500135343BDF80D20000552BA92B251
:20494000C0EB8232B4F92E0003F5005301FB102000F580409B13C00B5843C3135B43E28CFB
:20496000DB115343A0EB231020EAE070B0F1C85FA8BF4FF0C850001301F062FF4FF06A51B8
:2049800001F0B2FF05B030BD38B50546082000F007FA2946044601F0A3F82046044A05493B
:2049A00000F05EFF204600F013FA00F035FA00BF5D5A0000BC03010038B50546082000F0A2
:2049C000EFF92946044601F09FF82046044A054900F046FF204600F0FBF900F01DFA00BF67
:2049E000B15A0000C8030100086808B500281ADB90420AD95200904207D2002A0ADBBDE830
:204A000008400A60501CFCF743BF0130BDE80840FCF73EBF6FF000434FF000400B60BDE844
:204A20000840FCF735BF0148FFF7C6FF7802010050F8083B834202D01846FCF735BF7047AA
:204A4000521A012A03D002B9704704F0F5BC0B7810B4037010BC704788422CD02DE9F0418B
:204A6000804658F8087B4E68B8450CBF0F22826882B0B2420D4604460CD32EB1012E2968C3
:204A80001AD10B783B70276800236660BB5502B0BDE8F08102A941F8046DFFF7A5FF074671
:204AA0002068804501D0FCF7FFFE019B2760A360002EE9D0E2E770473846324604F0BCFCB9
:204AC0002768E1E72DE9F04F04460D4683B00C9E40682168914604F10808B21A02448845C4
:204AE0000192A0EB050714BFA2680F2201A920469B46FFF779FFA7EB0907824625B1012DB1
:204B0000216827D10B780370BBF1000F00D0C6B920685FB12E44012F4D440AEB060300EB60
:204B200005011BD1435D0AF806302068804501D0FCF7BAFE019BC4F800A0A36003B0BDE88F
:204B4000F08F012E0AEB05000ED19BF800300AF80530DDE72A4604F06FFCD5E73A461846A7
:204B600004F06AFC2068E1E75946324604F064FCCEE700BF0346F0B553F8082B46689A42B6
:204B80000CBF0F238368751C9D4283B004460F4607D901220023009231461A46FFF792FFD5
:204BA00022680021975523686560595503B0F0BDF0B5044650F8085B676885420CBF0F20D6
:204BC000A068BE18864283B00DD832B1012A05EB070011D10B78EB55256800232046666091
:204BE000AB5503B0F0BD00920B46002239462046FFF768FF2568F0E704F01EFC2568ECE73C
:204C000038B5044608460D4605F01CFA6FF0004362689B1A834205D3024629462046FFF7E0
:204C2000C7FF38BD0148FFF7C7FE00BF6002010070B5054682B0F1B1541A0F2C0E460194BD
:204C40000CD80268012C104619D10B7813702A680021019B6B60D15402B070BD002201A9A9
:204C6000FFF7C2FE019B2860AB602246314604F0E3FB2A68ECE72AB901920268E8E7002C5E
:204C8000E6D0F2E70148FFF77FFE00BF3402010010B5044600F108030360D1E9003219461A
:204CA0001A444FF00003FFF7C3FF204610BD00BFFCF7FABDF0B4204CA0F1080663682BB3A8
:204CC00050F8087CF519AB4220D81AD0596851B38D4204D32BE095420B4604D211464A68AE
:204CE0001C1D002AF7D1954215D023681A6899188E4215D05B6840E9027323685E60F0BC04
:204D00007047D3E90023174440F8087C40F8043C6660F0BC7047D5E9002317444B60E4E793
:204D200017441F60F5E70A4604341946DBE70A4604341946D7E700BFB812001030B4174C8F
:204D400000F108026368082A38BF082203B30732196822F007028A4204D81BE001688A42D7
:204D600005D9034658680028F8D130BC704704338C1A072C456808D981184D608450186880
:204D800002601960083030BC704701601D60F9E71846EAE71846231DEAE700BFB812001068
:204DA00010B500F18004204604F05EF838B1034680220021184604F017FC803010BD2046CC
:204DC000FFF7BCFF03460028F2D100F0D3FC00BF064A80389368984203D9D268134498424C
:204DE00001D304F049B8FFF765BF00BFB812001038B54FF41E65074C2846E56004F034F85E
:204E0000A06020B100236060C0E9005338BDE060606038BDB81200101EB400F08DF81EBCFD
:204E200002F0E6FDF0B5027883B0472A0D461F461ED00023254C0193236820469B68984739
:204E400080B10226019B1B6801932B68214628461C6901AA0123A04730B13046019B3B6015
:204E600003B0F0BD0126F0E70646304603B0F0BD43784E2BDDD18378552BDAD1C378432B01
:204E8000D7D10379462B15D00379432BD1D143792B2BCED183792B2BCBD1C379012BC8D865
:204EA00050F8204C02D058300190C5E7204654F8784CF9E743794F2BE6D18379522BE3D137
:204EC000C379002BE0D10193014CB5E7AC020100A402010010B5044600F0FEF82378A4F1C2
:204EE0002002472B04D0836823BB8260012010BD63784E2BF7D1A378552BF4D1E378432B6C
:204F0000F1D12379432BEED163792B2BEBD1A3792B2BE8D1E379012BE5D854F8043C0133E8
:204F2000012B44F8043CE1D1836844F8083C8260012010BD00F01EFC08B500F0CDF8836875
:204F400083B393F82020472A04D00022826003F1200008BD93F821204E2AF6D193F8222056
:204F6000552AF2D193F82320432AEED193F82420432AEAD193F825202B2AE6D193F8262051
:204F80002B2AE2D193F82720012ADED8DA69013ADA61002ADBD10022996981609A6103F1D3
:204FA000200008BD00F0E6FB38B5044600F094F822780368472AA4F1200104D08BBB1C46E0
:204FC0000160204638BD62784E2AF7D1A278552AF4D1E278432AF1D12279432AEED1627972
:204FE0002B2AEBD1A2792B2AE8D1E279012AE5D854F80C2C002A11DB013245688B4205F1F7
:20500000FF3544F80C2C45601CBF44F8103C01602046646A02F024F9204638BDC2F101022B
:20502000EBE700F0A7FB00BF08B500F051F80246006870B390F82030472B06D000232030F1
:205040001360BDE8084002F00DB990F821304E2BF4D190F82230552BF0D190F82330432BBD
:20506000ECD190F82430432BE8D190F825302B2BE4D190F826302B2BE0D190F82730012B98
:20508000DCD84369002B05DB013B002B07D00DDB436108BD0133FBD101691160F8E70369F0
:2050A00020301360BDE8084002F0DCB800F062FB704700BF704700BF0048704790020100EF
:2050C00010B504460421FFF7F3FD204610BD00BF00487047C812001000487047C8120010F2
:2050E0005028F8B51CD000F00F040C2C56D8DFE804F0074151071F555555552723071F00F8
:20510000144654F8045B45B100F07006102E08BF114602060D4448BF2D681D602046F8BD45
:20512000033222F0030454F8045B1D602046F8BD144654F8085BE6E7144634F9025BE2E75B
:20514000002514462F4614F801CB0CF07F06BE401CF0800F45EA060507F10707F3D11F2F17
:20516000D1D81CF0400FCED04FF0FF3606FA07F73D43C9E7002514462F4614F801CB0CF023
:205180007F06BE401CF0800F45EA060507F10707F3D1B8E7144634F8025BB4E702F02EFEB2
:2051A00000F07000202811D00BD9402806D050280AD030280DD1084602F016BE084602F068
:2051C00003BE08B1102804D100207047084602F00FBE08B502F012FEF8B50C4615460746FE
:2051E00008B102F0F1FD286026780134FF2E28D168602378601CFF2B2B7532D00024102393
:2052000022462B7510F8011B01F07F039340090644EA030402F10702F4D40444EC6000245C
:205220002246037801306B7510F8011B01F07F0393401C430B0602F10702F5D404442C6106
:20524000F8BD39463046FFF7ABFF224601462B1D3046FFF745FF04462378601CFF2B2B7532
:20526000CCD10023EB60DAE700232DE9F04F00F0030499B0012C884617460C9300F09580AE
:205280000DD3022C40F05F823946404602F086FD002800F09A80092019B0BDE8F08F020724
:2052A000F2D401230493002318AA42F82C8D009219460C22384601F0FDFF384602F08AFD14
:2052C00005900028E0D012AB1A46059938460693FFF782FF05469DF85C00FF2800F0E48061
:2052E0003946FFF75DFF044600230DF1440B1946CDF800B00F223846149401F0B9FF119EA0
:20530000169B26F001069D4206F1FF3680F0D3800DF13C0A0DF140099DF85D400021FF2CE8
:2053200003D02046FFF73CFF01462A4620465346FFF7D6FE9DF85D400546FF2C4FF000019B
:2053400003D02046FFF72CFF01462A4620464B46FFF7C6FE9DF85D400546FF2C4FF00001A3
:2053600003D02046FFF71CFF01462A4620465B46FFF7B6FE00240546214615F8012B02F07A
:205380007F038B401C43130601F10701F5D4129B0F9A1344B3421FD9049BDB0700F1918068
:2053A000049B1C0715D500F0E5F910F008041CD018AA42F82C1D009244F0020419460C22DD
:2053C0003846049401F076FF77E7082019B0BDE8F08F404600F0B4FC109A1344B34200F2D0
:2053E0008880169BAB4297D8D6E712AB009306930D22234621463846D8F8205001F038FF0D
:20540000129B9D4202D0022304934CE718AB43F82C8D0093214623460C22384601F04AFF3F
:20542000D8F830300393002BD3D0D8F828300DF13C0A1A46D8F82C300DF1400905931346A8
:20544000002B1C46C0F228810325002318AA42F8288D1946009238461A4601F02BFF00235B
:2054600001221946CDF800A038460F9401F022FF00230F221946CDF80090384601F0F8FEA5
:205480000023109A039C02F001021443CDF80090384619460F22109401F00CFF022D05D04D
:2054A000072019B0BDE8F08F00241DE74046FFF711FD0720F0E6049BD9077FF571AF0DF118
:2054C00040090024039400230D221946CDF8009038460C9D01F0CCFE059A109BC8F82C208A
:2054E000039AC8E90954C8F83020C8F820300620D2E6119B002B3FF4C7AE139A9A18039290
:20550000002C00F0F180169B013C2344002A3FF4BBAE002B00F0F980049A12F0080209920A
:2055200000F0048147254E245520432146224F264FF0520C4FF0000E88F8005088F80140E7
:2055400088F8020088F8031088F8042088F8056088F806C088F807E00022CDE90A7A07920B
:20556000CDF820900024214600E02B461D4615F8010B00F07F028A40060644EA020401F1F1
:205580000701F2D41F2905D8400603D501228A40524214430026A146314613F8010F00F093
:2055A0007F028A401643020601F10701F5D41F2905D8470603D501238B405B421E43002C19
:2055C0004CD04EDC159B04F1010ACAEB8A7203EB820753F82210B8F1000F01D0099B2BB127
:2055E00051B3002E00F08A80AB19BBE70C9B119329B990E057F8041F002900F08C80394468
:205600005B4600224046FFF70DFC0028F2D0E8E7E3005B42159A14991A44089BFFF760FD59
:20562000109949B1B8F1000FDBD00CAB00224046FFF7F8FB0028D4D0049B4A46DDE90A7AD7
:20564000D807DDF820903FF53EAF099B002B3FF4F6AE002CBFF6F8AE00F09AF80123079358
:20566000BFE79DF85C00FF283AD000F00703042B69D801A252F823F0935600004757000071
:205680008D560000935600001156000063005B42C0E7A3005B42BDE701331D46DDE90512D8
:2056A0003846FFF799FD9DF85C00FF281AD03946FFF776FDC5EB8572159D92001490AB5864
:2056C000154433B12A46002352F8041F01330029FAD10422C8E90A30C8E90C250325B4E6B0
:2056E000002397E70020E5E7039B002B3FF4CCAD049BDA073FF5C8AD0225A6E6DDE90A7A82
:20570000DDE90739002B3FF4BFAD049BDD073FF5BBAD0024F0E7049B5546DE070A9FDDF802
:205720002CA0DDF820903FF5CEAEB7E798F80720012A0CBF58F8202C08F158020C920BE79E
:20574000FFF732FC2FE602F059FB00BF08B5804702F054FBFFF728FC02F050FB0D46044652
:20576000FFF762FC013501D0FFF756FB204600F0F7FA00BF08B5034B1868BFF35B8FFFF764
:20578000E5FF00BFE401001008B58047FFF7F2FF08B5034B1868BFF35B8FFFF7F5FF00BF36
:2057A000E0010010024B1868BFF35B8F704700BFE4010010024B1868BFF35B8F704700BF45
:2057C000E0010010012810B51AD8BFF35B8FA1F1280353E8002F013A43E800200028F8D1BE
:2057E000BFF35B8F5AB951F81C3C01F158040BB1204698472046BDE81040FFF7E9BA10BD49
:2058000051F8140CFFF7A2FFF8B5002540E91E1240F8805C0446FFF7CDFF44F8700CFFF78F
:20582000C1FF472143222B234E27552604F8581C0A4904F8515C04F8577C04F8566C44F868
:20584000501C04F8552C04F8542C04F8533C04F8523C44F86C0CA4F18000F8BDC557000034
:20586000F8B505460E461746FFF736FC044643683A460133314663602846FFF7C5FF012328
:20588000044644F8283B204602F0A0F82046FFF78BFBFFF76FFF00BF10B5FFF71DFCD0E99D
:2058A00000420132426064B194F82020472A0AD0002202602034204602F0ACF82046FFF775
:2058C00073FBFFF757FF94F821204E2AF0D194F82220552AECD194F82320432AE8D194F87D
:2058E0002420432AE4D194F825202B2AE0D194F826202B2ADCD194F82720012AD8D862691E
:2059000052426261D6E700BF10B50446024B036000F09CF9204610BD8003010010B50446AA
:20592000044B036000F092F920460C21FFF7C0F9204610BD8003010070B582B0069C0E46F4
:205940009442054609D0A8683146056806942C6AA44602B0BDE8704060471946019200930C
:2059600000F064F8DDE900320028ECD0062002B070BD00BF2DE9F04F894681B01946DDE9C1
:205980000A4ADDE90CB81D461646074600F04EF888B1B9F1000FC8F8004088F804601BDB1B
:2059A0004C44A3450CBF0624012488F80640002001B0BDE8F08F5C4515D0B8682B46056816
:2059C000CDE90CB8CDE90A4AEC6932464946A44601B0BDE8F04F604719F1020FE7D10123CA
:2059E00088F80630E3E75146384600F01FF80028E3D088F80560DAE72DE9F04107460C46A4
:205A000015461E4600F05CF908B1BDE8F081B868334606682146B4692A46A446BDE8F041F8
:205A2000604700BF704700BF0020704781420FD008B5406803782A2B0CD049680B782A2B77
:205A400008BF013104F020FAB0FA80F0400908BD01207047002008BD4068704710B50446EC
:205A600043680C4A0C49A3F10C00904282B0216005D12046FFF71CFB204602B010BD53F832
:205A8000042C511E002A43F8041CF2DC01A900F071F8EEE7D41200100004010010B5044632
:205AA000FFF7DCFF2046FBF7FFFE204610BD00BF10B50446024B0360FFF7D0FF204610BD17
:205AC0001404010010B50446044B0360FFF7C6FF2046FBF7E9FE204610BD00BF14040100E7
:205AE00010B5084B82B0044601AA40F8043B00F075F8204602B010BD2046FFF7D9FAFFF789
:205B00008BF900BF0004010010B50446FFF7E8FF014B2046236010BD14040100134B10B513
:205B200098421FD88842044614D94A00904238BF144604F11D02B2F5805F04F10D000BD9A6
:205B4000A14209D204F58054C2F30B02A41A9C4228BF1C4604F10D00FBF79AFE0022C0E9BC
:205B6000014210BD0248FEF727FF00BFFCFFFF3F4C040100FBF798BE884215D070B5054600
:205B800010B30C1A20460021FFF7C8FF012C064600F10C0305D054B90D4A96420ED1184611
:205BA00070BD2A780273F7E70A4B1846704718462946224603F040FC0346EDE7002231196C
:205BC0003460B2600A73EAE70348FEF7DDFE00BFD4120010E01200102004010070B505466A
:205BE00016460C4661B1084604F02CFA2118324620464FF00003FFF7BFFF2860284670BD4D
:205C00004FF0FF31F3E700BF70B500241026036884B01546CDE9026412689E6900946B4621
:205C20008DF80440B0479DF8043003F00603062B09BF01202046009B2B6004B070BD00BF99
:205C4000009890420CBF06200120704710B50446024B0360FFF7E6FE204610BD9C040100A4
:205C600010B50446044B0360FFF7DCFE20460821FFF71EF8204610BD9C0401002DE9F041DD
:205C8000069D089990468D421F460646099C0CD039463046FFF7CAFE20B10123256084F840
:205CA0000480A3710020BDE8F0810799FFF7BEFE0028EDD084F805800020BDE8F08100BFE9
:205CC00038B515461C46FFF7B1FE20B1082206232560E260237138BD2DE9F04117461C46FB
:205CE00006460D46FFF7A2FE08B9032C01D9BDE8F0812B683A4631462846BDE8F0415B69FD
:205D0000184700BF0378472B01D00020704743784E2BFAD18378552BF7D1C378432BF4D120
:205D20000379432BF1D143792B2BEED183792B2BEBD1C07901288CBF00200120704700BF74
:205D400010B530B10446FFF72FF92046FFF7DAFF08B9FFF70FFD54F8140CFFF7F7FC00BF29
:205D60002DE9F04F85B00246FFF7CCFF60B1D2E90C7452F8188C104652F8145C966AFFF750
:205D800013F94046FFF700FD1046FFF70DF9FFF7FFFCFFF709F9FFF7EDFC4FF00008FFF727
:205DA00003F9FFF795F9C14603680DF1100A93F8272027F0030B012A0CBF1A6803F17802FC
:205DC000203301934AF8082DB1451BDA276807B127445346002239460198FFF723F8E8B943
:205DE0003B6804AA1B6942F8040D0093384601231049009FB847002818BF804609F101098E
:205E00005C44E1E7B8F1000F10D00420FEF7C8FF094B0A4A03600749FFF722FDFFF73CFD03
:205E2000FFF702F9FFF700F9FEF7F6FF2846FFF78DFC00BFB402010038030100B5500000F4
:205E400081F0004102E000BF83F0004330B54FEA41044FEA430594EA050F08BF90EA020F71
:205E60001FBF54EA000C55EA020C7FEA645C7FEA655C00F0E2804FEA5454D4EB5555B8BF47
:205E80006D420CDD2C4480EA020281EA030382EA000083EA010180EA020281EA0303362DFE
:205EA00088BF30BD11F0004F4FEA01314FF4801C4CEA113102D0404261EB410113F0004F68
:205EC0004FEA03334CEA133302D0524263EB430394EA050F00F0A780A4F10104D5F1200EA6
:205EE0000DDB02FA0EFC22FA05F2801841F1000103FA0EF2801843FA05F359410EE0A5F1EE
:205F000020050EF1200E012A03FA0EFC28BF4CF0020C43FA05F3C01851EBE37101F00045F9
:205F200007D54FF0000EDCF1000C7EEB00006EEB0101B1F5801F1BD3B1F5001F0CD3490873
:205F40005FEA30004FEA3C0C04F101044FEA445212F5800F80F09A80BCF1004F08BF5FEA52
:205F6000500C50F1000041EB045141EA050130BD5FEA4C0C404141EB010111F4801FA4F15C
:205F80000104E9D191F0000F04BF01460020B1FA81F308BF2033A3F10B03B3F120020CDA01
:205FA0000C3208DD02F1140CC2F10C0201FA0CF021FA02F10CE002F11402D8BFC2F1200C7A
:205FC00001FA02F120FA0CFCDCBF41EA0C019040E41AA2BF01EB0451294330BD6FEA0404B4
:205FE0001F3C1CDA0C340EDC04F11404C4F1200220FA04F001FA02F340EA030021FA04F305
:2060000045EA030130BDC4F10C04C4F1200220FA02F001FA04F340EA0300294630BD21FA22
:2060200004F0294630BD94F0000F83F4801306BF81F480110134013D4EE77FEA645C18BF00
:206040007FEA655C29D094EA050F08BF90EA020F05D054EA000C04BF1946104630BD91EA3A
:20606000030F1EBF0021002030BD5FEA545C05D14000494128BF41F0004130BD14F5800497
:206080003CBF01F5801130BD01F0004545F0FE4141F470014FF0000030BD7FEA645C1ABF13
:2060A000194610467FEA655C1CBF0B46024650EA013406BF52EA033591EA030F41F4002102
:2060C00030BD00BF90F0000F04BF0021704730B54FF4806404F132044FF000054FF000012F
:2060E00050E700BF90F0000F04BF0021704730B54FF4806404F1320410F0004548BF40427B
:206100004FF000013EE700BF42004FEAE2014FEA31014FEA02701FBF12F07F4393F07F4FF4
:2061200081F06051704732F07F4208BF704793F07F4F04BF41F40021704730B54FF4607408
:2061400001F0004521F000411CE700BF50EA010208BF704730B54FF000050AE050EA0102EA
:2061600008BF704730B511F0004502D5404261EB41014FF4806404F132045FEA915C3FF4D4
:20618000D8AE4FF003025FEADC0C18BF03325FEADC0C18BF033202EBDC02C2F1200300FA20
:2061A00003FC20FA02F001FA03FE40EA0E0021FA02F11444BDE600BF70B54FF0FF0C4CF429
:2061C000E06C1CEA11541DBF1CEA135594EA0C0F95EA0C0F00F0DEF82C4481EA030621EAD6
:2061E0004C5123EA4C5350EA013518BF52EA033541F4801143F4801338D0A0FB02CE4FF059
:206200000005E1FB02E506F00042E0FB03E54FF00006E1FB03569CF0000F18BF4EF0010E82
:20622000A4F1FF04B6F5007F64F5407404D25FEA4E0E6D4146EB060642EAC62141EA555145
:206240004FEAC52040EA5E504FEACE2EB4F1FD0C88BFBCF5E06F1ED8BEF1004F08BF5FEA1A
:20626000500E50F1000041EB045170BD06F0004646EA010140EA020081EA0301B4EB5C04C9
:20628000C2BFD4EB0C0541EA045170BD41F480114FF0000E013C00F3AB8014F1360FDEBFAB
:2062A000002001F0004170BDC4F10004203C35DA0C341BDC04F11404C4F1200500FA05F32B
:2062C00020FA04F001FA05F240EA020001F0004221F0004110EBD37021FA04F642EB060186
:2062E0005EEA430E08BF20EAD37070BDC4F10C04C4F1200500FA04F320FA05F001FA04F234
:2063000040EA020001F0004110EBD37041F100015EEA430E08BF20EAD37070BDC4F12005FA
:2063200000FA05F24EEA020E20FA04F301FA05F243EA020321FA04F001F0004121FA04F29D
:2063400020EA020000EBD3705EEA430E08BF20EAD37070BD94F0000F0FD101F0004640003F
:2063600041EB010111F4801F08BF013CF7D041EA060195F0000F18BF704703F000465200A1
:2063800043EB030313F4801F08BF013DF7D043EA0603704794EA0C0F0CEA135518BF95EA1D
:2063A0000C0F0CD050EA410618BF52EA4306D1D181EA030101F000414FF0000070BD50EA20
:2063C000410606BF1046194652EA430619D094EA0C0F02D150EA013613D195EA0C0F05D15D
:2063E00052EA03361CBF104619460AD181EA030101F0004141F0FE4141F470014FF00000C7
:2064000070BD41F0FE4141F4780170BD70B54FF0FF0C4CF4E06C1CEA11541DBF1CEA135554
:2064200094EA0C0F95EA0C0F00F0A7F8A4EB050481EA030E52EA03354FEA013100F08880AF
:206440004FEA03334FF0805545EA131343EA12634FEA022245EA111545EA10654FEA00260D
:206460000EF000419D4208BF964244F1FD0404F5407402D25B084FEA3202B61A65EB0305B0
:206480005B084FEA32024FF480104FF4002CB6EB020E75EB030E22BFB61A754640EA0C0026
:2064A0005B084FEA3202B6EB020E75EB030E22BFB61A754640EA5C005B084FEA3202B6EB87
:2064C000020E75EB030E22BFB61A754640EA9C005B084FEA3202B6EB020E75EB030E22BF36
:2064E000B61A754640EADC0055EA060E18D04FEA051545EA16754FEA06164FEAC30343EA42
:2065000052734FEAC2025FEA1C1CC0D111F4801F0BD141EA00014FF000004FF0004CB6E794
:2065200011F4801F04BF01430020B4F1FD0C88BFBCF5E06F3FF6AFAEB5EB030C04BFB6EBF6
:20654000020C5FEA500C50F1000041EB045170BD0EF0004E4EEA113114EB5C04C2BFD4EB34
:206560000C0541EA045170BD41F480114FF0000E013C90E645EA060E8DE60CEA135594EA05
:206580000C0F08BF95EA0C0F3FF43BAF94EA0C0F0AD150EA01347FF434AF95EA0C0F7FF41C
:2065A00025AF104619462CE795EA0C0F06D152EA03353FF4FDAE1046194622E750EA41063D
:2065C00018BF52EA43067FF4C5AE50EA41047FF40DAF52EA43057FF4EBAE12E74FEA4102C6
:2065E00012F5001215D211D56FF47873B3EB625212D94FEAC12343F0004343EA505311F0C6
:20660000004F23FA02F018BF404270474FF00000704750EA013005D111F0004008BF6FF06E
:20662000004070474FF00000704700BF4FEA4102B2F1E04324BFB3F5001CDCF1FE5C0DD9B8
:2066400001F0004C4FEAC0024CEA5070B2F1004F40EB830008BF20F00100704711F0804F0D
:2066600021D113F13872BCBF01F00040704741F480114FEA5252C2F11802C2F1200C10FABE
:206680000CF320FA02F018BF40F001004FEAC1234FEAD32303FA0CFC40EA0C0023FA02F34E
:2066A0004FEA4303CCE77FEA625307D150EA01331EBF4FF0FE4040F44000704701F000408E
:2066C00040F0FE4040F40000704700BF80F0004002E000BF81F0004142001FBF5FEA4103F2
:2066E00092EA030F7FEA226C7FEA236C6AD04FEA1262D2EB1363C1BFD2184140484041400F
:20670000B8BF5B42192B88BF704710F0004F40F4000020F07F4018BF404211F0004F41F4F3
:20672000000121F07F4118BF494292EA030F3FD0A2F1010241FA03FC10EB0C00C3F12003DA
:2067400001FA03F100F0004302D5494260EB4000B0F5000F13D3B0F1807F06D340084FEA96
:20676000310102F10102FE2A51D2B1F1004F40EBC25008BF20F0010040EA03007047490073
:2067800040EB000010F4000FA2F10102EDD1B0FA80FCACF1080CB2EB0C0200FA0CF0AABF86
:2067A00000EBC25052421843BCBFD0401843704792F0000F81F4000106BF80F400000132DD
:2067C000013BB5E74FEA41037FEA226C18BF7FEA236C21D092EA030F04D092F0000F08BFF3
:2067E0000846704790EA010F1CBF0020704712F07F4F04D1400028BF40F00040704712F162
:2068000000723CBF00F50000704700F0004343F0FE4040F4000070477FEA226216BF0846C0
:206820007FEA23630146420206BF5FEA412390EA010F40F4800070474FF0000304E000BF92
:2068400010F0004348BF40425FEA000C08BF704743F0964301464FF000001CE050EA0102CE
:2068600008BF70474FF000030AE000BF50EA010208BF704711F0004302D5404261EB4101C9
:206880005FEA010C02BF84460146002043F0B64308BFA3F18053A3F50003BCFA8CF2083A45
:2068A000A3EBC25310DB01FA02FC634400FA02FCC2F12002BCF1004F20FA02F243EB0200A3
:2068C00008BF20F00100704702F1200201FA02FCC2F1200250EA4C0021FA02F243EB020081
:2068E00008BF20EADC7070474FF0FF0C1CEAD0521EBF1CEAD15392EA0C0F93EA0C0F6FD0DD
:206900001A4480EA010C400218BF5FEA41211ED04FF0006343EA501043EA5111A0FB013165
