:020000040000FA
:20000000E07F0010E11600001117000013170000151700001717000019170000000000009E
:200020000000000000000000000000001B1700001D170000000000001F17000021170000EC
:200040002317000023170000231700002317000023170000231700002317000023170000D0
:200060002317000023170000231700002317000023170000231700002317000023170000B0
:20008000231700002317000023170000231700002317000023170000231700002317000090
:2000A000231700002317000023170000231700002317000023170000231700002317000070
:2000C00023170000231700002317000010B5054C237833B9044B13B10448AFF30080012330
:2000E000237010BDD80A001000000000604301000C4B43B10C4810B50C49AFF300800C48DB
:20010000036823B910BD0A48036833B97047094B002BF7D0BDE810401847064B002BF5D090
:20012000184700BF0000000060430100DC0A0010D40A001000000000154B002B08BF134B69
:200140009D46A3F5803A00218B460F461348144A121A08F0F9F90F4B002B00D098470E4BC7
:20016000002B00D098470020002104000D000D48002802D00C4801F0BAF807F0F9FC200001
:20018000290001F0F9F901F0AFF800BF00000800E07F00100000000069150000D80A001015
:2001A0009D140010EF120000000000000368184708B10B68036070477047C36810B504467C
:2001C0000BB19B689847204610BD884238B504460D460AD0FFF7F1FF3CB1EB681BB15B686B
:2001E000294620469847EB68E360204638BD7047024B1A680AB91A1D1A607047FC0A001093
:2002000010B5044601F0B0F8204610BD074B10B50360002304464360054B0430436001F061
:200220006DFC044B20461C6010BD00BF902D0100A0860100040B001070B505460E4655F883
:20024000043B04461B6898473146284601F0B5FC0546236820465B689847284670BD70B58E
:2002600004460E4654F8043B05461B68984756B10021204601F090FC04462B6828465B688F
:200280009847204670BD0121F3E770B50546044655F8043B1B689847284601F0FBFB236868
:2002A0002046BDE870405B68184770B50546044655F8043B1B689847284601F001FC2368D2
:2002C0002046BDE870405B681847704738B504460D4600F005FE2946201D01F096FABDE83B
:2002E000384000F013BE000010B50446074B40F81C3B01F057FB04F13800FFF75EFF04F11D
:200300002800FFF75AFF204610BD00BFA82D010010B50446FFF7E8FF204601F025F82046D8
:2003200010BD00002DE9FF4105461C4B044645F8043B18220E462846002108F005F90023EC
:20034000DFF86480164FE3612362636263636364694604F12800CDF800800397FFF735FF8D
:200360006846FFF72AFF694604F13800CDF800800397FFF72AFF6846FFF71FFF2346094A58
:20038000314604F11C0001F0D3FA2846314600F06FFA204604B0BDE8F08100BFA82D010014
:2003A0007C2D0100FF030000CB0200007FB50E46044600F095FDF56804F138001C345DB188
:2003C0003146FFF702FF01220221204601F0F2FA00F09CFD04B070BD054B69460093054BDA
:2003E0000393FFF7F2FE6846FFF7E7FE2A46EBE7CB0200007C2D0100C3681B681847012908
:2004000008B502D0022904D008BD2830FFF7F4FF08BD3830FAE7000070B50546094B06462A
:2004200045F80C3B5DB100F12C04AC4207D0103CE368002BF9D09B6820469847F5E730461F
:2004400070BD00BF442E010010B50446FFF7E4FF204600F089FF204610BD03681B691847F6
:2004600003689B69184703689B6A18474FF0FF3070471120704770477047A0F13000FFF7AD
:20048000FBBFA0F13000FFF7F7BF00F06AB8A0F13000FFF7FABF00F067B8A0F13000FFF7ED
:2004A000FABF000010B50446084B303003F1080240F8302C03F1280284330260436000F065
:2004C0006FFC2046FFF7A8FF204610BDB02D0100A0F13000E6E7A0F13400E3E710B5044671
:2004E000FFF7E0FF204600F03FFF204610BDA0F13000F3E7A0F13400F0E7000038B50446F2
:200500001D46049B00F038F8294604F1300000F01FFC054B204603F10802226003F12802C6
:2005200084332263636338BDB02D010070477047704700EB0112936902F10C001B681847E6
:2005400038B5054655F8043B04461B689847284601F0D0FD0546236820465B6898472846B3
:2005600038BD043001F0ACBD10B50C46043001F0EDFD204610BD00002DE9FF410F460021D3
:2005800004469046174A184E184DC3620260416081608161816269460C3003950096FFF732
:2005A00014FE6846FFF709FE694604F11C0003950096251DFFF709FE6846FFF7FEFD42462A
:2005C0003946284601F05EFEE16A284601F080FC28462246064901F067FD204604B0BDE882
:2005E000F08100BF442E01002D0500007C2D01003305000070B5D0E90823D0E902450646EF
:2006000012196B4100F0EAF8736B06F128001B68BDE870401847D0B5044616461F4600F07D
:200620005FFC204600F0E4F8C4E90867A06900F03BFA321847EB0103204600F0CFF8BDE8A1
:20064000D04000F063BC7FB506466D4600F048FC304600F0CDF8002306F12804AC4203931F
:200660000BD02046FFF7A9FD3CB1039B1BB15B68694620469847039B73632846FFF79DFD1D
:2006800000F044FC04B070BD38B505460446064B45F8283BFFF7D7FF2846FFF78EFD2046B5
:2006A00000F0ACF8204638BD5C2E010010B50446FFF7EAFF204600F057FE204610BD10B52F
:2006C000044600F00DFC236833B9A06900F0ECF90123C4E902012360BDE8104000F016BC74
:2006E00038B5044600F0FCFB236873B1A06900F0DBF904F10805D5E90045041B61EB0505E6
:2007000000F004FC2046294638BD00240025F7E710B5044600F0E4FB2046FFF7E1FFD4E921
:200720000423801859410023C4E904012360BDE8104000F0EBBB70B5064600F0D1FBD6E991
:2007400004453046FFF7CCFF24184D4100F0DEFB2046294670BD08B5FFF7EDFF08BD10B55B
:20076000044600F0BDFBA06900F09EF900220023C4E90201C4E90423BDE8104000F0C6BBC8
:20078000002310B5002203600023C0E90223C0E90423044600F090F9A0612046FFF7DFFF2D
:2007A000204610BD03689B6818470000094B10B5002203600023C0E902230023036143617F
:2007C000044600F079F90449A06100F0EBF8204610BD00BF702E0100A507000007B50090C3
:2007E00000F10801806900F01AF903B05DF804FB00F10801806900F03CB9000010B5044635
:20080000024B0360FFF7F4FF204610BD702E0100036801221B6900211847002203681146F7
:200820001B69184770B50E460446154600F0D6FF013609D02046002100F0EAFF29462046AD
:20084000BDE8704000F0E1BF70BD38B504460D4643685AB1C26820461360012100F0D8FF5A
:2008600029462046BDE8384000F0CFBF0269F2E70322FFF7D7BF70B50E460446154600F005
:20088000ADFF013606D02A462046BDE870400221FFF7DBBF70BD0022FFF7EDBF10B50446C1
:2008A00001300DD110BD9C4209D12046896801F09CF92046BDE81040022101F0AFB90C31B3
:2008C0000B685A1CEFD10248BDE8104000F032BBAD2E0100884208B508D0431C06D00131B1
:2008E00006D0044800F026FB4FF0FF31084608BD0146FBE77C2E01000B685A1C01D1184656
:200900007047834201D1486870470C31F4E70000421C10B5044607D0FFF7EEFF431C04463A
:2009200002D1024800F006FB204610BD8D2E01000368D0B544685B68D4E902679847002234
:20094000B04242EA00023B4602D2003247F10103C4E90223D0BD2DE970430646FFF7E8FF63
:2009600073685A68DAB1D3E90245D2E90001A94208BFA04211D3B0EB040861EB0509B9F16D
:20098000000F08BFB8F1E04F09D2001B9A68336810441B69BDE8704318470020F6E74FF04B
:2009A000E040F3E7436870B51D7C04460E468DB903681B6898470020002101226368C3E948
:2009C00002011D6020465D601A74FFF7B1FF2046FFF7C1FF63681E6070BD036870B5DB68DB
:2009E0000446984763685B68A3B12046FFF7A0FF65686E68D5E90201D6E90023994208BF09
:200A0000904207D3F3686B602B68002BEAD0B0689847E7E72046BDE87040FFF79CBF2DE9A5
:200A2000F84305460C4616461F46DDF8208000F057FA2846FFF77CFF00226968C4E9006781
:200A40004B68C4F808804BB9E36082B94C602846FFF781FFBDE8F84300F058BAD3E9008966
:200A60004F4508BF4645EFD31A46DB68EBE7D460EDE738B505460C4600F032FA6A6853681E
:200A8000A34209D1DB6828465360FFF764FFBDE8384000F03BBA1346002BF8D0DA68944274
:200AA000F9D1E268DA60F2E710B50446FFF740FF6368D3E9020110BD00487047C02E010086
:200AC0000148FFF78ABF00BFC02E010038B5CB6804460D460BB15B689847EB682046E360C9
:200AE00038BD007B704703680BB9031D036000687047000038B50B4B0446036000230D4698
:200B00004360A16002730848FFF7EDFF45B1074B1A681C6062600448FFF7E5FF204638BD01
:200B20006560F8E7E42E0100240B0010200B001010B504460E4B03600E48FFF7D4FFA3688F
:200B40002BB10D4A13689C420CD1636813600948FFF7C9FF237B13B9201F00F007FC2046DD
:200B600010BD13465A689442FBD162685A60EEE7E42E0100240B0010200B001010B50446F6
:200B8000FFF7D6FF204600F0EFFB204610BD000070B506460C480D46FFF7A5FF0B4B1C688B
:200BA0005CB1A06870B12A46314608F071FC48B9A06808F03FFC854204D10348FFF793FF08
:200BC000204670BD6468EBE7240B0010200B00100020704700207047036870B51B69012285
:200BE000002104469847051E0DDB236802221B690021204698470646236829461B6900221B
:200C0000204698473546284670BD00F075BB002310B5036043600A7804462F2A0DD14A78A6
:200C20005AB1481C1946206023681A782F2A06D101332360FFF7ACFF6060204610BD002AA4
:200C4000F8D0013301312360EEE700687047406808B520B1FFF745FF431E5842584108BD26
:200C600010B50446FFF7F3FF10B1606800B1043810BD406808B520B1FFF733FFB0FA80F0C2
:200C8000400908BD10B50446FFF7F3FF10B1606800B1043810BD4068003018BF0120704785
:200CA00070477047F8B50E4603680446DB6C8F1835469847BD4207D0236815F8011B5B6C77
:200CC000204698470130F5D1236820461B6D9847A81BF8BDF8B50E4603680446DB6C8F1864
:200CE00035469847BD4208D0236820469B6C9847431C02D005F8010BF4E7236820461B6D5E
:200D00009847A81BF8BD002070477047002070470020704710B50446044B03604C3340F8C8
:200D2000043FFFF705FF204610BD00BF402F0100A0F10400EEE700BF10B50446FFF7EAFFFD
:200D4000204600F011FB204610BDA0F10400F3E710B504460E4B002240F8043BFFF7CAFED0
:200D60000C4B0D4923605C336360002320466361FFF74BFF606118B100F0BBFA204610BD02
:200D800005F046FF0168054800F0D4F8F6E700BFF42E0100C02F0100942F0100972F01006D
:200DA00010B50446064B03F10802643302604360406905F095FF2046FFF7ACFF204610BDCD
:200DC000B82F010038B504460D460368DB6C9847606906F053F86169284606F01BFA054678
:200DE000236820461B6D9847284638BD38B504460368DB6C9847606906F040F8606900F0C0
:200E000097FA0546236820461B6D9847284638BD0EB477B50446036807AD55F8046BDB6CE1
:200E200098476069019506F029F8019A314660690DF044F80546236820461B6D9847284638
:200E400003B0BDE8704003B0704706F077BF07F0F3BB06F037BA05F0ABBE000000B599B00C
:200E600000F03EF817496846FFF715FD164906A8FFF711FD15490CA8FFF70DFD144912A8FC
:200E8000FFF709FD019A039B96201A60079A0A9B1A600D9A109B1A60139A159B1A6000F09A
:200EA0009DFB019A049B96201A60079A099B1A600D9A0F9B1A60139A169B1A6000F08EFB55
:200EC000E0E700BF32C0092034C0092035C0092037C00920EFF31080C04300F001007047F9
:200EE00008B5FFF7F7FF72B6064B1A6822B980F00100054AC0B210701A681A6801321A6010
:200F000008BD00BF300B00102C0B001008B5074B1A6852B1FFF7DEFF1A68013A1A601B689A
:200F20001BB9034B1B7803B962B608BD300B00102C0B00100FB408B5054B1A781AB901207B
:200F4000187000F0D1F9BDE8084004B0704700BF340B001000F022BB426970B5A2F146046F
:200F6000442C28D84FF461658668416875433C2606FB01510368114D1944C36812F0030F8F
:200F800003F1FF3305FB03130CBF0C2100210069462A01440A4850F82100184408D040F2BD
:200FA0006D13013A9210113A03FB042205FB020040EAE07070BD4FF0FF3070BD805101004F
:200FC000243001000028F0B55CDB3C2390FBF3F403FB14020A6094FBF3F203FB12434B60F7
:200FE0004FF46163182490FBF3F393FBF4F204FB12338B60244B90FBF3F00723021D92FBE7
:20100000F3F3C3EBC303D31A8B6146234B614B6913F0030607D1B0F5B77F0DDB01334B614D
:20102000A0F5B770F3E7B0F5B67F05DD01334B616FF4B6731844EAE7134BC86158430B2375
:20104000124C0B610C2700232546B6FA86F2520907FB023E54F82EE086450FD9013B0B618B
:201060000C240B6904FB023255F82230C01A064B90FBF3F00130C8600120F0BD01330C2BCF
:20108000E3D1EDE70020F0BD805101002430010008B5084B1B685BB907490848084A01F04A
:2010A000F1F8BDE808404FF41651044800F010BF08BD00BF180D001002C00920701400106D
:2010C00003C00920022810B501DC002010BD00210B4AC31E52F8230042F8231030B905F05C
:2010E00097FD092303604FF0FF3010BD03685B699847041EE9DA05F08BFD64420460F2E73F
:20110000380B00100228F8B50D4614460EDC134B1B680BB9FFF7BCFF114E2F19BD4210D032
:2011200015F8011B304601F011F8F7E70D4B033853F8200038B905F06BFD09234FF0FF344E
:2011400003602046F8BD0368DB689847041EF8DA05F05EFD63420360F3E700BF180D00106A
:2011600070140010380B0010022810B50C460BDC104B1B680BB9FFF78BFF0F4800F0A0FF58
:2011800020700124204610BD0C4B033853F8200030B905F03DFD09234FF0FF340360F1E779
:2011A00003689B689847041EECDA05F031FD63420360E7E7180D001070140010380B0010E5
:2011C000022810B516DD0C4B033853F820402CB905F01EFD09230360204610BD2368204648
:2011E000DB699847041EF7DA05F012FD644204600024F1E70124EFE7380B0010022810B592
:2012000006DC05F005FD1D2303604FF0FF3010BD0A4B033853F8200018B905F0F9FC092335
:20122000F2E703681B699847041E04DA05F0F0FC64420460E9E7204610BD00BF380B001007
:20124000022808B504DC4FF4005300204B6008BD05F0DEFC092303604FF0FF3008BD000010
:201260000148FFF767BE00BF8830010008B5012000F03AF80C4A10B513681844EFF3088135
:20128000884205D30C22094B4FF0FF301A6010BD07490C6824B10749096821448842F1D229
:2012A0001060184610BD00BFCC00001078140010400C0010440C0010094C08B523680546B8
:2012C000986805F0DBFD2368D86805F0D7FDFFF741FE08B100F057F90DB1FFF7BFFDFEE72A
:2012E000F80000100120704708B5FFF7E5FF01207047002107F018BC30B50C4685B00246FF
:201300000A49054601A807F02DFD214601A805F035FF044638B12B682846DB69984710B114
:201320002046FFF7E6FF204605B030BD8430010005F0B6BD7047704708B5FFF7FBFF08BD67
:2013400008B5FFF7F8FF08BD10B506F0E7FC044610B90248FFF7EEFD204610BD923001004C
:2013600008B106F0E3BC7047FFF7FABF10B504460948FFF7B8FB00231946084A52F823006F
:20138000A04208BF42F823100133402BF6D10248FFF7A9FB10BD00BF380C0010380B0010BA
:2013A0002DE9FF4789464049064607F073FD044628B9FFF76DFE204604B0BDE8F0873B4980
:2013C000304607F067FD18B9FFF762FE0124F2E73749304607F05EFD18B9FFF759FE02248B
:2013E000E9E7344D3448FFF77EFB0024A84655F82470002F40D00134402CF8D105F008FC1C
:20140000182303602C48FFF76EFB0EE0314602A8FFF7FDFB02A8FFF73EFC064640B905F04A
:20142000F7FB0223036045F824604FF0FF34C2E702A8FFF71EFC074602A81FB1FFF722FCC1
:2014400001902BE0FFF70CFC06460028E7D0036802A8D3F808A0FFF7F8FB29F4803302463E
:2014600001A93046D0470646C0B105F0D1FB7642066045F82470D8E74FF0FF330E4845F805
:201480002430FFF730FB337801973A2BBED102AA0A49304607F08CFC029B0193019B48F89F
:2014A0002430033487E700BFB7300100BE300100AF300100380B0010380C00108430010061
:2014C00010B504460748FFF70EFB074B1B6803B19847064B1B680BB1204698470148FFF733
:2014E00002FB10BD480C0010D8000010D000001038B505460C48FFF7F6FA0C4B1B681BB1DE
:20150000984708B9FFF7DCFF094B1B6843B19847044605B12C600448FFF7E5FA204638BDA8
:201520004FF0FF34F5E700BF480C0010D4000010DC0000107047704770470000074B10B52E
:201540009A6807490748043A52F8044F41F8044F8142F9D14FF080529A6010BD00ED00E051
:20156000FCFFFF0FC000001008B5FFF7E7FFFFF7E2FFFFF7E1FF08BD08B5FFF7DBFFBDE855
:20158000084001F0D9BB30B585B06D46182420462946ABBE0446204605B030BD024B186818
:2015A00000F00100704700BFF0ED00E038B5044600F03EFF054600F03BFF401BA042FAD324
:2015C00038BD000008B5044903F094FD03F058FFBDE80840FFF7EABF002474494FF47A73A1
:2015E0005843FFF7E3BF00000C4B00781A6822F0FF021A600122196882400A431A601A682B
:2016000042F080721A6058680028FCDA1A68C0F30B1022F080721A60704700BF00400340A7
:2016200070B50646FFF7E0FF04463046FFF7DCFF05463046FFF7D8FFAC4282BF23462C463B
:201640001D46A84228BF2846A04238BF204670BD70B50C46164D064629462046FFF758F93A
:20166000144B3070D3F8C420294642F48052C3F8C420D3F8A8212046BDE8704022F0407293
:20168000C3F8A821D3F8A82142F08072C3F8A821094B1A68094B1344094A93FBF2F3013B07
:2016A0001B02084A43F400131360FFF7F7B800BFC830010000C00F40E00000103F5DC60040
:2016C000405DC6000040034008B5FFF7A9FF03F0B9FC024903F00EFD08BD00BF0108803992
:2016E0000649074A074B9A42BEBF51F8040B42F8040BF8E70448804704480047C44601006E
:20170000C8000010D40A00102517000039010000FEE7FEE7FEE7FEE7FEE7FEE7FEE7FEE765
:20172000FEE7FEE72022264BC3F8A021D3F8A021920603D5D3F8A0215006FBD50222C3F823
:20174000042100220120C3F8A821C3F8AC210B22C3F80C01AA21C3F884205522C3F88C1028
:20176000C3F88C20C3F88000C3F88C10C3F88C20134B1A46D3F888104901FBD50321C3F8EF
:201780008010AA21C3F88C105521C3F88C10D2F8883013F0407FFAD00523C2F80831094B4D
:2017A000C2F8C4300023C2F8C831136823F4704323F03A0343F4405343F03A0313607047AC
:2017C00000C00F40DE87280410B50021044600F00CFA012004F01F04A04010BD38B5054626
:2017E0004B1C0C4629600FD00846FFF7EDFF24F01F0404F11803EB6004F11C032B6104F171
:20180000140368606B61AC6038BD006800F006BA11B1012907D0704782684168136823EA6F
:201820000103136070478268416813680B43F8E72DE9F74F4FF0010A3A4C3B4AD4F804902E
:20184000DFF8E8B0D4F80880676AA66AB9F1000F15D1DFF8D490DFF8D4A0B8F1000F22D114
:201860004FF0010ADFF8C080DFF8C09077BB2E4FDFF8B880002E3ED103B0BDE8F08FB9FA5B
:2018800089F5C5F11F05EDB252F8250028B10121DBF8003001929847019A0AFA05F5E56094
:2018A000A9EB0509D2E7B8FA88F5C5F11F05EDB259F8250018B10221DAF8003098470123BE
:2018C00003FA05F5E560A8EB0508C6E7B7FA87F5C5F11F05EDB20F2D08D805F1200358F854
:2018E000230018B10121D9F8003098470AFA05F5E5627F1BBAE7B6FA86F5C5F11F05EDB2D6
:201900000F2D08D805F1200357F8230018B10221D8F800309847012303FA05F5E562761B62
:20192000A8E700BF80800240500C0010100D001070B51E464B1C044623D0134B134D1A6019
:2019400021F01F03036001F01F0321F05F01A942436002D00E48FFF7EDFA23686268AB4298
:201960000C4918BF20320C4BA26041F822609B680A4A0020C3F894204FF40012084B1A60CD
:2019800070BD084670BD00BF100D001000C0092034310100500C001000ED00E031180000E2
:2019A00000E100E000218268014B43F822107047500C001030B503682C4DAB4209D02C4C78
:2019C000A34217D0012930D1AB420AD0A34219D030BD01234468012903FA04F3254CE360EC
:2019E00030D1012340682349AAB10A69834013430B6130BD01234468012903FA04F31D4C17
:201A0000E36216D1012340681A494AB10A6B834013430B6330BD0A69834022EA0303E7E771
:201A20000A6B834022EA0303F3E7AB420AD0A342CED1012340680F4992B14A6B8340134302
:201A40004B63C5E7012340680A4922B14A69834013434B6130BD4A69834022EA0303F8E76E
:201A60004A6B834022EA0303EAE700BF00C0092040C00920808002400168054B0A681207B4
:201A800001D500207047013BF8D14FF0FF307047A18601003421036810B51A68996112072D
:201AA00048BF08224FF024010446196048BF9A61FFF7E2FF2022236858689A6110BD0000A0
:201AC000102203681A6008229A61054A186810F0100000D17047013AF8D10120704700BFC8
:201AE000A1860100044B49001B689B08B3FBF1F10368596119617047E0000010F8B50E4629
:201B00000446204930461546FEF702FF1E4907462846FEF7FDFE01463846FEF7DBFE1B4B40
:201B20002060984221D003F58823984223D0A3F50423984206D1164AD2F8C43043F08003A6
:201B4000C2F8C43020461349FFF7CCFF3C22236830469A6140220B491A60FEF79FFE2846CA
:201B6000BDE8F8400849FEF799BE094AD2F8C43043F40023E4E7064AD2F8C43043F0806391
:201B8000DEE700BFA03101006431010000C0054000C00F40A086010010B50368044604227E
:201BA00049B19A61082220469A61FFF765FF23689868C0B210BD1A60F4E7082210B50446F3
:201BC0000368C9B299609A61FFF756FF23685B68282B08D003D8182B05D0002010BD402B1C
:201BE00001D0B82BF8E7012010BD10B5032400F16040A0F51C2043000009800000F1804099
:201C000000F53030026803F01E039C4022EA04020260026899401143016010BD00F160404B
:201C2000A0F51C2043099B0003F1804303F5303330B500F01F029C6EC1F3800505FA02F2AE
:201C400024EA02049C669C6E22439A6695B9032443000009800000F1804000F53030026C4A
:201C600003F01E039C4022EA04020264026C99401143016430BD0000074AD2F8C43043F4C9
:201C80000073C2F8C4300022044B1A721A7A42F001021A72704700BF00C00F4000400240CA
:201CA000024B187A00F00100704700BF0040024000B50E4B8BB093F8202001A8019293F881
:201CC0002420029293F82820039293F82C20049293F838209B8F013A9BB2A3F26C730592B7
:201CE0000693FFF739F90BB05DF804FB0040024000B58BB001A9FFF765F910B3124B1A7AF0
:201D000042F002021A729DF8042083F820209DF8082083F824209DF80C2083F828209DF8F8
:201D2000102083F82C20059A0132D2B283F83820069A02F26C7292B29A871A7A02F0FD0227
:201D40001A720BB05DF804FB00400240012810B408D0022808D010BC7047506820F0010053
:201D6000506010E003460EE038230F4803FB01035868013006D018699C68046093F8363037
:201D8000002BEAD00023382251430748421840580028E0D01BB992F83620002ADBD0034A5E
:201DA0001946126810BC10471C0D0010140D0010034A00219068C0F34200FFF7C7BF00BF27
:201DC00000C00040034A01219068C0F34200FFF7BDBF00BF00000140034A02219068C0F31A
:201DE0004200FFF7B3BF00BF00800940034A03219068C0F34200FFF7A9BF00BF00C009402D
:201E000030B52A4B04689C4224D006DCA3F580439C420CD000231D460BE0254B9C421CD088
:201E200003F580439C42F5D1224B082501E00525214BAAB10122606802FA01F101436160F9
:201E40001E4905F110008968AA4041F820301C4B1A6030BD1B4B0625EBE71B4B0725E8E71F
:201E600001290AD042683820184B00FB023292F8363092F83520D34216D1012303FA01F2EB
:201E8000B1FA81F16068490920EA02006060626803FA01F1114207D1094AAB40C2F88030B3
:201EA000BFF34F8FBFF36F8F30BD00BF0000014000800940ED1D0000B11D000000ED00E087
:201EC00000E100E0C51D0000D91D00001C0D00102DE9F04F0368704A8DB0934208900E46B8
:201EE00000F09A8077DCA2F58042934200F086806A4BD3F800903301B9FBF3F5ACB203FB25
:201F00001595002D00F0BF800127224600214FEA49030693DDF818B04FEA8903059301965B
:201F20000393CDF81090079602974FF00008019B5FFA87FABBF1000FABBF0398BBFBF3F456
:201F4000B0FBF3F42409A8BF64090134C4F34F045FFA88F5002C00F09980B8F1000F02D01A
:201F6000012C08BF022407EB080060430B93049BC000B3FBF0F00130C6EB50000A910992B7
:201F800004F012FE079B099A98420A990B9B62DA86425BD10F2F07D129462246CDF808A04B
:201FA0000D461446DDF808A0089B45EA0A151B68EDB21A7B42F080021A73C4F30722E4B298
:201FC0001A711C7083F828501A7B02F07F021A730DB0BDE8F08F324A934229D002F580427E
:201FE000934285D12F4BD3F8AC2122F44022C3F8AC21D3F8AC2142F4802224E0294BD3F8F1
:20200000A82122F0C002C3F8A821D3F8A82142F04002C3F8A8216BE7224BD3F8A82122F4AA
:202020004072C3F8A821D3F8A82142F48072F0E71C4BD3F8AC2122F44032C3F8AC21D3F8FD
:20204000AC2142F48032C3F8AC2151E7294622460790CDF808A008F101085FFA88F05045C8
:202060003344FFF467AF0F2F9AD0049B05984B440493069B01379B44039B03440393019B07
:202080003344019351E74FF0010A8DE7B8F1000F0CBF0124022466E700000140E0000010F3
:2020A0000080094000C00F40034B1960382341684B430249CA507047140D00101C0D001069
:2020C00010B50268137DDB07FCD5382443680848117804FB03035868C9B2013006D05869A6
:2020E0009B680360536843F001035360084610BD1C0D00100368187D00F0010070470000D9
:202100003821114A436801FB0323DA69013209D01A6B1B6A12681A4214D10368187DC0F377
:20212000801070470268127D920604D50022012083F83420704793F834000F288CBF0020C4
:2021400001207047002070471C0D001038B504460D462046FFF7D4FF0028FAD03821236808
:20216000EDB21D706368044A01FB032393F83420013283F8342038BD1C0D00102DE9F84F8C
:202180009A463C4C03680546A34218BF00248946904647681CB1237C03F03F03237438235A
:2021A0004FF0FF32344E284603FB0763DA615A60002283F835201146FFF722FEB9F1000F4A
:2021C00055D02E494046FEF797FB2D4983465046FEF792FBA9F10203012B1BD8BAF1FF3F58
:2021E0000BD0244B98420DD164B1237C244943F0800323745046FEF751FBB9F1030F0CD000
:20220000BDE8F88F382000FB076051461C30FEF72FFBF2E7B9F1010F29D1B8F1FF3F01D190
:20222000BDE8F88F07222B681A72124B9B450AD14CB1237C404643F0400323740F49BDE8E6
:20224000F84FFEF72BBB382404FB0760414600220430FEF710FB01226B68284604FB0366F1
:2022600086F835200021BDE8F84FFFF7C9BDBDE8F88F00BF000001401C0D0010003201006A
:20228000DC3101002DE9F0410F460546474938461646FEF73DFB464904463046FEF738FB3B
:2022A00001462046FEF716FB424B0446984228605ED048D8A3F58043984251D001234FF02B
:2022C000000823724FF416512846C4F80480FFF7FFFD03222B6835491A733846FEF7DEFA09
:2022E00033493046FEF7DAFA7A1C03D041463846FFF794FC731C03D000213046FFF78EFCB6
:202300002C4B9C424CD03FD8A3F580439C4244D038216A68284B284601FB02324FF0FF333B
:2023200000215360D3611A46FFF728FF234B9C423AD10122224B2946BDE8F0411A60214809
:20234000082206F027B8204B984217D003F580439842B3D11D4AD2F8C43043F0007304E08A
:202360001A4AD2F8C43043F00803C2F8C430A5E7164AD2F8C43043F01003F6E7134AD2F85B
:20238000C43043F08073F0E70F4B9C420AD003F580439C42BCD1032300E000236B60B7E782
:2023A0000123FBE70223F9E7BDE8F0819032010024320100000001401C0D001000C0004068
:2023C000180D0010701400100080094000C00F40104B1868E0B901210F4A1960D2F8C43036
:2023E00043F40003C2F8C430A2F5D022106702200A4B1B6850600A48B3FBF0F3013BD360F9
:20240000084B51609B68084A1A651022074B1A60704700BFFC0D001000C00F40E000001058
:2024200000093D0000ED00E0C10A000000E100E008B5044B1B680BB9FFF7CAFF024B98689E
:2024400008BD00BFFC0D001000400940034B98615A6942F001025A61704700BF004009405D
:20246000024A536923F0010353617047004009400122014B1A6070470040094010B5044611
:202480000EF0EEFE204610BD10B500210D480EF0F6FC012104460B480EF0F1FC00210B46D8
:2024A00004EB002242FA01F010F0010F01F1010118BF0B460C29F5D103490448BDE810402A
:2024C000FEF7A6BC40120010053301002813001010B500210D480EF0D2FC012104460B48F9
:2024E0000EF0CDFC00210B4604EB002242FA01F010F0010F01F1010118BF0B460C29F5D13E
:2025000003490448BDE81040FEF782BC901200102C33010028130010032110B5C2B08DF8BE
:20252000001000210191029140A9C1E9002369460FF098F8044668460EF092FE204642B073
:2025400010BD000000F1080373B5044603600D46E1B1084606F06EFF0F2805EB0006019089
:2025600007D9002201A9204600F002FE019B2060A36032462946206800F026FE0021204630
:20258000019B22686360D15402B070BD014800F0BFFD00BFF833010070B51A4886B00EF0B3
:2025A000F7FD194C064619496846FFF7CBFF694620460FF000F816490546304602F09AFDF1
:2025C00002F086FB02460B462846FFF7A5FF684600F0F2FD0F496846FFF7B4FF6946204696
:2025E0000EF0E9FF0C4B0446186802F071FB02460B462046FFF790FF684600F0DDFD06B0C4
:2026000070BD00BF3811001030100010EA33010000006643F13301009C1100102DE9F04135
:20262000294C86B020460EF05FFB002120460EF01FFB064620460EF0EAFA314602460546F4
:2026400020460EF0E7FA214C074621496846FFF779FF694620460EF0AEFF8046304602F007
:2026600037FB02460B464046FFF756FF684600F0A3FD18496846FFF765FF694620460EF004
:202680009AFF0646284602F023FB02460B463046FFF742FF684600F08FFD0F496846FFF76B
:2026A00051FF694620460EF086FF0446384602F00FFB02460B462046FFF72EFF684600F0AE
:2026C0007BFD06B0BDE8F081D811001030100010D8330100DD330100E1330100022310B551
:2026E000C2B08DF80030002369460193029340930EF0B8FF044668460EF0B2FD204642B033
:2027000010BD38B504460D461822002105F01CFF20462946FEF7BFF8204638BD30B5C9B0BD
:2027200004466846FFF70EFF04238DF818300023182007930893FEF707FE0546694600F036
:2027400067FE06A9204646950EF08CFF044606A80EF086FD684600F02FFD204649B030BD0C
:2027600030B50546134C87B0E368626801461A60684600F04DFE1049684600F003FE69462D
:20278000284600F02DFD684600F016FD29680B4805F03EFF29680A48FEF714FB23696268AD
:2027A00008481A60FEF70EFFE36862681A6007B030BD00BFE0120010B42F010053330100EE
:2027C00028130010CDCC4C3E002370B5534CCEB0214668468DF830300D930E93FFF7B2FE45
:2027E00069460CA80EF0E7FE21464D4C054606A8FFF7A8FE06A920460EF0DDFE014628465B
:202800000EF030FF474D06A800F0D6FC684600F0D3FC29466846FFF795FE69460CA80EF013
:20282000CAFE2946064606A8FFF78CFE06A920460EF0C1FE014630460EF014FF3A4D06A812
:2028400000F0BAFC684600F0B7FC29466846FFF779FE69460CA80EF0AEFE2946064606A881
:20286000FFF770FE06A920460EF0A5FE014630460EF0F8FE2D4D06A800F09EFC684600F03D
:202880009BFC29466846FFF75DFE69460CA80EF092FE2946064606A8FFF754FE06A920467C
:2028A0000EF089FE014630460EF0DCFE204D06A800F082FC684600F07FFC29466846FFF749
:2028C00041FE69460CA80EF076FE2946064606A8FFF738FE06A920460EF06DFE0146304614
:2028E0000EF0C0FE06A800F067FC684600F064FC0CA968460EF051FE694606A800F088FD9B
:2029000006A8FFF72DFF06A800F056FC684600F053FC0CA80EF0A4FC4EB070BD1F34010039
:2029200030100010EA330100F1330100D8330100DD330100F0B5954CCFB095490CA8FFF75A
:2029400001FE0CA920460EF036FEFFF7C7FE0CA800F032FC8F490CA8FFF7F4FD0CA9204610
:202960000EF029FEFFF7BAFE0CA800F025FC8A490CA8FFF7E7FD0CA920460EF01CFEFFF735
:20298000ADFE0CA800F018FC84490CA8FFF7DAFD0CA920460EF00FFEFFF7A0FE0CA800F028
:2029A0000BFC7F490CA8FFF7CDFD0CA920460EF002FEFFF793FE0CA800F0FEFB79490CA821
:2029C000FFF7C0FD0CA920460EF0F5FDFFF786FE0CA800F0F1FB74490CA8FFF7B3FD0CA963
:2029E00020460EF0E8FDFFF779FE0CA800F0E4FB6E490CA8FFF7A6FD0CA920460EF0DBFDA9
:202A000000260027FFF76AFE0CA800F0D5FB68490CA8FFF797FD0CA920460EF0CCFDFFF7D0
:202A20005DFE0CA800F0C8FB62490CA8FFF78AFD0CA920460EF0BFFDFFF750FE0CA800F03B
:202A4000BBFB5D490CA8FFF77DFD0CA920460EF0B2FDFFF743FE0CA800F0AEFB57490CA856
:202A6000FFF770FD0CA920460EF0A5FDFFF736FE0CA800F0A1FB52490CA8FFF763FD0CA974
:202A800020460EF098FDFFF729FE0CA800F094FB4C490CA8FFF756FD0CA920460EF08BFDBA
:202AA000FFF71CFE0CA800F087FB47490CA8FFF749FD0CA920460EF07EFDFFF70FFE0CA815
:202AC00000F07AFB41490CA8FFF73CFD0CA920460EF071FD32463B46FFF71EFD0CA800F0EF
:202AE0006BFB3B490CA8FFF72DFD0CA920460EF062FD32463B46FFF70FFD0CA800F05CFBAA
:202B00000023344D684629468DF830300D930E93FFF718FD69460CA80EF04DFD294606465D
:202B200006A8FFF70FFD06A920460EF044FD014630460EF097FD06A800F03EFB684600F0CD
:202B40003BFB254906A8FFF7FDFC06A90CA80EF032FD2249FFF7E2FD06A800F02DFB0CA9E9
:202B600068460EF01AFD694606A800F051FC06A8FFF7F6FD06A800F01FFB684600F01CFBF4
:202B80000CA80EF06DFB4FB0F0BD00BF301000106D33010072330100773301007C330100BE
:202BA00081330100863301008B330100903301009A330100A4330100AE330100B8330100AF
:202BC000C2330100D8330100DD330100EA330100F13301001F340100CC330100D133010046
:202BE00000B5D1B014220021684605F0ADFC142200210DEB020005F0A7FC3A230093184BC0
:202C000005A91B6868469847164910A8FFF79AFC10A915480EF0CFFC1449FFF77FFD10A8ED
:202C200000F0CAFA059AC2B9069B114910A806F099F8089B079A0E4910A806F093F8094966
:202C40000AA8FFF77FFC0AA907480EF0B4FC10A9FFF764FD0AA800F0AFFA51B05DF804FBF1
:202C6000E40000101F34010030100010B52F0100FC3201002DE97F43154606466846FDF787
:202C800025FF1049284602F035FA6C4602F036FC06F12805A5428046894607D02846FDF779
:202CA0008CFA1DB169462846FDF710FF42464B463046FDF7B0FC2046FDF77FFA04B0BDE845
:202CC000708300BF0024744930B5134D85B0134B134C2A466946134800930394FFF7CAFFC7
:202CE0006846FDF76AFA104B69464FF080420F4800930394FFF7BEFF6846FDF75EFA0C4B3E
:202D00002A4669460B4800930394FFF7B3FF6846FDF753FA05B030BD0000A0401D260000BB
:202D20007C2D0100081200109925000040110010C9270000A01100102DE9F043284885B001
:202D4000FEF740FC27480EF09BF902F07FF9264B264C1860FFF744FFFFF7ECFD244B694646
:202D6000244800930394FDF721FB6846FDF725FA00212048FDF7AAFA1F4B69461F480093B8
:202D80000394FDF713FB6846FDF717FA00211B48FDF79CFA4FF07C56FFF796FF184CDFF802
:202DA0006480E368626830461A60FEF70BFC2369626830461A60FEF705FC0A270025DFF8C5
:202DC00048904046FDF7BCFB30B14846FEF70EF87F2DC7B2D8BF01350A2FF2D1E1E700BF0B
:202DE0000000A040381100109C1100107C2D01008924000048120010D1240000981200106D
:202E000078110010F8120010281300102DE9F3410025754C754E76482246DFF8F082754994
:202E2000754F057045608560FEF75CFA3046FDF7BDFCC6F8008075633046704E2246394630
:202E4000FEF750FA3046FDF7B1FCC6F80080756330466B4E22463946FEF744FA3046FDF753
:202E6000A5FCC6F800804FF4165875633046654E22463946FEF736FA634F64493046FDF7EC
:202E800051FA3046624E22463946FEF72BFA61493046FDF747FA30465F4E22463946FEF76C
:202EA00021FA5E4A5E493046FDF7B0F922465D493046FEF717FA3146B6225B480EF096F88D
:202EC00031465A4EB4225A480EF090F8594F2B46CDF80080584A59493046FDF70FFB304649
:202EE000574E22463946FEF7FDF92B46CDF80080544A55493046FDF701FB224639463046A6
:202F0000524EFEF7EFF952495248FFF7FAFB29461822304605F018FB012230464E49FDF7C9
:202F2000AAFC4E494E48FFF7ECFB4E494E48FFF7E8FB4E494E48FFF7E4FB4E494E48FFF7B6
:202F4000E0FB4E494E48FFF7DCFB4E494E48FFF7D8FB4E494E48FFF7D4FB4E494E48FFF791
:202F6000D0FB4E494E48FFF7CCFB4E494E48FFF7C8FB4E494E48FFF7C4FB4E494E48FFF7B1
:202F8000C0FB4E494E48FFF7BCFB4E494E48FFF7B8FB4E494E48FFF7B4FB4E494E48FFF7D1
:202FA000B0FB4E494E48FFF7ACFB4E494E48FFF7A8FB4E4D4E494F48FFF7A3FB4E494F484B
:202FC000FFF79FFB16224E4928460DF001FE22464C492846FEF786F902214B4802B0BDE83C
:202FE000F0410EF013B800BFC800001008120010301000107D240000890600004011001035
:20300000A011001048120010E902000040C009209812001041C009209011001001C00920F2
:2030200000C00920EF01000040120010F812001090120010A504000010C009200FC00920EF
:20304000E00F00100BC009200AC00920E012001006C009207811001021C0092044C00920C9
:20306000480E001045C00920600E001046C00920780E001047C00920900E001048C009206A
:20308000A80E001015C00920C00E001016C00920D80E001018C00920000E001019C0092078
:2030A000180E00101BC00920300E001004C00920F00E001005C00920200F001042C0092035
:2030C000380F001007C00920500F001008C00920680F001009C00920800F001011C0092037
:2030E000980F001012C00920B00F0010D811001013C00920C80F001014C00920080F00104F
:2031000017C00920DB0B0100381100105C2E010038B50546082000F041FB2946044601F0AE
:20312000D7F92046044A054901F064F8204600F04DFB00F06FFB00BF4D440000FC360100F5
:2031400038B50546082000F029FB2946044601F0D3F92046044A054901F04CF8204600F0F8
:2031600035FB00F057FB00BFA144000008370100086808B500281ADB90420AD952009042D6
:2031800007D2002A0ADBBDE808400A60501CFEF7DBB80130BDE80840FEF7D6B86FF00043B9
:2031A0004FF000400B60BDE80840FEF7CDB80148FFF7C6FF6834010050F8083B834202D0FB
:2031C0001846FEF7D1B87047521A012A03D002B9704705F0DFB80B7810B4037010BC7047B7
:2031E000884232D02DE9F041804658F8087B4D68B8450CBF0F22826882B0AA420E460446CF
:203200000CD32DB1012D316819D10B783B702768002365607B5502B0BDE8F08102A941F81F
:20322000045DFFF7A5FF07462068804501D0FEF79BF8019B2760A360002DE9D0E2E738464D
:203240002A4605F0A7F82768E2E770472DE9F04F04460D4683B00C9E40682168914604F18F
:203260000808B21A024488450192A0EB050714BFA2680F2201A920469B46FFF779FFA7EB36
:20328000090782462DB1012D21682BD02A4605F081F8BBF1000F08D03EB1012E0AEB05003D
:2032A00023D19BF800300AF805305FB123682E44012F4D440AEB060003EB05010ED03A4605
:2032C00005F068F82068804501D0FEF74DF8019BC4F800A0A36003B0BDE8F08F5B5D0AF8B5
:2032E0000630EFE70B780370D3E75946324605F051F8DAE7034653F8082BF0B59A4208BFED
:203300000F23466818BF8368751C9D4283B004460F4607D901220023009231461A46FFF744
:2033200095FF22680021975523686560595503B0F0BD00BFF0B5044650F8085B6768854215
:203340000CBF0F20A068BE18864283B00DD832B1012A05EB070011D10B78EB55256800235B
:2033600020466660AB5503B0F0BD00920B46002239462046FFF76AFF2568F0E705F00AF81D
:203380002568ECE738B5044608460D4606F052F86FF0004362689B1A834205D30246294640
:2033A0002046FFF7C7FF38BD0148FFF7C9FE00BF5034010070B5054682B001B3541A0F2CAD
:2033C0000E4601940AD82B68012C184613D064B90021019A6A60995402B070BD002201A9E6
:2033E000FFF7C6FE019B2860AB602246314604F0D1FF2B68ECE732781A702B68E8E712B182
:203400000248FFF785FE01920368E1E72434010010B5044600F1080303600B684A681946D8
:203420001A444FF00003FFF7C5FF204610BD00BF00487047883401000048704780340100D0
:2034400002604160704700BF4B68834201D0002070470868801AB0FA80F04009704700BFF0
:20346000704700BF704700BF10B50446FDF77CFF204610BD10B50446FDF776FF204610BD04
:2034800010B504460B6886B068461B6998479DE80600204601F03AF8009802AB984201D05F
:2034A000FDF762FF204606B010BD009802AB984201D0FDF759FF00F0ADF900BF70B50546CD
:2034C00082B001B3541A0F2C0E4601940AD82B68012C184613D064B90021019A6A60995401
:2034E00002B070BD002201A9FFF742FE019B2860AB602246314604F04DFF2B68ECE732788D
:203500001A702B68E8E712B10248FFF701FE01920368E1E72434010038B50446104605F01C
:203520007DFF04F108032360054640B105F082FF29462A182046FFF7C1FF204638BD20464C
:203540004FF0FF322946FFF7B9FF204638BD00BF30B503680C4D5B6983B0AB4214460CD100
:203560006368834202D0002003B030BD2068401AB0FA80F0400903B030BD0A4601466846FF
:20358000984700990198EBE74134000010B5064C064922460648FDF7A5FE2246BDE81040C3
:2035A00004490548FDF79EBEC800001065340000EC00001061340000E800001070B50024DE
:2035C0001026036884B01546029612689E6900946B468DF804400394B0479DF8043003F04A
:2035E0000603062B09BF01202046009B2B6004B070BD00BF009890420CBF06200120704749
:2036000010B50446024B036000F004FF204610BDAC35010010B50446044B036000F0FAFE3A
:203620002046082100F046F8204610BDAC35010038B515461C4600F0F1FE20B1082206230B
:203640002560E260237138BD2DE9F04117461C4606460D4600F0E2FE08B9032C01D9BDE836
:20366000F0812B683A4631462846BDE8F0415B69184700BFF0B583B0089D0A9917468D42DD
:2036800006460B9C0BD01946304600F0C7FE18B1012325602771A371002003B0F0BD099992
:2036A000019300F0BBFE18B10020677103B0F0BD019BE8E7FDF758BEF0B41D4CA0F108068B
:2036C000616850F8087CC9B1F519A9421BD04A682AB3954204D326E09D42114604D21A4648
:2036E00053680C1D002BF7D111685518AE4213D040F8043C23685E60F0BC704740F8041CBE
:203700006660F0BC70470B684A681F4440F8087C40F8042C6660EFE70F441760ECE7134642
:2037200004340A46E0E7134604340A46DCE700BF4413001030B4184C00F108016368082932
:2037400038BF082113B307311A6821F00701914204D81DE00268914205D9034658680028B8
:20376000F8D130BC70470433521A072A0AD9446845186C601C68425021601D6004F1080040
:2037800030BC7047426804461A60F7E71846E8E71846231DE8E700BF4413001038B500F19C
:2037A0008005284604F0BAFA044638B180220021204604F0C9FE04F1800038BD2846FFF789
:2037C000B9FF04460028F1D100F0CAFC064A80389368984205D9D2681344984201D2FFF758
:2037E0006BBF04F0A3BA00BF4413001038B54FF41E65074C2846E56004F090FAA06020B120
:20380000002360600560436038BDE060606038BD441300101EB400F091F81EBC02F07EFDDA
:20382000F0B5027883B0472A0D461F461ED00023274C0193236820469B68984780B10226C9
:20384000019B1B6801932B68214628461C6901AA0123A04730B13046019B3B6003B0F0BD24
:203860000126F0E70646304603B0F0BD43784E2BDDD18378552BDAD1C378432B19D0C37853
:20388000432BD4D10379432BD1D143792B2BCED183792B2BCBD1C379012BC8D804D050F8C6
:2038A000204C58300190C5E750F8200C50F8784CF8E70379462BE2D143794F2BDFD18379F6
:2038C000522BDCD1C379002BD9D10193014CB1E7EC350100E435010010B5044600F000F900
:2038E0002378A4F12002472B04D0836823BB8260012010BD63784E2BF7D1A378552BF4D11B
:20390000E378432BF1D12379432BEED163792B2BEBD1A3792B2BE8D1E379012BE5D854F8A9
:20392000043C0133012B44F8043CE1D1836844F8083C8260012010BD00F012FC08B500F0D3
:20394000CFF8836883B393F82020472A04D00022826003F1200008BD93F821204E2AF6D187
:2039600093F82220552AF2D193F82320432AEED193F82420432AEAD193F825202B2AE6D16B
:2039800093F826202B2AE2D193F82720012ADED8DA69013ADA61002ADBD100229969816007
:2039A0009A6103F1200008BD00F0DAFB38B5044600F096F822780368472AA4F1200105D0B8
:2039C000002B31D11C460160204638BD62784E2AF6D1A278552AF3D1E278432AF0D1227903
:2039E000432AEDD162792B2AEAD1A2792B2AE7D1E279012AE4D854F80C2C002A11DB01327A
:203A000045688B4205F1FF3544F80C2C45601CBF44F8103C01602046646A02F0CDF82046D4
:203A200038BDC2F10102EBE700F09AFB08B500F053F80246006800283DD090F82030472B5D
:203A400006D0002320301360BDE8084002F0B6B890F821304E2BF4D190F82230552BF0D12B
:203A600090F82330432BECD190F82430432BE8D190F825302B2BE4D190F826302B2BE0D170
:203A800090F82730012BDCD84369002B05DB013B08D05A1C0DD0436108BD0133FBD1016976
:203AA0001160F8E7036920301360BDE8084002F085B800F055FB08BD704700BF704700BF7A
:203AC00000487047D035010010B504460421FFF7F1FD204610BD00BF004870475413001061
:203AE00000487047541300105028F8B554D000F00F040C2C4ED8DFE804F007394907174DF7
:203B00004D4D4D1F1B071700154655F8044B44B100F07006102E08BF114602060C4448BF59
:203B200024681C602846F8BD154655F8084BEEE7154635F9024BEAE700241546274615F8EA
:203B400001EB0EF07F06BE401EF0800F44EA060407F10707F3D11F2FD9D81EF0400FD6D057
:203B60004FF0FF3606FA07F73C43D1E700241546274615F801EB0EF07F06BE401EF0800F99
:203B800044EA060407F10707F3D1C0E7154635F8024BBCE703F000F8033222F0030555F87D
:203BA000044B1C602846F8BDFF280DD000F07000202815D00AD940280FD0502804D03028B8
:203BC00008D1084602F0B0BD002070470028FBD01028F9D008B502F0DFFF084602F090BD7A
:203BE000084602F09DBD00BFF8B50C4615460746002842D002F084FD286026780134FF2E90
:203C000032D039463046FFF7CFFF224601462B1D3046FFF769FF04462378601CFF2B2B75F3
:203C200028D00024102322462B7510F8011B01F07F039340090644EA030402F10702F4D4BB
:203C40000444EC6000242246037801306B7510F8011B01F07F0393401C430B0602F10702E2
:203C6000F5D404442C61F8BD68602378601CFF2B2B75D6D10023EB60E4E7BDE700232DE98B
:203C8000F04F00F0030497B0012C894617460A931ED00ED3022C0AD13946484602F01AFDC3
:203CA000002800F0A580092017B0BDE8F08F02F073FF0007F0D401230393002316AA42F8AD
:203CC0002C9D009219460C22384601F0A3FF0FE010F0080400F0908016AA42F82C1D00921B
:203CE00044F0020419460C223846039401F092FF384602F00BFD05900028CDD010AB1A4679
:203D0000059938460693FFF76FFF394604469DF85400FFF749FF00230DF13C0B1290194631
:203D20000F22CDF800B0384601F04EFF0F9B149A23F00103A24203F1FF3675D90DF1340A1B
:203D40000DF138089DF8555000212846FFF72CFF2246534601462846FFF7C6FE9DF85540A1
:203D6000054600212046FFF71FFF2A46434601462046FFF7B9FE9DF855400546002120460E
:203D8000FFF712FF2A4601465B462046FFF7ACFE04460020024614F8011B01F07F0393409E
:203DA000090640EA030002F10702F4D4109B0D9A13449E4231D2039BDB0739D5002504952B
:203DC00000230D221946CDF8008038460A9C01F0FBFE059A0E9BC9F82C20049AC9F82440C7
:203DE000C9F82850C9F83020C9F8203006205BE7082017B0BDE8F08F10AB009306930D22D7
:203E0000234621463846D9F8205001F0DDFE109B9D4212D0022303934FE70E9A13449E420B
:203E200059D3149BA3428DD800250124049507E1039B1B074CD500F093F916AB43F82C9D70
:203E40000093214623460C22384601F0E3FED9F830300493002B3BD00324D9F82850D9F842
:203E60002C10002DC0F208810DF1340A0DF13808002316AA42F8289D1946009238461A4673
:203E800001F0C8FE002301221946CDF800A038460D9501F0BFFE00230F221946CDF800809B
:203EA000384601F091FE00230E9A049D02F001021543CDF80080384619460F220E9501F064
:203EC000A9FE022C00F08280072017B0BDE8F08F484600F093FC0F9B1A460493002B7AD1E5
:203EE00000283FF4D9AE149B049A01380344002A3FF4D2AE002B77D0039A12F00802099280
:203F000000F0F88047254E245520432146224F264FF0520E4FF0000C89F8005089F8014028
:203F200089F8020089F8031089F8042089F8056089F806E089F807C00022079708920025B1
:203F4000294600E023461C4614F8010B00F07F028A40060645EA020501F10701F2D41F29AA
:203F600005D8420603D501228A40524215430026314613F8010F00F07F028A40070646EA3B
:203F8000020601F10701F4D41F2905D8400603D501238B405B421E43002D5CD05EDD9DF8FE
:203FA0005400FF2800F0A48000F00703042B3FF67EAE01A252F823F023400000AF3C00009A
:203FC0002940000023400000014000004846FFF783FC072068E6119B1A440492002882D141
:203FE000049B002B3FF458AE039B13F001037FF453AE039A12F0080540F09780022437E76E
:20400000EB005B42139A12991A444346FFF76CFD0E9999B1B9F1000F09D1002E77D0A319C5
:204020008DE7AB005B42EDE76B005B42EAE70AAB00224846FFF7F4FB0028EED00324079F1A
:20404000039BDA0760D4039B190766D4012C3FF43FAF059905E701230893DEE7B9F1000FA0
:2040600001D0099B5BB36B1C139AC3EB837352F82330002BD1D1E1E7069A3846FFF7B4FDEE
:2040800039469DF85400FFF78FFDAA0082F00302D243139E1290B358164433B132460023C9
:2040A00052F8041F01330029FAD10422C9F82830C9F82C00C9F83460C9F83020D4E6139F6D
:2040C0006B1CC3EB837357F823100A9A07EB83070F9221B9B2E757F8041F0029AED0394469
:2040E0005B4600224846FFF79BFB0028F3D094E7002387E799F80720012A0CBF59F8202CA1
:2041000009F158020A9217E70DF1380858E6089B079F002B7FF468AFBEE5012C3FF48BAEFB
:20412000002DBFF6A1AE00F029F81D4602249FE6FFF73CFC7FE600BF08B5804702F02CFD3E
:20414000FFF734FC02F028FD0D460446FFF76EFC013501D0FFF75EFB204600F05FFB00BF60
:2041600008B5034B1868BFF35B8FFFF7E5FF00BFF400001008B58047FFF7F2FF08B5034B05
:204180001868BFF35B8FFFF7F5FF00BFF0000010024B1868BFF35B8F704700BFF400001077
:2041A000024B1868BFF35B8F704700BFF0000010012810B51AD8BFF35B8FA1F1280353E8AC
:2041C000002F013A43E800200028F8D1BFF35B8F5AB951F81C3C01F158040BB1204698479A
:2041E0002046BDE81040FFF7F1BA10BD51F8140CFFF7A2FF2DE9F041044617468846FFF744
:204200006FFC01264368A4F158053344436044F8747C44F8806C44F8788CFFF7C1FF44F8CF
:20422000700CFFF7B5FF472143222B234FF04E0E5527002604F8581C0D4944F86C0C04F88A
:2042400057EC44F8501C04F8552C04F8542C04F8533C04F8523C04F8567C04F8516C284670
:2042600002F04AF82846FFF7A1FBFFF779FF00BFB141000010B5FFF733FC426804680132B8
:20428000426064B194F82020472A0AD0002202602034204602F054F82046FFF787FBFFF700
:2042A0005FFF94F821204E2AF0D194F82220552AECD194F82320432AE8D194F82420432A5E
:2042C000E4D194F825202B2AE0D194F826202B2ADCD194F82720012AD8D8626952426261AE
:2042E000D6E700BF10B50446024B0360FFF788F9204610BDC036010010B50446044B036021
:20430000FFF77EF920460C21FFF7D4F9204610BDC036010070B582B0069C0D469442064642
:2043200009D0B068294606680694346AA44602B0BDE87040604719460192009300F06EF804
:20434000009B019A0028ECD0062002B070BD00BF2DE9F04F894681B019461D4616460746BF
:204360000A9CDDF82CB0DDF830A0DDF8348000F055F888B1B9F1000FC8F8004088F80460A5
:204380001EDB4C44A2450CBF0624012488F80640002001B0BDE8F08F544518D0B8682B46C6
:2043A0000568CDF83480CDF830A0CDF82CB00A94EC6932464946A44601B0BDE8F04F6047C1
:2043C00019F1020FE4D1012388F80630E0E75946384600F023F80028E0D0002088F8056067
:2043E00001B0BDE8F08F00BF2DE9F04107460C4615461E46FFF71CF908B1BDE8F081B8688A
:20440000334606682146B4692A46A446BDE8F041604700BF704700BF00207047814211D0AA
:2044200008B5406803782A2B0AD049680B782A2B08BF013104F02EFDB0FA80F0400908BDA4
:20444000002008BD012070474068704710B5044643680C4A0C49A3F10C00904282B02160B6
:2044600005D12046FFF728FB204602B010BD53F8042C511E002A43F8041CF2DC01A900F02B
:20448000A3F8EEE7601300104037010010B50446FFF7DCFF2046FCF767FF204610BD00BF20
:2044A00010B50446024B0360FFF7D0FF204610BD5437010010B50446044B0360FFF7C6FF3D
:2044C0002046FCF751FF204610BD00BF5437010010B5084B82B0044601AA40F8043B00F00F
:2044E00095F8204602B010BD2046FFF7E5FAFFF791F900BF4037010010B50446FFF7E8FF6C
:20450000014B2046236010BD5437010010B5044682B001AB00F06CF8204602B010BD00BF28
:20452000134B10B598421FD88842044614D94A00904238BF144604F11D02B2F5805F04F18A
:204540000D000BD9A14209D204F58054C2F30B02A41A9C4228BF1C4604F10D00FCF7F4FE51
:2045600000224460826010BD0248FEF7E9FD00BFFCFFFF3F8C37010070B50C1A064600212D
:204580002046FFF7CDFF012C054600F10C0305D084B90C4A954206D1184670BD32780273BB
:2045A000084A9542F8D0002229192C60AA600A73184670BD18463146224603F0EBFE0346A6
:2045C000E7E700BF60130010FCF7CEBE884202D018B1FFF7D1BF044870470029F9D008B5AF
:2045E0000248FEF795FD00BF6C1300106037010038B50D460446114428461A464FF0000315
:20460000FFF7E4FF2060204638BD00BF70B5054616460C4661B1084604F00CFF21183246F9
:2046200020464FF00003FFF7D1FF2860284670BD4FF0FF31F3E700BF244B1A68D0075CBFFE
:2046400001221A60224B1A68D1075CBF01221A60204B1A68D2075CBF01221A601E4B1A68D5
:20466000D0075CBF01221A601C4B1A68D1075CBF01221A601A4B1A68D2075CBF01221A60BA
:20468000184B1A68D0075CBF01221A60164B1A68D1075CBF01221A60144B1A68D2075CBF5E
:2046A00001221A60124B1A68D0075CBF01221A60104B1A68D1075CBF01221A600E4B1A68A7
:2046C000D2075CBF01221A60704700BF9C1300109813001094130010901300108C13001040
:2046E0008813001084130010801300107C130010781300107413001070130010244B1A6870
:20470000D0075CBF01221A60224B1A68D1075CBF01221A60204B1A68D2075CBF01221A600D
:204720001E4B1A68D0075CBF01221A601C4B1A68D1075CBF01221A601A4B1A68D2075CBFAB
:2047400001221A60184B1A68D0075CBF01221A60164B1A68D1075CBF01221A60144B1A68F4
:20476000D2075CBF01221A60124B1A68D0075CBF01221A60104B1A68D1075CBF01221A60CD
:204780000E4B1A68D2075CBF01221A60704700BFCC130010C8130010C4130010C013001093
:2047A000BC130010B8130010B4130010B0130010AC130010A8130010A4130010A013001071
:2047C0000378472B01D00020704743784E2BFAD18378552BF7D1C378432BF4D10379432BAA
:2047E000F1D143792B2BEED183792B2BEBD1C07901288CBF00200120704700BF10B530B10E
:204800000446FFF7D3F82046FFF7DAFF08B9FFF7A7FC54F8140CFFF78FFC00BF2DE9F04FFD
:2048200085B00246FFF7CCFF68B152F8184C104652F8145C966A176BD2F83490FFF7B6F8AF
:204840002046FFF797FC1046FFF7B0F8FFF796FCFFF7ACF8FFF784FCFFF7A8F8FFF73CF91C
:20486000036893F82720012A37D003F178024FF000084C46C1460DF1100A203327F0030BEB
:2048800001934AF8082DB1451BDA276807B127445346002239460198FEF7C2FF10BB3B6879
:2048A00004AA1B6942F8040D0093384601231149009FB847002818BF804609F101095C44E5
:2048C000E1E7B8F1000F0AD00420FEF767FF0A4B0A4A03600749FFF78DFC1A68C7E7284686
:2048E000FFF72AFCFFF7C6FCFFF7A0F8FFF79EF8FEF790FFF435010078360100BD3A000076
:20490000184B1A68D1075CBF01221A60164B1A68D2075CBF01221A60144B1A68D0075CBFDB
:2049200001221A60124B1A68D1075CBF01221A60104B1A68D2075CBF01221A600E4B1A6822
:20494000D0075CBF01221A600C4B1A68D1075CBF01221A600A4B1A68D2075CBF01221A60F7
:20496000704700BFEC130010E8130010E4130010E0130010DC130010D8130010D4130010AC
:20498000D0130010184B1A68D1075CBF01221A60164B1A68D2075CBF01221A60144B1A685A
:2049A000D0075CBF01221A60124B1A68D1075CBF01221A60104B1A68D2075CBF01221A608B
:2049C0000E4B1A68D0075CBF01221A600C4B1A68D1075CBF01221A600A4B1A68D2075CBF39
:2049E00001221A60704700BF0C140010081400100414001000140010FC130010F8130010C2
:204A0000F4130010F013001081F0004102E000BF83F0004330B54FEA41044FEA430594EA01
:204A2000050F08BF90EA020F1FBF54EA000C55EA020C7FEA645C7FEA655C00F0E2804FEABD
:204A40005454D4EB5555B8BF6D420CDD2C4480EA020281EA030382EA000083EA010180EAA2
:204A6000020281EA0303362D88BF30BD11F0004F4FEA01314FF4801C4CEA113102D04042C4
:204A800061EB410113F0004F4FEA03334CEA133302D0524263EB430394EA050F00F0A780A8
:204AA000A4F10104D5F1200E0DDB02FA0EFC22FA05F2801841F1000103FA0EF2801843FACA
:204AC00005F359410EE0A5F120050EF1200E012A03FA0EFC28BF4CF0020C43FA05F3C018FE
:204AE00051EBE37101F0004507D54FF0000EDCF1000C7EEB00006EEB0101B1F5801F1BD3F7
:204B0000B1F5001F0CD349085FEA30004FEA3C0C04F101044FEA445212F5800F80F09A80BD
:204B2000BCF1004F08BF5FEA500C50F1000041EB045141EA050130BD5FEA4C0C404141EBDF
:204B4000010111F4801FA4F10104E9D191F0000F04BF01460020B1FA81F308BF2033A3F1D4
:204B60000B03B3F120020CDA0C3208DD02F1140CC2F10C0201FA0CF021FA02F10CE002F1A0
:204B80001402D8BFC2F1200C01FA02F120FA0CFCDCBF41EA0C019040E41AA2BF01EB045136
:204BA000294330BD6FEA04041F3C1CDA0C340EDC04F11404C4F1200220FA04F001FA02F3DE
:204BC00040EA030021FA04F345EA030130BDC4F10C04C4F1200220FA02F001FA04F340EAB2
:204BE0000300294630BD21FA04F0294630BD94F0000F83F4801306BF81F480110134013D10
:204C00004EE77FEA645C18BF7FEA655C29D094EA050F08BF90EA020F05D054EA000C04BF76
:204C20001946104630BD91EA030F1EBF0021002030BD5FEA545C05D14000494128BF41F089
:204C4000004130BD14F580043CBF01F5801130BD01F0004545F0FE4141F470014FF000009B
:204C600030BD7FEA645C1ABF194610467FEA655C1CBF0B46024650EA013406BF52EA03354A
:204C800091EA030F41F4002130BD00BF90F0000F04BF0021704730B54FF4806404F1320424
:204CA0004FF000054FF0000150E700BF90F0000F04BF0021704730B54FF4806404F1320419
:204CC00010F0004548BF40424FF000013EE700BF42004FEAE2014FEA31014FEA02701FBF90
:204CE00012F07F4393F07F4F81F06051704792F0000F14BF93F07F4F704730B54FF460745E
:204D000001F0004521F0004120E700BF50EA010208BF704730B54FF000050AE050EA01023A
:204D200008BF704730B511F0004502D5404261EB41014FF4806404F132045FEA915C3FF428
:204D4000DCAE4FF003025FEADC0C18BF03325FEADC0C18BF033202EBDC02C2F1200300FA70
:204D600003FC20FA02F001FA03FE40EA0E0021FA02F11444C1E600BF4FF0FF3C06E000BF09
:204D80004FF0010C02E000BF4FF0010C4DF804CD4FEA410C7FEA6C5C4FEA430C18BF7FEA45
:204DA0006C5C1BD001B050EA410C0CBF52EA430C91EA030F02BF90EA020F0020704710F101
:204DC000000F91EA030F58BF994208BF90422CBFD8176FEAE37040F0010070474FEA410CB8
:204DE0007FEA6C5C02D150EA013C07D14FEA430C7FEA6C5CD6D152EA033CD3D05DF8040B7E
:204E0000704700BF8446104662468C461946634600E000BF01B5FFF7B7FF002848BF10F149
:204E2000000F01BD4DF808EDFFF7F4FF0CBF012000205DF808FB00BF4DF808EDFFF7EAFF46
:204E400034BF012000205DF808FB00BF4DF808EDFFF7E0FF94BF012000205DF808FB00BF4D
:204E60004DF808EDFFF7CEFF94BF012000205DF808FB00BF4DF808EDFFF7C4FF34BF012083
:204E800000205DF808FB00BF4FEA410212F5001215D211D56FF47873B3EB625212D94FEAB5
:204EA000C12343F0004343EA505311F0004F23FA02F018BF404270474FF00000704750EA29
:204EC000013005D111F0004008BF6FF0004070474FF00000704700BF80F0004002E000BF67
:204EE00081F0004142001FBF5FEA410392EA030F7FEA226C7FEA236C6AD04FEA1262D2EB32
:204F00001363C1BFD218414048404140B8BF5B42192B88BF704710F0004F40F4000020F03E
:204F20007F4018BF404211F0004F41F4000121F07F4118BF494292EA030F3FD0A2F101026D
:204F400041FA03FC10EB0C00C3F1200301FA03F100F0004302D5494260EB4000B0F5000F76
:204F600013D3B0F1807F06D340084FEA310102F10102FE2A51D2B1F1004F40EBC25008BFE9
:204F800020F0010040EA03007047490040EB000010F4000FA2F10102EDD1B0FA80FCACF17E
:204FA000080CB2EB0C0200FA0CF0AABF00EBC25052421843BCBFD0401843704792F0000FB9
:204FC00081F4000106BF80F400000132013BB5E74FEA41037FEA226C18BF7FEA236C21D0E3
:204FE00092EA030F04D092F0000F08BF0846704790EA010F1CBF0020704712F07F4F04D111
:20500000400028BF40F00040704712F100723CBF00F50000704700F0004343F0FE4040F44E
:20502000000070477FEA226216BF08467FEA23630146420206BF5FEA412390EA010F40F4FF
:20504000800070474FF0000304E000BF10F0004348BF40425FEA000C08BF704743F0964389
:2050600001464FF000001CE050EA010208BF70474FF000030AE000BF50EA010208BF70474D
:2050800011F0004302D5404261EB41015FEA010C02BF84460146002043F0B64308BFA3F116
:2050A0008053A3F50003BCFA8CF2083AA3EBC25310DB01FA02FC634400FA02FCC2F1200211
:2050C000BCF1004F20FA02F243EB020008BF20F00100704702F1200201FA02FCC2F1200224
:2050E00050EA4C0021FA02F243EB020008BF20EADC7070474FF0FF0C1CEAD0521EBF1CEAC2
:20510000D15392EA0C0F93EA0C0F6FD01A4480EA010C400218BF5FEA41211ED04FF00063D4
:2051200043EA501043EA5111A0FB01310CF00040B1F5000F3EBF490041EAD3715B0040EA5B
:20514000010062F17F02FD2A1DD8B3F1004F40EBC25008BF20F00100704790F0000F0CF014
:20516000004C08BF49024CEA502040EA51207F3AC2BFD2F1FF0340EAC250704740F400006A
:205180004FF00003013A5DDC12F1190FDCBF00F000407047C2F10002410021FA02F1C2F1F5
:2051A000200200FA02FC5FEA310040F1000053EA4C0308BF20EADC70704792F0000F00F049
:2051C000004C02BF400010F4000F013AF9D040EA0C0093F0000F01F0004C02BF490011F457
:2051E000000F013BF9D041EA0C018FE70CEAD15392EA0C0F18BF93EA0C0F0AD030F0004C87
:2052000018BF31F0004CD8D180EA010000F00040704790F0000F17BF90F0004F084691F04C
:20522000000F91F0004F14D092EA0C0F01D142020FD193EA0C0F03D14B0218BF084608D167
:2052400080EA010000F0004040F0FE4040F40000704740F0FE4040F4400070474FF0FF0C77
:205260001CEAD0521EBF1CEAD15392EA0C0F93EA0C0F69D0A2EB030280EA010C49024FEA0A
:20528000402037D04FF0805343EA111143EA10130CF000408B4238BF5B0042F17D024FF4A6
:2052A000000C8B4224BF5B1A40EA0C00B3EB510F24BFA3EB510340EA5C00B3EB910F24BF1D
:2052C000A3EB910340EA9C00B3EBD10F24BFA3EBD10340EADC001B0118BF5FEA1C1CE0D1F8
:2052E000FD2A3FF650AF8B4240EBC25008BF20F0010070470CF0004C4CEA50207F32C2BF9A
:20530000D2F1FF0340EAC250704740F400004FF00003013A37E792F0000F00F0004C02BF78
:20532000400010F4000F013AF9D040EA0C0093F0000F01F0004C02BF490011F4000F013BB7
:20534000F9D041EA0C0195E70CEAD15392EA0C0F08D142027FF47DAF93EA0C0F7FF470AF39
:20536000084676E793EA0C0F04D14B023FF44CAF08466EE730F0004C18BF31F0004CCAD1AC
:2053800030F000427FF45CAF31F000437FF43CAF5FE700BF4FF0FF3C06E000BF4FF0010CFB
:2053A00002E000BF4FF0010C4DF804CD4FEA40024FEA41037FEA226C18BF7FEA236C11D04B
:2053C00001B052EA530C18BF90EA010F58BFB2EB030088BFC81738BF6FEAE17018BF40F09B
:2053E000010070477FEA226C02D15FEA402C05D17FEA236CE4D15FEA412CE1D05DF8040B28
:20540000704700BF844608466146FFE70FB5FFF7C9FF002848BF10F1000F0FBD4DF808EDAA
:20542000FFF7F4FF0CBF012000205DF808FB00BF4DF808EDFFF7EAFF34BF012000205DF8BE
:2054400008FB00BF4DF808EDFFF7E0FF94BF012000205DF808FB00BF4DF808EDFFF7D2FFCF
:2054600094BF012000205DF808FB00BF4DF808EDFFF7C8FF34BF012000205DF808FB00BF3F
:205480004FEA4002B2F1FE4F0FD34FF09E03B3EB12620DD94FEA002343F0004310F0004FC6
:2054A00023FA02F018BF404270474FF00000704712F1610F01D1420205D110F0004008BF71
:2054C0006FF0004070474FF00000704753B94AB9002908BF00281CBF4FF0FF314FF0FF30A1
:2054E00001F026B9ADF1080C6DE904CE00F02CF8DDF804E0DDE9022304B07047D0B5FFF764
:20550000E7FB00220E4B06460F4601F013F901F023FB0446FFF7BAFB00220A4B01F00AF921
:2055200002460B4630463946FFF772FA01F014FB2346002242EA000210461946D0BD00BFC1
:205540000000F03D0000F0412DE9F0478C460E460446089D002B50D18A4217466CD9B2FA25
:2055600082FEBEF1000F0BD0CEF1200C01FA0EF620FA0CFC02FA0EF74CEA060C00FA0EF4C1
:205580003A0CBCFBF2F9BBB202FB19CC09FB03FA4FEA144848EA0C46B2450AD9F61909F1D7
:2055A000FF3180F02581B24540F22281A9F102093E44A6EB0A06B6FBF2F002FB106600FB10
:2055C00003F3A4B244EA0644A34209D9E41900F1FF3280F00B81A34240F2088102383C44CB
:2055E0000021E41A40EA0940002D62D0002324FA0EF42C606B60BDE8F0878B4207D9002D2A
:2056000055D0002185E841000846BDE8F087B3FA83F1002940F08F80B34202D3824200F223
:20562000FC80841A66EB03060120B446002D40D085E81010BDE8F08712B90127B7FBF2F767
:20564000B7FA87FEBEF1000F35D10121F61B4FEA174C1FFA87F8B6FBFCF20CFB126608FBC8
:2056600002F0230C43EA0646B04207D9F61902F1FF3302D2B04200F2D2801A46361AB6FB1F
:20568000FCF00CFB106608FB00F8A3B243EA0644A04507D9E41900F1FF3302D2A04500F24A
:2056A000B9801846A4EB080440EA02409CE729462846BDE8F08707FA0EF7CEF1200326FAC8
:2056C00003F24FEA174CB2FBFCF11FFA87F80CFB112206FA0EF620FA03F301FB08F9334346
:2056E0001E0C46EA0246B14500FA0EF409D9F61901F1FF3280F08C80B14540F2898002391A
:205700003E44A6EB0906B6FBFCF00CFB106200FB08F99EB246EA0246B14507D9F61900F1B7
:20572000FF3371D2B1456FD902383E44A6EB090640EA01418FE7C1F1200722FA07F88B40B9
:2057400048EA030326FA07F44FEA134EB4FBFEF91FFA83FC0EFB19448E4020FA07F809FBCD
:205760000CFA48EA06084FEA184646EA0444A24502FA01F200FA01F608D9E41809F1FF3007
:2057800044D2A24542D9A9F102091C44A4EB0A04B4FBFEF00EFB104400FB0CFC1FFA88F8B9
:2057A00048EA0444A44507D9E41800F1FF3E29D2A44527D902381C4440EA0940A0FB028965
:2057C000A4EB0C0CCC45C246CE4615D312D055B1B6EB0A036CEB0E0606FA07F7CB401F43A1
:2057E000CE402F606E600021BDE8F0871046F7E68946DEE64645EAD2B8EB020A69EB030EE0
:205800000138E4E77046D7E718468FE78146BDE7114676E702383C4444E7084606E7023AC1
:205820003E442BE703685A004CBF43F0004323F000431844704700BF61B32DE9F84F01F103
:20584000FF3A90460646D146002707EB090404EBD4746410E50071190846FFF7E3FFA24589
:20586000834605F10800304409D0FFF7DBFFC34500F1FF3005D8404509D2671CE5E7C34588
:2058800005D9A74202D004F1FF39DEE700210846BDE8F88F08467047012807D0022807D0DC
:2058A000044B00280CBF1846002070470248704702487047A95F0000AD5F0000B15F00004B
:2058C00030B5254B83B004468D1E73B301A92846AFF3008018B301992A46FFF7ADFF01462D
:2058E000E8B1FFF79FFF4B68A064012B11D0002B22DB081DFFF796FF0023E0642365036885
:20590000002B1EDBFFF78EFF00232061184603B030BD052300221846226103B030BD092347
:2059200000221846226103B030BD0C4B0C491846C91AC9100191CFE70123081DE0642365A1
:20594000DDE7C3F30360FFF7A7FF0028206114BF00230923DAE700BF000000008C440100B2
:20596000C4460100036810B5DA07044606D49B0700F1480009D500F057FC2368590709D522
:205980001A070ED5DB0613D510BD00F045FC23685907F5D404F1D00000F04EFC23681A07DD
:2059A000F0D404F5A87000F04FFC2368DB06EBD404F5E870BDE8104000F08ABC036803B111
:2059C00003441846704700BF09207047704700BF70B504460D4608E02A6C23696261214660
:2059E0002A4601209847082808D1296C2046FFF767FF06460028EFD001F0CEF80728FBD1F2
:205A00003046296CFFF7E2FF281D00F0F9FB00BF2DE9F04705460027ADF5727D03AC0E1D92
:205A200092460FCE0FC40FCE0FC40FCE0FC496E80F00D5F80C80D5F8189084E80F0002ACFA
:205A40002846216C2760FFF73BFFBAF1000F074614BF0A2609267FB1A36B46F010018DE861
:205A600010022A46636401202B46C04778BB38460DF5727DBDE8F087236C4FF4F0726B6186
:205A800021467AA802F086FC2B697AAA294630469847889B82468DE81002314663642A466D
:205AA0002B460120C04790B94FF4F0727AA9204602F070FCBAF1080F06D1216C2846FFF7EE
:205AC000FFFE09260746C6E7BAF1070F05D0092738460DF5727DBDE8F0873846216CFFF74E
:205AE00075FF03A800F08CFB406C7047F0B54FF0FF3ECB6BF9B00B640E1D01AD0F460446C6
:205B00000FCE0FC50FCE0FC50FCE0FC596E80F0085E80F00CDF800E006E023696A4621463B
:205B200098470828054608D110992046FFF7C8FE0028F2D0092079B0F0BD6846FFF712FFC9
:205B4000062DF7D139462046FFF742FF30B4DD6BC160826119461D64002230BC58E700BF12
:205B600070B54369C6680B6426B10122FFF750FF01F012F803690A4604460D4601460220BB
:205B80009847072807D0082803D129462046FFF71FFF01F001F83046296CFFF717FF281DED
:205BA00000F02EFBC2682AB110B4CC6B00220C6410BC2DE79AE700BF704700BF836813B1F5
:205BC000014601201847704700B5042907D8DFE801F00309060909000BB90F2A05D90220AD
:205BE0005DF804FB01205DF804FB00EB820252681846019B1A605DF804FB00BF002310B544
:205C000084B003AC0A4600941946FFF7DDFF039804B010BD00B5042907D8DFE801F00309EB
:205C2000060909000BB90F2A05D902205DF804FB01205DF804FB019900EB820209681846AE
:205C400051605DF804FB00BF002310B584B004AC44F8042D00940A461946FFF7DBFF04B080
:205C600010BD00BFF0B54FF0FF3ED36BADF50F7D1364151D17AC07460E460FCD0FC40FCD73
:205C80000FC40FCD0FC495E80F0084E80F00CDF858E012E00C2116A86A46FFF7D5FF3146B0
:205CA00016A8B84778B9049B16AA6946082098470528044608D0092805D026996846FFF729
:205CC000FFFD0028E6D0092416A8FFF74BFE20460DF50F7DF0BD00BF2DE9F04FCC6C9146FC
:205CE00022688BB004340D460792089400F0030B1E46002B60D10323120207928DF8256084
:205D00008DF824302B6DBBF1020F08BFAC6B13F0010340D1019300F008030393D4F80080EE
:205D2000B8F1000F39D0022E43D0B4F8008067880434AB6C27F0010A0F2148469A44FFF741
:205D40005DFF824533D828F001039A4450452CBF002001207F0007F0020708F0010847EAA9
:205D60000807012F3ED035D3022F1CD1236823F000420292BBF1000F76D128B1039900299C
:205D80007ED0002A00F0A680002B77DB029B013304EB8304C2E700230193022E3EDDFFF710
:205DA00013FE002840D009200BB0BDE8F08F0020D0E767680834BCE7022BA3DC0221130C1F
:205DC0008DF825301204DBB204EB830407928DF8241097E7BBF1000F02D0002840F0BD80DE
:205DE00004349BE7BBF1000F25D1A8B194E80C00991C4FEAD272D6D005F158010133069165
:205E000000F0A380201DFFF7D9FD06AB01462846FDF706FD002877D108347FE707A94846B9
:205E200000F0F0FA0028BED1019B002B5CD108200BB0BDE8F08F0D2148462F6AFFF7DEFEAF
:205E40008742E9D1AB6A9C42E6D12046FFF7EAFC0F2102464846FFF7F7FE48462A460021C3
:205E6000FFF7F2FE07209FE70D2148462F6AFFF7C5FE874258D02368002B87DA043485E7D5
:205E8000029B3BB305F15803271DCDF810B0DDF80C80A346DDF808A01C46059602E0B245C0
:205EA000B04616D038460694FFF788FD06AB014600222846FDF7B4FC08F1010604370028E4
:205EC000EDD0029B5C464345DDF810B0059ED2D100E05C4648460D21FFF790FE069B286276
:205EE000AC626B6206205FE70F214846FFF786FE0E2102464846FFF7A7FE4846294A0F2152
:205F0000FFF7A2FE07204FE707460D214846FFF775FE022F28621DD12B46069A43F82C2FCC
:205F20006B62AC6206203FE7AB6A9C42A3D1042200270299A318A962EF622A636B632368EE
:205F4000BB421DDB0123019320E748460D21FFF755FE2862069B6B62E3E72046FFF762FC0C
:205F600004340646AC632846FDF7B6FC00283FF41AAF484632460F21FFF766FE072013E7A5
:205F80000846013004EB8000FFF74CFC0F2102464846FFF759FE48462A463946FFF754FEBD
:205FA000072001E71D480000002395E6012393E6022391E6F0B50446C5B004290DD8DFE859
:205FC00001F055030C310F00012B4FEA124695B264D17219102A40F29D80022045B0F0BD1B
:205FE000002BFAD1102AF8D82368D80600F1C88022AE30460192012500F074F90023A06B75
:20600000019A05FA03F1114203D00168043046F823100133042BF4D1A063304600F058F9DC
:206020000020DBE7032BD8D1150C97B2EB19102BD3D823681E0700F1B78022AE304600F045
:2060400025F9ED00A06B5FB1043D0346711900EBC70053F8042B834241F8042FF9D1184681
:20606000A063304600F0F0F80020B7E7002BB4D10127A56B96B2201D07FA03F1314203F148
:20608000010302D0296804350160102B00F10400F2D112F400503BD1A5639FE7052B9CD17F
:2060A0007719202F99D80F2E66D92F46002D3AD12A460027002AA06B72DD00EBC202014656
:2060C00044A800EBC6008C3851F8045B914240F8045FF9D1084697B1102E324638BF10220A
:2060E00044A901EBC202A2F5C4727900043A00EB810150F8045B884242F8045FF9D1012B0E
:2061000048D00F2EA16333D917B102A800F094F8002063E70F2E3FF660AF00272268D107B8
:2061200017D4002F60D02268510745D4012B4DD00F2E06D822A8019300F07AF8019B002F2B
:20614000B6D002A8019300F07BF8019BC6F11002B0E722F00101052B2160019320463BD052
:2061600022F0030240F8482B00F05AF8019BD8E722A800F059F8C7E7102FCED9103FCDE71E
:2061800023F01003236004F5E870019200F0AAF8019A2DE70431A16322A800F03DF8B7E76B
:2061A000002F99D10146AAE723F00803236004F5A87000F06BF840E7204622F0040240F88C
:2061C000D02B019300F03CF8019BAFE722A8019300F026F8019BB9E741F0020140F8481B63
:2061E00000F026F8019B9CE7012B03D00F2E3FF65FAF9FE722A8019300F012F8019B57E73B
:2062000000F1340191E838009C46A6464CF8045D90E8FF0FE54600BD90EC210B704700BFA8
:2062200080EC210B704700BF90EC200B704700BF80EC200B704700BFD0EC200B704700BFC9
:20624000C0EC200B704700BFF0EC0201F0EC0211F0EC0221F0EC0231F0EC0241F0EC0251C7
:20626000F0EC0261F0EC0271F0EC0281F0EC0291F0EC02A1F0EC02B1F0EC02C1F0EC02D166
:20628000F0EC02E1F0EC02F1704700BFE0EC0201E0EC0211E0EC0221E0EC0231E0EC02414F
:2062A000E0EC0251E0EC0261E0EC0271E0EC0281E0EC0291E0EC02A1E0EC02B1E0EC02C126
:2062C000E0EC02D1E0EC02E1E0EC02F1704700BFB0FC0181B0FC0191B0FC01A1B0FC01B123
:2062E000704700BFA0FC0181A0FC0191A0FC01A1A0FC01B1704700BFEC4600B52DE900508D
:206300002DE9FF1F4FF000032DE90C0001A9FFF7EDFBDDF840E012B0704700BFEC4600B549
:206320002DE900502DE9FF1F4FF000032DE90C0001A9FFF715FCDDF840E012B0704700BF81
:20634000EC4600B52DE900502DE9FF1F4FF000032DE90C0001A9FFF725FCDDF840E012B0E0
:20636000704700BFEC4600B52DE900502DE9FF1F4FF000032DE90C0001ABFFF7E7FBDDF869
:2063800040E012B0704700BFEC4600B52DE900502DE9FF1F4FF000032DE90C0001AAFFF71F
:2063A00061FCDDF840E012B0704700BF027A1AB9437A43B9B02070470368013A02721A028E
:2063C0000260180E704703214268013B10B443721368141D01721A024460026010BC180EC8
:2063E000704700BF002300B585B003AA009219460C22FFF7E9FB039805B05DF804FB00BF11
:20640000F0E700BF2DE9F04306460F464FF0000885B03846FFF7CAFFB028044623D0050623
:2064200027D400230DF10C09194685000D22CDF800903046FFF7C8FBEDB2039B600605F1FB
:2064400004054CBF5D1BED1800230D221946CDF8009030460395FFF7DDFB3846FFF7A6FFB0
:20646000B0280446DBD1B8F1000F00F0948000201CE000F0F003802B5CD0902B19D0A02B4D
:206480002CD0B02B3ED0C02B6BD000F0F803D02B0BD100F00702013242F400220523012161
:2064A0003046FFF787FD0028B3D0092005B0BDE8F08300F00D030D2BF7D0002303AD00F089
:2064C0000F02194600953046FFF77EFB0023009519460D223046FFF79DFB9AE7C3434FF4BE
:2064E0007F6203F007031A410023010702F47F6248BF42F4804219463046FFF75BFD002817
:20650000D3D186E7B12857D0B22868D0B32800F0958000F0FC03B42BC7D0012300F00702F6
:206520001A4442F4002219463046FFF743FD0028BBD16EE73846FFF739FF24020443B4F5CF
:20654000004FB2D000232401A2B219463046FFF731FD0028A9D114F4004F18BF4FF00108BD
:2065600057E7C6287DD0C72800F0868000F0F803C02B00F09480C82800F09F80C92894D18E
:206580003846FFF713FF020300F00F0002F470220130024382E703AC43460E224146009487
:2065A0003046FFF711FB0094304643460F224146FFF730FB404679E73846FFF7F7FE002880
:2065C0003FF473AF10F0F0037FF46FAF024619463046FFF7EFFC00287FF467AF19E7002310
:2065E0000DF10C090D221946CDF800903046FFF7EBFA3846FFF7DAFE02064FF002040CD5DA
:20660000039B00F07F00A040034438460393FFF7CDFE030604F10704F2D40023039900F0F3
:206620007F02A24001F501718C18CDF8009019460D2230460394FFF7EDFAEAE63846FFF7DA
:20664000B5FE0123010300F00F0001F47021C2180A4330461946FFF7ADFC00287FF425AFD0
:20666000D7E63846FFF7A2FE010300F00F00032301F47021421CEBE73846FFF797FE002839
:206680003FF413AF10F0F0037FF40FAF024604213046FFF78FFC00287FF407AFB9E6032367
:2066A00000F00F02013242F4202219463046FFF781FC00287FF4F9AEABE63846FFF776FE2B
:2066C00000F0F00200F00F031032013343EA0232E4E600BF30B503240D46C36C85B05A68F1
:2066E0008DF80C40DC791202083301A9284601928DF80D400293FFF785FE05B030BD00BF39
:2067000008B5FFF77DFE806C08BD00BF08B5FFF777FEC06CC37900EB8300083008BD00BF21
:2067200008B500F039FA00BF08B5FFF7F9FF00BF704700BF70B54FF0FF0C4CF4E06C1CEAD9
:2067400011541DBF1CEA135594EA0C0F95EA0C0F00F0DEF82C4481EA030621EA4C5123EAF8
:206760004C5350EA013518BF52EA033541F4801143F4801338D0A0FB02CE4FF00005E1FB9C
:2067800002E506F00042E0FB03E54FF00006E1FB03569CF0000F18BF4EF0010EA4F1FF0446
:2067A000B6F5007F64F5407404D25FEA4E0E6D4146EB060642EAC62141EA55514FEAC5203A
:2067C00040EA5E504FEACE2EB4F1FD0C88BFBCF5E06F1ED8BEF1004F08BF5FEA500E50F114
:2067E000000041EB045170BD06F0004646EA010140EA020081EA0301B4EB5C04C2BFD4EBA3
:206800000C0541EA045170BD41F480114FF0000E013C00F3AB8014F1360FDEBF002001F054
:20682000004170BDC4F10004203C35DA0C341BDC04F11404C4F1200500FA05F320FA04F0A8
:2068400001FA05F240EA020001F0004221F0004110EBD37021FA04F642EB06015EEA430E75
:2068600008BF20EAD37070BDC4F10C04C4F1200500FA04F320FA05F001FA04F240EA02001B
:2068800001F0004110EBD37041F100015EEA430E08BF20EAD37070BDC4F1200500FA05F2B0
:2068A0004EEA020E20FA04F301FA05F243EA020321FA04F001F0004121FA04F220EA0200FD
:2068C00000EBD3705EEA430E08BF20EAD37070BD94F0000F0FD101F00046400041EB010198
:2068E00011F4801F08BF013CF7D041EA060195F0000F18BF704703F00046520043EB030316
:2069000013F4801F08BF013DF7D043EA0603704794EA0C0F0CEA135518BF95EA0C0F0CD0D4
