:020000040000FA
:2000000000800010A10E0000D10E0000D30E0000D50E0000D70E0000D90E00000000000032
:20002000000000000000000000000000DB0E0000DD0E000000000000DF0E0000E10E000010
:20004000E30E0000E30E0000E30E0000E30E0000E30E0000E30E0000E30E0000E30E000018
:20006000E30E0000E30E0000E30E0000E30E0000E30E0000E30E0000E30E0000E30E0000F8
:20008000E30E0000E30E0000E30E0000E30E0000E30E0000E30E0000E30E0000E30E0000D8
:2000A000E30E0000E30E0000E30E0000E30E0000E30E0000E30E0000E30E0000E30E0000B8
:2000C000E30E0000E30E0000E30E000010B5054C237833B9044B13B10448AFF3008001230B
:2000E000237010BD98090010000000004820010008B5064B1BB106480649AFF3008006489F
:20010000036813B1054B03B1984708BD00000000482001009C09001094090010000000003D
:20012000154B002B08BF134B9D46A3F5803A00218B460F461348144A121A07F099F90F4BCB
:20014000002B00D098470E4B002B00D098470020002104000D000D48002802D00C4801F0AC
:2001600070FC06F01BFD2000290001F023FC01F065FC00BF00000800008000100000000003
:20018000A71900009809001058190010431A00000000000038B50368044601330D4604D112
:2001A00005480649242201F001FA63680DB1E26800E02269136038BD480601006006010015
:2001C00070B50E460446154600F048F9013609D02046002100F05CF920462946BDE87040CA
:2001E00000F053B970BD0322FFF7EABF70B50D460446164600F032F901350DD020463146E9
:20020000FFF7C8FF2046012100F042F920460221BDE8704000F039B970BD0022FFF7E6BFC4
:2002200010B50446013001D110BD0C310B685A1C0BD0A342F9D12046896800F049F9204640
:200240000221BDE8104000F06BB90248BDE8104001F0A0BACA060100884208B50AD0431C57
:2002600007D0013106D0044801F094FA4FF0FF3008BD084608BD00BFDB0601000B685A1C04
:2002800005D0834201D1486870470C31F6E7184670470000421C10B5044607D0FFF7EEFF35
:2002A000431C044602D1024801F074FA204610BDEC06010038B5036804461B680D4698479C
:2002C00063681D6038BD38B503680446DB68984763685A68236812B99B68984738BD5B68A0
:2002E00015689847281A0028636808DC5A68916859601B68002BEBD050689847E8E75A6884
:20030000216810680B69984738BDF8B507461C460D46164601F0F6F97A686C6054682E60B1
:20032000002334B12168711A002902DB2346A468F7E72BB93B6855601B693046984700E053
:200340009D60AC60BDE8F84001F006BA38B505460C4601F0D7F96A685368A3420ED19B6867
:2003600053602A6813B9936898470CE012691868904708E09A68A24203D01346002BF9D1E5
:2003800001E0A2689A60BDE8384001F0E5B9000000487047400701000148FFF794BF00BF34
:2003A0004007010038B505460C4608461849FFF771FFC0B2FF28287004D1164816492F2242
:2003C00001F0F4F8154B2046D3F8C420104942F48052C3F8C420D3F8A82122F04072C3F8B8
:2003E000A821D3F8A82142F08072C3F8A8210C4B1A680C4B13440C4A93FBF2F3013B1B024F
:200400000A4A43F400131360BDE83840FFF708BFCC070100480701006007010000C00F4056
:20042000CC0000103F5DC600405DC60000400340431C10B5044604D106480749152201F08F
:20044000B5F82046002100F043F804F01F040120A04010BD4D0601003808010038B504468C
:200460004B1C0D4621600FD00846FFF7E1FF25F01F0505F11803E36005F11C03236105F122
:20048000140360606361A56038BD006800F048B838B50368044601330D4604D10A480B49CB
:2004A0002C2201F083F815B1012D06D038BDA36861681A6822EA010203E0A3686268196825
:2004C0000A431A6038BD00BF480601003808010038B5431C04460D4604D10F480F4915226D
:2004E00001F064F804F16040A0F51C2000F00F0252000321914005FA02F203099B0003F173
:20050000804303F53033186820EA0101196019680A431A6038BD00BF4D0601009F080100C0
:2005200038B5431C05460C4604D119481949202201F03CF805F16040A0F51C20C4F3800233
:2005400000F01F0102FA01F143099B0003F1804303F530339D6E25EA01059D669D6E29430A
:2005600099669AB900F00F0252000321914004FA02F203099B0003F1804303F53033186CB2
:2005800020EA01011964196C0A431A6438BD00BF4D0601009F080100012810B50B4602D0C1
:2005A00002280FD010BD014638204343124AD058D418F8B111B994F83630DBB10F4B1B6802
:2005C000984710BD0C49382000FB03104468013409D00469043040682060382000FB0311CA
:2005E00091F8361009B10021DEE7506820F001005060D9E710BD00BFC4090010C009001011
:20060000034A00219068C0F34200FFF7C5BF00BF00C00040034A01219068C0F34200FFF7F4
:20062000BBBF00BF00000140034A02219068C0F34200FFF7B1BF00BF00800940034A032184
:200640009068C0F34200FFF7A7BF00BF00C0094070B503682A4CA34211D006DCA4F580447E
:20066000A34212D1274C052511E0274CA34209D004F58044A34208D1244C082507E0244C84
:20068000062504E0234C072501E0002425467AB1012606FA01F16DB2284606FA05F55A68B3
:2006A00011435960214600F089FB1B4B1D6070BD01290AD04468194A382606FB042292F820
:2006C000354030329279E24219D1012202FA01F6D1F1010138BF002102FA01F15C6824EA78
:2006E00006045C6003685B68194208D102FA05F5094BC3F88050BFF34F8FBFF36F8F70BD90
:200700000000014001060000008009403D060000150600002906000000E100E0C40900109D
:200720002DE9F04F0368744A8DB0934206460D4604DD724872499B2200F038FF3368714AFA
:20074000934223D00FDCA2F58042934239D16E4BD3F8A82122F0C002C3F8A821D3F8A82175
:2007600042F040021DE0694A93421DD002F58042934226D1644BD3F8AC2122F44022C3F894
:20078000AC21D3F8AC2142F4802218E05E4BD3F8A82122F44072C3F8A821D3F8A82142F4D1
:2007A0008072C3F8A8210CE0574BD3F8AC2122F44032C3F8AC21D3F8AC2142F48032C3F852
:2007C000AC21534B4FEA051BD3F80090B9FBFBF293B20BFB1292002A72D04FEA49024FEA41
:2007E00089044FF001080A920B94009508941146CDF81C9006954FF0000BCDF81480009A18
:200800005FFA88F74FF0000A5FFA8AF40029099403DAB1FBF2F4240904E0DDF820C0BCFB2E
:20082000F2F464090134C4F34F040998002C08BF012410B1012C98BF02240AEB0800604362
:20084000DDF81CC0C000BCFBF0F00130C5EB500003910292049305F04FFADDF818C0039919
:200860006045029A049B06DAA8420ED0DDF824B00690059723460AF1010A5FFA8AF0B842D9
:200880002A44C1D3059F002204E0DDF824B0069523460122B8F10F0F14D0079CDDF828C0D1
:2008A0004C4407946144089CDDF82CC008F1010864440894009C2C4400941AB905979EE729
:2008C0000127934632684BEA0717117BFFB241F0800111733268C3F3072111713268DBB296
:2008E0001370336883F8287033681A7B02F07F021A730DB0BDE8F08F00C00940940901000F
:20090000AD0901000000014000C00F4000800940CC000010F8B55D1E012D07460C461646DA
:2009200004D914481449FB2200F040FE053C032C04D912481049FC2200F038FE042E04D983
:200940000F480D49FE2200F031FE013EF6B2032E03D80C4B9A57012301E00022134644EAC2
:20096000850444EAC303396843EA0212D2B20A73F8BD00BF160A0100AD0901003B0A010085
:200980005E0A0100840B0100034B1960436838214B430249CA507047C0090010C409001033
:2009A00030B531B94368054C382505FB034383F83620BDE83040FFF74BBE00BFC409001048
:2009C00010B502680346117DC907FCD510785968084A382404FB01225168C0B2013108D022
:2009E0005169043252681B680A605A6842F001025A6010BDC40900100368187D00F0010014
:200A00007047000038B5436838215943164A04465318D869013015D001F1180313441D1D88
:200A20005B68013304D1114811492C2200F0BEFD6B691A686B681A4214D12368187DC0F301
:200A4000801038BD22683033127D12F0200F03D000221A71012038BD18790F288CBF00209B
:200A6000012038BD002038BDC4090010480601006006010038B504460D462046FFF7C2FF11
:200A80000028FAD02368EDB21D706368044A382101FB032393F83420013283F8342038BD43
:200AA000C40900102DE9F84F98463A4C03680546A34218BF00240E461746D0F804901CB128
:200AC000237C03F03F032374DFF8D4A0382303FB09A24FF0FF31D16151606A68002103FB19
:200AE00002A3284683F835100A46FFF7B1FD002E4ED029493846FFF7C1FB28498346404681
:200B0000FFF7BCFBB31E012B17D8B8F1FF3F3DD0204B984209D144B1237C404643F0800359
:200B200023741E49FFF77CFB30E0382000FB09A041461C30FFF757FB28E0012E28D17B1C5C
:200B400026D02B6807221A72124B9B450AD14CB1237C384643F0400323740F49BDE8F84FD4
:200B6000FFF75EBB382404FB09A0394604300022FFF73CFB6B68012204FB03A484F83520F3
:200B800028460021BDE8F84FFFF762BD032ED5E7BDE8F88F0000014004090100600B0100F1
:200BA000C40900102DE9F84305460F4608464D491646FFF76FFB4C4904463046FFF76AFB17
:200BC00001462046FFF748FB411C044604D1474847495C2200F0EAFC464B2C609C4217D05E
:200BE00009D8A3F580439C421FD1434BD3F8C42042F0080217E0414B9C420FD003F5804377
:200C00009C4212D13C4BD3F8C42042F000720AE0394BD3F8C42042F0100204E0364BD3F8A8
:200C2000C42042F08072C3F8C4204FF0010984F808902B684FF00008C3F8048028464FF4E6
:200C40001651FFF76DFD42464B4628460821FFF761FE38462349FFF7E3FA30462249FFF734
:200C6000DFFA7A1C03D038464146FFF759FC731C03D030460021FFF753FC1E4B9C420FD07E
:200C800005D8A3F580439C420ED100230BE01B4B9C4207D003F580439C4205D1032302E0BF
:200CA000012300E002236B606A68154B382101FB02334FF0FF325A60DA6128461346002137
:200CC000FFF7F0FE0F4B9C4209D10F4B01221A6029460E480822BDE8F84306F0EDBABDE816
:200CE000F88300BFF40A010028090100E20A0100AD0901000000014000C00F4000800940CC
:200D0000C409001000C00040BC0900104C19001008B5114B1A68EAB9012119600F4BD3F8AE
:200D2000C40040F40000C3F8C400A3F5D0231A670B4A0220126858600A489208B2FBF0F20C
:200D4000013ADA6004205960074900F037F8074B10221A6008BD00BFA40A001000C00F4083
:200D6000CC00001040420F009903000000E100E008B5044B1B680BB9FFF7CAFF024B98684A
:200D800008BD00BFA40A001000400940034B98615A6942F001025A61704700BF004009408F
:200DA000024B5A6922F001025A61704700400940014B01221A607047004009400C4A10B5CF
:200DC000946892682346B2F1805F0DD2094B04F170420432D25843F8042F074A9342F6D19D
:200DE000034A4FF080539360103043F8201010BD00ED00E0FCFFFF0FC0000010264B2022D0
:200E0000C3F8A021D3F8A021910603D5D3F8A0215206FBD50222C3F804210022C3F8A821FD
:200E20000120C3F8AC210B22C3F80C01AA21C3F884205522C3F88C10C3F88C20C3F880007A
:200E4000C3F88C10C3F88C20134AD2F888305B01FAD50323C2F88030AA23C2F88C3055237F
:200E6000C2F88C30D2F888100B4B11F0407FF9D00522C3F80821094AC3F8C4200022C3F8E1
:200E8000C8211A6822F4704222F03A0242F4405242F03A021A60704700C00F40DE872804CA
:200EA0000649074A074B9A42BEBF51F8040B42F8040BF8E70448804704480047CC230100D1
:200EC000C800001094090010FD0D000021010000FEE7FEE7FEE7FEE7FEE7FEE7FEE7FEE739
:200EE000FEE7FEE708B50368984708BD08B10B68036070477047C36810B504460BB19B6866
:200F00009847204610BD007B70470000034653F8042B10B5044602B9036022689A4204D063
:200F200003480449592200F041FB206810BD00BFA80B0100BC0B010038B50B4B04460360F2
:200F4000002343600D46A16002730848FFF7DEFF25B1074B1A681C60626000E06560034807
:200F6000FFF7D4FF204638BDA00B0100B40A0010B00A0010104B10B5036004460F48FFF7EF
:200F8000C5FFA3686BB10E4A1368A34202D16368136006E05A68A24201D01346FAE762683C
:200FA0005A600648FFF7B2FF237B13B9204600F069FD204610BD00BFA00B0100B40A0010F0
:200FC000B00A001010B50446FFF7D4FF204600F055FD204610BD000070B506460C480D467C
:200FE000FFF794FF0B4B1C685CB1A06870B131462A4607F00BFA48B9A06807F0D7F9A842BB
:2010000004D10348FFF782FF204670BD6468EBE7B40A0010B00A001010B500230360436082
:201020000A7804462F2A13D14A788AB1481C2060194623681A782F2A02D10133236004E083
:201040001AB1013301312360F3E7FFF7C5FF6060204610BD406808B528B1FFF754FFD0F10D
:20106000010038BF002008BD10B50446FFF7F2FF00B1606810BD4068003018BF01207047D0
:20108000884238B504460D460AD0FFF734FF3CB1EB681BB15B68204629469847EB68E360E0
:2010A000204638BD0A4B70B5054645F80C3B06465DB100F12C04AC4207D0103CE368002B8A
:2010C000F9D09B6820469847F5E7304670BD00BFE00C010010B50446FFF7E4FF204600F096
:2010E000CDFC204610BD08B50368DB69984708BD08B503685B69984708BD08B503689B6A27
:20110000984708BD7047A0F13000FFF7FBBF7047A0F13000FFF7FBBF00F06DB8A0F1300005
:20112000FFF7FABF00F06AB8A0F13000FFF7FABF10B5074B044603F108022833026040F82A
:20114000303F00F02BF92046FFF7ACFF204610BD100C0100A0F13000FFF7EABF10B5044646
:20116000FFF7E6FF204600F089FC204610BDA0F13000F3E738B504461D46049B00F046F884
:2011800004F13000294600F021F9044B204603F1080228332260236338BD00BF100C0100CA
:2011A000704770477047000000EB011110B501F10C04E3682BB90548054940F21F2200F019
:2011C000F5F9E36820461B68984710BD800C0100850C010038B5054655F8043B04461B6891
:2011E00098472846FFF708FC236805465B6820469847284638BD0430FFF7E2BB10B50430A7
:201200000C46FFF737FC204610BD00002DE9FF419046194A04460260184E0020184DE362B5
:201220000F4660606946A060A061A06204F10C0003950096FFF724FF6846FFF75CFE6946F2
:2012400004F11C0003950096251DFFF719FF6846FFF751FE424628463946FFF7A3FC284694
:20126000E16AFFF75DFA284606492246FFF78CFB204604B0BDE8F081E00C0100A111000065
:20128000880B0100A91100002DE9FF41054655F8043B88461B6804461646984700F032FAE1
:2012A000D8F80C70300120443FB141460C30FFF7E7FE2846314601220DE00C4B6946009331
:2012C0000B4B0C300393FFF7DBFE6846FFF713FE284631463A46FFF763FB00F03DFA2368F7
:2012E00020465B68984704B0BDE8F081A1110000880B01007047704700207047F8B5036879
:201300000E469B6B04468F1898473546BD4207D0236820461B6C15F8011B98470130F5D1DB
:2013200023682046DB6B9847A81BF8BDF8B503680E469B6B04468F1898473546BD4205D08E
:20134000236820465B6C9847431C05D123682046DB6B9847A81BF8BD05F8010BEEE7002035
:20136000704700207047704700207047002070470020704710B5034B04460360FFF7FAFDF6
:20138000204610BDF80C010010B50446FFF7F2FF204600F073FB204610BD000010B5054B13
:2013A00004460360006904F025FD2046FFF7E2FF204610BD400D010010B50446FFF7EEFF51
:2013C000204600F05BFB204610BD00001FB500220446FFF7B1FD094B224623600023236164
:2013E00001A8074906F054FC064901A804F01AFF206100F028FB204604B010BD400D0100E0
:20140000880D01008C0D010038B5036804469B6B0D469847206904F0AFFD2169284604F0AD
:2014200009FF23680546DB6B20469847284638BD38B5036804469B6B0D469847206904F089
:201440009BFD2169284604F02FFF23680546DB6B20469847284638BD38B5036804469B6B6E
:201460009847206904F088FD206900F0EFFA23680546DB6B20469847284638BD38B54169CE
:2014800043680446194400F069F8636A04F118052BB90548054940F21F2200F087F8636A9C
:2014A00028461B68984738BD800C0100850C01007FB5054605F1180400F024F96E46284688
:2014C00000F052F80023B44203930BD02046FFF712FD3CB1039B1BB15B68204669469847CF
:2014E000039B6B626846FFF706FD00F035F904B070BD000038B5074B054645F8183B044677
:20150000FFF7D6FF2846FFF7F6FC204600F032F8204638BD980D010010B50446FFF7EAFF3B
:20152000204600F0ABFA204610BD08B503689B68984708BD074B10B503600023436083608B
:20154000C3600446FEF724FF03492061FEF7B2FE204610BDB00D01002B15000003460A46CA
:201560000069191DFEF7D1BE014604310069FEF7EDBE000010B5034B04460360FFF7F4FF1A
:20158000204610BDB00D010010B50446FFF7F2FF204600F073FA204610BD05F0A7BB06F021
:2015A00005B804F0D7BE04F0AFBB000070B506460D46144600F0A6F831462A462346034840
:2015C00000F08CF8BDE8704000F018B8C00D010038B50368044601330D4604D1054806491A
:2015E0002422FFF7E3FF63680DB1E26800E02269136038BD480601006006010000B599B073
:2016000000F080F868461B49FEF707FE06A81A49FEF703FE0CA81949FEF7FFFD12A818492D
:20162000FEF7FBFD68460121FFF7D2FF06A80021FFF7CEFF0CA80021FFF7CAFF12A8012124
:20164000FFF7C6FF962000F0D9FA68460021FFF7BFFF06A80121FFF7BBFF0CA80121FFF787
:20166000B7FF12A80021FFF7B3FF962000F0C6FAD8E700BF32C0092034C0092035C00920F7
:2016800037C0092030B50546A1B00C4600F03AF82946684622460AF041FC051E03DC00F087
:2016A0005BF821B030BD094B1B6823B908480949094AFFF777FA0024AC42F0D01DF804100F
:2016C0000348FFF7D7F90134F6E700BFBC0900104C19001002C0092003C009200FB407B588
:2016E00004A951F8040B0191FFF7CCFF03B05DF804EB04B07047EFF3108000F0010080F05D
:201700000100704738B5FFF7F6FF80F00100C5B272B60C4C23680BB90B4B1D7023680133E0
:2017200004D10A480A493522FFF740FF23682BB125B9084806493922FFF738FF2368013378
:20174000236038BDBC0A0010C00A0010F10D0100170E01006A0E010010B50A4C236883B1E9
:20176000FFF7C9FF20B1084808494A22FFF71EFF2368013B236023681BB9054B1B7803B972
:2017800062B610BDBC0A00106A0E0100170E0100C00A00100FB407B504A951F8040B0191FF
:2017A000FFF770FF012000F049F900F007BA000008B5084B1B685BB907480849084AFFF731
:2017C000F1F905484FF41651BDE80840FEF7A8BF08BD00BFBC0900104C19001002C0092026
:2017E00003C0092070470000022810B5044601DC002010BD04F0B8FA09230360094B033C7B
:2018000053F82400002243F8242040B103681B699847041EECDA04F0A7FA634203604FF035
:20182000FF3010BDD00A001070B506460C46154604F09AFA0923022E03600FDC124B1B6892
:201840000BB9FFF7B5FF6619B44205D00F4814F8011BFFF70FF9F7E7284670BD0C4B033E42
:2018600053F8260058B103682146DB682A469847041E07DA04F078FA6342036002E04FF0F8
:20188000FF3070BD204670BDBC0900104C190010D00A001070B505460C46164604F064FAB5
:2018A0000923022D03600ADC104B1B680BB9FFF77FFF0F48FFF784F82070012070BD0D4B6F
:2018C000033D53F8250058B1036821469B6832469847041E07DA04F047FA6342036002E001
:2018E0004FF0FF3070BD204670BD00BFBC0900104C190010D00A001010B5044604F034FA96
:201900000923022C03600EDD0A4B033C53F8240058B103689B699847041E09DA04F024FAAE
:201920006342036001E0012010BD4FF0FF3010BD002010BDD00A001070B504460E461546A0
:2019400004F012FA0923022C03600ADD074B033C53F8240038B103683146DB692A46984785
:2019600070BD002070BD4FF0FF3070BDD00A0010022808B504DC4FF400534B60002008BD7B
:2019800004F0F2F9092303604FF0FF3008BD00000148FFF7FFBE00BF8D0E010008B5012071
:2019A00000F04CF8704708B5FFF71CFFFFF7FAFF08BD704708B5FFF7FCFFBDE8084000F078
:2019C00077BF00000C4910B50A681318EFF30880834205D3094B0C221A604FF0FF3010BDDC
:2019E0000748006820B1074C246820448342F1D20B60104610BD00BFD000001054190010EA
:201A0000CC0A0010D00B001038B50A4C05462368986804F0B1FA2368D86804F0ADFAFFF7E1
:201A2000C4FE08B100F0BEF805B9FEE7FFF7E6FDFBE700BF080500100120704708B5FFF7C0
:201A4000E3FF01207047002106F050B804F0A6BA7047704708B5FFF7FBFF08BD08B5FFF7C6
:201A6000F8FF08BD10B505F031F9044610B90248FFF790FE204610BD510F010008B105F0A3
:201A80002DB9704710B504460848FFF73FFA0023074A9958A14204BF002199500433B3F527
:201AA000807FF5D10148FFF731FA10BDC40A0010D00A00102DE9F3413449054606F080F9E1
:201AC000044610B9FFF774FE5BE02846304906F077F918B9FFF76CFE012452E028462D4997
:201AE00006F06EF918B9FFF763FE022449E004F03BF9092303602848FFF708FA0024274E5A
:201B000056F82430374653B10134402CF7D104F02BF9182303602048FFF7F8F92FE04FF0E6
:201B2000FF381D4846F82480FFF7F0F92B783A2B06D128461A496A4606F0D0F8009816E09C
:201B400068462946FFF768FA6846FFF794FA38B946F8240004F008F902230360444610E094
:201B60006846FFF777FA18B16846FFF77DFA10B947F8240003E047F82400033401E04FF0A3
:201B8000FF34204602B0BDE8F08100BF7E0E01008D0F0100850E0100C40A0010D00A00109F
:201BA000880D010030B585B06D46182420462946ABBE0446204605B030BD0000024B186829
:201BC00000F00100704700BFF0ED00E038B50446FFF7CEF80546FFF7CBF8401BA042FAD3E0
:201BE00038BD000008B5044902F0A0FC02F0EEFDBDE80840FFF7EABF002474494FF47A73DE
:201C00005843FFF7E3BF0000014B0360704700BFA00F010010B5034B04460360FFF72EFFD9
:201C2000204610BDA00F010038B50368044601330D4604D1054806492422FFF7B7FC63686D
:201C40000DB1E26800E02269136038BD4806010060060100036810B50133044604D1064822
:201C600006492C22FFF7A2FC63691A6863681A420CBF0020012010BD48060100600601002F
:201C800010B504460DF051FF204610BD10B50223C2B08DF8003040910023694601930293D8
:201CA0000EF043F9044668460DF03FFF204642B010BD10B50321C2B08DF8001000210191EF
:201CC000029140A9C1E9002369460EF02EF9044668460DF02AFF204642B010BD38B518227D
:201CE00004460D46002105F0C3FB20462946FEF794FA204638BD30B5C5B004466A4601A8C3
:201D000001F084F900220420039204928DF80800FFF7A8FE01A9054601F0F0F802A92046DC
:201D200042950EF002F9044602A80DF0FEFE01A800F0FEFF204645B030BD000013B50446F6
:201D4000214601A801F0DAF801A8104901F0A4F801A9204601F01EF901A800F0E9FF2168FF
:201D60000B4805F0E3FB21680A4C0B48FFF760FB20460121FFF758FF4FF07C50FFF732FFB3
:201D800020460021FFF750FF02B010BDBF100100C90F0100D00F0010B80F001030B5002480
:201DA000C9B0A148FFF716FA40B1A048FFF754FB012CC5B202DC03AB1D5501340A2DF0D1CE
:201DC00003A80025055503F09BFF044620B92146974805F0ABFB8EE32146964805F0A6FBFC
:201DE00001AA954904A88DF818500795089501F00DF904A906A80EF045F802AA05468E492D
:201E000005A801F003F905A98C480EF03BF8014628460EF08AF805A800F08AFF04A800F07E
:201E200087FF04AA864905A801F0F0F805A906A80EF028F88349FFF75EFF05A800F078FF6C
:201E4000631E0F2B00F23D83DFE813F0100035005A007F00A400C9000E013A015C01930185
:201E6000D401F6012D028402A602F8027648FFF7F1FED0F1010138BF00217348FFF7D4FE3E
:201E800004AA724905A801F0C1F805A906A80DF0F9FF0121FFF7FAFE05A800F049FF6C4987
:201EA00004AA05A801F0B2F806A805A90DF0EAFF04466548FCE06748FFF7CCFED0F10101E5
:201EC00038BF00216348FFF7AFFE04AA5F4905A801F09CF805A906A80DF0D4FF0221FFF7CF
:201EE000D5FE05A800F024FF594904AA05A801F08DF806A805A90DF0C5FF04465548D7E021
:201F00005548FFF7A7FED0F1010138BF00215248FFF78AFE04AA4D4905A801F077F805A997
:201F200006A80DF0AFFF0321FFF7B0FE05A800F0FFFE474904AA05A801F068F806A805A94E
:201F40000DF0A0FF04464448B2E04448FFF782FED0F1010138BF00214048FFF765FE04AA11
:201F60003A4905A801F052F805A906A80DF08AFF0421FFF78BFE05A800F0DAFE344904AAD0
:201F800005A801F043F806A805A90DF07BFF044632488DE03248FFF75DFED0F1010138BFDF
:201FA00000212F48FFF740FE04AA284905A801F02DF805A906A80DF065FF0521FFF766FE36
:201FC00005A800F0B5FE224904AA05A801F01EF806A805A90DF056FF0446214868E02148D2
:201FE000FFF738FED0F1010138BF00211D48FFF71BFE04AA154905A801F008F805A906A860
:202000000DF040FF0621FFF741FE05A800F090FE0F4904AA05A800F0F9FF06A805A90DF009
:2020200031FF04460F4843E0EC0C00101C0D0010E60F010000100100E30F0100C80D00108C
:202040000A1001000F100100D00E00101210010018100100E80E0010000F0010180F0010AF
:20206000300F0010340D0010AF48FFF7F3FDD0F1010138BF0021AC48FFF7D6FD04AAAB49A9
:2020800005A800F0C3FF05A906A80DF0FBFE0721FFF7FCFD05A800F04BFEA54904AA05A849
:2020A00000F0B4FF06A805A90DF0ECFE04469E48FFF7D0FD01462046FFF7E8FD05A8BAE177
:2020C00004AA9A4905A800F0A1FF05A906A80DF0D9FE0821FFF7DAFD05A800F029FE04AA9A
:2020E000944905A800F092FF05A993480DF0CAFED0F8004105A800F01BFE092C00F3F4812B
:20210000013457E004AA894905A800F07FFF05A906A80DF0B7FE0821FFF7B8FD05A800F039
:2021200007FE04AA854905A800F070FF05A982480DF0A8FED0F8004105A800F0F9FD002C2F
:20214000CCBF002401247E482146FFF76DFD04AA774905A800F05AFF05A906A80DF092FED1
:202160002146FFF793FD05A800F0E2FD04A8734948E104AA6D4905A800F048FF05A906A8C1
:202180000DF080FE0821FFF781FD05A800F0D0FD04AA684905A800F039FF05A966480DF030
:2021A00071FED0F8004105A800F0C2FD002C40F39B81013C04AA634905A800F027FF05A9C8
:2021C00006A80DF05FFE2146FFF760FD05A800F0AFFD04AA574905A800F018FF05A95648A6
:2021E0000DF050FE2146FFF751FD05A800F0A0FD534862E104AA4D4905A800F007FF05A93C
:2022000006A80DF03FFE0921FFF740FD05A800F08FFD04AA4C4905A800F0F8FE05A946483E
:202220000DF030FED0F8004105A800F081FD092C00F35A81013457E004AA3C4905A800F010
:20224000E5FE05A906A80DF01DFE0921FFF71EFD05A800F06DFD04AA3C4905A800F0D6FE41
:2022600005A935480DF00EFED0F8004105A800F05FFD002CCCBF0024012435482146FFF74E
:20228000D3FC04AA2A4905A800F0C0FE05A906A80DF0F8FD2146FFF7F9FC05A800F048FD71
:2022A00004A82A49AEE004AA204905A800F0AEFE05A906A80DF0E6FD0921FFF7E7FC05A825
:2022C00000F036FD04AA204905A800F09FFE05A919480DF0D7FDD0F8004105A800F028FDDF
:2022E000002C40F30181013C04AA164905A800F08DFE05A906A80DF0C5FD2146FFF7C6FC51
:2023000005A800F015FD04AA0F4905A800F07EFE05A909480DF0B6FD2146FFF7B7FC05A883
:2023200000F006FD0A48C8E0700F001012100100181001001B100100C80D0010281001008B
:202340004810001025100100321001003C1001006010001004AA694905A800F057FE05A9CF
:2023600006A80DF08FFD0A21FFF790FC05A800F0DFFC04AA624905A800F048FE05A961486E
:202380000DF080FDD0F8004105A800F0D1FC092C00F3AA80013471E004AA584905A800F08C
:2023A00035FE05A906A80DF06DFD0A21FFF76EFC05A800F0BDFC04AA534905A800F026FE3B
:2023C00005A950480DF05EFDD0F8004105A800F0AFFC002CCCBF002401244C482146FFF71D
:2023E00023FC04AA4A4905A800F010FE05A906A80DF048FD2146FFF749FC05A800F098FC61
:20240000414904A801AA00F001FE04A93D480DF039FD02AA04463E4905A800F0F7FD05A9CB
:2024200006A80DF02FFD014620460DF07EFD05A800F07EFC04A800F07BFC44E004AA2F492C
:2024400005A800F0E3FD05A906A80DF01BFD0A21FFF71CFC05A800F06BFC04AA284905A885
:2024600000F0D4FD05A927480DF00CFDD0F8004105A800F05DFC002C36DD013C04AA2549E1
:2024800005A800F0C3FD05A906A80DF0FBFC2146FFF7FCFB05A800F04BFC04AA184905A89B
:2024A00000F0B4FD05A917480DF0ECFC2146FFF7EDFB05A800F03CFC14482146FFF7B4FB07
:2024C00001E0002C10DD04A806A90DF0CFFC04A905A800F013FD05A8FFF730FC05A800F019
:2024E00027FC04A800F024FC4FF07C50FFF77AFB06A80DF01AFB49B030BD00BF12100100FF
:2025000046100100C80D00105010010078100010181001002510010070B59D4CC6B003AAF6
:2025200004A89C4900F072FD04A920460DF0AAFC0021FFF7ABFB04A800F0FAFB03AA04A84E
:20254000954900F063FD04A920460DF09BFC0021FFF79CFB04A800F0EBFB03AA04A88F4945
:2025600000F054FD04A920460DF08CFC0021FFF78DFB04A800F0DCFB03AA04A8884900F056
:2025800045FD04A920460DF07DFC0021FFF77EFB04A800F0CDFB03AA04A8824900F036FD35
:2025A00004A920460DF06EFC0021FFF76FFB04A800F0BEFB03AA04A87B4900F027FD04A9ED
:2025C00020460DF05FFC0021FFF760FB04A800F0AFFB03AA04A8754900F018FD04A9204656
:2025E0000DF050FC0021FFF751FB04A800F0A0FB03AA04A86E4900F009FD04A920460DF0E2
:2026000041FC0021FFF742FB04A800F091FB03AA04A8684900F0FAFC04A920460DF032FCD3
:202620000021FFF733FB04A800F082FB03AA04A8614900F0EBFC04A920460DF023FC002112
:20264000FFF724FB04A800F073FB03AA04A85B4900F0DCFC04A920460DF014FC0021FFF75F
:2026600015FB04A800F064FB03AA04A8544900F0CDFC04A920460DF005FC0021FFF706FB77
:2026800004A800F055FB03AA04A84E4900F0BEFC04A920460DF0F6FB0021FFF7F7FA04A8FF
:2026A00000F046FB03AA04A8474900F0AFFC04A920460DF0E7FB0021FFF7E8FA04A800F0DE
:2026C00037FB03AA04A8414900F0A0FC04A920460DF0D8FB0021FFF7D9FA04A800F028FBCD
:2026E00003AA04A83A4900F091FC04A920460DF0C9FB384D00220023FFF7DBFA04A800F07C
:2027000017FB00236A46294602A88DF810300593069300F07BFC02A904A80DF0B3FB01AAB1
:202720000646294603A800F071FC03A920460DF0A9FB014630460DF0F8FB03A800F0F8FAE9
:2027400002A800F0F5FA02AA03A8234900F05EFC03A904A80DF096FB2049FFF7CCFA03A82D
:2027600000F0E6FA02A804A90DF080FB02A903A800F0C4FB03A8FFF7E1FA03A800F0D8FACC
:2027800002A800F0D5FA04A80DF0CFF946B070BDC80D00105A1001005F1001006410010007
:2027A000691001006E1001007310010078100100281001001B1001003C100100321001001E
:2027C0005010010046100100B00F0100B50F0100C20F0100E30F01000A1001007D1001004E
:2027E00000B5CDB00021142202A804F041FE1422002107A804F03CFE3A232248029304F0EF
:2028000095FE214B02A81B6807A9984701AA1F490CA800F0FBFB0CA91D480DF033FB1D49A5
:20282000FFF769FA0CA800F083FA079B23BB1A4804F07CFE079A089B18490CA805F028FA5E
:202840000CA804F073FE0A9B099A14490CA805F01FFA0CA804F06AFE6A4601A80B4900F04B
:20286000D5FB01A90A480DF00DFB0CA9FFF743FA01A800F05DFA02E0094804F057FE4DB036
:202880005DF804FB84100100D4000010E30F0100C80D0010C010010097100100A810010061
:2028A000B110010001460148FEF7C2BDC010001030B5A1B0FFF794FFFFF72EFE234B2448B7
:2028C0000093244B694600220393FEF7DDFC6846FEF711FB01212048FFF7A6F94FF07C50E8
:2028E000FFF780F900211C48FFF79EF94FF07C50FFF778F919480021FFF796F91848FEF789
:2029000069FC30B11748FEF7A7FD01461648FEF77BFD0A2500241548FEF75CFC50B112480F
:20292000FEF79AFD7F2CC5B204DC20AB234403F8805C01340A2DEED120AB1C4468460023D9
:2029400004F8803CFFF7AEFFC4E700BF9D1D0000EC0C0010880B0100BC0C0010F00F001075
:2029600090100010C0100010B80F0010880F001008B50248FEF7CAFA08BD00BFA80A001043
:2029800008B50248FEF7C2FA08BD00BFA80A00102DE9F3477A4C7B4E7B4800252246DFF833
:2029A000E4827A497A4F057045608560FFF744F83046FEF7BFFDC6F8008075623046754E7F
:2029C00039462246FFF738F83046FEF7B3FDC6F8008075623046704E39462246FFF72CF885
:2029E0003046FEF7A7FDC6F80080DFF89C827562394622464FF416573046FFF71DF8674EF1
:202A00002B46009740466649664AFEF7B3FB4046DFF8788231462246FFF70EF82B460097EC
:202A200040466149614AFEF7A5FB4046DFF8608231462246FFF700F82B46009740465C49E7
:202A40005C4AFEF797FB4046DFF8488231462246FEF7F2FF2B46009740465749574AFEF799
:202A600089FB4046DFF8308222463146544FFEF7E3FF544E41465448FFF730F9534D394667
:202A80005348FFF72BF931465248FFF727F929465148FFF723F951495148FFF71FF9514965
:202AA0005148FFF71BF951495148FFF717F951495148FFF713F951495148FFF70FF951493A
:202AC0005148FFF70BF951495148FFF707F951495148FFF703F951495148FFF7FFF8294686
:202AE000504D5148FFF7FAF8284650490B220DF00FF8DFF8A89122464D492846FEF79CFF74
:202B0000DFF89CA14B4B4D4645F8043B5046FEF7FDF928464849FDF745FC5046FEF7F6F9CD
:202B2000224648464549FEF787FF45494548FFF7D5F845494548FFF7D1F845494548FFF7CD
:202B4000CDF841464448FFF7C9F839464348FFF7C5F831464248FFF7C1F842494248FFF76E
:202B6000BDF842494248FFF7B9F842494248FFF7B5F842494248FFF7B1F802B0BDE8F087AA
:202B8000C800001020100010C80D0010811C0000F51400004C0C0010480F00103111000081
:202BA0000FC0092010C0092002C0092003C0092000C0092001C009200AC009200BC0092093
:202BC00034C0092035C00920BC0C001037C00920D00F0010F00F0010D810001004C00920DF
:202BE000D00E001005C00920E80E001006C00920000F001007C00920180F001008C00920CD
:202C0000300F001009C00920340D001015C00920700F001045C009204810001044C00920D2
:202C200060100010940D0010781000103FC009201BFB0000A00F01003EC00920091C000091
:202C400016C009201C0C001017C00920740C001018C009208C0C0010A40C0010081000101C
:202C6000D40C001011C009204C0D001012C00920640D001019C009207C0D00101AC00920E7
:202C8000340C0010980D0100EC0C001090100010880F0010D40B001032C00920E80F0010CE
:202CA000A80A0010036853F80C0C1844704700BF134B10B5984204461ED8884214D94A0074
:202CC000944238BF144604F11D02B2F5805F04F10D000BD9A14209D204F58054C2F30B0200
:202CE000A41A9C4228BF1C4604F10D00FEF7BAFE00224460826010BD024800F017FF00BFBC
:202D0000FCFFFF3F04110100FEF7B8BE836810B5002B03F1FF34846001DCFFF7F5FF10BD7F
:202D2000024B834200D17047FFF7F0BFF010001010B504460068064B0C38984282B002D159
:202D4000204602B010BD01A9FFF7E0FFF8E700BFF010001038B5044600680B461044616854
:202D60001A46FFF7A5FF2268054622B90C300C4B9D4210D138BD012A00F10C0306D0184602
:202D800004F10C0104F098FA2268F0E7227B18462A732268EBE700232A60AB608354E9E7F7
:202DA000F010001030B5036883B053F8082C0446914215D0184650F80C2D91422CBFC2EBB5
:202DC0000102C2EB020201A9FFF7C4FF2368094A0546A3F10C00904207D1256003B030BD44
:202DE00053F8042C002AE5DCF8E701A9FFF78EFFF3E700BFF0100010F8B5154604460E4612
:202E0000F2B10368214953F80C2C891A8D4239D853F8081CAF188F4214D99E421ED220460A
:202E20003946FFF7BFFF236853F80C2C012D03EB02000ED1317899542368154A93421AD114
:202E40002046F8BD53F8041C0029EFDD9E42E6D304E031462A4604F02FFAEDE71A4496426C
:202E6000DDD820463946F61AFFF79CFF23681E4453F80C2CDAE7002243F80C7C43F8042C96
:202E8000DA55DDE7034800F051FE00BFFCFFFF3FFC1000109811010038B5054608460C461F
:202EA00005F084FA214602462846FFF7A5FF38BD036870B553F80C2C044653F8080C551CC6
:202EC00085420E4603D853F8041C002906DD20462946FFF767FF236853F80C2C9E542368C9
:202EE000054A934200D170BD002243F80C5C43F8042C5A5570BD00BFFC10001010B50B6891
:202F0000044653F8042C82B0002AA3F10C000BDB0949884218BF0132184618BF43F8042C44
:202F20002060204602B010BD01A90022FFF712FF2060204602B010BDF010001030B5026895
:202F40000B6804460C3AA3F10C00824283B00ED053F8045C002D0DDB0D4988421CBF013508
:202F600043F8045C10461D4688420DD12560204603B030BD01A90022FFF7ECFE2268054649
:202F80000349A2F10C00EFE701A9FFF7BFFEEDE7F010001008B5FFF7D1FF08BD884270B5F8
:202FA0000B4604461ED000B30E1A30460021FFF77FFE012E054600F10C030CD122782A7315
:202FC0000F4A954216D1184670BDFFF771FE2646054600F10C0318462146324604F06CF99D
:202FE0000346EDE7074B184670BD002BEDD0064800F072FD00222E60AA609A55E3E700BF10
:20300000F0100010FC100010C811010070B50C460546164661B1084605F0C8F921182046D7
:2030200032464FF00003FFF7B9FF2860284670BD4FF0FF31F3E700BF1EB400F08BF81EBCDE
:2030400002F0D2F9F0B5027883B0472A0D461E461AD00023244C019322682046936898475E
:2030600080B1019B02271B6801932A68214628461469012301AAA04710B1019B384633603B
:2030800003B0F0BD0127F0E743784E2BE1D18378552BDED1C378432BDBD10379462B16D099
:2030A0000379432BD5D143792B2BD2D183792B2BCFD1C379012BCCD804D050F8204C5830BD
:2030C0000190C9E750F8200C50F8784CF8E743794F2BE5D18379522BE2D1C379002BDFD121
:2030E0000193024CB8E700BFAC1201004012010010B5044600F01EF92378A4F12002472BA4
:2031000004D0836823BB8260012010BD63784E2BF7D1A378552BF4D1E378432BF1D123799F
:20312000432BEED163792B2BEBD1A3792B2BE8D1E379012BE5D854F8043C0133012B44F8DC
:20314000043CE1D1836844F8083C8260012010BD00F0F0FB08B500F0EDF8836883B393F829
:203160002020472A04D00022826003F1200008BD93F821204E2AF6D193F82220552AF2D1D3
:2031800093F82320432AEED193F82420432AEAD193F825202B2AE6D193F826202B2AE2D189
:2031A00093F82720012ADED8DA69013ADA61002ADBD19A6900218260996103F1200008BDF4
:2031C00000F0B8FB38B5044600F0B4F8217803684729A4F1200205D0002B31D11C46026088
:2031E000204638BD61784E29F6D1A1785529F3D1E1784329F0D121794329EDD161792B298A
:20320000EAD1A1792B29E7D1E1790129E4D854F80C5C002D11DB013541689A4201F1FF31E3
:2032200044F80C5C41601CBF44F8103C02602046646A01F015FD204638BDC5F10105EBE764
:2032400000F078FB013101D0FFF7F6FE00F020FE08B500F06BF80246006800283DD090F893
:203260002010472906D0BDE8084000212030116001F0F8BC90F821104E29F4D190F82210B5
:203280005529F0D190F823104329ECD190F824104329E8D190F825102B29E4D190F82610A6
:2032A0002B29E0D190F827100129DCD84169002905DB013908D04B1C0DD0416108BD0131CA
:2032C000FBD103691360F8E70169BDE808402030116001F0C7BC00F02DFB08BD014B03604C
:2032E000704700BF30120100014B0360704700BF3012010000487047641201000048704738
:203300007412010010B5034B04460360FEF7B6FB204610BD3012010010B5034B044603608A
:20332000FEF7ACFB204610BD301201000048704700110010004870470011001030B4002433
:20334000234610F8012B02F07F059D402C43150603F10703F5D41F2B06D8520604D54FF094
:20336000FF3202FA03F31C430C6030BC704700BF2DE9F041502884B00746884646D000F0E9
:203380000F010C2940D8DFE801F0072C3B07193F3F3F3F211D071900164656F8044B44B142
:2033A00007F07001102908BF904644443A0648BF246830461C6004B0BDE8F081146802F149
:2033C0000806ECE7164636F9024BE8E7104603A901920093FFF7B2FF039C0646019A009B75
:2033E000DDE700242546164616F8011B01F07F00A840090644EA000405F10705F4D4CEE7DC
:20340000164636F8024BCAE702F06EFCD61C26F0030656F8044B30461C6004B0BDE8F0815E
:20342000FF2808B50FD000F07003202B18D00CD9402B10D0502B06D0302B0AD1BDE808408F
:20344000084602F0AFB9002008BD002BFBD0102BF9D002F049FC0846BDE8084002F092B936
:203460000846BDE8084002F0A1B900BFF8B50C461646074608B102F085F9306025780134D3
:20348000FF2D33D039462846FFF7CAFF22460146331D2846FFF76CFF04462378601CFF2BF8
:2034A000337529D0102300223375134610F8011B01F07F049C40090642EA040203F1070362
:2034C000F4D40244F2600378002473750130234610F8011B01F07F059D400A0644EA0504AE
:2034E00003F10703F4D404443461F8BD70602378601CFF2B3375D5D10023F360E3E700BF16
:203500002DE9F04F00F0030393B00025012B0E461446069500F0A6800ED3022B0AD130460E
:20352000214602F01BF9002800F0A480092013B0BDE8F08F02F0D8FB00F008005FFA80F844
:203540004FF0010912AB43F82C6D002100930C220B46204601F0B6FB204602F019F907469F
:203560000028DCD00CAA394620460392FFF77EFF214683469DF84400FFF752FF0BAD0021AB
:203580000E900B460F220095204601F073FB0B9A109B22F001029B4548EA090802F1FF39FE
:2035A00039D29DF845A000215046FFF739FF5A46014609AB5046FFF7DBFE9DF845A083465E
:2035C00000215046FFF72CFF5A4601460AAB5046FFF7CEFE9DF845A0834600215046FFF72F
:2035E0001FFF5A4601462B465046FFF7C1FE002183460B461BF801EB0EF07F029A401EF069
:20360000800F41EA020103F10703F3D1099A0C9B134499451DD24FF000094FF0010B002505
:2036200018F0010F4CD0BBF1020F3FF478AF0AAB0021204600930D220B46069C01F01AFB48
:203640000A9B7462B562F762C6F83090336206206DE70A9A13449945C0F09280109B9B45CC
:203660009FD3D8E700F0080000F0FF0830B14FF0020967E7082013B0BDE8F08F0CA900915C
:2036800003911046434641460D22356A01F0F2FA0C9B9D42EBD112AB43F82C6D0093414698
:2036A000434620460C2206F1280501F00BFB95E8A002B9F1000F00F017814FF0030B3DE008
:2036C00018F0080F36D0BBF1010F00F01C81002DC0F2158112AB002143F8286D0A46009376
:2036E00020460B4601F0EEFA12AB43F8245D0021009320460B46012201F0E4FA0AAD00218C
:203700000B4620460F22009501F0B4FA0A9B002103F001032046009549EA03040F220B4619
:203720000A9401F0CFFABBF1020F36D0072013B0BDE8F08FBBF1010F00F0D680002DC9DA8E
:203740003946039A2046FFF791FE9DF844002146FFF766FEAA000F9F82F00302D2430E9046
:20376000BB58174433B13A46002352F8041F01330029FAD10422B362F06277633263A9E733
:203780000B9B7BB10D9A03EB020969B9B9F1000F3FF4C5AE4FF0020B41E73046FFF7A8FCB2
:2037A0000720C4E69946F0E7109B01395818B9F1000F3FF4B4AE0028ECD018F00803059350
:2037C0007ED047224E2355213270737043224623B170F2704F215222337100237171B271C5
:2037E000F3714FF0000B049408A9FFF7A7FD09A98246FFF7A3FD089B002B2FD031DD9DF8B8
:203800004400FF285AD000F00702042A3FF692AE01A151F822F000BF5738000035350000C2
:2038200051380000573800002D380000DB005B420F9A0E991A440AABFFF79AFD0A99F9B156
:20384000002E54D1099B002B45D00AEB0300CBE75B005B42ECE79B005B42E9E74FF0010B69
:20386000F0E701330EB1059A7AB10F9AC3EB837352F82330D3F1010338BF0023002BE1D00C
:20388000049C089D4FF0030BCAE60F9AC3EB837352F82310069802EB83030B901C4619B93C
:2038A00017E054F8041FA1B12144304600222B46FFF7C8FB0028F4D00023DFE70023B7E793
:2038C000F379012B0CBF56F8203C06F15803069387E70123D2E7049CBBF1000F3FF41FAE4A
:2038E0001D464FF0020B9BE6304600F0C1FA3046002206ABFFF7A6FB0028C1D1A2E700F064
:2039000025F8FFF75FFC00F015F800BF08B5804702F0EAF9FFF756FC02F0E6F90C4605466E
:20392000FFF796FC013401D0FFF786FB284600F0AFFA00BF08B5024B1868FFF7E7FF00BF97
:20394000DC00001008B58047FFF7F4FF08B5024B1868FFF7F7FF00BFD800001010B5034BDE
:203960000446036000F0CAF9204610BD1813010010B5054B0446036000F0C0F92046FEF7C2
:203980007DF8204610BD00BF1813010070B584B0089C0D469442064607D0B0682946056857
:2039A00000942C6AA04704B070BD19460392029300F078F8039A029B0028EED00620F2E70D
:2039C0002DE9F04F884685B019461F46924683460E9EDDF84090119D00F064F8044698B14C
:2039E000B8F1000F2E6085F804A022DB46440024B14514BF4FF001094FF00609204685F872
:203A0000069005B0BDE8F08F4E4517D0DBF808000F9B046801930096CDF808900395E46960
:203A2000414652463B46A0470446204605B0BDE8F08F18F1020F0AD00024F6E758460F993B
:203A400000F030F80028E1D085F805A0EDE70123AB710024E9E700BFF8B507460E461546E3
:203A60001C4600F063F930B9B8683146066823462A46B469A047F8BD014B0360704700BFF3
:203A80009813010000207047002070470020704710B5034B04460360FDF7F0FF204610BD1F
:203AA00098130100814208B511D0406803782A2B0BD049680B782A2B08BF013104F080F9B7
:203AC000D0F1010038BF002008BD002008BD012008BD00BFFFF7E6BF30B5054685B0082096
:203AE00000F062F92946044601AA03A8FFF78EFA204603A900F020FB039802A90C38FFF751
:203B00000FF920460749084A00F052FA204600F077F9FFF791FA039802A90C38FFF700F999
:203B2000F4E700BF30150100B540000030B5054685B0082000F038F92946044601AA03A8F3
:203B4000FFF764FA204603A900F006FB039802A90C38FFF7E5F820460749084A00F028FA97
:203B6000204600F04DF9FFF767FA039802A90C38FFF7D6F8F4E700BF7C150100094100008E
:203B800000487047701401000048704778140100014B0360704700BFE813010002604160F1
:203BA000704700BF10B5036882B014461B690A460146684698476368019A9A4202D00020F7
:203BC00002B010BD2068009B1B1A5842584102B010BD00BF4B68834201D00020704708680D
:203BE000831A584258417047014B0360704700BFE8130100014B0360704700BFE8130100FC
:203C000010B5034B04460360FDF738FF204610BDE813010010B5034B04460360FDF72EFFA9
:203C2000204610BDE813010010B5034B04460360FDF724FF204610BDE813010010B5044640
:203C400082B0104604F0A8FB01AA01462046FFF7DDF9204602B010BD10B5044682B01046A5
:203C600004F09AFB01AA01462046FFF7CFF9204602B010BD38B5094B094C0A4D224618460D
:203C800009491D60FDF7D8FE084D094B224618461D600849BDE83840FDF7CEBE1011001080
:203CA000C800001050140100F53B0000101401000C110010E93B0000F0B5036885B00024B8
:203CC000102715469E6912686B4600948DF8044003940297B0479DF8043003F00603062BA6
:203CE00005BF009B012020462B6005B0F0BD00BF0098904214BF01200620704710B5034BE4
:203D000004460360FFF7B8FE204610BDD814010010B5054B04460360FFF7AEFE2046FDF76C
:203D2000ADFE204610BD00BFD814010038B515461C46FFF7B7FE20B1082206232560E260B9
:203D4000237138BDF8B516461C4607460D46FFF7A9FE08B9032C00D9F8BD2B68394632462A
:203D60005B6928469847F8BDF0B583B0089C0A9D1746AC4206460CD030461946FFF792FE8C
:203D800020B10B9A0123146017719371002003B0F0BD09990193FFF785FE019B0028EBD0DB
:203DA0000B9B5F71F2E700BF38B500F18005284602F08CFF044638B120460021802203F058
:203DC00057FB04F1800038BD0B4AB5F5007F116807D80B46D80706D50134042C4FEA530352
:203DE000F8D1FFF7A7FD0120A040044B0143116003EB4424E0E700BF141100101811001011
:203E00000A4B984203D303F50062904202D3803802F064BFC31A01215B0A01FA03F3044A2C
:203E2000116821EA03011160704700BF18110010141100100378472B01D000207047437855
:203E40004E2BFAD18378552BF7D1C378432BF4D10379432BF1D143792B2BEED183792B2B9E
:203E6000EBD1C07901288CBF00200120704700BF10B5044628B1FFF7A5F92046FFF7DAFF71
:203E800008B9FFF757FD54F8140CFFF73FFD00BF2DE9F04F83B00446FFF7CCFF68B154F8C2
:203EA000185C204654F8146CA76AD4F83080646BFFF788F92846FFF745FD2046FFF782F90C
:203EC000FFF744FDFFF77EF9FFF734FDFFF77AF9FFF72CFA036893F82720012A27D003F13F
:203EE00078020025009228F0030803F1200BAA46BA4528DA236823B303EB040958464946D5
:203F000000226B46FFF79EF898B9D9F8003002AA42F8040DD3F810C0484611490123E0472B
:203F2000002818BF01250AF1010A4444E0E71A68D7E700F085F8FFF78BF9FFF789F9FFF772
:203F40007BF89946DAE745B10420FFF72DFF054B03490360044A00F02BF83046FFF7D6FC74
:203F600000130100C0120100E9320000012810B51AD8A1F12803BFF35F8F53E8002F013A5D
:203F800043E800200028F8D1BFF35F8F5AB951F81C3C01F158040BB1204698472046BDE837
:203FA0001040FFF72DBF10BD51F8140CFFF7AEFC2DE9F84F04460F469046FFF7BBF9034634
:203FC00059681C481C4AD0F800A04E1C10681B4A5E604FF04E0C2B234FF0550E0021A4F1AA
:203FE000580543264FF0010B4FF0470944F86C0C04F857CC04F856EC04F8511C44F8502CEF
:2040000004F8533C04F8523C44F8787C44F8748C44F880BC44F870AC04F8589C284604F8F5
:20402000556C04F8546C01F0CDF92846FFF7CAF8FFF780FCD8000010DC0000106D3F000034
:2040400010B5FFF777F942680368013242606BB193F82020472A0BD00022026003F120047C
:20406000204601F0D3F92046FFF7ACF8FFF762FC93F821204E2AEFD193F82220552AEBD1BD
:2040800093F82320432AE7D193F82420432AE3D193F825202B2ADFD193F826202B2ADBD196
:2040A00093F82720012AD7D85A6952425A61D5E74068704710B543680C4A04460C49A3F12E
:2040C0000C00904282B0216005D12046FFF706F9204602B010BD53F8042C511E002A43F8EA
:2040E000041CF2DC01A9FEF70FFEEEE7F01000105815010010B50446FFF7DCFF2046FDF799
:20410000BDFC204610BD00BF10B5034B04460360FFF7D0FF204610BD9015010010B5054B81
:2041200004460360FFF7C6FF2046FDF7A7FC204610BD00BF90150100064B10B5044640F8EA
:20414000043BFEF7DBFE204610BD2046FFF7C6F8FEF772FF5815010010B50446FFF7ECFF41
:20416000014B2046236010BD9015010081F0004102E000BF83F0004330B54FEA41044FEAF2
:20418000430594EA050F08BF90EA020F1FBF54EA000C55EA020C7FEA645C7FEA655C00F03B
:2041A000E2804FEA5454D4EB5555B8BF6D420CDD2C4480EA020281EA030382EA000083EA1C
:2041C000010180EA020281EA0303362D88BF30BD11F0004F4FEA01314FF4801C4CEA113155
:2041E00002D0404261EB410113F0004F4FEA03334CEA133302D0524263EB430394EA050F14
:2042000000F0A780A4F10104D5F1200E0DDB02FA0EFC22FA05F2801841F1000103FA0EF230
:20422000801843FA05F359410EE0A5F120050EF1200E012A03FA0EFC28BF4CF0020C43FAA1
:2042400005F3C01851EBE37101F0004507D54FF0000EDCF1000C7EEB00006EEB0101B1F55C
:20426000801F1BD3B1F5001F0CD349085FEA30004FEA3C0C04F101044FEA445212F5800F63
:2042800080F09A80BCF1004F08BF5FEA500C50F1000041EB045141EA050130BD5FEA4C0CAB
:2042A000404141EB010111F4801FA4F10104E9D191F0000F04BF01460020B1FA81F308BFB7
:2042C0002033A3F10B03B3F120020CDA0C3208DD02F1140CC2F10C0201FA0CF021FA02F141
:2042E0000CE002F11402D8BFC2F1200C01FA02F120FA0CFCDCBF41EA0C019040E41AA2BF41
:2043000001EB0451294330BD6FEA04041F3C1CDA0C340EDC04F11404C4F1200220FA04F035
:2043200001FA02F340EA030021FA04F345EA030130BDC4F10C04C4F1200220FA02F001FA8B
:2043400004F340EA0300294630BD21FA04F0294630BD94F0000F83F4801306BF81F480110A
:204360000134013D4EE77FEA645C18BF7FEA655C29D094EA050F08BF90EA020F05D054EA7B
:20438000000C04BF1946104630BD91EA030F1EBF0021002030BD5FEA545C05D1400049417B
:2043A00028BF41F0004130BD14F580043CBF01F5801130BD01F0004545F0FE4141F470016B
:2043C0004FF0000030BD7FEA645C1ABF194610467FEA655C1CBF0B46024650EA013406BF28
:2043E00052EA033591EA030F41F4002130BD00BF90F0000F04BF0021704730B54FF4806484
:2044000004F132044FF000054FF0000150E700BF90F0000F04BF0021704730B54FF48064C1
:2044200004F1320410F0004548BF40424FF000013EE700BF42004FEAE2014FEA31014FEA5D
:2044400002701FBF12F07F4393F07F4F81F06051704792F0000F14BF93F07F4F704730B5CD
:204460004FF4607401F0004521F0004120E700BF50EA010208BF704730B54FF000050AE009
:2044800050EA010208BF704730B511F0004502D5404261EB41014FF4806404F132045FEAB4
:2044A000915C3FF4DCAE4FF003025FEADC0C18BF03325FEADC0C18BF033202EBDC02C2F116
:2044C000200300FA03FC20FA02F001FA03FE40EA0E0021FA02F11444C1E600BF4FEA410238
:2044E00012F5001215D211D56FF47873B3EB625212D94FEAC12343F0004343EA505311F0E7
:20450000004F23FA02F018BF404270474FF00000704750EA013005D111F0004008BF6FF08F
:20452000004070474FF00000704700BF4FF0FF0C1CEAD0521EBF1CEAD15392EA0C0F93EA42
:204540000C0F6FD01A4480EA010C400218BF5FEA41211ED04FF0006343EA501043EA5111BC
:20456000A0FB01310CF00040B1F5000F3EBF490041EAD3715B0040EA010062F17F02FD2A47
:204580001DD8B3F1004F40EBC25008BF20F00100704790F0000F0CF0004C08BF49024CEA48
:2045A000502040EA51207F3AC2BFD2F1FF0340EAC250704740F400004FF00003013A5DDC14
:2045C00012F1190FDCBF00F000407047C2F10002410021FA02F1C2F1200200FA02FC5FEA14
:2045E000310040F1000053EA4C0308BF20EADC70704792F0000F00F0004C02BF400010F427
:20460000000F013AF9D040EA0C0093F0000F01F0004C02BF490011F4000F013BF9D041EA34
:204620000C018FE70CEAD15392EA0C0F18BF93EA0C0F0AD030F0004C18BF31F0004CD8D1A4
:2046400080EA010000F00040704790F0000F17BF90F0004F084691F0000F91F0004F14D042
:2046600092EA0C0F01D142020FD193EA0C0F03D14B0218BF084608D180EA010000F000405B
:2046800040F0FE4040F40000704740F0FE4040F4400070474FF0FF0C1CEAD0521EBF1CEAD3
:2046A000D15392EA0C0F93EA0C0F69D0A2EB030280EA010C49024FEA402037D04FF0805368
:2046C00043EA111143EA10130CF000408B4238BF5B0042F17D024FF4000C8B4224BF5B1ABA
:2046E00040EA0C00B3EB510F24BFA3EB510340EA5C00B3EB910F24BFA3EB910340EA9C0032
:20470000B3EBD10F24BFA3EBD10340EADC001B0118BF5FEA1C1CE0D1FD2A3FF650AF8B4283
:2047200040EBC25008BF20F0010070470CF0004C4CEA50207F32C2BFD2F1FF0340EAC2508C
:20474000704740F400004FF00003013A37E792F0000F00F0004C02BF400010F4000F013AB7
:20476000F9D040EA0C0093F0000F01F0004C02BF490011F4000F013BF9D041EA0C0195E794
:204780000CEAD15392EA0C0F08D142027FF47DAF93EA0C0F7FF470AF084676E793EA0C0F3F
:2047A00004D14B023FF44CAF08466EE730F0004C18BF31F0004CCAD130F000427FF45CAFDB
:2047C00031F000437FF43CAF5FE700BF4FEA4002B2F1FE4F0FD34FF09E03B3EB12620DD9ED
:2047E0004FEA002343F0004310F0004F23FA02F018BF404270474FF00000704712F1610F10
:2048000001D1420205D110F0004008BF6FF0004070474FF0000070474BB942B9002908BF6A
:20482000002802D04FF0FF31084600F0C3BF82B0EC462DE9005000F01DF8DDF804E002B015
:204840000CBC70472DE9704F089E14461D468046894600F0B1FF04FB01F3A4FB00AB00FB34
:2048600005329344B8EB0A0869EB0B09C6E90089BDE8708F2DE9704F089E14461D46804633
:20488000894601F0E9F800FB05F5A0FB04AB04FB0154A344B8EB0A0869EB0B09C6E90089A8
:2048A000BDE8708F03685A004CBF43F0004323F000431844704700BF2DE9F04F064683B012
:2048C000914621B3013901918846002707EB080404EBD4746410E50006EB050B5846FFF749
:2048E000E1FF019B8246A34205F10800304419D0FFF7D8FFCA4500F1FF3004D9BC420BD082
:2049000004F1FF38E2E7484502D2671CDEE78B46584603B0BDE8F08F4FF0000B584603B018
:20492000BDE8F08FCA45E9D8F2E700BF012807D0022807D0044B00280CBF18460020704773
:20494000024870470248704769500000715000007950000030B5274B83B004468D1E002B68
:2049600042D0284601A9AFF30080034623B32A460199FFF7A1FF054618B3FFF793FF6B68BB
:20498000A064012B12D0002B05F1040028DBFFF789FF0023E06423650368002B16DBFFF7F3
:2049A00081FF00232061184603B030BD002323610523184603B030BD23610923184603B047
:2049C00030BD09232061184603B030BDC3F30360FFF7ACFF0028206114BF00230923E2E7F1
:2049E0000123E0642365D7E7034B04481B1ADB100193BCE700000000CC2301007C2101008A
:204A0000036810B5DA07044606D49B0700F1480009D500F06FFC2368590709D51A070ED580
:204A2000DB0613D510BD00F05DFC23685907F5D404F1D00000F066FC23681A07F0D404F563
:204A4000A87000F067FC2368DB06EBD404F5E870BDE8104000F0A2BC03680BB118447047F2
:204A60001846704709207047704700BF70B504460D4608E02A6C23696261012021462A4644
:204A80009847082808D12046296CFFF763FF06460028EFD001F028F90728FBD13046296C90
:204AA000FFF7E2FF281D00F011FC00BF2DE9F047ADF5727D0C1D03AE054617460FCC0FC60E
:204AC0000FCC0FC60FCC0FC694E80F0002AC4FF0000ED5F80C80D5F8189086E80F00284637
:204AE000216CC4F800E0FFF735FF002F064614BF0A27092786B1A06B2A468DE8100247F044
:204B0000100160642B460120C04700282FD130460DF5727DBDE8F087236C21466B614FF477
:204B2000F0727AA802F0C8FB2B6929467AAA38469847889B82468DE81002394663640120DF
:204B40002A462B46C04790B920467AA94FF4F07202F0B2FBBAF1080F06D12846216CFFF7CD
:204B6000F9FE09270646C5E7BAF1070F04D009200DF5727DBDE8F0873046216CFFF774FFDF
:204B800003A800F0A3FB00BF406C7047F0B5CB6BF9B00B640E1D01AD0F4604460FCE0FC59E
:204BA0000FCE0FC50FCE0FC596E80F004FF0FF3685E80F00009606E0236921466A46984718
:204BC0000828054608D120461099FFF7C3FE0028F2D0092079B0F0BD6846FFF711FF062DEB
:204BE000F7D120463946FFF741FF00BF30B4DD6BC160826119461D64002230BCFFF756BFEA
:204C000070B54369C66804460D460B6426B10122FFF74CFF01F068F80369214602202A4698
:204C20009847072807D0082803D120462946FFF71DFF01F059F83046296CFFF715FF281D08
:204C400000F044FBC26810B432B1CC6B00220C645DF8044BFFF72ABF5DF8044B96E700BF28
:204C6000704700BF08B5836813B101460120984708BD00BF10B4042909D8DFE801F00703F3
:204C80000803030001205DF8044B70471BB102205DF8044B70470F2AF9D800EB820252680E
:204CA0001846019B1A60EEE700B585B00A4603AB002100930B46FFF7DDFF039805B05DF847
:204CC00004FB00BF10B4042909D8DFE801F007030803030001205DF8044B70471BB102200A
:204CE0005DF8044B70470F2AF9D8019C00EB8202216818465160EEE710B584B004AB43F8F3
:204D0000042D0C460021009322460B46FFF7DAFF04B010BDF0B5D36BADF50F7D1364151D99
:204D200017AC07460E460FCD0FC40FCD0FC40FCD0FC495E80F004FF0FF3584E80F001695DD
:204D400010E016A8FFF7D8FF314616A8B847694616AA78B9049B08209847052804460AD00D
:204D6000092807D026996846FFF7F4FD6A460C210028E6D0092416A8FFF742FE20460DF593
:204D80000F7DF0BD2DE9F04FCE6C0C4631688BB004361D4690460791089600F00309002B55
:204DA00040F089800902032307918DF825508DF82430236DB9F1020F08BFA66B13F00103F4
:204DC00042D100F00800C0B2039002933768002F3CD0022D6BD03788B6F802A00436A36C92
:204DE0002AF0010B40460F219B44FFF75DFF834536D827F001039B440AF0010A07F00107D2
:204E0000584547EA4A072CBF00200120012F31D060D3022F20D1336823F000410191B9F196
:204E2000000F40F0858030B1039A002A00F08D80002900F0B080002BC0F28580019B03F1CE
:204E4000010A06EB8A06C1E700210291022D49DDFFF708FE00284BD009200BB0BDE8F08FCE
:204E60000AF0010A07F0010747EA4A07012F4FF00000CDD1B9F1000F41D1B0B196E80C00E9
:204E8000D70F9A1CE8D004F158010133069100F0AD80301DFFF7E0FD3A46014606AB20468A
:204EA000FEF7D0F8002840F0CF8008368EE7D6F804A0083693E7022B3FF77BAF0B0CDFB27C
:204EC000090402228DF8253006EB870607918DF824206EE7B9F1000F02D0002840F09080A0
:204EE000043673E7404607A900F0F0FA0028B3D1029A002A59D108200BB0BDE8F08F4046E5
:204F00000D21276AFFF7D0FE8742CED1A36A9E42CBD13046FFF7C6FC0F2102464046FFF7FB
:204F2000EBFE404622460021FFF7E6FE072094E740460D21276AFFF7B7FE874245D0336894
:204F4000002BBFF67BAF043678E7019919B304F1580CCDF810900595371DDDF80CB0DDF836
:204F60000490654602E0CA4515D0D34638460695FFF772FD0022014606AB2046FEF762F8B6
:204F80000BF1010A04370028EDD0019BDDF810905B45059DD3D140460D21FFF785FE069B25
:204FA0002062A6626362062057E70F214046FFF77BFE0E2102464046FFF79EFE40460F21D4
:204FC000284AFFF799FE072047E7A36A9E42B6D1042201990027B318A162E76222636363C0
:204FE0003368BB421FDB0122029227E740460D21FFF75AFE2062069B6362A66206202CE72F
:205000003046FFF74FFC04360546A6632046FEF76FF800283FF420AF40462A460F21FFF743
:205020006BFE072019E7481C06EB8000FFF73AFC0F2102464046FFF75FFE40463946224621
:20504000FFF75AFE072008E707460D214046FFF72BFE022F2062CED1069A234643F82C2FDB
:205060006362CAE7913E00000023FFF78BBE00BF0123FFF787BE00BF0223FFF783BE00BF91
:205080002DE9F0410446C4B004290BD8DFE801F059030A300E00012B4FEA124596B266D065
:2050A000052B6BD0022044B0BDE8F081002BF9D1102AF7D82368D90600F1D38022AE304667
:2050C000019200F075F9A56B019A0023012000FA03F1114203D02968043546F8231001336D
:2050E000042BF4D13046A56300F058F90020DAE7032BD7D1150C97B27B19102BD2D82368D8
:205100001E0700F1BF8022AE304600F025F9D4F838E07F0006EBC5007B1E72465FB1CEEBB3
:205120000000AEF1040252F8041F013B5D1C8150F9D10EEB87023046A26300F0EBF800201D
:20514000B1E7002BAED1A56B96B2012000FA03F1314204D02F6804EB830104354F60013339
:20516000102BF3D112F4005075D1A5639BE77219102A97D80F2D95D8002708E07719202F3F
:2051800090D80F2D69D9374646B30F2D11D82268D0070ED522F00101052B216000F08C8089
:2051A00022F00302204640F8482B019300F09EF8019B17B1226851076CD4012B74D00F2D7B
:2051C00004D822A8019300F099F8019B37B102A8019300F09BF8019BC5F11006D4F83880E3
:2051E000002EC44612DD22AA4FEA460C02EBC506C8EB06060CF1FF31A8F1040252F8040F91
:205200000139B050481CF9D108EB8C0CB7B144AA102D2CBF2846102002EBC0004FEA47084A
:20522000A0F5C47008F1FF32614651F8046B013A40F8046B561CF8D10CEB880C012B1AD05E
:205240000F2DC4F838C002D822A800F053F817B102A800F057F8002025E7102F8CD9103FAF
:2052600093E723F01003236004F5E870019200F09FF8019A22E70CF10403A36322A800F038
:2052800031F8E8E723F00803236004F5A87000F063F838E722F00402204640F8D02B0193B5
:2052A00000F034F8019B88E722A8019300F01EF8019B002F90D191E741F00201204640F8ED
:2052C000481B019300F01AF8019B72E700F1340191E838009C46A6464CF8045D90E8FF0F10
:2052E000E54600BD90EC210B704700BF80EC210B704700BF90EC200B704700BF80EC200BE6
:20530000704700BFD0EC200B704700BFC0EC200B704700BFF0EC0201F0EC0211F0EC0221A0
:20532000F0EC0231F0EC0241F0EC0251F0EC0261F0EC0271F0EC0281F0EC0291F0EC02A135
:20534000F0EC02B1F0EC02C1F0EC02D1F0EC02E1F0EC02F1704700BFE0EC0201E0EC0211BE
:20536000E0EC0221E0EC0231E0EC0241E0EC0251E0EC0261E0EC0271E0EC0281E0EC0291F5
:20538000E0EC02A1E0EC02B1E0EC02C1E0EC02D1E0EC02E1E0EC02F1704700BFB0FC0181DF
:2053A000B0FC0191B0FC01A1B0FC01B1704700BFA0FC0181A0FC0191A0FC01A1A0FC01B1B5
:2053C000704700BFEC4600B52DE900502DE9FF1F4FF000032DE90C0001A9FFF7D7FBDDF82B
:2053E00040E012B0704700BFEC4600B52DE900502DE9FF1F4FF000032DE90C0001A9FFF7D0
:20540000FFFBDDF840E012B0704700BFEC4600B52DE900502DE9FF1F4FF000032DE90C0080
:2054200001A9FFF70FFCDDF840E012B0704700BFEC4600B52DE900502DE9FF1F4FF00003D1
:205440002DE90C0001ABFFF7D1FBDDF840E012B0704700BFEC4600B52DE900502DE9FF1F0E
:205460004FF000032DE90C0001AAFFF753FCDDF840E012B0704700BF037A1BB9437A43B9A1
:20548000B02070470268013B037213020360100E70474268013B4372111D1268032303723F
:2054A000130241600360100E704700BF00B585B003AB002100930C220B46FFF7DBFB03980D
:2054C00005B05DF804FB00BFFFF7F0BF2DE9F043064685B00D464FF000082846FFF7CCFFCC
:2054E000B028044600F0AC8020F07F0212F0FF0120D000F0F002802A73D0902A36D0A02A92
:2055000042D0B02A56D0C02A00F0828000F0F803D02B0BD100F00704621C42F40022304694
:2055200001210523FFF7ACFD0028D6D0092005B0BDE8F08303AF4FEA80090B4600973046EC
:205540000D22FFF797FB5FFA89F9039B09F1040960064CBFC9EB03034B440393002100970C
:205560000B4630460D22FFF7ADFBB6E700F00D030D2BDBD003AF002100F00F0200970B465B
:205580003046FFF777FBE9E7C2434FF47F6302F0070243FA02F2010702EA03024FF00001CE
:2055A00048BF42F480420B463046FFF769FD0028BCD192E7B12848D0B22851D0B3287DD087
:2055C00000F0FC03B42BB1D000F007020132012142F400220B463046FFF752FD0028A5D12C
:2055E0007BE72846FFF748FF24022043B0F5004F9CD004010021A2B20B463046FFF740FD41
:20560000002893D114F4004F18BF4FF0010864E7C6285FD0C72869D000F0F803C02B78D0DA
:20562000C82800F08E80C92880D12846FFF724FF00F00F03013300F0F00243EA02326EE7E5
:20564000B8F1000F6CD0002071E72846FFF714FF024600283FF46AAF10F0F001BAD065E7E4
:20566000002103AF0D220B4600973046FFF702FB2846FFF701FF02064FF002040DD500F054
:205680007F0000FA04F2039B284613440393FFF7F3FE030604F10704F1D400F07F0000FA84
:2056A00004F4039B002103F501731C4400970B4630460D220394FFF705FB0EE72846FFF7F4
:2056C000DBFE00F00F03013300F0F002012143EA02327FE72846FFF7CFFE00F00F03013389
:2056E00000F0F002032143EA023273E72846FFF7C3FE024600283FF419AF10F0F0037FF4F3
:2057000015AF30460421FFF7BBFC00287FF40EAFE3E600F00F020132032142F4202259E74C
:2057200003AC41460E22434600943046FFF7A2FA0094304641460F224346FFF7C3FA40465A
:20574000F5E62846FFF798FE00F0F00200F00F031032013343EA0232E1E600BF10B5C36C3F
:2057600084B003225C688DF80C20DA7908460833240201A901948DF80D200293FFF7A6FE39
:2057800004B010BD08B5FFF79FFE806C08BD00BF08B5FFF799FEC36CDA7903EB8200083054
:2057A00008BD00BF08B500F09FFA00BF08B500F09BFA00BF704700BF00292DE9F00FC0F2F9
:2057C000A1800024002BC0F29880154606460F46002B3FD18A4258D9B2FA82F34BB1C3F18A
:2057E000200201FA03F720FA02F29D4000FA03F61743290CB7FBF1F201FB1277A8B200FBB6
:2058000002F34FEA164C4CEA0747BB4209D97F1902F1FF3C80F00581BB4240F20281023AEB
:205820002F44FF1AB7FBF1F301FB137100FB03F0B6B246EA0141884208D9491903F1FF37C7
:2058400080F0F180884240F2EE80023B43EA0242002303E08B420AD900231A461046194661
:2058600014B1404261EB4101BDE8F00F7047B3FA83F8B8F1000F40F088808B4202D382427A
:2058800000F2E28000230122E8E712B90123B3FBF2F5B5FA85F2002A3AD17F1B280C1FFAD9
:2058A00085FC0123B7FBF0F100FB11770CFB01F24FEA164848EA0747BA4207D97F1901F1B6
:2058C000FF3802D2BA4200F2C4804146BF1AB7FBF0F200FB12700CFB02FCB6B246EA00403D
:2058E000844507D9401902F1FF3702D2844500F2AE803A4642EA0142B0E7E443524263EB31
:20590000430362E7404261EB41014FF0FF3459E79540C2F1200927FA09F126FA09F9974071
:20592000280CB1FBF0F800FB18111FFA85FC0CFB08F349EA07094FEA194747EA01418B42C3
:2059400006FA02F608D9491908F1FF327AD28B4278D9A8F102082944C91AB1FBF0F300FBFB
:2059600013170CFB03F21FFA89F949EA0747BA4207D97F1903F1FF3160D2BA425ED9023BAB
:205980002F44BF1A43EA08438CE7C8F1200225FA02F103FA08FC27FA02F320FA02F207FABD
:2059A00008F741EA0C0C4FEA1C49B3FBF9F109FB11331FFA8CFA0AFB01FB17433A0C42EABB
:2059C00003439B4505FA08F008D913EB0C0301F1FF3235D29B4533D902396344CBEB030308
:2059E000B3FBF9F209FB12330AFB02FABFB247EA0347BA4508D917EB0C0702F1FF331BD2D1
:205A0000BA4519D9023A674442EA0145A5FB0001CAEB07078F424FF000030AD305D02A46A3
:205A20001CE76246FDE63B4610E706FA08F68642F5D26A1E002311E71A46E5E70B46A0E72C
:205A40001146CBE7904687E74346424606E7023A50E702392F4439E72DE9F00F1446054600
:205A60000E46002B43D18A4253D9B2FA82F757B1C7F1200620FA06F601FA07F302FA07F48E
:205A800000FA07F51E43210CB6FBF1F201FB1266A0B200FB02F32F0C47EA0646B34209D9A9
:205AA000361902F1FF3780F0FD80B34240F2FA80023A2644F61AB6FBF1F301FB136100FB2A
:205AC00003F0ADB245EA0141884208D9091903F1FF3680F0E980884240F2E680023B43EA68
:205AE0000242002310461946BDE8F00F70478B424CD8B3FA83F6002E4FD18B4202D3824264
:205B000000F2DD80BDE8F00F0023012210461946704712B90124B4FBF2F4B4FA84F2002A0D
:205B200040F08280091B260CA7B20123B1FBF6F006FB101107FB00F24FEA154C4CEA0141A6
:205B40008A4207D9091900F1FF3C02D28A4200F2C8806046891AB1FBF6F206FB121107FB6E
:205B600002F7ADB245EA0145AF4208D92C1902F1FF3180F09B80A74240F29880023A42EAF8
:205B8000004210461946BDE8F00F704700231A4610461946BDE8F00F7047C6F1200522FA28
:205BA00005F703FA06F421FA05F301FA06FB20FA05F53C434FEA1448B3FBF8FC08FB1C33C7
:205BC0001FFA84F909FB0CFA45EA0B0B4FEA1B4545EA03439A4502FA06F204D91B190CF1F1
:205BE000FF356FD3AC46CAEB0303B3FBF8F508FB153309FB05F91FFA8BFB4BEA0347B9457E
:205C000004D93F1905F1FF3362D31D4645EA0C4CACFB0223C9EB07079F424FF000054AD338
:205C200046D062462B465DE79440C2F1200921FA09FC914020FA09F9260CBCFBF6F806FB5C
:205C400018CCA7B207FB08F349EA01094FEA194141EA0C4C634500FA02F509D91CEB040C25
:205C600008F1FF323BD2634539D9A8F10208A444C3EB0C0CBCFBF6F306FB13C107FB03F276
:205C80001FFA89F949EA01418A4207D9091903F1FF3022D28A4220D9023B2144891A43EAD8
:205CA000084343E73A4605E7334618E70A4666E7B0409042B5D20CF1FF32002312E73346E2
:205CC00032460FE79A458DD9ACF1020C23448AE7B9459AD9023D274498E70346DEE7904610
:205CE000C6E70238214435E708B5062001F0B2FF0120FBF789FE00BF0028B8BF4042704786
:205D000000210A2202F066BC10B502FB01F1FBF744FC044668B150F8042C22F00302043A0C
:205D2000242A18D8132A06D8034600221A605A609A60204610BD00231B2A036043600FD9E8
:205D4000242A8360C36005BF0361436100F1100300F11803E9E7002101F08AFB204610BD79
:205D600000F10803E1E700BF014B1868704700BF0805001070B50C46054631B110B1836BEE
:205D8000002B2FD0B4F90C300BB9002070BD2846214600F0DBF8E36A064633B12846E16912
:205DA00098470028B8BF4FF0FF36A3891B061CD4216B41B104F14003994202D02846FBF7F1
:205DC000F0FB00232363616C21B12846FBF7E9FB0023636400F0DEF90023A38100F0DCF98F
:205DE000304670BD00F016F9CCE728462169FBF7D8FBDDE7024B01461868FFF7BBBF00BF8A
:205E0000080500108B892DE9F0419AB20D46110780463CD46A6843F40063002AAB8159DD85
:205E2000AC6A002C4BD09BB203F48052002192B2D8F80060C8F80010002A4FD02A6D5F0744
:205E400005D569682B6B521A0BB1EB6BD21A4046E9690023A047441C4AD0AB892A6923F45D
:205E600000639BB200212A60DA04AB8169604CD4296BC8F8006011B305F14003994202D076
:205E80004046FBF78EFB00202863BDE8F0812E69AEB191072C680CBF6B6900232E60A41B0F
:205EA000AB600AE0324623466F6A4046E969B8470028C0EB0404064404DD002CF2DC00203C
:205EC000BDE8F081AB894FF0FF3043F04003AB81BDE8F081EA6B002AA2DCF0E701234046D4
:205EE000E969A047431C02461ED0AB89AC6AA6E7D8F800305BB9AA89296922F4006292B268
:205F00006B60D304AA812960B2D52865B0E71D2B01D0162B13D1A9892B6921F400610022E4
:205F2000A9812B606A60A3E7D8F80030002BDCD01D2B01D0162BC5D1C8F80060BFE7AB8997
:205F400043F04003AB81BDE8F08100BF10B5044682B008B1836B53B1B1F90C0008B902B0B5
:205F600010BD204602B0BDE81040FFF74BBF019100F050F80199EFE720B1054B0146186825
:205F8000FFF7E4BF034B0449186800F0E1BD00BF08050010A41501004D5F000038B50D4B38
:205FA00004461D680DB1AB6B4BB16368013B002B636008DB23685A1C2260187838BD2846F4
:205FC00000F028F8F1E728462146BDE8384001F061BD00BF08050010014900F095BD00BFB1
:205FE000F55D000070B54B1E682505FB03F50E4605F17401FBF7D1FA044640B100210C3028
:20600000666005F168022160A06001F031FA204670BD00BF2DE9F04F846B83B00746002C7B
:2060200065D17D6833480423032107F53B72F863C7F8E412C7F8E822C7F8E04205F15C00CA
:20604000AB812C606C60AC606C66EC812C616C61AC612146082201F00BFADFF89CB0BE683A
:20606000DFF898A0DFF89890DFF8988001230922ED61C5F820B0C5F824A0C5F82890C5F846
:206080002C802146F381B28134607460B460746634617461B461082206F15C00019301F06F
:2060A000E7F9FD6812200222F661C6F820B0C6F824A0C6F82890C6F82C802146A881EA8103
:2060C0002C606C60AC606C662C616C61AC6105F15C00082201F0CCF9019BED61C5F820B07A
:2060E000C5F824A0C5F82890C5F82C80BB6303B0BDE8F08FD95F0000397D0000617D000080
:20610000997D0000B97D0000214B70B51D680646AB6B002B2CD005F538756B68AC68013BCA
:2061200005D521E0013B5A1C04F168041CD0B4F90C20002AF6D1002501234FF6FF72E28159
:20614000A38165662560A560656025616561A561294604F15C00082201F08AF92563656301
:206160006564A564204670BD2B682BB11D46D4E72846FFF74FFFCEE730460421FFF732FF04
:20618000286008B10546C8E70C23336070BD00BFA4150100704700BF704700BFF0B583B098
:2061A0000F46114601AA064606F056FF0546E8B13046FFF7A9FF0446C0B139463046019AAE
:2061C0004FF4DB7301F09EF900281BDB114B124F1249134AE362EB05E081A581E461276289
:2061E0006162A26205D4204603B0F0BD002003B0F0BD304621460022022300F077F92046CF
:2062000003B0F0BD0025FFF7C5FFA581FFF7C4FF2846E9E7B97D0000397D0000617D000058
:20622000997D0000024B0A4601461868FFF7B6BF08050010084B70B51C6806460D4624B1EC
:20624000A36B13B92046FFF7E5FE204631462A46BDE8704001F07EB90805001030B505460E
:2062600087B008461446019102F0A0F801AA012305900290039204930DB1AB6B83B1A389CD
:206280009A0406D4626E43F4005322F40052A38162662846214603AA00F0AAFA07B030BD1E
:2062A0002846FFF7B7FEEAE7024B0A4601461868FFF7D4BF08050010F8B5234D0F4604462E
:2062C000FBF7C8FBAB685E6826F00306F11B01F6EF7121F47F6121F00F01A1F58057B7F57F
:2062E000805F07DB2046002101F0EEFBAB683344984204D02046FBF7B1FB0020F8BD204605
:20630000794201F0E1FB01300DD0104BAA681968F61B46F001062046C91B56601960FBF740
:206320009DFB0120F8BD2046002101F0CDFBAB68C21A0F2ADEDD064D04492D6842F0010262
:20634000401B5A600860D5E70C05001024190010180900102DE9F0410D460646002955D031
:20636000FBF778FB55F8041CDFF870C1A5F1080421F00103E218DCF808005768904227F00E
:20638000030768D011F00101576032D00021D0194068C00706D43B44906800294DD0D268B5
:2063A000C260906043F001026260E350E1B9B3F5007F2DD35A0A042A69D8980938304100C2
:2063C0000CEB810CDCF808204449624565D0516821F003018B4202D292689445F7D1D3688F
:2063E000E360A2609C60D4603046BDE8F041FBF735BB55F8085C0CF10808641BA0682B4446
:20640000404542D0E568C560A860C0E7BDE8F081DB089A1001209040DCF804100CEBC3038B
:206420009A680143A260E360CCF8041030469C60D460BDE8F041FBF711BB294DA842AED1E0
:2064400043F00102CCF81440CCF81040E060A0606260E350C8E71F44CB0707D455F8081C75
:20646000641AE368A2680F44D3609A601D4B47F001021B6862609F42CCF80840B4D31A4B09
:2064800030461968FFF718FFAEE701217FE7142A0BD802F15B00410092E780100125854037
:2064A00048681346284348609AE7542A03D8180B6E30410084E7B2F5AA7F03D8D80B773044
:2064C00041007DE740F254518A4203D8980C7C30410075E7FC217E2072E700BF0C050010B8
:2064E00014050010140900102019001000F000B82DE9F04F0C4691B091461E46054610B126
:20650000836B002B72D0A38903F48473B3F5847F74D0A76A002F00F05081012E4AD0022E9D
:2065200008D03EB116232B604FF0FF38404611B0BDE8F08F4FF0000A2369D046002B00F0E9
:206540002681A08940F61A0381B20B4043B949055FD49C4B9F4200F0078140F40060A08128
:2065600028462146FFF7F2FC80460028DCD14A4633462846E169B8470130D5D0216B41B1B3
:2065800004F14003994202D02846FBF70AF800232363A2892369002122F40262A281236013
:2065A000616004F15C00082200F062FF404611B0BDE8F08F28462146FFF7C8FCA38903F431
:2065C000805292B2002A00F0C480D4F850805E0760D4180740F1BB80226823690AB1D21ACA
:2065E0009044C1444FF0010A0026A7E7FFF712FDA38903F48473B3F5847F8AD128462146CA
:20660000FFF7A4FC85E7A2894FF480631A43A281E364002E49D1CB46BAF1000F54D1A389FC
:20662000DA0440F1B980206D6268216BC2EB0008002900F0BA80D4F83CE0CEEB0808A36B68
:20664000206990441B1AC3EB08087344C34542DB08EB030293453ED2C8EB0B084044C8EB31
:20666000030384E8090041B104F14003994202D02846FAF796FF00232363A38904F15C00AE
:2066800023F02003A3810021082200F0F1FE4FF000084BE76268236BC2EB0808002B56D097
:2066A000E26B2369C2EB08089BE72846B4F90E1001AA00F089F800287FF452AF059B09EB3D
:2066C000030BBAF1000FAAD0216B626800296CD0D4F83CE0B3E7E36C28465B420BEA0308E1
:2066E0004246E1690023B84701303FF439AF2369216B00222360626041B104F140039942D6
:2067000002D02846FAF74DFF00232363A389BBEB080B23F02003A38110D02846214601F06E
:206720002FF900287FF41CAF63689B453FF618AF2268CBEB03035A4484E80C0004F15C0077
:206740000021082200F094FE4FF00008EEE6236947E733462846E169B847B0F1FF3F8046C2
:206760003FF4E2AEA38932E7B4F90E100029FFF6F4AE284601AA00F027F830B9029B03F4E1
:206780007043B3F5004F3FF43EAFA089E5E62846214600F02BFAD4E6012352462846E16923
:2067A000B847431C7FF440AFDAE62368206900211B1AC3EB0808134448E71D232B604FF0A1
:2067C000FF38B3E6997D000038B5084C00230546084611462360FBF7CBF8431C00D038BD23
:2067E0002368002BFBD02B6038BD00BF541900102DE9F04F936883B0164681460C462BB386
:206800008B89190726D5226922B303F0020292B23568002A2CD04FF0000ADFF8E8B2D0461B
:20682000D84534BF43465B4652464846B8F1000F4FD0E169676AB847002856DDB3688244CB
:206840001B1AC0EB0808B360002BE9D1002003B0BDE8F08F4846214605F0D4FB002840F048
:206860004881A389356803F0020292B2002AD2D113F0010A42D1D046B8F1000F23D09A05FD
:20688000A76876D5B845C0F0A48013F4906F40F0B2802068BB4651465A4600F083FDA2682B
:2068A0002168D21B01EB0B03A26023604246B36892449B1AC2EB0808B360002BC6D0A389F8
:2068C000B8F1000FDBD1D5F800A0D5F804800835D2E7D5F800A0D5F804800835A0E7484690
:2068E0002146FFF733FB002859D0A38943F040034FF0FF30A38103B0BDE8F08F9246019246
:2069000093469046B8F1000F2BD0019F002F64D020682169C24534BF5346434688421F46B5
