:020000040000FA
:20000000E07F0010791C0000A91C0000AB1C0000AD1C0000AF1C0000B11C000000000000EF
:20002000000000000000000000000000B31C0000B51C000000000000B71C0000B91C000078
:20004000BB1C0000BB1C0000BB1C0000BB1C0000BB1C0000BB1C0000BB1C0000BB1C0000E8
:20006000BB1C0000BB1C0000BB1C0000BB1C0000BB1C0000BB1C0000BB1C0000BB1C0000C8
:20008000BB1C0000BB1C0000BB1C0000BB1C0000BB1C0000BB1C0000BB1C0000BB1C0000A8
:2000A000BB1C0000BB1C0000BB1C0000BB1C0000BB1C0000BB1C0000BB1C0000BB1C000088
:2000C000BB1C0000BB1C0000BB1C000000000000000000000000000000000000000000009B
:2000E000000000000000000000000000000000000000000000000000000000000000000000
:200100000000000000000000000000000000000000000000000000000000000000000000DF
:200120000000000000000000000000000000000000000000000000000000000000000000BF
:2001400000000000000000000000000000000000000000000000000000000000000000009F
:2001600000000000000000000000000000000000000000000000000000000000000000007F
:2001800000000000000000000000000000000000000000000000000000000000000000005F
:2001A00000000000000000000000000000000000000000000000000000000000000000003F
:2001C00000000000000000000000000000000000000000000000000000000000000000001F
:2001E0000000000000000000000000000000000000000000000000000000000000000000FF
:200200000000000000000000000000000000000000000000000000000000000000000000DE
:200220000000000000000000000000000000000000000000000000000000000000000000BE
:2002400000000000000000000000000000000000000000000000000000000000000000009E
:2002600000000000000000000000000000000000000000000000000000000000000000007E
:2002800000000000000000000000000000000000000000000000000000000000000000005E
:2002A00000000000000000000000000000000000000000000000000000000000000000003E
:2002C00000000000000000000000000000000000000000000000000000000000000000001E
:2002E00000000000000000000000000000000000000000000000000000000000FFFFFFFF02
:2003000010B5054C237833B9044B13B10448AFF300800123237010BDD00A00100000000051
:20032000E83801000C4B43B10C4810B50C49AFF300800C48036823B910BD0A48036833B9B0
:200340007047094B002BF7D0BDE810401847064B002BF5D0184700BF00000000E8380100CC
:20036000D40A0010D00A001000000000154B002B08BF134B9D46A3F5803A00218B460F4679
:200380001348144A121A08F0E5F90F4B002B00D098470E4B002B00D09847002000210400F6
:2003A0000D000D48002802D00C4801F06CFA07F0E5FC2000290001F0A9FB01F061FA00BF75
:2003C00000000800E07F001000000000FD1A0000D00A00107D130010871800000000000066
:2003E0000368184708B10B68036070477047C36810B504460BB19B689847204610BD884261
:2004000038B504460D460AD0FFF7F1FF3CB1EB681BB15B68294620469847EB68E360204613
:2004200038BD03680BB9031D0360006870477047024B1A680AB91A1D1A607047F40A001037
:2004400010B5044601F058FA204610BD074B10B50360002304464360054B0430436001F075
:2004600019FE044B20461C6010BD00BFE8220100A0860100FC0A001070B505460E4655F84F
:20048000043B04461B6898473146284601F061FE0546236820465B689847284670BD70B59E
:2004A00004460E4654F8043B05461B68984756B10021204601F03CFE04462B6828465B689F
:2004C0009847204670BD0121F3E770B50546044655F8043B1B689847284601F0A7FD236878
:2004E0002046BDE870405B68184770B50546044655F8043B1B689847284601F0ADFD2368E3
:200500002046BDE870405B6818470000F8B50646044600250F46124B182246F8043B00210C
:20052000304608F017F92946E56125626562102204F1280008F00EF92946102204F138001E
:2005400008F008F92346074A394604F11C0001F0BBFC3046394600F0EFFA2046F8BD00BF08
:20056000002301001106000038B504460D4600F051FF2946201D01F014FCBDE8384000F0BC
:200580005FBF000010B50446074B40F81C3B01F0D5FC04F13800FFF72AFF04F12800FFF72C
:2005A00026FF204610BD00BF0023010010B50446FFF7E8FF204601F09FF9204610BDF0B54D
:2005C0000F46044685B000F025FFFD6804F138061C3465B139463046FFF711FF01220221F4
:2005E000204601F0B3FC00F02BFF05B0F0BD10222946684608F0AEF869463046FFF7FFFE74
:200600006846FFF7F4FE2A46E9E7C3681B681847012908B502D0022906D008BD436B13B106
:200620002830FFF7F2FF08BD436C002BFBD03830F7E703681B69184703689B691847036844
:200640009B6A18474FF0FF3070471120704770477047A0F13000FFF7FBBFA0F13000FFF793
:20066000F7BF00F095B8A0F13000FFF7FABF00F092B8A0F13000FFF7FABF000010B504465E
:20068000084B303003F1080240F8302C03F1280284330260436000F023FE204600F006F9D5
:2006A000204610BD14230100A0F13000E6E7A0F13400E3E710B50446FFF7E0FF204601F077
:2006C0001BF9204610BDA0F13000F3E7A0F13400F0E7000038B504461D46049B00F062F819
:2006E000294604F1300000F0D3FD054B204603F10802226003F1280284332263636338BD5B
:20070000142301007047704700EB01139A690C3312B1126818461047704770B505460E4685
:20072000044655F8043B1B6898472846314601F09BFE2368E6622046BDE870405B68184762
:200740002DE9F04105460E4617469846044655F8043B1B689847434628463A46314601F061
:200760006FFF23682046BDE8F0415B68184738B5054655F8043B04461B689847284601F053
:20078000ADFF0546236820465B689847284638BD043001F089BF10B50C46043001F0CAFFFA
:2007A000204610BD2DE9FF47044600259A46884691461F4B00F10C070360456085602946EC
:2007C00004F11C061022384607F0C4FF29461022304607F0BFFF10222946C4F82CA06846F5
:2007E00007F0B8FF69463846FFF709FE6846FFF7FEFD10222946684607F0ACFF694630466C
:20080000FFF7FDFD251D6846FFF7F1FD4A464146284602F02BF8E16A284601F025FE28463F
:200820002246044901F026FF204604B0BDE8F087A8230100090700002DE9FF41064688466B
:200840001746054656F8043B3C011B68984700F0E1FDD8F80C300C342C44ABB1E3680BB9CF
:2008600000F0CAF941462046FFF7C9FD01223946304601F00BFF00F0E3FD2B6828465B6875
:20088000984704B0BDE8F081E3680BB100F0CEF910220021684607F05DFF69462046FFF792
:2008A000AEFD6846FFF7A3FD0022E0E77FB50446154B102203600021684607F04BFF0022BB
:2008C00069462046FFF7B8FF6846FFF790FD10220021684607F03EFF012269462046FFF7C2
:2008E000ABFF6846FFF783FD14F10C0608D004F12C05B54204D0103D2846FFF778FDF8E745
:20090000204604B070BD00BFA823010010B50446FFF7CCFF204600F0EFFF204610BD70B599
:20092000D0E90823D0E90245064612196B4100F0B9F8736B2BB106F128001B68BDE870405E
:20094000184770BDD0B5044616461F4600F062FD204600F0B1F8C4E90867A06900F03BFBE2
:20096000321847EB0103204600F09CF8BDE8D04000F066BD7FB5044600F04CFD204600F038
:200980009BF8636B13B194F83830E3B96D4604F1280610220021684607F0DCFEAE420BD02F
:2009A0003046FFF724FD3EB1039B1BB15B68694630469847039B63632846FFF718FD00F0BD
:2009C0003FFD04B070BD00F031F9DFE738B505460446064B45F8283BFFF7CCFF2846FFF782
:2009E00006FD204600F06EF8204638BDC023010010B50446FFF7EAFF204600F07DFF2046D3
:200A000010BD10B5044600F005FD23681BB1237F0BB100F00BF90023236000F011FD204655
:200A200010BD10B5044600F0F5FCA06900F0D3FA00220023C4E90201C4E90423BDE8104075
:200A400000F0FEBC002310B5002203600023C0E90223C0E90423044600F0D0FA0123A06195
:200A600023772046FFF7DDFF204610BD03689B6818470000094B10B5002203600023C0E93A
:200A80000223002303614361044600F0B7FA0449A06100F02DFA204610BD00BFD4230100CC
:200AA0006D0A000007B5009000F10801806900F04DFA03B05DF804FB00F10801806900F07F
:200AC0006FBA000010B50446024B0360FFF7F4FF204610BDD4230100036801221B690021E7
:200AE00018470022036811461B69184770B50E460446154601F03EF9013609D020460021F3
:200B000001F052F929462046BDE8704001F049B970BD38B504460D4643685AB1C26820467F
:200B20001360012101F040F929462046BDE8384001F037B90269F2E70322FFF7D7BF70B509
:200B40000E460446154601F015F9013606D02A462046BDE870400221FFF7DBBF70BD002263
:200B6000FFF7EDBF10B5044601300DD110BD9C4209D12046896801F004FB2046BDE810408E
:200B8000022101F017BB0C310B685A1CEFD10248BDE8104000F082BC11240100884208B55F
:200BA00008D0431C06D0013106D0044800F076FC4FF0FF31084608BD0146FBE7E0230100C3
:200BC0000B685A1C01D118467047834201D1486870470C31F4E70000421C10B5044607D0EB
:200BE000FFF7EEFF431C044602D1024800F056FC204610BDF123010008B500F00BFC094BBA
:200C00001A884FF6FF739A4204D100F019FC064800F044FC0121034800F026FCBDE80840DB
:200C200000F00EBC000B00102224010008B500F0F1FB084B1B8823B900F002FC064800F001
:200C40002DFC0121034800F01CFCBDE8084000F0F7BB00BF000B00104F2401002DE9F347C9
:200C600090E8080404465B68984763681B6A984235D0DAF82040DAF80C30041B1C40DAF848
:200C800008202F4B26469A424FF00007CAF820001FD0DAE90A01B2F5004FA4FB0345CDE9F2
:200CA000000127D1DDE9002347F6FF700021E60B0440121946EA45464FEAD53705EA010530
:200CC0006B41994208BF904214461D460AD3CAE90A45DAE90C23B6185F41CAE90C6702B020
:200CE000BDE8F087013647F10007B2F5004443F1FF35ECE74FF0000920464B4629469046B8
:200D000004F07AFF424606460F464B462046294604F072FFDDE9000180185941494508BF24
:200D2000404502460B4602D2CAE90A23D1E7013647F10007B0EB080261EB0903F4E700BF1C
:200D400040420F00824206D98A420BD9884294BF002001207047884206D98A428CBF0020BA
:200D60000120704701207047002070472DE9F0478046D0F80490FFF771FFD8F80450D8F823
:200D800000A0696800294AD0D5E90C23D1E90067BB4208BFB24204D3DAF81430BDE8F04710
:200DA0001847B61A67EB0307D5E90623BB4208BFB2422C6906D3AB68204A934219D1B44269
:200DC00028BF34462A6ADAF810301444EA68144020469847D8F800305B6898472246014678
:200DE000D9F82000FFF7AEFF30B3D8F800305B69D4E7B3F5004F0BD10023F9030F4AF003BF
:200E000041EA564104F0F8FE844228BF0446D9E7A3FB0601094A03FB07110023F2E7D9F894
:200E20001030D9F82000D9F80C2018441040DAF81030BDE8F0471847BDE8F08740420F00DE
:200E40002DE9F74F04460368284E1B68984723684FF0070B9B6998474568D0F800A02B1F8B
:200E6000BAF1000F08BFB2461D2B28BF20252B1F0BFA03FB00231AF1FF3043F1FF315246DF
:200E8000C6FB0B0104F0B8FE0023D4F804800F46C8F80030C8F80430236806465B689847B6
:200EA0004FF00009C8F820004FF0000863682A46C3E90A89C3F808A001200021019304F01C
:200EC0002DF90122019B0138D860C3F810B02046C3E90667C3E90C8983F83820FFF7BEFEFC
:200EE000204603B0BDE8F04FFFF740BF40420F0038B54368044693F838300D460BB9FFF78D
:200F00009FFF63681D6038BD036870B5DB680446984763685B68A3B12046FFF79FFE656852
:200F20006E68D5E90C01D6E90023994208BF904207D3F3686B602B68002BEAD0B06898474B
:200F4000E7E72046BDE87040FFF710BF2DE9F84305460C4616461F46DDF8208000F05AFADB
:200F60002846FFF77BFE00226968C4E900674B68C4F808804BB9E36082B94C602846FFF704
:200F8000F5FEBDE8F84300F05BBAD3E900894F4508BF4645EFD31A46DB68EBE7D460EDE70F
:200FA00038B505460C4600F035FA6A685368A34209D1DB6828465360FFF7D8FEBDE83840EF
:200FC00000F03EBA1346002BF8D0DA689442F9D1E268DA60F2E7436810B593F838300446F1
:200FE0000BB9FFF72DFF2046FFF738FE6368D3E90C0110BD08B5FFF7EEFF08BD00487047B4
:2010000078240100024B1B680BB1024818477047CC0000107824010038B5CB6804460D4611
:201020000BB15B689847EB682046E36038BD007B7047000038B50B4B0446036000230D46C9
:201040004360A16002730848FFF7EBF945B1074B1A681C6062600448FFF7E3F9204638BDCC
:201060006560F8E7A42401004C0B0010480B001010B504460E4B03600E48FFF7D2F9A3684C
:201080002BB10D4A13689C420CD1636813600948FFF7C7F9237B13B9201F00F033FC204674
:2010A00010BD13465A689442FBD162685A60EEE7A42401004C0B0010480B001010B50446AB
:2010C000FFF7D6FF204600F017FC204610BD000070B506460C480D46FFF7A3F90B4B1C6825
:2010E0005CB1A06870B12A46314608F07BFA48B9A06808F049FA854204D10348FFF791F9BB
:20110000204670BD6468EBE74C0B0010480B00100020704700207047036870B51B690122EF
:20112000002104469847051E0DDB236802221B690021204698470646236829461B690022D5
:20114000204698473546284670BD00F0A1BB002310B5036043600A7804462F2A0DD14A7835
:201160005AB1481C1946206023681A782F2A06D101332360FFF7ACFF6060204610BD002A5F
:20118000F8D0013301312360EEE700687047406808B520B1FFF74BFF431E5842584108BDDB
:2011A00010B50446FFF7F3FF10B1606800B1043810BD406808B520B1FFF739FFB0FA80F077
:2011C000400908BD10B50446FFF7F3FF10B1606800B1043810BD4068003018BF0120704740
:2011E00070477047F8B50E4603680446DB6C8F1835469847BD4207D0236815F8011B5B6C32
:20120000204698470130F5D1236820461B6D9847A81BF8BDF8B50E4603680446DB6C8F181E
:2012200035469847BD4208D0236820469B6C9847431C02D005F8010BF4E7236820461B6D18
:201240009847A81BF8BD002070477047002070470020704710B50446044B03604C3340F883
:20126000043FFFF705FF204610BD00BF00250100A0F10400EEE700BF10B50446FFF7EAFF02
:20128000204600F039FB204610BDA0F10400F3E710B504460E4B002240F8043BFFF7CAFE63
:2012A0000C4B0D4923605C336360002320466361FFF74BFF606118B100F0E7FA204610BD91
:2012C00005F0E4FD0168054800F0E8F8F6E700BFB4240100802501005425010057250100A0
:2012E00010B50446064B03F10802643302604360406905F033FE2046FFF7ACFF204610BDEB
:201300007825010038B504460D460368DB6C9847606905F0F1FE6169284606F081F8054675
:20132000236820461B6D9847284638BD0EB477B50446036807AD55F8046BDB6C98476069F0
:20134000019505F0D9FE019A314660690BF052FF0546236820461B6D9847284603B0BDE89B
:20136000704003B070470EB477B50446036807AD55F8046BDB6C98476069019505F0BCFE0C
:20138000019A314660690CF0C9FE0546236820461B6D9847284603B0BDE8704003B070472C
:2013A00006F0D2BD07F03ABA06F092B805F03EBD10B586B000F02EF812496846FFF7CFFBB3
:2013C0000424019A039B96201A6000F0D5FB019A049B96201A6000F0CFFB013CF1D1042471
:2013E000019A039B4FF4C8701A6000F0C5FB019A049B4FF4C8701A6000F0BEFB013CEFD13A
:20140000DEE700BF32C00920EFF31080C04300F00100704708B5FFF7F7FF72B6064B1A686C
:2014200022B980F00100054AC0B210701A681A6801321A6008BD00BF580B0010540B001008
:2014400008B5074B1A6852B1FFF7DEFF1A68013A1A601B681BB9034B1B7803B962B608BD1D
:20146000580B0010540B001038B505460C46FFF7D1FF29880C44A4B22C80FFF7E1FF2046FB
:2014800038BD70B505460E46FFF7C4FF2C88A41BA4B22C80FFF7D4FF204670BD0FB408B589
:2014A000054B1A781AB90120187000F0E9F9BDE8084004B0704700BF5C0B001000F038BB8B
:2014C000426970B5A2F14604442C28D84FF461658668416875433C2606FB01510368114D19
:2014E0001944C36812F0030F03F1FF3305FB03130CBF0C2100210069462A01440A4850F843
:201500002100184408D040F26D13013A9210113A03FB042205FB020040EAE07070BD4FF090
:20152000FF3070BD80510100E42501000028F0B55CDB3C2390FBF3F403FB14020A6094FB91
:20154000F3F203FB12434B604FF46163182490FBF3F393FBF4F204FB12338B60244B90FB57
:20156000F3F00723021D92FBF3F3C3EBC303D31A8B6146234B614B6913F0030607D1B0F52D
:20158000B77F0DDB01334B61A0F5B770F3E7B0F5B67F05DD01334B616FF4B6731844EAE762
:2015A000134BC86158430B23124C0B610C2700232546B6FA86F2520907FB023E54F82EE031
:2015C00086450FD9013B0B610C240B6904FB023255F82230C01A064B90FBF3F00130C86048
:2015E0000120F0BD01330C2BE3D1EDE70020F0BD80510100E425010008B5084B1B685BB9DA
:2016000007490848084A01F031F9BDE808404FF41651044800F028BF08BD00BF400D001022
:2016200002C009205013001003C00920022810B501DC002010BD00210B4AC31E52F82300E3
:2016400042F8231030B905F021FC092303604FF0FF3010BD03685B699847041EE9DA05F070
:2016600015FC64420460F2E7600B00100228F8B50D4614460EDC134B1B680BB9FFF7BCFF37
:20168000114E2F19BD4210D015F8011B304601F051F8F7E70D4B033853F8200038B905F029
:2016A000F5FB09234FF0FF3403602046F8BD0368DB689847041EF8DA05F0E8FB63420360BD
:2016C000F3E700BF400D001050130010600B0010022810B50C460BDC104B1B680BB9FFF766
:2016E0008BFF0F4800F0E0FF20700124204610BD0C4B033853F8200030B905F0C7FB092389
:201700004FF0FF340360F1E703689B689847041EECDA05F0BBFB63420360E7E7400D001009
:2017200050130010600B0010022810B516DD0C4B033853F820402CB905F0A8FB0923036090
:20174000204610BD23682046DB699847041EF7DA05F09CFB644204600024F1E70124EFE7C2
:20176000600B0010022810B506DC05F08FFB1D2303604FF0FF3010BD0A4B033853F82000C5
:2017800018B905F083FB0923F2E703681B699847041E04DA05F07AFB64420460E9E7204688
:2017A00010BD00BF600B0010022838B50D4604DC4FF400534B60002038BD0E4B033853F8A3
:2017C000204034B905F062FB092303604FF0FF3038BD23682046DB699847002814BF4FF426
:2017E00000534FF400436B60236820469B6A98472861E0E7600B00100148FFF74FBE00BF9A
:201800004426010008B5012000F03AF80C4A10B513681844EFF30881884205D30C22094BDC
:201820004FF0FF301A6010BD07490C6824B10749096821448842F1D21060184610BD00BF4D
:20184000D000001058130010680C00106C0C0010094C08B523680546986805F04DFC236870
:20186000D86805F049FCFFF729FE08B100F055F90DB1FFF79DFDFEE7FC00001001207047C3
:2018800008B5FFF7E5FF01207047002107F024BA1FB504220C463A230DEB020101900DF1B0
:2018A00009008DF8083006F07BFE214602A805F06BFD044638B101980368DB69984710B16A
:2018C0002046FFF7E2FF204604B010BD7047704708B5FFF7FBFF08BD08B5FFF7F8FF08BD95
:2018E00010B506F021FB044610B90248FFF7D6FD204610BD5826010006F01EBB004870476B
:201900005026010010B504460948FEF78AFD00231946084A52F82300A04208BF42F823101D
:201920000133402BF6D10248FEF77BFD10BD00BF600C0010600B00102DE9FF478946404953
:20194000064607F051FB044628B9FFF755FE204604B0BDE8F0873B49304607F045FB18B94C
:20196000FFF74AFE0124F2E73749304607F03CFB18B9FFF741FE0224E9E7344D3448FEF719
:2019800050FD0024A84655F82470002F40D00134402CF8D105F07AFA182303602C48FEF7EE
:2019A00040FD0EE0314602A8FFF7D1FB02A8FFF712FC064640B905F069FA1323036045F8F8
:2019C00024604FF0FF34C2E702A8FFF7F2FB074602A81FB1FFF7F6FB01902BE0FFF7E0FBC0
:2019E00006460028E7D0036802A8D3F808A0FFF7CCFB29F40043024601A93046D04706464C
:201A0000C0B105F043FA7642066045F82470D8E74FF0FF330E4845F82430FEF702FD33787E
:201A200001973A2BBED10422711C02A806F0B8FD029B0193019B48F82430033487E700BF4D
:201A40007D2601008426010075260100600B0010600C001010B504460748FEF7E2FC074B21
:201A60001B6803B19847064B1B680BB1204698470148FEF7D6FC10BD700C0010DC00001026
:201A8000D400001038B505460C48FEF7CAFC0C4B1B681BB1984708B9FFF7DCFF094B1B682D
:201AA00043B19847044605B12C600448FEF7B9FC204638BD4FF0FF34F5E700BF700C0010DD
:201AC000D8000010E00000107047704770470000074B10B59A6807490748043A52F8044F76
:201AE00041F8044F8142F9D14FF080529A6010BD00ED00E0FCFFFF0FC000001008B5FFF79C
:201B0000E7FFFFF7E2FFFFF7E1FF08BD08B5FFF7DBFFBDE8084001F00DBD30B585B06D466B
:201B2000182420462946ABBE0446204605B030BD024B186800F00100704700BFF0ED00E0E8
:201B400070B50446FFF75AFA0646FFF753FA05463046FFF74FFA401BA042F9D370BD000007
:201B600008B5044903F05CFE04F020F8BDE80840FFF7E6BF002474494FF47A735843FFF7D8
:201B8000DFBF00000C4B00781A6822F0FF021A600122196882400A431A601A6842F08072F6
:201BA0001A6058680028FCDA1A68C0F30B1022F080721A60704700BF0040034070B50646B5
:201BC000FFF7E0FF04463046FFF7DCFF05463046FFF7D8FFAC4282BF23462C461D46A842BA
:201BE00028BF2846A04238BF204670BD70B50C46164D064629462046FEF7EEFF144B307048
:201C0000D3F8C420294642F48052C3F8C420D3F8A8212046BDE8704022F04072C3F8A82168
:201C2000D3F8A82142F08072C3F8A821094B1A68094B1344094A93FBF2F3013B1B02084A76
:201C400043F400131360FEF78DBF00BF8C26010000C00F40E40000103F5DC600405DC6004C
:201C60000040034008B5FFF7A9FFC0F3032343EA001080B208BD00000649074A074B9A42AB
:201C8000BEBF51F8040B42F8040BF8E704488047044800474C3C0100C8000010D00A001056
:201CA000BD1C00006D030000FEE7FEE7FEE7FEE7FEE7FEE7FEE7FEE7FEE7FEE72022264B36
:201CC000C3F8A021D3F8A021920603D5D3F8A0215006FBD50222C3F8042100220120C3F8D8
:201CE000A821C3F8AC210B22C3F80C01AA21C3F884205522C3F88C10C3F88C20C3F8800004
:201D0000C3F88C10C3F88C20134B1A46D3F888104901FBD50321C3F88010AA21C3F88C1039
:201D20005521C3F88C10D2F8883013F0407FFAD00523C2F80831094BC2F8C4300023C2F8CE
:201D4000C831136823F4704323F03A0343F4405343F03A031360704700C00F40DE872804F1
:201D600010B50021044600F00CFA012004F01F04A04010BD38B505464B1C0C4629600FD0FF
:201D80000846FFF7EDFF24F01F0404F11803EB6004F11C032B6104F1140368606B61AC6035
:201DA00038BD006800F006BA11B1012907D0704782684168136823EA010313607047826869
:201DC000416813680B43F8E72DE9F74F4FF0010A3A4C3B4AD4F80490DFF8E8B0D4F80880DE
:201DE000676AA66AB9F1000F15D1DFF8D490DFF8D4A0B8F1000F22D14FF0010ADFF8C080D1
:201E0000DFF8C09077BB2E4FDFF8B880002E3ED103B0BDE8F08FB9FA89F5C5F11F05EDB21F
:201E200052F8250028B10121DBF8003001929847019A0AFA05F5E560A9EB0509D2E7B8FAD8
:201E400088F5C5F11F05EDB259F8250018B10221DAF800309847012303FA05F5E560A8EB56
:201E60000508C6E7B7FA87F5C5F11F05EDB20F2D08D805F1200358F8230018B10121D9F89E
:201E8000003098470AFA05F5E5627F1BBAE7B6FA86F5C5F11F05EDB20F2D08D805F12003DA
:201EA00057F8230018B10221D8F800309847012303FA05F5E562761BA8E700BF8080024062
:201EC000780C0010380D001070B51E464B1C044623D0134B134D1A6021F01F03036001F02D
:201EE0001F0321F05F01A942436002D00E48FFF7D5FA23686268AB420C4918BF20320C4BBD
:201F0000A26041F822609B680A4A0020C3F894204FF40012084B1A6070BD084670BD00BF95
:201F2000380D001000C00920F8260100780C001000ED00E0C91D000000E100E00021826831
:201F4000014B43F822107047780C001030B503682C4DAB4209D02C4CA34217D0012930D17F
:201F6000AB420AD0A34219D030BD01234468012903FA04F3254CE36030D101234068234904
:201F8000AAB10A69834013430B6130BD01234468012903FA04F31D4CE36216D101234068B2
:201FA0001A494AB10A6B834013430B6330BD0A69834022EA0303E7E70A6B834022EA03037A
:201FC000F3E7AB420AD0A342CED1012340680F4992B14A6B834013434B63C5E70123406881
:201FE0000A4922B14A69834013434B6130BD4A69834022EA0303F8E74A6B834022EA030365
:20200000EAE700BF00C0092040C00920808002400168054B0A68120701D500207047013BAF
:20202000F8D14FF0FF307047A18601003421036810B51A689961120748BF08224FF02401DB
:202040000446196048BF9A61FFF7E2FF2022236858689A6110BD0000102203681A6008224E
:202060009A61054A186810F0100000D17047013AF8D10120704700BFA1860100044B4900A3
:202080001B689B08B3FBF1F10368596119617047E4000010F8B50E460446204930461546BB
:2020A000FEF79AFD1E4907462846FEF795FD01463846FEF773FD1B4B2060984221D003F518
:2020C0008823984223D0A3F50423984206D1164AD2F8C43043F08003C2F8C43020461349D4
:2020E000FFF7CCFF3C22236830469A6140220B491A60FEF737FD2846BDE8F8400849FEF7DB
:2021000031BD094AD2F8C43043F40023E4E7064AD2F8C43043F08063DEE700BF6427010067
:202120002827010000C0054000C00F40A086010010B503680446042249B19A6108222046EF
:202140009A61FFF765FF23689868C0B210BD1A60F4E7082210B504460368C9B299609A61F8
:20216000FFF756FF23685B68282B08D003D8182B05D0002010BD402B01D0B82BF8E701209C
:2021800010BD10B5032400F16040A0F51C2043000009800000F1804000F53030026803F0F5
:2021A0001E039C4022EA04020260026899401143016010BD00F16040A0F51C2043099B00A0
:2021C00003F1804303F5303330B500F01F029C6EC1F3800505FA02F224EA02049C669C6EA1
:2021E00022439A6695B9032443000009800000F1804000F53030026C03F01E039C4022EAC9
:2022000004020264026C99401143016430BD0000074AD2F8C43043F40073C2F8C4300022DC
:20222000044B1A721A7A42F001021A72704700BF00C00F4000400240024B187A00F0010097
:20224000704700BF0040024000B50E4B8BB093F8202001A8019293F82420029293F8282000
:20226000039293F82C20049293F838209B8F013A9BB2A3F26C7305920693FFF721F90BB058
:202280005DF804FB0040024000B58BB001A9FFF74DF910B3124B1A7A42F002021A729DF887
:2022A000042083F820209DF8082083F824209DF80C2083F828209DF8102083F82C20059A14
:2022C0000132D2B283F83820069A02F26C7292B29A871A7A02F0FD021A720BB05DF804FB7D
:2022E00000400240012810B408D0022808D010BC7047506820F00100506010E003460EE072
:2023000038230F4803FB01035868013006D018699C68046093F83630002BEAD00023382206
:2023200051430748421840580028E0D01BB992F83620002ADBD0034A1946126810BC10471E
:20234000440D00103C0D0010034A00219068C0F34200FFF7C7BF00BF00C00040034A0121BE
:202360009068C0F34200FFF7BDBF00BF00000140034A02219068C0F34200FFF7B3BF00BF7A
:2023800000800940034A03219068C0F34200FFF7A9BF00BF00C0094030B52A4B04689C424C
:2023A00024D006DCA3F580439C420CD000231D460BE0254B9C421CD003F580439C42F5D128
:2023C000224B082501E00525214BAAB10122606802FA01F1014361601E4905F11000896855
:2023E000AA4041F820301C4B1A6030BD1B4B0625EBE71B4B0725E8E701290AD042683820D2
:20240000184B00FB023292F8363092F83520D34216D1012303FA01F2B1FA81F16068490914
:2024200020EA02006060626803FA01F1114207D1094AAB40C2F88030BFF34F8FBFF36F8F04
:2024400030BD00BF0000014000800940852300004923000000ED00E000E100E05D230000A4
:2024600071230000440D00102DE9F04F0368704A8DB0934208900E4600F09A8077DCA2F5FB
:202480008042934200F086806A4BD3F800903301B9FBF3F5ACB203FB1595002D00F0BF806D
:2024A0000127224600214FEA49030693DDF818B04FEA8903059301960393CDF81090079624
:2024C00002974FF00008019B5FFA87FABBF1000FABBF0398BBFBF3F4B0FBF3F42409A8BF23
:2024E00064090134C4F34F045FFA88F5002C00F09980B8F1000F02D0012C08BF022407EB8F
:20250000080060430B93049BC000B3FBF0F00130C6EB50000A91099204F084FC079B099A64
:2025200098420A990B9B62DA86425BD10F2F07D129462246CDF808A00D461446DDF808A0C4
:20254000089B45EA0A151B68EDB21A7B42F080021A73C4F30722E4B21A711C7083F8285012
:202560001A7B02F07F021A730DB0BDE8F08F324A934229D002F58042934285D12F4BD3F872
:20258000AC2122F44022C3F8AC21D3F8AC2142F4802224E0294BD3F8A82122F0C002C3F863
:2025A000A821D3F8A82142F04002C3F8A8216BE7224BD3F8A82122F44072C3F8A821D3F85C
:2025C000A82142F48072F0E71C4BD3F8AC2122F44032C3F8AC21D3F8AC2142F48032C3F8E9
:2025E000AC2151E7294622460790CDF808A008F101085FFA88F050453344FFF467AF0F2FD5
:202600009AD0049B05984B440493069B01379B44039B03440393019B3344019351E74FF09D
:20262000010A8DE7B8F1000F0CBF0124022466E700000140E40000100080094000C00F40F3
:20264000013AD2B2032A88BF002210B597BF084C1446A2560124013B053941EA830141EAEB
:20266000C401006841EA0211C9B2017310BD00BFA0270100034B1960382341684B43024908
:20268000CA5070473C0D0010440D001030B431B938254368034C05FB034383F8362030BC87
:2026A000FFF77ABE440D001010B50268137DDB07FCD5382443680848117804FB0303586874
:2026C000C9B2013006D058699B680360536843F001035360084610BD440D00100368187D30
:2026E00000F00100704700003821114A436801FB0323DA69013209D01A6B1B6A12681A4282
:2027000014D10368187DC0F3801070470268127D920604D50022012083F83420704793F81C
:2027200034000F288CBF00200120704700207047440D001038B504460D462046FFF7D4FFFA
:202740000028FAD038212368EDB21D706368044A01FB032393F83420013283F8342038BD66
:20276000440D00102DE9F84F9A463C4C03680546A34218BF00248946904647681CB1237CDD
:2027800003F03F03237438234FF0FF32344E284603FB0763DA615A60002283F8352011460C
:2027A000FFF7FAFDB9F1000F55D02E494046FEF707FA2D4983465046FEF702FAA9F10203F6
:2027C000012B1BD8BAF1FF3F0BD0244B98420DD164B1237C244943F0800323745046FEF7F6
:2027E000C1F9B9F1030F0CD0BDE8F88F382000FB076051461C30FEF79FF9F2E7B9F1010F9E
:2028000029D1B8F1FF3F01D1BDE8F88F07222B681A72124B9B450AD14CB1237C404643F024
:20282000400323740F49BDE8F84FFEF79BB9382404FB0760414600220430FEF780F9012201
:202840006B68284604FB036686F835200021BDE8F84FFFF7A1BDBDE8F88F00BF000001406F
:20286000440D0010C8270100A42701002DE9F0410F460546474938461646FEF7ADF94649C0
:2028800004463046FEF7A8F901462046FEF786F9424B0446984228605ED048D8A3F58043DF
:2028A000984251D001234FF0000823724FF416512846C4F80480FFF7D7FD03222B683549C5
:2028C0001A733846FEF74EF933493046FEF74AF97A1C03D041463846FFF76CFC731C03D059
:2028E00000213046FFF766FC2C4B9C424CD03FD8A3F580439C4244D038216A68284B284608
:2029000001FB02324FF0FF3300215360D3611A46FFF728FF234B9C423AD10122224B29463B
:20292000BDE8F0411A602148082205F039BE204B984217D003F580439842B3D11D4AD2F852
:20294000C43043F0007304E01A4AD2F8C43043F00803C2F8C430A5E7164AD2F8C43043F00E
:202960001003F6E7134AD2F8C43043F08073F0E70F4B9C420AD003F580439C42BCD10323F1
:2029800000E000236B60B7E70123FBE70223F9E7BDE8F08158280100EC27010000000140D4
:2029A000440D001000C00040400D0010501300100080094000C00F40104B1868E0B9012178
:2029C0000F4A1960D2F8C43043F40003C2F8C430A2F5D022106702200A4B1B6850600A4883
:2029E000B3FBF0F3013BD360084B51609B68084A1A651022074B1A60704700BF240E001049
:202A000000C00F40E400001000093D0000ED00E00510000000E100E008B5044B1B680BB977
:202A2000FFF7CAFF024B986808BD00BF240E001000400940034B98615A6942F001025A6141
:202A4000704700BF004009401022024BC3F80021704700BF00E100E0024A536923F00103C6
:202A600053617047004009400122014B1A6070470040094043691A6843681A4214BF012010
:202A800000207047704710B504460EF0D1FB204610BD10B50446FEF72FFF204610BD022312
:202AA00010B5C2B08DF80030002340916946019302930EF0BFFD044668460EF0B9FB204694
:202AC00042B010BD032110B5C2B08DF8001000210191029140A9C1E9002369460EF0AAFDF7
:202AE000044668460EF0A4FB204642B010BD000000F1080373B5044603600D46E1B1084618
:202B000006F042FD0F2805EB0006019007D9002201A9204600F0B6FE019B2060A360324675
:202B20002946206800F0DAFE00212046019B22686360D15402B070BD014800F073FE00BFF9
:202B4000B229010038B504460D461822002105F001FE20462946FEF702F8204638BD0000A1
:202B600010B50446FDF786FF2046064B102240F8283B002105F0EEFD0123204684F83830DA
:202B800010BD00BFC023010030B5C9B004466846FFF7AEFF04238DF81830002318200793E3
:202BA0000893FEF79DFE0546694600F0BBFF06A9204646950EF03EFD044606A80EF038FBF4
:202BC000684600F083FE204649B030BD30B50546134C87B0E368626801461A60684600F050
:202BE000A1FF1049684600F057FF6946284600F081FE684600F06AFE2A680B490B48FEF728
:202C000095FB29680A48FEF77DFB2369626809481A60FEF7A5FFE36862681A6007B030BDE7
:202C2000BC110010742501000C290100A011001004120010CDCC4C3E002370B5684CCEB063
:202C4000214668468DF830300D930E93FFF750FF69460CA80EF097FC2146624C054606A8F2
:202C6000FFF746FF06A920460EF08DFC014628460EF0E0FC06A800F029FE684600F026FE67
:202C8000594906A8FFF734FF06A90CA80EF07BFC564D5749FFF778FF06A800F017FE294611
:202CA0006846FFF725FF69460CA80EF06CFC2946064606A8FFF71CFF06A920460EF063FC97
:202CC000014630460EF0B6FC4A4D06A800F0FEFD684600F0FBFD29466846FFF709FF6946F7
:202CE0000CA80EF050FC2946064606A8FFF700FF06A920460EF047FC014630460EF09AFCD1
:202D00003D4D06A800F0E2FD684600F0DFFD29466846FFF7EDFE69460CA80EF034FC294634
:202D2000064606A8FFF7E4FE06A920460EF02BFC014630460EF07EFC304D06A800F0C6FD74
:202D4000684600F0C3FD29466846FFF7D1FE69460CA80EF018FC2946064606A8FFF7C8FE99
:202D600006A920460EF00FFC014630460EF062FC234D06A800F0AAFD684600F0A7FD2946B6
:202D80006846FFF7B5FE69460CA80EF0FCFB2946064606A8FFF7ACFE06A920460EF0F3FB7A
:202DA000014630460EF046FC06A800F08FFD684600F08CFD0CA968460EF0D7FB694606A835
:202DC00000F0B0FE06A8FFF701FF06A800F07EFD684600F07BFD0CA80EF02AFA4EB070BD81
:202DE000D9290100F80E0010F5280100A4290100FA280100AB290100FD2801000229010084
:202E00000629010070B50021CEB03B480EF0E8F800250446012138480EF0E2F82B4604EB14
:202E2000002444FA03F212F0010F03F1010318BF1D460C2BF5D10023304968468DF83030CB
:202E40000D930E93FFF754FE69460CA80EF09BFB2A49064606A8FFF74BFE06A928480EF029
:202E600092FB014630460EF0E5FB06A800F02EFD684600F02BFD234906A8FFF739FE06A9A5
:202E80000CA80EF080FB2049FFF77EFE06A800F01DFD1E4906A8FFF72BFE06A90CA80EF0DD
:202EA00072FB2946FFF7FBFD06A800F00FFD184906A8FFF71DFE06A90CA80EF064FB214657
:202EC000FFF7EDFD06A800F001FD0CA968460EF04CFB694606A800F025FE06A8FFF776FE46
:202EE00006A800F0F3FC684600F0F0FC0CA80EF09FF94EB070BD00BF20110010D929010043
:202F0000F80E0010F5280100E5280100E9280100EF280100F0B5954CCFB095490CA8FFF7B8
:202F2000E7FD0CA920460EF02EFB0021FFF7B7FD0CA800F0CBFC8F490CA8FFF7D9FD0CA928
:202F400020460EF020FB0021FFF7A9FD0CA800F0BDFC89490CA8FFF7CBFD0CA920460EF07B
:202F600012FB0021FFF79BFD0CA800F0AFFC83490CA8FFF7BDFD0CA920460EF004FB0021DD
:202F8000FFF78DFD0CA800F0A1FC7D490CA8FFF7AFFD0CA920460EF0F6FA0021FFF77FFDB8
:202FA0000CA800F093FC77490CA8FFF7A1FD0CA920460EF0E8FA0021FFF771FD0CA800F0B2
:202FC00085FC71490CA8FFF793FD0CA920460EF0DAFA002600210027FFF761FD0CA800F029
:202FE00075FC6A490CA8FFF783FD0CA920460EF0CAFA0021FFF753FD0CA800F067FC64498B
:203000000CA8FFF775FD0CA920460EF0BCFA0021FFF745FD0CA800F059FC5E490CA8FFF722
:2030200067FD0CA920460EF0AEFA0021FFF737FD0CA800F04BFC58490CA8FFF759FD0CA9DF
:2030400020460EF0A0FA0021FFF729FD0CA800F03DFC52490CA8FFF74BFD0CA920460EF0B2
:2030600092FA0021FFF71BFD0CA800F02FFC4C490CA8FFF73DFD0CA920460EF084FA002195
:20308000FFF70DFD0CA800F021FC46490CA8FFF72FFD0CA920460EF076FA0021FFF7FFFC6F
:2030A0000CA800F013FC40490CA8FFF721FD0CA920460EF068FA32463B46FFF703FD0CA8EE
:2030C00000F004FC39490CA8FFF712FD0CA920460EF059FA32463B46FFF7F4FC0CA800F0D6
:2030E000F5FB0023324D684629468DF830300D930E93FFF7FDFC69460CA80EF044FA2946FE
:20310000064606A8FFF7F4FC06A920460EF03BFA014630460EF08EFA06A800F0D7FB684626
:2031200000F0D4FB234906A8FFF7E2FC06A90CA80EF029FA2049FFF727FD06A800F0C6FB7C
:203140000CA968460EF011FA694606A800F0EAFC06A8FFF73BFD06A800F0B8FB684600F005
:20316000B5FB0CA80EF064F84FB0F0BDF80E0010262901002B290100302901003529010071
:203180003A2901003F2901004429010049290100532901005D29010067290100FD280100C6
:2031A0000229010006290100A4290100AB290100D9290100F52801007129010000B5D1B01E
:2031C00014220021684605F0C5FA142200210DEB020005F0BFFA3A230093184B05A91B68B3
:2031E00068469847164910A8FFF782FC10A915480EF0C9F91449FFF7C7FC10A800F066FBC2
:20320000059AC2B9069B114910A805F083FE089B079A0E4910A805F07DFE09490AA8FFF7AE
:2032200067FC0AA907480EF0AEF910A9FFF7ACFC0AA800F04BFB51B05DF804FBE8000010F8
:20324000D9290100F80E001075250100DC28010008B502461B491C48FEF768F81B490846E1
:20326000FFF708FC01280CBF0B69CB684A6818491A600846FFF7FEFB01280CBF0B69CB6854
:203280004A6814491A600846FFF7F4FB01280CBF0B69CB684A6810491A600846FFF7EAFB29
:2032A00001280CBF0B69CB684A680C491A600846FFF7E0FB01280CBF0B69CB684A681A600C
:2032C00008BD00BF7D290100A0110010280E0010400E0010580E0010700E0010880E0010B4
:2032E00000B5094889B0FDF742FA50B101AA07490748FEF738F801A8FFF7AAFF0320FEF78F
:203300003BFC09B05DF804FBD411001078290100041200102DE97043044699460E46904690
:20332000FEF778F8636B13B994F83830A3B904F12805B54207D02846FDF759F81DB1314656
:203340002846FDF769FE42464B462046FDF7FAFABDE87043FEF774B8FDF74EFCE7E70000B8
:2033600008B50248FDF75DF808BD00BFEC0A001008B50248FDF755F808BD00BFEC0A0010A1
:203380002DE9F043394C87B020460EF051FA002120460EF011FA064620460EF0DCF93146ED
:2033A0000246054620460EF0D9F9314C80462046FDF737F82F48FEF755FC074620462E4C8E
:2033C000FDF72FF82D496846FFF792FB694620460EF0D9F88146304602F010F802460B4677
:2033E0004846FFF76FFB684600F070FA24496846FFF77EFB694620460EF0C5F806462846C3
:2034000001F0FCFF02460B463046FFF75BFB684600F05CFA1B496846FFF76AFB69462046EF
:203420000EF0B1F80546404601F0E8FF02460B462846FFF747FB684600F048FA1249684614
:20344000FFF756FB694620460EF09DF80446384601F0B2FF02460B462046FFF733FB684642
:2034600000F034FA07B0BDE8F08300BFB0100010EC0A0010A40E0010F80E0010FD280100CC
:20348000022901009B2901000629010038B504460D461022002105F05DF90CB12B68236010
:2034A000014BE36038BD00BF082301000000000000B51B4B8BB00AA941F8243D02A8FFF75A
:2034C000E5FF02A906A8FDF7A7FD164A06A900231548FFF71FFF06A8FCF789FF02A8FCF7AE
:2034E00086FF124B0AA941F8283D02A8FFF7CEFF02A906A8FDF790FD07A3D3E9002306A91A
:203500000B48FFF707FF06A8FCF771FF02A8FCF76EFF0BB05DF804FB404B4C00000000005B
:203520008133000080841E00E0100010392C00007010001030B54FF4964187B02548FDF729
:20354000ECF84FF416512448FDF7E7F80022012308212148FDF7F4F8204B06A941F8183D3E
:2035600002A8FFF793FF002202A91B48FDF764F902A8FCF73CFF1A48FEF7F2FA0024FFF763
:203580001DFEFFF7C7FC174D214602230622284601340DF062FD0C2CF6D1134B06A941F8FB
:2035A000143D02A8FFF772FF02A91048FDF707F802A8FCF71CFF00210C48FCF7D5FF4FF080
:2035C0007E50FEF7CDFA012106480DF0EFFDFFF76FFFFEE770110010D4110010E132000026
:2035E0000000A04020110010052E0000281100102DE9F34100255B4C5B485C4F22465C49BD
:203600005C4E057045608560FEF738F93846FFF7A7FA3846584F22463146FEF72FF9384627
:20362000FFF79EFA3846554F22463146FEF726F93846FFF795FA38464FF416573146504EA1
:203640002246FEF71BF94F493046FCF75FFF30464D4E22464D49FEF711F94D4A4D493046E9
:20366000FCF7F4FEDFF8B08122464B493046FEF705F93146B42249480DF090FD484E2B4689
:203680000097484A48494046FDF724F84046DFF88C8122463146FEF7F1F82B460097434A1E
:2036A00043494046FDF716F84046DFF8748122463146FEF7E3F82B4600973E4A3E49404658
:2036C000FDF708F82246314640463C4EFEF7D6F83B493C48FFF736FA29461822304605F002
:2036E00039F83046384E012235463849FDF727FA37493848FFF726FA37493848FFF722FA41
:2037000037493848FFF71EFA37493848FFF71AFA37493848FFF716FA374F384B384645F8C7
:20372000043BFCF77EFE36492846FEF75FFA354D3846FCF776FE224633493046FEF79EF854
:203740000B22324928460DF0E7FF224630492846FEF794F802212F4802B0BDE8F0410DF081
:20376000FBBB00BFC8000010F80E0010E0100010872A0000CD0900000810001070100010A7
:203780002811001040C00920601000108505000001C0092000C009202F0400002011001066
:2037A0007D06000003C0092002C0092010C009200FC009200BC009200AC00920BC110010FA
:2037C00030C0092048100010A00E001031C0092044C00920280E001045C00920400E001091
:2037E00046C00920580E001047C00920700E001048C00920880E0010EC0A0010CC28010094
:2038000019C00920B0100010852A000018C00920231701000010001070110010D411001045
:20382000A80E001038B50546082000F041FB2946044601F0D7F92046044A054901F064F86D
:20384000204600F04DFB00F06FFB00BF614B0000B42C010038B50546082000F029FB294641
:20386000044601F0D3F92046044A054901F04CF8204600F035FB00F057FB00BFB54B000083
:20388000C02C0100086808B500281ADB90420AD95200904207D2002A0ADBBDE808400A60D9
:2038A000501CFEF71DB80130BDE80840FEF718B86FF000434FF000400B60BDE80840FEF781
:2038C0000FB80148FFF7C6FF202A010050F8083B834202D01846FEF70FB87047521A012A48
:2038E00003D002B9704704F05BBE0B7810B4037010BC7047884232D02DE9F041804658F810
:20390000087B4D68B8450CBF0F22826882B0AA420E4604460CD32DB1012D316819D10B78DF
:203920003B702768002365607B5502B0BDE8F08102A941F8045DFFF7A5FF07462068804554
:2039400001D0FDF7D9FF019B2760A360002DE9D0E2E738462A4604F023FE2768E2E77047E3
:203960002DE9F04F04460D4683B00C9E40682168914604F10808B21A024488450192A0EB6E
:20398000050714BFA2680F2201A920469B46FFF779FFA7EB090782462DB1012D21682BD0B4
:2039A0002A4604F0FDFDBBF1000F08D03EB1012E0AEB050023D19BF800300AF805305FB100
:2039C00023682E44012F4D440AEB060003EB05010ED03A4604F0E4FD2068804501D0FDF7F5
:2039E0008BFF019BC4F800A0A36003B0BDE8F08F5B5D0AF80630EFE70B780370D3E7594656
:203A0000324604F0CDFDDAE7034653F8082BF0B59A4208BF0F23466818BF8368751C9D428E
:203A200083B004460F4607D901220023009231461A46FFF795FF22680021975523686560B4
:203A4000595503B0F0BD00BFF0B5044650F8085B676885420CBF0F20A068BE18864283B096
:203A60000DD832B1012A05EB070011D10B78EB552568002320466660AB5503B0F0BD0092E9
:203A80000B46002239462046FFF76AFF2568F0E704F086FD2568ECE738B5044608460D465C
:203AA00005F072FD6FF0004362689B1A834205D3024629462046FFF7C7FF38BD0148FFF7D7
:203AC000C9FE00BF082A010070B5054682B001B3541A0F2C0E4601940AD82B68012C184645
:203AE00013D064B90021019A6A60995402B070BD002201A9FFF7C6FE019B2860AB60224657
:203B0000314604F04DFD2B68ECE732781A702B68E8E712B10248FFF785FE01920368E1E7A8
:203B2000DC29010010B5044600F1080303600B684A6819461A444FF00003FFF7C5FF2046CD
:203B400010BD00BF00487047402A010000487047382A010002604160704700BF4B6883421C
:203B600001D0002070470868801AB0FA80F04009704700BF704700BF704700BF10B50446BF
:203B8000FDF7BAFE204610BD10B50446FDF7B4FE204610BD10B504460B6886B068461B6974
:203BA00098479DE80600204601F03AF8009802AB984201D0FDF7A0FE204606B010BD00980F
:203BC00002AB984201D0FDF797FE00F0ADF900BF70B5054682B001B3541A0F2C0E460194C7
:203BE0000AD82B68012C184613D064B90021019A6A60995402B070BD002201A9FFF742FE71
:203C0000019B2860AB602246314604F0C9FC2B68ECE732781A702B68E8E712B10248FFF7DE
:203C200001FE01920368E1E7DC29010038B50446104605F09DFC04F108032360054640B1DF
:203C400005F0A2FC29462A182046FFF7C1FF204638BD20464FF0FF322946FFF7B9FF204650
:203C600038BD00BF30B503680C4D5B6983B0AB4214460CD16368834202D0002003B030BDAA
:203C80002068401AB0FA80F0400903B030BD0A4601466846984700990198EBE7553B000087
:203CA00010B5064C064922460648FDF7E7FD2246BDE8104004490548FDF7E0BDC8000010B0
:203CC000793B0000F0000010753B0000EC00001070B500241026036884B0154602961268F9
:203CE0009E6900946B468DF804400394B0479DF8043003F00603062B09BF01202046009B41
:203D00002B6004B070BD00BF009890420CBF06200120704710B50446024B036000F004FF93
:203D2000204610BD642B010010B50446044B036000F0FAFE2046082100F046F8204610BD27
:203D4000642B010038B515461C4600F0F1FE20B1082206232560E260237138BD2DE9F0418F
:203D600017461C4606460D4600F0E2FE08B9032C01D9BDE8F0812B683A4631462846BDE898
:203D8000F0415B69184700BFF0B583B0089D0A9917468D4206460B9C0BD01946304600F031
:203DA000C7FE18B1012325602771A371002003B0F0BD0999019300F0BBFE18B10020677100
:203DC00003B0F0BD019BE8E7FDF796BDF0B41D4CA0F10806616850F8087CC9B1F519A9421D
:203DE0001BD04A682AB3954204D326E09D42114604D21A4653680C1D002BF7D1116855186C
:203E0000AE4213D040F8043C23685E60F0BC704740F8041C6660F0BC70470B684A681F44A2
:203E200040F8087C40F8042C6660EFE70F441760ECE7134604340A46E0E7134604340A469C
:203E4000DCE700BF2012001030B4184C00F108016368082938BF082113B307311A6821F0AF
:203E60000701914204D81DE00268914205D9034658680028F8D130BC70470433521A072A02
:203E80000AD9446845186C601C68425021601D6004F1080030BC7047426804461A60F7E76A
:203EA0001846E8E71846231DE8E700BF2012001038B500F18005284604F036F8044638B141
:203EC00080220021204604F045FC04F1800038BD2846FFF7B9FF04460028F1D100F0CAFC14
:203EE000064A80389368984205D9D2681344984201D2FFF76BBF04F01FB800BF20120010DD
:203F000038B54FF41E65074C2846E56004F00CF8A06020B1002360600560436038BDE060FF
:203F2000606038BD201200101EB400F091F81EBC02F064FDF0B5027883B0472A0D461F4697
:203F40001ED00023274C0193236820469B68984780B10226019B1B6801932B682146284602
:203F60001C6901AA0123A04730B13046019B3B6003B0F0BD0126F0E70646304603B0F0BDF8
:203F800043784E2BDDD18378552BDAD1C378432B19D0C378432BD4D10379432BD1D14379F1
:203FA0002B2BCED183792B2BCBD1C379012BC8D804D050F8204C58300190C5E750F8200C55
:203FC00050F8784CF8E70379462BE2D143794F2BDFD18379522BDCD1C379002BD9D10193A5
:203FE000014CB1E7A42B01009C2B010010B5044600F000F92378A4F12002472B04D08368C9
:2040000023BB8260012010BD63784E2BF7D1A378552BF4D1E378432BF1D12379432BEED122
:2040200063792B2BEBD1A3792B2BE8D1E379012BE5D854F8043C0133012B44F8043CE1D108
:20404000836844F8083C8260012010BD00F012FC08B500F0CFF8836883B393F82020472A56
:2040600004D00022826003F1200008BD93F821204E2AF6D193F82220552AF2D193F82320A7
:20408000432AEED193F82420432AEAD193F825202B2AE6D193F826202B2AE2D193F8272076
:2040A000012ADED8DA69013ADA61002ADBD10022996981609A6103F1200008BD00F0DAFBF2
:2040C00038B5044600F096F822780368472AA4F1200105D0002B31D11C460160204638BDDF
:2040E00062784E2AF6D1A278552AF3D1E278432AF0D12279432AEDD162792B2AEAD1A279F6
:204100002B2AE7D1E279012AE4D854F80C2C002A11DB013245688B4205F1FF3544F80C2C6B
:2041200045601CBF44F8103C01602046646A02F0B3F8204638BDC2F10102EBE700F09AFBDD
:2041400008B500F053F80246006800283DD090F82030472B06D0002320301360BDE808408F
:2041600002F09CB890F821304E2BF4D190F82230552BF0D190F82330432BECD190F82430E5
:20418000432BE8D190F825302B2BE4D190F826302B2BE0D190F82730012BDCD84369002B95
:2041A00005DB013B08D05A1C0DD0436108BD0133FBD101691160F8E7036920301360BDE8C1
:2041C000084002F06BB800F055FB08BD704700BF704700BF00487047882B010010B50446CF
:2041E0000421FFF7F1FD204610BD00BF004870473012001000487047301200105028F8B5FD
:2042000054D000F00F040C2C4ED8DFE804F007394907174D4D4D4D1F1B071700154655F883
:20422000044B44B100F07006102E08BF114602060C4448BF24681C602846F8BD154655F846
:20424000084BEEE7154635F9024BEAE700241546274615F801EB0EF07F06BE401EF0800F8C
:2042600044EA060407F10707F3D11F2FD9D81EF0400FD6D04FF0FF3606FA07F73C43D1E791
:2042800000241546274615F801EB0EF07F06BE401EF0800F44EA060407F10707F3D1C0E772
:2042A000154635F8024BBCE702F0B4FD033222F0030555F8044B1C602846F8BDFF280DD055
:2042C00000F07000202815D00AD940280FD0502804D0302808D1084602F096BD0020704740
:2042E0000028FBD01028F9D008B502F093FD084602F076BD084602F083BD00BFF8B50C46DA
:2043000015460746002842D002F06AFD286026780134FF2E32D039463046FFF7CFFF2246B7
:2043200001462B1D3046FFF769FF04462378601CFF2B2B7528D00024102322462B7510F890
:20434000011B01F07F039340090644EA030402F10702F4D40444EC60002422460378013027
:204360006B7510F8011B01F07F0393401C430B0602F10702F5D404442C61F8BD68602378D1
:20438000601CFF2B2B75D6D10023EB60E4E7BDE700232DE9F04F00F0030497B0012C8946A1
:2043A00017460A931ED00ED3022C0AD13946484602F000FD002800F0A580092017B0BDE85D
:2043C000F08F02F027FD0007F0D401230393002316AA42F82C9D009219460C22384601F04F
:2043E00089FF0FE010F0080400F0908016AA42F82C1D009244F0020419460C223846039489
:2044000001F078FF384602F0F1FC05900028CDD010AB1A46059938460693FFF76FFF3946CA
:2044200004469DF85400FFF749FF00230DF13C0B129019460F22CDF800B0384601F034FF5A
:204440000F9B149A23F00103A24203F1FF3675D90DF1340A0DF138089DF85550002128464F
:20446000FFF72CFF2246534601462846FFF7C6FE9DF85540054600212046FFF71FFF2A462B
:20448000434601462046FFF7B9FE9DF85540054600212046FFF712FF2A4601465B46204678
:2044A000FFF7ACFE04460020024614F8011B01F07F039340090640EA030002F10702F4D43C
:2044C000109B0D9A13449E4231D2039BDB0739D50025049500230D221946CDF80080384690
:2044E0000A9C01F0E1FE059A0E9BC9F82C20049AC9F82440C9F82850C9F83020C9F82030D3
:2045000006205BE7082017B0BDE8F08F10AB009306930D22234621463846D9F8205001F08A
:20452000C3FE109B9D4212D0022303934FE70E9A13449E4259D3149BA3428DD8002501240F
:20454000049507E1039B1B074CD500F093F916AB43F82C9D0093214623460C22384601F0B8
:20456000C9FED9F830300493002B3BD00324D9F82850D9F82C10002DC0F208810DF1340A55
:204580000DF13808002316AA42F8289D1946009238461A4601F0AEFE002301221946CDF825
:2045A00000A038460D9501F0A5FE00230F221946CDF80080384601F077FE00230E9A049D5F
:2045C00002F001021543CDF80080384619460F220E9501F08FFE022C00F08280072017B00C
:2045E000BDE8F08F484600F093FC0F9B1A460493002B7AD100283FF4D9AE149B049A01380B
:204600000344002A3FF4D2AE002B77D0039A12F00802099200F0F88047254E2455204321A1
:2046200046224F264FF0520E4FF0000C89F8005089F8014089F8020089F8031089F8042064
:2046400089F8056089F806E089F807C00022079708920025294600E023461C4614F8010B14
:2046600000F07F028A40060645EA020501F10701F2D41F2905D8420603D501228A40524237
:2046800015430026314613F8010F00F07F028A40070646EA020601F10701F4D41F2905D8A3
:2046A000400603D501238B405B421E43002D5CD05EDD9DF85400FF2800F0A48000F007033D
:2046C000042B3FF67EAE01A252F823F037470000C34300003D470000374700001547000068
:2046E0004846FFF783FC072068E6119B1A440492002882D1049B002B3FF458AE039B13F083
:2047000001037FF453AE039A12F0080540F09780022437E7EB005B42139A12991A44434623
:20472000FFF76CFD0E9999B1B9F1000F09D1002E77D0A3198DE7AB005B42EDE76B005B42CD
:20474000EAE70AAB00224846FFF7F4FB0028EED00324079F039BDA0760D4039B190766D4E0
:20476000012C3FF43FAF059905E701230893DEE7B9F1000F01D0099B5BB36B1C139AC3EBBF
:20478000837352F82330002BD1D1E1E7069A3846FFF7B4FD39469DF85400FFF78FFDAA0098
:2047A00082F00302D243139E1290B358164433B13246002352F8041F01330029FAD104227B
:2047C000C9F82830C9F82C00C9F83460C9F83020D4E6139F6B1CC3EB837357F823100A9AB0
:2047E00007EB83070F9221B9B2E757F8041F0029AED039445B4600224846FFF79BFB00288E
:20480000F3D094E7002387E799F80720012A0CBF59F8202C09F158020A9217E70DF1380852
:2048200058E6089B079F002B7FF468AFBEE5012C3FF48BAE002DBFF6A1AE00F029F81D465B
:2048400002249FE6FFF73CFC7FE600BF08B5804702F0E0FAFFF734FC02F0DCFA0D46044680
:20486000FFF76EFC013501D0FFF75EFB204600F05FFB00BF08B5034B1868BFF35B8FFFF7F6
:20488000E5FF00BFF800001008B58047FFF7F2FF08B5034B1868BFF35B8FFFF7F5FF00BF32
:2048A000F4000010024B1868BFF35B8F704700BFF8000010024B1868BFF35B8F704700BF2E
:2048C000F4000010012810B51AD8BFF35B8FA1F1280353E8002F013A43E800200028F8D1BA
:2048E000BFF35B8F5AB951F81C3C01F158040BB1204698472046BDE81040FFF7F1BA10BD50
:2049000051F8140CFFF7A2FF2DE9F041044617468846FFF76FFC01264368A4F1580533443F
:20492000436044F8747C44F8806C44F8788CFFF7C1FF44F8700CFFF7B5FF472143222B230D
:204940004FF04E0E5527002604F8581C0D4944F86C0C04F857EC44F8501C04F8552C04F840
:20496000542C04F8533C04F8523C04F8567C04F8516C284602F030F82846FFF7A1FBFFF79D
:2049800079FF00BFC548000010B5FFF733FC426804680132426064B194F82020472A0AD0D2
:2049A000002202602034204602F03AF82046FFF787FBFFF75FFF94F821204E2AF0D194F8D1
:2049C0002220552AECD194F82320432AE8D194F82420432AE4D194F825202B2AE0D194F80F
:2049E00026202B2ADCD194F82720012AD8D8626952426261D6E700BF10B50446024B036064
:204A0000FFF788F9204610BD782C010010B50446044B0360FFF77EF920460C21FFF7D4F9C3
:204A2000204610BD782C010070B582B0069C0D469442064609D0B068294606680694346A2A
:204A4000A44602B0BDE87040604719460192009300F06EF8009B019A0028ECD0062002B0F1
:204A600070BD00BF2DE9F04F894681B019461D46164607460A9CDDF82CB0DDF830A0DDF8B9
:204A8000348000F055F888B1B9F1000FC8F8004088F804601EDB4C44A2450CBF06240124C5
:204AA00088F80640002001B0BDE8F08F544518D0B8682B460568CDF83480CDF830A0CDF8E9
:204AC0002CB00A94EC6932464946A44601B0BDE8F04F604719F1020FE4D1012388F8063030
:204AE000E0E75946384600F023F80028E0D0002088F8056001B0BDE8F08F00BF2DE9F0410F
:204B000007460C4615461E46FFF71CF908B1BDE8F081B868334606682146B4692A46A44678
:204B2000BDE8F041604700BF704700BF00207047814211D008B5406803782A2B0AD0496888
:204B40000B782A2B08BF013104F04EFAB0FA80F0400908BD002008BD012070474068704704
:204B600010B5044643680C4A0C49A3F10C00904282B0216005D12046FFF728FB204602B03E
:204B800010BD53F8042C511E002A43F8041CF2DC01A900F0A3F8EEE73C120010F82C01007E
:204BA00010B50446FFF7DCFF2046FCF7A5FE204610BD00BF10B50446024B0360FFF7D0FFA3
:204BC000204610BD0C2D010010B50446044B0360FFF7C6FF2046FCF78FFE204610BD00BF14
:204BE0000C2D010010B5084B82B0044601AA40F8043B00F095F8204602B010BD2046FFF707
:204C0000E5FAFFF791F900BFF82C010010B50446FFF7E8FF014B2046236010BD0C2D010029
:204C200010B5044682B001AB00F06CF8204602B010BD00BF134B10B598421FD88842044687
:204C400014D94A00904238BF144604F11D02B2F5805F04F10D000BD9A14209D204F58054EF
:204C6000C2F30B02A41A9C4228BF1C4604F10D00FCF736FE00224460826010BD0248FEF7B0
:204C8000E9FD00BFFCFFFF3F442D010070B50C1A064600212046FFF7CDFF012C054600F17B
:204CA0000C0305D084B90C4A954206D1184670BD32780273084A9542F8D0002229192C6044
:204CC000AA600A73184670BD18463146224603F067FC0346E7E700BF3C120010FCF70CBE3E
:204CE000884202D018B1FFF7D1BF044870470029F9D008B50248FEF795FD00BF481200101D
:204D0000182D010038B50D460446114428461A464FF00003FFF7E4FF2060204638BD00BFEB
:204D200070B5054616460C4661B1084604F02CFC2118324620464FF00003FFF7D1FF286032
:204D4000284670BD4FF0FF31F3E700BF244B1A68D0075CBF01221A60224B1A68D1075CBF4E
:204D600001221A60204B1A68D2075CBF01221A601E4B1A68D0075CBF01221A601C4B1A68B5
:204D8000D1075CBF01221A601A4B1A68D2075CBF01221A60184B1A68D0075CBF01221A6097
:204DA000164B1A68D1075CBF01221A60144B1A68D2075CBF01221A60124B1A68D0075CBF3D
:204DC00001221A60104B1A68D1075CBF01221A600E4B1A68D2075CBF01221A60704700BFE7
:204DE0007812001074120010701200106C1200106812001064120010601200105C12001053
:204E00005812001054120010501200104C120010244B1A68D0075CBF01221A60224B1A6853
:204E2000D1075CBF01221A60204B1A68D2075CBF01221A601E4B1A68D0075CBF01221A60EA
:204E40001C4B1A68D1075CBF01221A601A4B1A68D2075CBF01221A60184B1A68D0075CBF8A
:204E600001221A60164B1A68D1075CBF01221A60144B1A68D2075CBF01221A60124B1A68D1
:204E8000D0075CBF01221A60104B1A68D1075CBF01221A600E4B1A68D2075CBF01221A60AA
:204EA000704700BFA8120010A4120010A01200109C1200109812001094120010901200104A
:204EC0008C1200108812001084120010801200107C1200100378472B01D000207047437844
:204EE0004E2BFAD18378552BF7D1C378432BF4D10379432BF1D143792B2BEED183792B2BEE
:204F0000EBD1C07901288CBF00200120704700BF10B530B10446FFF7D3F82046FFF7DAFF8B
:204F200008B9FFF7A7FC54F8140CFFF78FFC00BF2DE9F04F85B00246FFF7CCFF68B152F875
:204F4000184C104652F8145C966A176BD2F83490FFF7B6F82046FFF797FC1046FFF7B0F846
:204F6000FFF796FCFFF7ACF8FFF784FCFFF7A8F8FFF73CF9036893F82720012A37D003F175
:204F800078024FF000084C46C1460DF1100A203327F0030B01934AF8082DB1451BDA2768A2
:204FA00007B127445346002239460198FEF7C2FF10BB3B6804AA1B6942F8040D0093384649
:204FC00001231149009FB847002818BF804609F101095C44E1E7B8F1000F0AD00420FEF7D9
:204FE00067FF0A4B0A4A03600749FFF78DFC1A68C7E72846FFF72AFCFFF7C6FCFFF7A0F870
:20500000FFF79EF8FEF790FFAC2B0100302C0100D1410000184B1A68D1075CBF01221A60C4
:20502000164B1A68D2075CBF01221A60144B1A68D0075CBF01221A60124B1A68D1075CBFBA
:2050400001221A60104B1A68D2075CBF01221A600E4B1A68D0075CBF01221A600C4B1A6802
:20506000D1075CBF01221A600A4B1A68D2075CBF01221A60704700BFC8120010C4120010F2
:20508000C0120010BC120010B8120010B4120010B0120010AC120010184B1A68D1075CBF28
:2050A00001221A60164B1A68D2075CBF01221A60144B1A68D0075CBF01221A60124B1A6890
:2050C000D1075CBF01221A60104B1A68D2075CBF01221A600E4B1A68D0075CBF01221A6068
:2050E0000C4B1A68D1075CBF01221A600A4B1A68D2075CBF01221A60704700BFE81200105F
:20510000E4120010E0120010DC120010D8120010D4120010D0120010CC1200109140031CC9
:2051200090409C46203A9340194352426346D3401943704781F0004102E000BF83F00043C8
:2051400030B54FEA41044FEA430594EA050F08BF90EA020F1FBF54EA000C55EA020C7FEAA9
:20516000645C7FEA655C00F0E2804FEA5454D4EB5555B8BF6D420CDD2C4480EA020281EA51
:20518000030382EA000083EA010180EA020281EA0303362D88BF30BD11F0004F4FEA0131FD
:2051A0004FF4801C4CEA113102D0404261EB410113F0004F4FEA03334CEA133302D0524213
:2051C00063EB430394EA050F00F0A780A4F10104D5F1200E0DDB02FA0EFC22FA05F280186B
:2051E00041F1000103FA0EF2801843FA05F359410EE0A5F120050EF1200E012A03FA0EFC10
:2052000028BF4CF0020C43FA05F3C01851EBE37101F0004507D54FF0000EDCF1000C7EEB1F
:2052200000006EEB0101B1F5801F1BD3B1F5001F0CD349085FEA30004FEA3C0C04F10104F7
:205240004FEA445212F5800F80F09A80BCF1004F08BF5FEA500C50F1000041EB045141EA0A
:20526000050130BD5FEA4C0C404141EB010111F4801FA4F10104E9D191F0000F04BF014659
:205280000020B1FA81F308BF2033A3F10B03B3F120020CDA0C3208DD02F1140CC2F10C0270
:2052A00001FA0CF021FA02F10CE002F11402D8BFC2F1200C01FA02F120FA0CFCDCBF41EAA8
:2052C0000C019040E41AA2BF01EB0451294330BD6FEA04041F3C1CDA0C340EDC04F114040F
:2052E000C4F1200220FA04F001FA02F340EA030021FA04F345EA030130BDC4F10C04C4F100
:20530000200220FA02F001FA04F340EA0300294630BD21FA04F0294630BD94F0000F83F46F
:20532000801306BF81F480110134013D4EE77FEA645C18BF7FEA655C29D094EA050F08BFEB
:2053400090EA020F05D054EA000C04BF1946104630BD91EA030F1EBF0021002030BD5FEA5D
:20536000545C05D14000494128BF41F0004130BD14F580043CBF01F5801130BD01F0004565
:2053800045F0FE4141F470014FF0000030BD7FEA645C1ABF194610467FEA655C1CBF0B46BA
:2053A000024650EA013406BF52EA033591EA030F41F4002130BD00BF90F0000F04BF0021FB
:2053C000704730B54FF4806404F132044FF000054FF0000150E700BF90F0000F04BF0021F2
:2053E000704730B54FF4806404F1320410F0004548BF40424FF000013EE700BF42004FEA52
:20540000E2014FEA31014FEA02701FBF12F07F4393F07F4F81F06051704792F0000F14BF63
:2054200093F07F4F704730B54FF4607401F0004521F0004120E700BF50EA010208BF70475F
:2054400030B54FF000050AE050EA010208BF704730B511F0004502D5404261EB41014FF429
:20546000806404F132045FEA915C3FF4DCAE4FF003025FEADC0C18BF03325FEADC0C18BFA1
:20548000033202EBDC02C2F1200300FA03FC20FA02F001FA03FE40EA0E0021FA02F1144497
:2054A000C1E600BF4FF0FF3C06E000BF4FF0010C02E000BF4FF0010C4DF804CD4FEA410C92
:2054C0007FEA6C5C4FEA430C18BF7FEA6C5C1BD001B050EA410C0CBF52EA430C91EA030F05
:2054E00002BF90EA020F0020704710F1000F91EA030F58BF994208BF90422CBFD8176FEA2E
:20550000E37040F0010070474FEA410C7FEA6C5C02D150EA013C07D14FEA430C7FEA6C5CBE
:20552000D6D152EA033CD3D05DF8040B704700BF8446104662468C461946634600E000BF8B
:2055400001B5FFF7B7FF002848BF10F1000F01BD4DF808EDFFF7F4FF0CBF012000205DF868
:2055600008FB00BF4DF808EDFFF7EAFF34BF012000205DF808FB00BF4DF808EDFFF7E0FFF6
:2055800094BF012000205DF808FB00BF4DF808EDFFF7CEFF94BF012000205DF808FB00BFB8
:2055A0004DF808EDFFF7C4FF34BF012000205DF808FB00BF4FEA410212F5001215D211D54B
:2055C0006FF47873B3EB625212D94FEAC12343F0004343EA505311F0004F23FA02F018BFA7
:2055E000404270474FF00000704750EA013005D111F0004008BF6FF0004070474FF000009E
:20560000704700BF80F0004002E000BF81F0004142001FBF5FEA410392EA030F7FEA226CDF
:205620007FEA236C6AD04FEA1262D2EB1363C1BFD218414048404140B8BF5B42192B88BFC5
:20564000704710F0004F40F4000020F07F4018BF404211F0004F41F4000121F07F4118BFBA
:20566000494292EA030F3FD0A2F1010241FA03FC10EB0C00C3F1200301FA03F100F0004332
:2056800002D5494260EB4000B0F5000F13D3B0F1807F06D340084FEA310102F10102FE2A39
:2056A00051D2B1F1004F40EBC25008BF20F0010040EA03007047490040EB000010F4000F56
:2056C000A2F10102EDD1B0FA80FCACF1080CB2EB0C0200FA0CF0AABF00EBC25052421843A9
:2056E000BCBFD0401843704792F0000F81F4000106BF80F400000132013BB5E74FEA410345
:205700007FEA226C18BF7FEA236C21D092EA030F04D092F0000F08BF0846704790EA010F89
:205720001CBF0020704712F07F4F04D1400028BF40F00040704712F100723CBF00F500005F
:20574000704700F0004343F0FE4040F4000070477FEA226216BF08467FEA23630146420279
:2057600006BF5FEA412390EA010F40F4800070474FF0000304E000BF10F0004348BF404211
:205780005FEA000C08BF704743F0964301464FF000001CE050EA010208BF70474FF00003AB
:2057A0000AE000BF50EA010208BF704711F0004302D5404261EB41015FEA010C02BF844679
:2057C0000146002043F0B64308BFA3F18053A3F50003BCFA8CF2083AA3EBC25310DB01FA6E
:2057E00002FC634400FA02FCC2F12002BCF1004F20FA02F243EB020008BF20F0010070476E
:2058000002F1200201FA02FCC2F1200250EA4C0021FA02F243EB020008BF20EADC7070470C
:205820004FF0FF0C1CEAD0521EBF1CEAD15392EA0C0F93EA0C0F6FD01A4480EA010C40026A
:2058400018BF5FEA41211ED04FF0006343EA501043EA5111A0FB01310CF00040B1F5000F5C
:205860003EBF490041EAD3715B0040EA010062F17F02FD2A1DD8B3F1004F40EBC25008BF06
:2058800020F00100704790F0000F0CF0004C08BF49024CEA502040EA51207F3AC2BFD2F119
:2058A000FF0340EAC250704740F400004FF00003013A5DDC12F1190FDCBF00F0004070475C
:2058C000C2F10002410021FA02F1C2F1200200FA02FC5FEA310040F1000053EA4C0308BFF9
:2058E00020EADC70704792F0000F00F0004C02BF400010F4000F013AF9D040EA0C0093F0FD
:20590000000F01F0004C02BF490011F4000F013BF9D041EA0C018FE70CEAD15392EA0C0FB9
:2059200018BF93EA0C0F0AD030F0004C18BF31F0004CD8D180EA010000F00040704790F0F3
:20594000000F17BF90F0004F084691F0000F91F0004F14D092EA0C0F01D142020FD193EAF7
:205960000C0F03D14B0218BF084608D180EA010000F0004040F0FE4040F40000704740F0C9
:20598000FE4040F4400070474FF0FF0C1CEAD0521EBF1CEAD15392EA0C0F93EA0C0F69D0BD
:2059A000A2EB030280EA010C49024FEA402037D04FF0805343EA111143EA10130CF0004006
:2059C0008B4238BF5B0042F17D024FF4000C8B4224BF5B1A40EA0C00B3EB510F24BFA3EBDD
:2059E000510340EA5C00B3EB910F24BFA3EB910340EA9C00B3EBD10F24BFA3EBD10340EAD7
:205A0000DC001B0118BF5FEA1C1CE0D1FD2A3FF650AF8B4240EBC25008BF20F00100704791
:205A20000CF0004C4CEA50207F32C2BFD2F1FF0340EAC250704740F400004FF00003013ADD
:205A400037E792F0000F00F0004C02BF400010F4000F013AF9D040EA0C0093F0000F01F08A
:205A6000004C02BF490011F4000F013BF9D041EA0C0195E70CEAD15392EA0C0F08D1420235
:205A80007FF47DAF93EA0C0F7FF470AF084676E793EA0C0F04D14B023FF44CAF08466EE707
:205AA00030F0004C18BF31F0004CCAD130F000427FF45CAF31F000437FF43CAF5FE700BFF4
:205AC0004FF0FF3C06E000BF4FF0010C02E000BF4FF0010C4DF804CD4FEA40024FEA410360
:205AE0007FEA226C18BF7FEA236C11D001B052EA530C18BF90EA010F58BFB2EB030088BF54
:205B0000C81738BF6FEAE17018BF40F0010070477FEA226C02D15FEA402C05D17FEA236CF9
:205B2000E4D15FEA412CE1D05DF8040B704700BF844608466146FFE70FB5FFF7C9FF002820
:205B400048BF10F1000F0FBD4DF808EDFFF7F4FF0CBF012000205DF808FB00BF4DF808EDE2
:205B6000FFF7EAFF34BF012000205DF808FB00BF4DF808EDFFF7E0FF94BF012000205DF803
:205B800008FB00BF4DF808EDFFF7D2FF94BF012000205DF808FB00BF4DF808EDFFF7C8FFA0
:205BA00034BF012000205DF808FB00BF4FEA4002B2F1FE4F0FD34FF09E03B3EB12620DD975
:205BC0004FEA002343F0004310F0004F23FA02F018BF404270474FF00000704712F1610F1C
:205BE00001D1420205D110F0004008BF6FF0004070474FF00000704753B94AB9002908BF67
:205C000000281CBF4FF0FF314FF0FF3001F000B9ADF1080C6DE904CE00F006F8DDF804E079
:205C2000DDE9022304B070472DE9F0478C460E460446089D002B50D18A4217466CD9B2FA46
:205C400082FEBEF1000F0BD0CEF1200C01FA0EF620FA0CFC02FA0EF74CEA060C00FA0EF4DA
:205C60003A0CBCFBF2F9BBB202FB19CC09FB03FA4FEA144848EA0C46B2450AD9F61909F1F0
:205C8000FF3180F02581B24540F22281A9F102093E44A6EB0A06B6FBF2F002FB106600FB29
:205CA00003F3A4B244EA0644A34209D9E41900F1FF3280F00B81A34240F2088102383C44E4
:205CC0000021E41A40EA0940002D62D0002324FA0EF42C606B60BDE8F0878B4207D9002D43
:205CE00055D0002185E841000846BDE8F087B3FA83F1002940F08F80B34202D3824200F23D
:205D0000FC80841A66EB03060120B446002D40D085E81010BDE8F08712B90127B7FBF2F780
:205D2000B7FA87FEBEF1000F35D10121F61B4FEA174C1FFA87F8B6FBFCF20CFB126608FBE1
:205D400002F0230C43EA0646B04207D9F61902F1FF3302D2B04200F2D2801A46361AB6FB38
:205D6000FCF00CFB106608FB00F8A3B243EA0644A04507D9E41900F1FF3302D2A04500F263
:205D8000B9801846A4EB080440EA02409CE729462846BDE8F08707FA0EF7CEF1200326FAE1
:205DA00003F24FEA174CB2FBFCF11FFA87F80CFB112206FA0EF620FA03F301FB08F933435F
:205DC0001E0C46EA0246B14500FA0EF409D9F61901F1FF3280F08C80B14540F28980023933
:205DE0003E44A6EB0906B6FBFCF00CFB106200FB08F99EB246EA0246B14507D9F61900F1D1
:205E0000FF3371D2B1456FD902383E44A6EB090640EA01418FE7C1F1200722FA07F88B40D2
:205E200048EA030326FA07F44FEA134EB4FBFEF91FFA83FC0EFB19448E4020FA07F809FBE6
:205E40000CFA48EA06084FEA184646EA0444A24502FA01F200FA01F608D9E41809F1FF3020
:205E600044D2A24542D9A9F102091C44A4EB0A04B4FBFEF00EFB104400FB0CFC1FFA88F8D2
:205E800048EA0444A44507D9E41800F1FF3E29D2A44527D902381C4440EA0940A0FB02897E
:205EA000A4EB0C0CCC45C246CE4615D312D055B1B6EB0A036CEB0E0606FA07F7CB401F43BA
:205EC000CE402F606E600021BDE8F0871046F7E68946DEE64645EAD2B8EB020A69EB030EF9
:205EE0000138E4E77046D7E718468FE78146BDE7114676E702383C4444E7084606E7023ADB
:205F00003E442BE703685A004CBF43F0004323F000431844704700BF61B32DE9F84F01F11C
:205F2000FF3A90460646D146002707EB090404EBD4746410E50071190846FFF7E3FFA245A2
:205F4000834605F10800304409D0FFF7DBFFC34500F1FF3005D8404509D2671CE5E7C345A1
:205F600005D9A74202D004F1FF39DEE700210846BDE8F88F08467047012807D0022807D0F5
:205F8000044B00280CBF1846002070470248704702487047896600008D66000091660000AF
:205FA00030B5254B83B004468D1E73B301A92846AFF3008018B301992A46FFF7ADFF014646
:205FC000E8B1FFF79FFF4B68A064012B11D0002B22DB081DFFF796FF0023E064236503689E
:205FE000002B1EDBFFF78EFF00232061184603B030BD052300221846226103B030BD092361
:2060000000221846226103B030BD0C4B0C491846C91AC9100191CFE70123081DE0642365BA
:20602000DDE7C3F30360FFF7A7FF0028206114BF00230923DAE700BF00000000143A01004D
:206040004C3C0100036810B5DA07044606D49B0700F1480009D500F057FC2368590709D5BD
:206060001A070ED5DB0613D510BD00F045FC23685907F5D404F1D00000F04EFC23681A07F6
:20608000F0D404F5A87000F04FFC2368DB06EBD404F5E870BDE8104000F08ABC036803B12A
:2060A00003441846704700BF09207047704700BF70B504460D4608E02A6C23696261214679
:2060C0002A4601209847082808D1296C2046FFF767FF06460028EFD000F09CFE0728FBD138
:2060E0003046296CFFF7E2FF281D00F0F9FB00BF2DE9F04705460027ADF5727D03AC0E1DAC
:2061000092460FCE0FC40FCE0FC40FCE0FC496E80F00D5F80C80D5F8189084E80F0002AC13
:206120002846216C2760FFF73BFFBAF1000F074614BF0A2609267FB1A36B46F010018DE87A
:2061400010022A46636401202B46C04778BB38460DF5727DBDE8F087236C4FF4F0726B619F
:2061600021467AA802F01CFA2B697AAA294630469847889B82468DE81002314663642A46F2
:206180002B460120C04790B94FF4F0727AA9204602F006FABAF1080F06D1216C2846FFF773
:2061A000FFFE09260746C6E7BAF1070F05D0092738460DF5727DBDE8F0873846216CFFF767
:2061C00075FF03A800F08CFB406C7047F0B54FF0FF3ECB6BF9B00B640E1D01AD0F460446DF
:2061E0000FCE0FC50FCE0FC50FCE0FC596E80F0085E80F00CDF800E006E023696A46214655
:2062000098470828054608D110992046FFF7C8FE0028F2D0092079B0F0BD6846FFF712FFE2
:20622000062DF7D139462046FFF742FF30B4DD6BC160826119461D64002230BC58E700BF2B
:2062400070B54369C6680B6426B10122FFF750FF00F0E0FD03690A4604460D460146022002
:206260009847072807D0082803D129462046FFF71FFF00F0CFFD3046296CFFF717FF281D34
:2062800000F02EFBC2682AB110B4CC6B00220C6410BC2DE79AE700BF704700BF836813B10E
:2062A000014601201847704700B5042907D8DFE801F00309060909000BB90F2A05D90220C6
:2062C0005DF804FB01205DF804FB00EB820252681846019B1A605DF804FB00BF002310B55D
:2062E00084B003AC0A4600941946FFF7DDFF039804B010BD00B5042907D8DFE801F0030905
:20630000060909000BB90F2A05D902205DF804FB01205DF804FB019900EB820209681846C7
:2063200051605DF804FB00BF002310B584B004AC44F8042D00940A461946FFF7DBFF04B099
:2063400010BD00BFF0B54FF0FF3ED36BADF50F7D1364151D17AC07460E460FCD0FC40FCD8C
:206360000FC40FCD0FC495E80F0084E80F00CDF858E012E00C2116A86A46FFF7D5FF3146C9
:2063800016A8B84778B9049B16AA6946082098470528044608D0092805D026996846FFF742
:2063A000FFFD0028E6D0092416A8FFF74BFE20460DF50F7DF0BD00BF2DE9F04FCC6C914615
:2063C00022688BB004340D460792089400F0030B1E46002B60D10323120207928DF825609D
:2063E0008DF824302B6DBBF1020F08BFAC6B13F0010340D1019300F008030393D4F8008008
:20640000B8F1000F39D0022E43D0B4F8008067880434AB6C27F0010A0F2148469A44FFF75A
:206420005DFF824533D828F001039A4450452CBF002001207F0007F0020708F0010847EAC2
:206440000807012F3ED035D3022F1CD1236823F000420292BBF1000F76D128B103990029B5
:206460007ED0002A00F0A680002B77DB029B013304EB8304C2E700230193022E3EDDFFF729
:2064800013FE002840D009200BB0BDE8F08F0020D0E767680834BCE7022BA3DC0221130C38
:2064A0008DF825301204DBB204EB830407928DF8241097E7BBF1000F02D0002840F0BD80F7
:2064C00004349BE7BBF1000F25D1A8B194E80C00991C4FEAD272D6D005F15801013306917E
:2064E00000F0A380201DFFF7D9FD06AB01462846FDF720FD002877D108347FE707A94846B9
:2065000000F0F0FA0028BED1019B002B5CD108200BB0BDE8F08F0D2148462F6AFFF7DEFEC8
:206520008742E9D1AB6A9C42E6D12046FFF7EAFC0F2102464846FFF7F7FE48462A460021DC
:20654000FFF7F2FE07209FE70D2148462F6AFFF7C5FE874258D02368002B87DA043485E7EE
:20656000029B3BB305F15803271DCDF810B0DDF80C80A346DDF808A01C46059602E0B245D9
:20658000B04616D038460694FFF788FD06AB014600222846FDF7CEFC08F1010604370028E3
:2065A000EDD0029B5C464345DDF810B0059ED2D100E05C4648460D21FFF790FE069B28628F
:2065C000AC626B6206205FE70F214846FFF786FE0E2102464846FFF7A7FE4846294A0F216B
:2065E000FFF7A2FE07204FE707460D214846FFF775FE022F28621DD12B46069A43F82C2FE6
:206600006B62AC6206203FE7AB6A9C42A3D1042200270299A318A962EF622A636B63236807
:20662000BB421DDB0123019320E748460D21FFF755FE2862069B6B62E3E72046FFF762FC25
:2066400004340646AC632846FDF7D0FC00283FF41AAF484632460F21FFF766FE072013E7A4
:206660000846013004EB8000FFF74CFC0F2102464846FFF759FE48462A463946FFF754FED6
:20668000072001E7314F0000002395E6012393E6022391E6F0B50446C5B004290DD8DFE857
:2066A00001F055030C310F00012B4FEA124695B264D17219102A40F29D80022045B0F0BD34
:2066C000002BFAD1102AF8D82368D80600F1C88022AE30460192012500F074F90023A06B8E
:2066E000019A05FA03F1114203D00168043046F823100133042BF4D1A063304600F058F9F6
:206700000020DBE7032BD8D1150C97B2EB19102BD3D823681E0700F1B78022AE304600F05E
:2067200025F9ED00A06B5FB1043D0346711900EBC70053F8042B834241F8042FF9D118469A
:20674000A063304600F0F0F80020B7E7002BB4D10127A56B96B2201D07FA03F1314203F161
:20676000010302D0296804350160102B00F10400F2D112F400503BD1A5639FE7052B9CD198
:206780007719202F99D80F2E66D92F46002D3AD12A460027002AA06B72DD00EBC20201466F
:2067A00044A800EBC6008C3851F8045B914240F8045FF9D1084697B1102E324638BF102223
:2067C00044A901EBC202A2F5C4727900043A00EB810150F8045B884242F8045FF9D1012B27
:2067E00048D00F2EA16333D917B102A800F094F8002063E70F2E3FF660AF00272268D107D2
:2068000017D4002F60D02268510745D4012B4DD00F2E06D822A8019300F07AF8019B002F44
:20682000B6D002A8019300F07BF8019BC6F11002B0E722F00101052B2160019320463BD06B
:2068400022F0030240F8482B00F05AF8019BD8E722A800F059F8C7E7102FCED9103FCDE737
:2068600023F01003236004F5E870019200F0AAF8019A2DE70431A16322A800F03DF8B7E784
:20688000002F99D10146AAE723F00803236004F5A87000F06BF840E7204622F0040240F8A5
:2068A000D02B019300F03CF8019BAFE722A8019300F026F8019BB9E741F0020140F8481B7C
:2068C00000F026F8019B9CE7012B03D00F2E3FF65FAF9FE722A8019300F012F8019B57E754
:2068E00000F1340191E838009C46A6464CF8045D90E8FF0FE54600BD90EC210B704700BFC2
:2069000080EC210B704700BF90EC200B704700BF80EC200B704700BFD0EC200B704700BFE2
