:020000040000FA
:2000000000800010550F0000850F0000870F0000890F00008B0F00008D0F000000000000F4
:200020000000000000000000000000008F0F0000910F000000000000930F0000950F00003C
:20004000970F0000970F0000970F0000970F0000970F0000970F0000970F0000970F000070
:20006000970F0000970F0000970F0000970F0000970F0000970F0000970F0000970F000050
:20008000970F0000970F0000970F0000970F0000970F0000970F0000970F0000970F000030
:2000A000970F0000970F0000970F0000970F0000970F0000970F0000970F0000970F000010
:2000C000970F0000970F0000970F000010B5054C237833B9044B13B10448AFF300800123EC
:2000E000237010BDE8090010000000003433010008B5064B1BB106480649AFF30080064850
:20010000036813B1054B03B1984708BD0000000034330100EC090010E8090010000000009A
:20012000154B002B08BF134B9D46A3F5803A00218B460F461348144A121A07F071F90F4BF3
:20014000002B00D098470E4B002B00D098470020002104000D000D48002802D00C4801F0AC
:20016000A8FC06F0E7FC2000290001F05BFC01F09DFC00BF00000800008000100000000090
:20018000171A0000E8090010D41A0010B31A00000000000038B50368044601330D4604D164
:2001A00005480649242201F039FA63680DB1E26800E02269136038BD90180100A818010029
:2001C00070B50E460446154600F04CF9013609D02046002100F060F920462946BDE87040C2
:2001E00000F057B970BD0322FFF7EABF70B50D460446164600F036F901350DD020463146E1
:20020000FFF7C8FF2046012100F046F920460221BDE8704000F03DB970BD0022FFF7E6BFBC
:2002200010B50446013001D110BD0C310B685A1C0BD0A342F9D12046896800F04DF920463C
:200240000221BDE8104000F06FB90248BDE8104001F0D8BA12190100884208B50AD0431CC0
:2002600007D0013106D0044801F0CCFA4FF0FF3008BD084608BD00BF231901000B685A1C71
:2002800005D0834201D1486870470C31F6E7184670470000421C10B5044607D0FFF7EEFF35
:2002A000431C044602D1024801F0ACFA204610BD3419010038B5036804461B680D46984709
:2002C00063681D6038BD38B503680446DB68984763685A68236812B99B68984738BD5B68A0
:2002E00015689847281A0028636808DC5A68916859601B68002BEBD050689847E8E75A6884
:20030000216810680B69984738BDF8B507461C460D46164601F02EFA7A686C6054682E6078
:20032000002334B12168711A002902DB2346A468F7E72BB93B6855601B693046984700E053
:200340009D60AC60BDE8F84001F03EBA38B505460C4601F00FFA6A685368A3420ED19B68F6
:2003600053602A6813B9936898470CE012691868904708E09A68A24203D01346002BF9D1E5
:2003800001E0A2689A60BDE8384001F01DBA08B503685B68984708BD004870478819010063
:2003A0000148FFF790BF00BF8819010038B505460C4608461849FFF76DFFC0B2FF28287082
:2003C00004D1164816492F2201F028F9154B2046D3F8C420104942F48052C3F8C420D3F8E8
:2003E000A82122F04072C3F8A821D3F8A82142F08072C3F8A8210C4B1A680C4B13440C4AD3
:2004000093FBF2F3013B1B020A4A43F400131360BDE83840FFF704BF141A01009019010050
:20042000A819010000C00F40CC0000103F5DC600405DC60000400340431C10B5044604D184
:2004400006480749152201F0E9F82046002100F043F804F01F040120A04010BD95180100B0
:20046000801A010038B504464B1C0D4621600FD00846FFF7E1FF25F01F0505F11803E360DF
:2004800005F11C03236105F1140360606361A56038BD006800F048B838B50368044601330A
:2004A0000D4604D10A480B492C2201F0B7F815B1012D06D038BDA36861681A6822EA01025C
:2004C00003E0A368626819680A431A6038BD00BF90180100801A010038B5431C04460D463B
:2004E00004D10F480F49152201F098F804F16040A0F51C2000F00F0252000321914005FA13
:2005000002F203099B0003F1804303F53033186820EA0101196019680A431A6038BD00BF2D
:2005200095180100E71A010038B5431C05460C4604D119481949202201F070F805F1604059
:20054000A0F51C20C4F3800200F01F0102FA01F143099B0003F1804303F530339D6E25EA80
:2005600001059D669D6E294399669AB900F00F0252000321914004FA02F203099B0003F1D4
:20058000804303F53033186C20EA01011964196C0A431A6438BD00BF95180100E71A01007C
:2005A000074BD3F8C42042F40072C3F8C420A3F5582300221A721A7A42F001021A72704726
:2005C00000C00F40024B187A00F00100704700BF0040024000B50E4B8BB093F8202001A887
:2005E000019293F82420029293F82820039293F82C20049293F838209B8F013A9BB2A3F206
:200600006C730592069307F065F80BB05DF804FB0040024007B502AB43F8040D184606F0DD
:20062000B1FA114B1A7A42F002021A72027883F82020027983F82420027A83F82820027B32
:2006400083F82C2002690132D2B283F83820426902F26C7292B29A871A7A02F0FD021A72EB
:2006600003B05DF804FB00BF00400240012810B50B4602D002280FD010BD01463820434326
:20068000124AD058D418F8B111B994F83630DBB10F4B1B68984710BD0C49382000FB0310B5
:2006A0004468013409D00469043040682060382000FB031191F8361009B10021DEE7506829
:2006C00020F001005060D9E710BD00BF140A0010100A0010034A00219068C0F34200FFF764
:2006E000C5BF00BF00C00040034A01219068C0F34200FFF7BBBF00BF00000140034A02217B
:200700009068C0F34200FFF7B1BF00BF00800940034A03219068C0F34200FFF7A7BF00BF85
:2007200000C0094070B503682A4CA34211D006DCA4F58044A34212D1274C052511E0274CDC
:20074000A34209D004F58044A34208D1244C082507E0244C062504E0234C072501E00024BD
:2007600025467AB1012606FA01F16DB2284606FA05F55A6811435960214600F079FB1B4B43
:200780001D6070BD01290AD04468194A382606FB042292F8354030329279E24219D101227A
:2007A00002FA01F6D1F1010138BF002102FA01F15C6824EA06045C6003685B68194208D182
:2007C00002FA05F5094BC3F88050BFF34F8FBFF36F8F70BD00000140D506000000800940F2
:2007E00011070000E9060000FD06000000E100E0140A00102DE9F04F0368744A8DB0934270
:2008000006460D4604DD724872499B2200F006FF3368714A934223D00FDCA2F580429342FA
:2008200039D16E4BD3F8A82122F0C002C3F8A821D3F8A82142F040021DE0694A93421DD08F
:2008400002F58042934226D1644BD3F8AC2122F44022C3F8AC21D3F8AC2142F4802218E064
:200860005E4BD3F8A82122F44072C3F8A821D3F8A82142F48072C3F8A8210CE0574BD3F856
:20088000AC2122F44032C3F8AC21D3F8AC2142F48032C3F8AC21534B4FEA051BD3F8009021
:2008A000B9FBFBF293B20BFB1292002A72D04FEA49024FEA89044FF001080A920B940095DA
:2008C00008941146CDF81C9006954FF0000BCDF81480009A5FFA88F74FF0000A5FFA8AF4E4
:2008E0000029099403DAB1FBF2F4240904E0DDF820C0BCFBF2F464090134C4F34F04099813
:20090000002C08BF012410B1012C98BF02240AEB08006043DDF81CC0C000BCFBF0F001307B
:20092000C5EB500003910292049305F0B5F9DDF818C003996045029A049B06DAA8420ED084
:20094000DDF824B00690059723460AF1010A5FFA8AF0B8422A44C1D3059F002204E0DDF8FF
:2009600024B0069523460122B8F10F0F14D0079CDDF828C04C4407946144089CDDF82CC03C
:2009800008F1010864440894009C2C4400941AB905979EE70127934632684BEA0717117B03
:2009A000FFB241F0800111733268C3F3072111713268DBB21370336883F8287033681A7BCE
:2009C00002F07F021A730DB0BDE8F08F00C00940DC1B0100F51B01000000014000C00F40D4
:2009E00000800940CC000010F8B55D1E012D07460C46164604D914481449FB2200F00EFE52
:200A0000053C032C04D912481049FC2200F006FE042E04D90F480D49FE2200F0FFFD013EBD
:200A2000F6B2032E03D80C4B9A57012301E00022134644EA850444EAC303396843EA0212AD
:200A4000D2B20A73F8BD00BF5E1C0100F51B0100831C0100A61C0100CC1D0100034B196081
:200A6000436838214B430249CA507047100A0010140A001010B502680346117DC907FCD5C9
:200A800010785968084A382404FB01225168C0B2013108D05169043252681B680A605A68AF
:200AA00042F001025A6010BD140A00100368187D00F001007047000038B543683821594317
:200AC000164A04465318D869013015D001F1180313441D1D5B68013304D1114811492C223F
:200AE00000F09CFD6B691A686B681A4214D12368187DC0F3801038BD22683033127D12F02D
:200B0000200F03D000221A71012038BD18790F288CBF0020012038BD002038BD140A001084
:200B200090180100A818010038B504460D462046FFF7C2FF0028FAD02368EDB21D70636830
:200B4000044A382101FB032393F83420013283F8342038BD140A00102DE9F84F98463A4C07
:200B600003680546A34218BF00240E461746D0F804901CB1237C03F03F032374DFF8D4A04F
:200B8000382303FB09A24FF0FF31D16151606A68002103FB02A3284683F835100A46FFF7F5
:200BA000C1FD002E4ED029493846FFF767FB284983464046FFF762FBB31E012B17D8B8F13B
:200BC000FF3F3DD0204B984209D144B1237C404643F0800323741E49FFF722FB30E0382062
:200BE00000FB09A041461C30FFF7FDFA28E0012E28D17B1C26D02B6807221A72124B9B454F
:200C00000AD14CB1237C384643F0400323740F49BDE8F84FFFF704BB382404FB09A0394656
:200C200004300022FFF7E2FA6B68012204FB03A484F8352028460021BDE8F84FFFF772BD7F
:200C4000032ED5E7BDE8F88F000001404C1B0100A81D0100140A00102DE9F84305460F46ED
:200C600008464D491646FFF715FB4C4904463046FFF710FB01462046FFF7EEFA411C0446A6
:200C800004D1474847495C2200F0C8FC464B2C609C4217D009D8A3F580439C421FD1434BB4
:200CA000D3F8C42042F0080217E0414B9C420FD003F580439C4212D13C4BD3F8C42042F025
:200CC00000720AE0394BD3F8C42042F0100204E0364BD3F8C42042F08072C3F8C4204FF02B
:200CE000010984F808902B684FF00008C3F8048028464FF41651FFF77DFD42464B462846AE
:200D00000821FFF771FE38462349FFF789FA30462249FFF785FA7A1C03D038464146FFF728
:200D200003FC731C03D030460021FFF7FDFB1E4B9C420FD005D8A3F580439C420ED100238F
:200D40000BE01B4B9C4207D003F580439C4205D1032302E0012300E002236B606A68154BF0
:200D6000382101FB02334FF0FF325A60DA61284613460021FFF7F0FE0F4B9C4209D10F4B4C
:200D800001221A6029460E480822BDE8F84306F06BBABDE8F88300BF3C1D0100701B010007
:200DA0002A1D0100F51B01000000014000C00F4000800940140A001000C000400C0A00106D
:200DC000C81A001008B5114B1A68EAB9012119600F4BD3F8C40040F40000C3F8C400A3F514
:200DE000D0231A670B4A0220126858600A489208B2FBF0F2013ADA6004205960074900F0C9
:200E000037F8074B10221A6008BD00BFF40A001000C00F40CC00001040420F00A1030000F3
:200E200000E100E008B5044B1B680BB9FFF7CAFF024B986808BD00BFF40A00100040094077
:200E4000034B98615A6942F001025A61704700BF00400940024B5A6922F001025A61704702
:200E600000400940014B01221A607047004009400C4A10B5946892682346B2F1805F0DD2E5
:200E8000094B04F170420432D25843F8042F074A9342F6D1034A4FF080539360103043F8CF
:200EA000201010BD00ED00E0FCFFFF0FC0000010264B2022C3F8A021D3F8A021910603D565
:200EC000D3F8A0215206FBD50222C3F804210022C3F8A8210120C3F8AC210B22C3F80C0116
:200EE000AA21C3F884205522C3F88C10C3F88C20C3F88000C3F88C10C3F88C20134AD2F873
:200F000088305B01FAD50323C2F88030AA23C2F88C305523C2F88C30D2F888100B4B11F074
:200F2000407FF9D00522C3F80821094AC3F8C4200022C3F8C8211A6822F4704222F03A02CE
:200F400042F4405242F03A021A60704700C00F40DE8728040649074A074B9A42BEBF51F8F6
:200F6000040B42F8040BF8E70448804704480047B8360100C8000010E8090010B10E00000D
:200F800021010000FEE7FEE7FEE7FEE7FEE7FEE7FEE7FEE7FEE7FEE708B50368984708BD71
:200FA00008B10B68036070477047C36810B504460BB19B689847204610BD007B70470000F7
:200FC000034653F8042B10B5044602B9036022689A4204D003480449592200F01FFB206842
:200FE00010BD00BFF01D0100041E010038B50B4B04460360002343600D46A1600273084865
:20100000FFF7DEFF25B1074B1A681C60626000E065600348FFF7D4FF204638BDE81D0100FB
:20102000040B0010000B0010104B10B5036004460F48FFF7C5FFA3686BB10E4A1368A342B9
:2010400002D16368136006E05A68A24201D01346FAE762685A600648FFF7B2FF237B13B905
:20106000204600F047FD204610BD00BFE81D0100040B0010000B001010B50446FFF7D4FFCC
:20108000204600F033FD204610BD000070B506460C480D46FFF794FF0B4B1C685CB1A06807
:2010A00070B131462A4607F0C7FE48B9A06807F093FEA84204D10348FFF782FF204670BDC7
:2010C0006468EBE7040B0010000B001010B50023036043600A7804462F2A13D14A788AB144
:2010E000481C2060194623681A782F2A02D10133236004E01AB1013301312360F3E7FFF745
:20110000C5FF6060204610BD406808B528B1FFF754FFD0F1010038BF002008BD10B50446E4
:20112000FFF7F2FF00B1606810BD4068003018BF01207047884238B504460D460AD0FFF7D7
:2011400034FF3CB1EB681BB15B68204629469847EB68E360204638BD0A4B70B5054645F8E6
:201160000C3B06465DB100F12C04AC4207D0103CE368002BF9D09B6820469847F5E73046C3
:2011800070BD00BF281F010010B50446FFF7E4FF204600F0ABFC204610BD08B50368DB6997
:2011A000984708BD08B503685B69984708BD08B503689B6A984708BD7047A0F13000FFF7BC
:2011C000FBBF7047A0F13000FFF7FBBF00F06DB8A0F13000FFF7FABF00F06AB8A0F13000D5
:2011E000FFF7FABF10B5074B044603F108022833026040F8303F00F0F5F82046FFF7ACFF99
:20120000204610BD581E0100A0F13000FFF7EABF10B50446FFF7E6FF204600F067FC2046BB
:2012200010BDA0F13000F3E738B504461D46049B00F046F804F13000294600F0EBF8044B29
:20124000204603F1080228332260236338BD00BF581E0100704770477047000000EB01117A
:2012600010B501F10C04E3682BB90548054940F21F2200F0D3F9E36820461B68984710BDCE
:20128000C81E0100CD1E010038B5054655F8043B04461B6898472846FFF708FC23680546CD
:2012A0005B6820469847284638BD0430FFF7E2BB10B504300C46FFF737FC204610BD000055
:2012C0002DE9FF419046194A04460260184E0020184DE3620F4660606946A060A061A062DC
:2012E00004F10C0003950096FFF724FF6846FFF75CFE694604F11C0003950096251DFFF782
:2013000019FF6846FFF751FE424628463946FFF7A3FC2846E16AFFF76DFA2846064922467D
:20132000FFF79CFB204604B0BDE8F081281F010055120000D01D01005D1200007047704776
:2013400000207047F8B503680E469B6B04468F1898473546BD4207D0236820461B6C15F89E
:20136000011B98470130F5D123682046DB6B9847A81BF8BDF8B503680E469B6B04468F188A
:2013800098473546BD4205D0236820465B6C9847431C05D123682046DB6B9847A81BF8BDC5
:2013A00005F8010BEEE70020704700207047704700207047002070470020704710B5034B52
:2013C00004460360FFF730FE204610BD401F010010B50446FFF7F2FF204600F087FB204675
:2013E00010BD000010B5054B04460360006904F0CDFC2046FFF7E2FF204610BD881F010020
:2014000010B50446FFF7EEFF204600F06FFB204610BD00001FB500220446FFF7E7FD094B79
:20142000224623600023236101A8074907F046F9064901A804F0C2FE206100F03CFB204631
:2014400004B010BD881F0100D01F0100D41F010038B5036804469B6B0D469847206904F028
:2014600057FD2169284604F0B1FE23680546DB6B20469847284638BD38B5036804469B6B11
:201480000D469847206904F043FD2169284604F0D7FE23680546DB6B20469847284638BDD8
:2014A00038B5036804469B6B9847206904F030FD206900F003FB23680546DB6B2046984723
:2014C000284638BD38B5416943680446194400F07DF8636A04F118052BB90548054940F2CB
:2014E0001F2200F09BF8636A28461B68984738BDC81E0100CD1E010038B504460D4600F049
:2015000039F9204600F068F865612069FEF73FFF4119204600F05AF8BDE8384000F054B945
:201520007FB5054605F1180400F024F96E46284600F052F80023B44203930BD02046FFF7CB
:2015400034FD3CB1039B1BB15B68204669469847039B6B626846FFF728FD00F035F904B046
:2015600070BD000038B5074B054645F8183B0446FFF7D6FF2846FFF718FD204600F032F816
:20158000204638BDE01F010010B50446FFF7EAFF204600F0ABFA204610BD08B503689B68A9
:2015A000984708BD074B10B50360002343608360C3600446FEF7F0FE03492061FEF77AFEDA
:2015C000204610BDF81F01009B15000003460A460069191DFEF799BE014604310069FEF7B2
:2015E000B5BE000010B5034B04460360FFF7F4FF204610BDF81F010010B50446FFF7F2FF8E
:20160000204600F073FA204610BD05F047BB06F0E3BC04F06BBE04F043BB000070B50646C8
:201620000D46144600F0A6F831462A462346034800F08CF8BDE8704000F018B80820010022
:2016400038B50368044601330D4604D1054806492422FFF7E3FF63680DB1E26800E0226994
:20166000136038BD90180100A818010000B599B000F080F868461B49FEF7CFFD06A81A494E
:20168000FEF7CBFD0CA81949FEF7C7FD12A81849FEF7C3FD68460121FFF7D2FF06A8002188
:2016A000FFF7CEFF0CA80021FFF7CAFF12A80121FFF7C6FF962000F00FFB68460021FFF7C7
:2016C000BFFF06A80121FFF7BBFF0CA80121FFF7B7FF12A80021FFF7B3FF962000F0FCFA2B
:2016E000D8E700BF32C0092034C0092035C0092037C0092030B50546A1B00C4600F03AF801
:201700002946684622460BF08DF8051E03DC00F05BF821B030BD094B1B6823B9084809496C
:20172000094AFFF799FA0024AC42F0D01DF804100348FFF7F9F90134F6E700BF0C0A0010A8
:20174000C81A001002C0092003C009200FB407B504A951F8040B0191FFF7CCFF03B05DF8E1
:2017600004EB04B07047EFF3108000F0010080F00100704738B5FFF7F6FF80F00100C5B2C4
:2017800072B60C4C23680BB90B4B1D702368013304D10A480A493522FFF740FF23682BB16B
:2017A00025B9084806493922FFF738FF23680133236038BD0C0B0010100B00103920010041
:2017C0005F200100B220010010B50A4C236883B1FFF7C9FF20B1084808494A22FFF71EFF2D
:2017E0002368013B236023681BB9054B1B7803B962B610BD0C0B0010B22001005F20010042
:20180000100B00100FB407B504A951F8040B0191FFF770FF012000F049F900F03DBA0000E8
:2018200008B5084B1B685BB907480849084AFFF713FA05484FF41651BDE80840FEF7DABF9A
:2018400008BD00BF0C0A0010C81A001002C0092003C0092070470000022810B5044601DC48
:20186000002010BD04F04CFA09230360094B033C53F82400002243F8242040B103681B692F
:201880009847041EECDA04F03BFA634203604FF0FF3010BD200B001070B506460C461546BC
:2018A00004F02EFA0923022E03600FDC124B1B680BB9FFF7B5FF6619B44205D00F4814F867
:2018C000011BFFF731F9F7E7284670BD0C4B033E53F8260058B103682146DB682A469847DD
:2018E000041E07DA04F00CFA6342036002E04FF0FF3070BD204670BD0C0A0010C81A0010BB
:20190000200B001070B505460C46164604F0F8F90923022D03600ADC104B1B680BB9FFF74D
:201920007FFF0F48FFF7A6F82070012070BD0D4B033D53F8250058B1036821469B68324602
:201940009847041E07DA04F0DBF96342036002E04FF0FF3070BD204670BD00BF0C0A0010E0
:20196000C81A0010200B001010B5044604F0C8F90923022C03600EDD0A4B033C53F82400CB
:2019800058B103689B699847041E09DA04F0B8F96342036001E0012010BD4FF0FF3010BD34
:2019A000002010BD200B001070B504460E46154604F0A6F90923022C03600ADD074B033C19
:2019C00053F8240038B103683146DB692A46984770BD002070BD4FF0FF3070BD200B0010EA
:2019E000022808B504DC4FF400534B60002008BD04F086F9092303604FF0FF3008BD0000C5
:201A00000148FFF7FFBE00BFD520010008B5012000F04CF8704708B5FFF71CFFFFF7FAFF8F
:201A200008BD704708B5FFF7FCFFBDE8084000F08DBD00000C4910B50A681318EFF3088034
:201A4000834205D3094B0C221A604FF0FF3010BD0748006820B1074C246820448342F1D25F
:201A60000B60104610BD00BFD0000010D01A00101C0B0010200C001038B50A4C05462368B3
:201A8000986804F045FA2368D86804F041FAFFF7C4FE08B100F0F4F805B9FEE7FFF7E6FD50
:201AA000FBE700BF180500100120704708B5FFF7E3FF01207047002106F02EBD04F03ABA29
:201AC0007047704708B5FFF7FBFF08BD08B5FFF7F8FF08BD10B505F0D1F8044610B90248D7
:201AE000FFF790FE204610BD9921010008B105F0CDB8704710B504460848FFF761FA0023B7
:201B0000074A9958A14204BF002199500433B3F5807FF5D10148FFF753FA10BD140B0010A7
:201B2000200B00102DE9F3413449054606F05EFE044610B9FFF774FE5BE02846304906F073
:201B400055FE18B9FFF76CFE012452E028462D4906F04CFE18B9FFF763FE022449E004F01B
:201B6000CFF8092303602848FFF72AFA0024274E56F82430374653B10134402CF7D104F06C
:201B8000BFF8182303602048FFF71AFA2FE04FF0FF381D4846F82480FFF712FA2B783A2BA8
:201BA00006D128461A496A4606F0AEFD009816E068462946FFF78AFA6846FFF7B6FA38B9C2
:201BC00046F8240004F09CF802230360444610E06846FFF799FA18B16846FFF79FFA10B913
:201BE00047F8240003E047F82400033401E04FF0FF34204602B0BDE8F08100BFC6200100DE
:201C0000D5210100CD200100140B0010200B0010D01F010010B504460748FFF7D1F9074B15
:201C20001B6803B19847064B1B680BB1204698470148FFF7C5F910BD240C0010DC000010C3
:201C4000D400001038B505460A48FFF7B9F90A4B1B681BB1984708B9FFF7DCFF074B1C6883
:201C60000CB1A047044605B12C600248FFF7A8F9204638BD240C0010D8000010E0000010E0
:201C800030B585B06D46182420462946ABBE0446204605B030BD0000024B186800F00100ED
:201CA000704700BFF0ED00E038B50446FFF7BAF80546FFF7B7F8401BA042FAD338BD000023
:201CC00008B5044902F0E2FB02F030FDBDE80840FFF7EABF002474494FF47A735843FFF7DE
:201CE000E3BF0000014B0360704700BFE821010010B5034B04460360FFF7F8FE204610BD34
:201D0000E821010038B50368044601330D4604D1054806492422FFF781FC63680DB1E26893
:201D200000E02269136038BD90180100A818010010B504460EF0A9FD204610BD10B5022396
:201D4000C2B08DF80030409100236946019302930EF09BFF044668460EF097FD204642B016
:201D600010BD10B50321C2B08DF8001000210191029140A9C1E9002369460EF086FF04462E
:201D800068460EF082FD204642B010BD2DE9F3412C4C20460EF094FC002120460EF058FC64
:201DA000054620460EF01BFC06462946324620460EF018FC244C6A460746244901A800F03F
:201DC000C7FF01A920460EF00DFF8046284602F0D3F90B4602464046FFF7C3FF01A800F0C1
:201DE00049FE6A4601A81A4900F0B2FF01A920460EF0F8FE0546304602F0BEF90B46024638
:201E00002846FFF7AEFF01A800F034FE6A4601A8104900F09DFF01A920460EF0E3FE04466F
:201E2000384602F0A9F902460B462046FFF799FF01A800F01FFE08480121FFF763FF02B0D1
:201E4000BDE8F08138120010600C0010F8210100FD21010001220100881000100000000091
:201E60007FB5174D174C6A46294602A800F070FF02A920460EF0B6FE01AA0646294603A86B
:201E800000F066FF03A920460EF0ACFE0AA3D3E9002300F5807003C802F010F802460B4664
:201EA0003046FFF75EFF03A800F0E4FD02A800F0E1FD04B070BD00BFD7A3703D0AD7D33FAB
:201EC0000A220100600C001038B5182204460D46002105F0A5FA20462946FEF784F9204633
:201EE00038BD38B5182204460D46002105F098FA20462946FEF791F9204638BD30B5C5B078
:201F000004466A4601A800F023FF00220420039204928DF80800FFF7DDFD01A9054600F059
:201F20008FFE02A9204642950EF0AFFE044602A80EF0ABFC01A800F09DFD204645B030BD6D
:201F400013B50446214601A800F07AFE01A8104900F044FE01A9204600F0BEFE01A800F06E
:201F600089FD21680B4805F0F7FF21680A4C0B48FFF782FA20460121FFF7C4FE4FF07C5025
:201F8000FFF79EFE20460021FFF7BCFE02B010BDE022010011220100800D0010C80E00103F
:201FA00070B54A4CC6B000236A46214602A88DF810300593069300F0CBFE02A904A80EF008
:201FC00011FE2146424C01AA054603A800F0C0FE03A920460EF006FE014628460EF055FE94
:201FE0003C4D03A800F046FD02A800F043FD6A46294602A800F0ACFE02A904A80EF0F2FDF9
:2020000001AA0646294603A800F0A2FE03A920460EF0E8FD014630460EF037FE2E4D03A814
:2020200000F028FD02A800F025FD6A46294602A800F08EFE02A904A80EF0D4FD01AA06466D
:20204000294603A800F084FE03A920460EF0CAFD014630460EF019FE204D03A800F00AFD3C
:2020600002A800F007FD6A46294602A800F070FE02A904A80EF0B6FD01AA0646294603A882
:2020800000F066FE03A920460EF0ACFD014630460EF0FBFD03A800F0EDFC02A800F0EAFC7C
:2020A00002A804A90EF092FD02A903A800F0C8FD03A8FFF745FF03A800F0DCFC02A800F03F
:2020C000D9FC04A80EF0E1FB46B070BD2B220100600C00100A220100F8210100FD21010052
:2020E00070B59D4CC6B003AA04A89C4900F030FE04A920460EF076FD0021FFF71FFE04A89C
:2021000000F0B8FC03AA04A8954900F021FE04A920460EF067FD0021FFF710FE04A800F09F
:20212000A9FC03AA04A88F4900F012FE04A920460EF058FD0021FFF701FE04A800F09AFC1B
:2021400003AA04A8884900F003FE04A920460EF049FD0021FFF7F2FD04A800F08BFC03AA37
:2021600004A8824900F0F4FD04A920460EF03AFD0021FFF7E3FD04A800F07CFC03AA04A85B
:202180007B4900F0E5FD04A920460EF02BFD0021FFF7D4FD04A800F06DFC03AA04A875496C
:2021A00000F0D6FD04A920460EF01CFD0021FFF7C5FD04A800F05EFC03AA04A86E4900F063
:2021C000C7FD04A920460EF00DFD0021FFF7B6FD04A800F04FFC03AA04A8684900F0B8FDC0
:2021E00004A920460EF0FEFC0021FFF7A7FD04A800F040FC03AA04A8614900F0A9FD04A9FB
:2022000020460EF0EFFC0021FFF798FD04A800F031FC03AA04A85B4900F09AFD04A9204663
:202220000EF0E0FC0021FFF789FD04A800F022FC03AA04A8544900F08BFD04A920460EF0EE
:20224000D1FC0021FFF77AFD04A800F013FC03AA04A84E4900F07CFD04A920460EF0C2FC50
:202260000021FFF76BFD04A800F004FC03AA04A8474900F06DFD04A920460EF0B3FC00211F
:20228000FFF75CFD04A800F0F5FB03AA04A8414900F05EFD04A920460EF0A4FC0021FFF76D
:2022A0004DFD04A800F0E6FB03AA04A83A4900F04FFD04A920460EF095FC384D00220023D3
:2022C000FFF74FFD04A800F0D5FB00236A46294602A88DF810300593069300F039FD02A99D
:2022E00004A80EF07FFC01AA0646294603A800F02FFD03A920460EF075FC014630460EF050
:20230000C4FC03A800F0B6FB02A800F0B3FB02AA03A8234900F01CFD03A904A80EF062FCE9
:202320002049FFF7EBFD03A800F0A4FB02A804A90EF04CFC02A903A800F082FC03A8FFF71A
:20234000FFFD03A800F096FB02A800F093FB04A80EF09BFA46B070BD600C00102E220100FE
:2023600033220100382201003D22010042220100472201004C220100512201005B2201001C
:20238000652201006F2201007922010083220100F8210100FD2101000A2201002B2201002D
:2023A0008D2201009222010000B5CDB00021142202A805F035F81422002107A805F030F840
:2023C0003A232248029305F0C7FD214B02A81B6807A9984701AA1F490CA800F0B9FC0CA99F
:2023E0001D480EF0FFFB1D49FFF788FD0CA800F041FB079B23BB1A4805F0AEFD079A089BF9
:2024000018490CA806F05AF90CA805F0A5FD0A9B099A14490CA806F051F90CA805F09CFD38
:202420006A4601A80B4900F093FC01A90A480EF0D9FB0CA9FFF762FD01A800F01BFB02E007
:20244000094805F089FD4DB05DF804FBA5220100E40000102B220100600C0010E1220100D5
:20246000B8220100C9220100D222010001460148FFF702B84810001038B5CB6804460D463B
:202480000BB15B689847EB682046E36038BD0000F0B585B0154606466846FFF7EDFF28466E
:2024A0000D4901F0F3FF02F067F96C4606F11805A542074607D02846FEF777FD1DB12846AD
:2024C0006946FFF7D9FF30463946FFF715F86846FEF76BFD05B0F0BD0024744930B5134DF4
:2024E00085B0134B134C69462A46134800930394FFF7CEFF6846FEF758FD104B69464FF042
:202500007E520F4800930394FFF7C2FF6846FEF74CFD0C4B69462A460B4800930394FFF7DE
:20252000B7FF6846FEF741FD05B030BD0000A0408D1D0000D01D0100480F0010611E000004
:2025400060100010A11F0000B00D001030B5A1B0FFF72AFFFFF7C4FDFFF7C0FF01211D4826
:20256000FFF7D0FB4FF07C50FFF7AAFB00211948FFF7C8FB4FF07C50FFF7A2FB164800219C
:20258000FFF7C0FB1548FEF77FFE30B11448FEF787FF01461348FEF75BFF0A250024124865
:2025A000FEF772FE50B10F48FEF77AFF7F2CC5B204DC20AB234403F8805C01340A2DEED1BA
:2025C00020AB1C446846002304F8803CFFF74EFFC4E700BFC01100108810001018100010D9
:2025E00048100010C80E0010980E001008B50248FEF7E6FC08BD00BFF80A001008B502485C
:20260000FEF7DEFC08BD00BFF80A00102DE9F04F964C974E974885B000252246DFF8A88396
:202620009549964F057045608560FFF73DFA3046FEF7B8FFC6F8008075623046904E3946A1
:202640002246FFF731FA3046FEF7ACFFC6F80080756230468B4E39462246FFF725FA304605
:20266000FEF7A0FFDFF86493C6F80080DFF860837562394622464FF416573046FFF714FA18
:20268000814E2B46009741464846804AFEF7CCFDDFF840A34846DFF8409331462246FFF7FF
:2026A00003FA2B46009749465046794AFEF7BCFD314622465046FFF7F7F9DFF820B3DFF8A3
:2026C00020C3DFF820A32B460097594652466046CDF80CC0FEF7A8FDDDF80CC06D4F2246A8
:2026E000604631466C4EFFF7DFF96C4D39466C48FFF7F7FB31466B48FFF7F3FB29466A4832
:20270000FFF7EFFB69496A48FFF7DEFB69496A48FFF7DAFB69496A48FFF7D6FB69496A48E8
:20272000FFF7D2FB69496A48FFF7CEFB39466948FFF7CAFB68496948FFF7C6FB3146684888
:20274000FFF7C2FB29466748FFF7BEFB66496748FFF7BAFB66496748FFF7B6FB664967488D
:20276000FFF7B2FB66496748FFF7AEFB66496748FFF7AAFB66496748FFF7A6FB664967486D
:20278000FFF7A2FB66496748FFF7ABFB66496748FFF7A7FB66496748FFF7A3FB6649674866
:2027A000FFF79FFB66496748FFF79BFB66496748FFF797FB59466648FFF793FB51466548A4
:2027C000FFF78FFB64496548FFF78BFB64496548FFF787FB49466448FFF783FB2C49634802
:2027E000FFF77FFB41466248FFF77BFB27496148FFF777FB60496148FFF773FB6049614843
:20280000FFF76FFB60496148FFF76BFB60496148FFF767FB604D61496148FFF762FB614903
:202820006148FFF75EFB284660490B220DF0B8FE5F4E22465F492846FFF736F95E4F5F4B02
:20284000354645F8043B3846FEF7BAFB28465C49FDF7ACFD3846FEF7B3FB5A493046224607
:2028600005B0BDE8F04FFFF71FB900BFC8000010480F0010600C0010311D000065150000AF
:2028800060100010B00D0010E511000003C0092001C0092032C0092034C0092035C00920C9
:2028A000C0110010800D0010881000102DC00920901100102EC00920440C00102FC009209C
:2028C000D80D001030C00920F00D001031C00920080E0010200E001033C00920380E0010ED
:2028E000500E0010680E001036C00920700F001037C00920880F001038C00920A00F00108F
:2029000039C00920B80F00103AC00920D00F00103BC00920E80F00103CC00920001000103C
:2029200044C00920A010001045C00920B810001046C00920D010001047C00920E81000104D
:2029400048C009200011001049C009201811001030110010481100100FC009206011001087
:2029600010C009202C0C0010800E0010680D001078110010980D001004C00920E00E0010BA
:2029800005C00920F80E001006C00920100F001007C00920A81100103812001008C0092011
:2029A000D811001009C00920300F001017C00920280F0010AB050100F80A0010E8210100C9
:2029C00018C00920E51C0000E01F01001810001002C00920980E001000C009200AC0092040
:2029E000F01100100BC00920036853F80C0C1844704700BF134B10B5984204461ED888422B
:202A000014D94A00944238BF144604F11D02B2F5805F04F10D000BD9A14209D204F580544D
:202A2000C2F30B02A41A9C4228BF1C4604F10D00FFF750F800224460826010BD024800F000
:202A400017FF00BFFCFFFF3F24230100FFF74EB8836810B5002B03F1FF34846001DCFFF76B
:202A6000F5FF10BD024B834200D17047FFF7F0BF6812001010B504460068064B0C389842E6
:202A800082B002D1204602B010BD01A9FFF7E0FFF8E700BF6812001038B5044600680B46B5
:202AA000104461681A46FFF7A5FF2268054622B90C300C4B9D4210D138BD012A00F10C03DC
:202AC00006D0184604F10C0104F0CEFB2268F0E7227B18462A732268EBE700232A60AB60F6
:202AE0008354E9E76812001030B5036883B053F8082C0446914215D0184650F80C2D9142EF
:202B00002CBFC2EB0102C2EB020201A9FFF7C4FF2368094A0546A3F10C00904207D125600E
:202B200003B030BD53F8042C002AE5DCF8E701A9FFF78EFFF3E700BF68120010F8B5154658
:202B400004460E46F2B10368214953F80C2C891A8D4239D853F8081CAF188F4214D99E4285
:202B60001ED220463946FFF7BFFF236853F80C2C012D03EB02000ED1317899542368154A41
:202B800093421AD12046F8BD53F8041C0029EFDD9E42E6D304E031462A4604F065FBEDE76E
:202BA0001A449642DDD820463946F61AFFF79CFF23681E4453F80C2CDAE7002243F80C7C8E
:202BC00043F8042CDA55DDE7034800F051FE00BFFCFFFF3F74120010B823010038B505466B
:202BE00008460C4606F0F8F8214602462846FFF7A5FF38BD036870B553F80C2C044653F8FB
:202C0000080C551C85420E4603D853F8041C002906DD20462946FFF767FF236853F80C2C83
:202C20009E542368054A934200D170BD002243F80C5C43F8042C5A5570BD00BF7412001094
:202C400010B50B68044653F8042C82B0002AA3F10C000BDB0949884218BF0132184618BF3A
:202C600043F8042C2060204602B010BD01A90022FFF712FF2060204602B010BD68120010C2
:202C800030B502680B6804460C3AA3F10C00824283B00ED053F8045C002D0DDB0D4988428D
:202CA0001CBF013543F8045C10461D4688420DD12560204603B030BD01A90022FFF7ECFED0
:202CC000226805460349A2F10C00EFE701A9FFF7BFFEEDE76812001008B5FFF7D1FF08BD5B
:202CE000884270B50B4604461ED000B30E1A30460021FFF77FFE012E054600F10C030CD120
:202D000022782A730F4A954216D1184670BDFFF771FE2646054600F10C0318462146324681
:202D200004F0A2FA0346EDE7074B184670BD002BEDD0064800F072FD00222E60AA609A55CB
:202D4000E3E700BF6812001074120010E823010070B50C460546164661B1084606F03CF816
:202D60002118204632464FF00003FFF7B9FF2860284670BD4FF0FF31F3E700BF1EB400F05F
:202D80008BF81EBC02F000FBF0B5027883B0472A0D461E461AD00023244C0193226820466E
:202DA0009368984780B1019B02271B6801932A68214628461469012301AAA04710B1019B35
:202DC0003846336003B0F0BD0127F0E743784E2BE1D18378552BDED1C378432BDBD10379A2
:202DE000462B16D00379432BD5D143792B2BD2D183792B2BCFD1C379012BCCD804D050F81D
:202E0000204C58300190C9E750F8200C50F8784CF8E743794F2BE5D18379522BE2D1C379CA
:202E2000002BDFD10193024CB8E700BFCC2401006024010010B5044600F01EF92378A4F1BB
:202E40002002472B04D0836823BB8260012010BD63784E2BF7D1A378552BF4D1E378432B2C
:202E6000F1D12379432BEED163792B2BEBD1A3792B2BE8D1E379012BE5D854F8043C0133A9
:202E8000012B44F8043CE1D1836844F8083C8260012010BD00F0F0FB08B500F0EDF8836845
:202EA00083B393F82020472A04D00022826003F1200008BD93F821204E2AF6D193F8222017
:202EC000552AF2D193F82320432AEED193F82420432AEAD193F825202B2AE6D193F8262012
:202EE0002B2AE2D193F82720012ADED8DA69013ADA61002ADBD19A6900218260996103F194
:202F0000200008BD00F0B8FB38B5044600F0B4F8217803684729A4F1200205D0002B31D129
:202F20001C460260204638BD61784E29F6D1A1785529F3D1E1784329F0D121794329EDD1B6
:202F400061792B29EAD1A1792B29E7D1E1790129E4D854F80C5C002D11DB013541689A429A
:202F600001F1FF3144F80C5C41601CBF44F8103C02602046646A01F043FE204638BDC5F1AE
:202F80000105EBE700F078FB013101D0FFF7F6FE00F020FE08B500F06BF802460068002813
:202FA0003DD090F82010472906D0BDE8084000212030116001F026BE90F821104E29F4D16D
:202FC00090F822105529F0D190F823104329ECD190F824104329E8D190F825102B29E4D16D
:202FE00090F826102B29E0D190F827100129DCD84169002905DB013908D04B1C0DD04161C6
:2030000008BD0131FBD103691360F8E70169BDE808402030116001F0F5BD00F02DFB08BD97
:20302000014B0360704700BF50240100014B0360704700BF502401000048704784240100B4
:20304000004870479424010010B5034B04460360FEF74CFD204610BD5024010010B5034BFF
:2030600004460360FEF742FD204610BD502401000048704778120010004870477812001095
:2030800030B40024234610F8012B02F07F059D402C43150603F10703F5D41F2B06D8520667
:2030A00004D54FF0FF3202FA03F31C430C6030BC704700BF2DE9F041502884B0074688469A
:2030C00046D000F00F010C2940D8DFE801F0072C3B07193F3F3F3F211D071900164656F843
:2030E000044B44B107F07001102908BF904644443A0648BF246830461C6004B0BDE8F08137
:20310000146802F10806ECE7164636F9024BE8E7104603A901920093FFF7B2FF039C0646FE
:20312000019A009BDDE700242546164616F8011B01F07F00A840090644EA000405F10705E5
:20314000F4D4CEE7164636F8024BCAE702F09CFDD61C26F0030656F8044B30461C6004B08B
:20316000BDE8F081FF2808B50FD000F07003202B18D00CD9402B10D0502B06D0302B0AD129
:20318000BDE80840084602F0DDBA002008BD002BFBD0102BF9D002F077FD0846BDE80840EB
:2031A00002F0C0BA0846BDE8084002F0CFBA00BFF8B50C461646074608B102F0B3FA30609E
:2031C00025780134FF2D33D039462846FFF7CAFF22460146331D2846FFF76CFF044623788F
:2031E000601CFF2B337529D0102300223375134610F8011B01F07F049C40090642EA04027D
:2032000003F10703F4D40244F2600378002473750130234610F8011B01F07F059D400A06A9
:2032200044EA050403F10703F4D404443461F8BD70602378601CFF2B3375D5D10023F3602A
:20324000E3E700BF2DE9F04F00F0030393B00025012B0E461446069500F0A6800ED3022B99
:203260000AD13046214602F049FA002800F0A480092013B0BDE8F08F02F006FD00F0080028
:203280005FFA80F84FF0010912AB43F82C6D002100930C220B46204601F0E4FC204602F0C1
:2032A00047FA07460028DCD00CAA394620460392FFF77EFF214683469DF84400FFF752FFB9
:2032C0000BAD00210E900B460F220095204601F0A1FC0B9A109B22F001029B4548EA0908E4
:2032E00002F1FF3939D29DF845A000215046FFF739FF5A46014609AB5046FFF7DBFE9DF8A4
:2033000045A0834600215046FFF72CFF5A4601460AAB5046FFF7CEFE9DF845A083460021CF
:203320005046FFF71FFF5A4601462B465046FFF7C1FE002183460B461BF801EB0EF07F0287
:203340009A401EF0800F41EA020103F10703F3D1099A0C9B134499451DD24FF000094FF011
:20336000010B002518F0010F4CD0BBF1020F3FF478AF0AAB0021204600930D220B46069CE0
:2033800001F048FC0A9B7462B562F762C6F83090336206206DE70A9A13449945C0F09280E5
:2033A000109B9B459FD3D8E700F0080000F0FF0830B14FF0020967E7082013B0BDE8F08FDA
:2033C0000CA9009103911046434641460D22356A01F020FC0C9B9D42EBD112AB43F82C6DFF
:2033E00000934146434620460C2206F1280501F039FC95E8A002B9F1000F00F017814FF0AD
:20340000030B3DE018F0080F36D0BBF1010F00F01C81002DC0F2158112AB002143F8286DF0
:203420000A46009320460B4601F01CFC12AB43F8245D0021009320460B46012201F012FCE3
:203440000AAD00210B4620460F22009501F0E2FB0A9B002103F001032046009549EA030457
:203460000F220B460A9401F0FDFBBBF1020F36D0072013B0BDE8F08FBBF1010F00F0D68070
:20348000002DC9DA3946039A2046FFF791FE9DF844002146FFF766FEAA000F9F82F00302EC
:2034A000D2430E90BB58174433B13A46002352F8041F01330029FAD10422B362F062776368
:2034C0003263A9E70B9B7BB10D9A03EB020969B9B9F1000F3FF4C5AE4FF0020B41E73046EA
:2034E000FFF7A8FC0720C4E69946F0E7109B01395818B9F1000F3FF4B4AE0028ECD018F01C
:20350000080305937ED047224E2355213270737043224623B170F2704F21522233710023E9
:203520007171B271F3714FF0000B049408A9FFF7A7FD09A98246FFF7A3FD089B002B2FD018
:2035400031DD9DF84400FF285AD000F00702042A3FF692AE01A151F822F000BF9B3500000B
:2035600079320000953500009B35000071350000DB005B420F9A0E991A440AABFFF79AFDF8
:203580000A99F9B1002E54D1099B002B45D00AEB0300CBE75B005B42ECE79B005B42E9E72A
:2035A0004FF0010BF0E701330EB1059A7AB10F9AC3EB837352F82330D3F1010338BF002360
:2035C000002BE1D0049C089D4FF0030BCAE60F9AC3EB837352F82310069802EB83030B9057
:2035E0001C4619B917E054F8041FA1B12144304600222B46FFF7C8FB0028F4D00023DFE7E3
:203600000023B7E7F379012B0CBF56F8203C06F15803069387E70123D2E7049CBBF1000F4B
:203620003FF41FAE1D464FF0020B9BE6304600F0C1FA3046002206ABFFF7A6FB0028C1D19F
:20364000A2E700F025F8FFF75FFC00F015F800BF08B5804702F018FBFFF756FC02F014FBF5
:203660000C460546FFF796FC013401D0FFF786FB284600F0AFFA00BF08B5024B1868FFF762
:20368000E7FF00BFEC00001008B58047FFF7F4FF08B5024B1868FFF7F7FF00BFE8000010EF
:2036A00010B5034B0446036000F0CAF9204610BD3825010010B5054B0446036000F0C0F99B
:2036C0002046FEF713FA204610BD00BF3825010070B584B0089C0D469442064607D0B068D1
:2036E0002946056800942C6AA04704B070BD19460392029300F078F8039A029B0028EED0F3
:203700000620F2E72DE9F04F884685B019461F46924683460E9EDDF84090119D00F064F8A2
:20372000044698B1B8F1000F2E6085F804A022DB46440024B14514BF4FF001094FF0060984
:20374000204685F8069005B0BDE8F08F4E4517D0DBF808000F9B046801930096CDF8089025
:203760000395E469414652463B46A0470446204605B0BDE8F08F18F1020F0AD00024F6E75F
:2037800058460F9900F030F80028E1D085F805A0EDE70123AB710024E9E700BFF8B507460F
:2037A0000E4615461C4600F063F930B9B8683146066823462A46B469A047F8BD014B03607D
:2037C000704700BFB825010000207047002070470020704710B5034B04460360FEF786F9DC
:2037E000204610BDB8250100814208B511D0406803782A2B0BD049680B782A2B08BF013182
:2038000004F0F4FFD0F1010038BF002008BD002008BD012008BD00BFFFF7E6BF30B50546CE
:2038200085B0082000F062F92946044601AA03A8FFF78EFA204603A900F020FB039802A9F0
:203840000C38FFF70FF920460749084A00F052FA204600F077F9FFF791FA039802A90C3811
:20386000FFF700F9F4E700BF50270100F93D000030B5054685B0082000F038F929460446AA
:2038800001AA03A8FFF764FA204603A900F006FB039802A90C38FFF7E5F820460749084A16
:2038A00000F028FA204600F04DF9FFF767FA039802A90C38FFF7D6F8F4E700BF9C27010057
:2038C0004D3E000000487047902601000048704798260100014B0360704700BF0826010095
:2038E00002604160704700BF10B5036882B014461B690A460146684698476368019A9A42A9
:2039000002D0002002B010BD2068009B1B1A5842584102B010BD00BF4B68834201D0002004
:2039200070470868831A584258417047014B0360704700BF08260100014B0360704700BF60
:203940000826010010B5034B04460360FEF7CEF8204610BD0826010010B5034B044603609B
:20396000FEF7C4F8204610BD0826010010B5034B04460360FEF7BAF8204610BD082601006B
:2039800010B5044682B0104605F01CFA01AA01462046FFF7DDF9204602B010BD10B504466D
:2039A00082B0104605F00EFA01AA01462046FFF7CFF9204602B010BD38B5094B094C0A4D9A
:2039C0002246184609491D60FEF76EF8084D094B224618461D600849BDE83840FEF764B88C
:2039E00088120010C8000010702601003939000030260100841200102D390000F0B50368C9
:203A000085B00024102715469E6912686B4600948DF8044003940297B0479DF8043003F049
:203A20000603062B05BF009B012020462B6005B0F0BD00BF0098904214BF0120062070477F
:203A400010B5034B04460360FFF7B8FE204610BDF826010010B5054B04460360FFF7AEFE44
:203A60002046FEF743F8204610BD00BFF826010038B515461C46FFF7B7FE20B10822062326
:203A80002560E260237138BDF8B516461C4607460D46FFF7A9FE08B9032C00D9F8BD2B681D
:203AA000394632465B6928469847F8BDF0B583B0089C0A9D1746AC4206460CD030461946DE
:203AC000FFF792FE20B10B9A0123146017719371002003B0F0BD09990193FFF785FE019BFB
:203AE0000028EBD00B9B5F71F2E700BF38B500F18005284603F0C2F8044638B1204600219D
:203B0000802203F08DFC04F1800038BD0B4AB5F5007F116807D80B46D80706D50134042CD7
:203B20004FEA5303F8D1FFF7A7FD0120A040044B0143116003EB4424E0E700BF8C12001004
:203B4000901200100A4B984203D303F50062904202D3803803F09AB8C31A01215B0A01FA51
:203B600003F3044A116821EA03011160704700BF901200108C1200100378472B01D0002054
:203B8000704743784E2BFAD18378552BF7D1C378432BF4D10379432BF1D143792B2BEED141
:203BA00083792B2BEBD1C07901288CBF00200120704700BF10B5044628B1FFF7A5F92046B1
:203BC000FFF7DAFF08B9FFF757FD54F8140CFFF73FFD00BF2DE9F04F83B00446FFF7CCFF1B
:203BE00068B154F8185C204654F8146CA76AD4F83080646BFFF788F92846FFF745FD2046DB
:203C0000FFF782F9FFF744FDFFF77EF9FFF734FDFFF77AF9FFF72CFA036893F82720012A7B
:203C200027D003F178020025009228F0030803F1200BAA46BA4528DA236823B303EB0409D9
:203C40005846494600226B46FFF79EF898B9D9F8003002AA42F8040DD3F810C0484611490C
:203C60000123E047002818BF01250AF1010A4444E0E71A68D7E700F085F8FFF78BF9FFF762
:203C800089F9FFF77BF89946DAE745B10420FFF72DFF054B03490360044A00F02BF8304687
:203CA000FFF7D6FC20250100E02401002D300000012810B51AD8A1F12803BFF35F8F53E81C
:203CC000002F013A43E800200028F8D1BFF35F8F5AB951F81C3C01F158040BB1204698479B
:203CE0002046BDE81040FFF72DBF10BD51F8140CFFF7AEFC2DE9F84F04460F469046FFF7E9
:203D0000BBF9034659681C481C4AD0F800A04E1C10681B4A5E604FF04E0C2B234FF0550E25
:203D20000021A4F1580543264FF0010B4FF0470944F86C0C04F857CC04F856EC04F8511CB3
:203D400044F8502C04F8533C04F8523C44F8787C44F8748C44F880BC44F870AC04F8589C6A
:203D6000284604F8556C04F8546C01F0FBFA2846FFF7CAF8FFF780FCE8000010EC000010EA
:203D8000B13C000010B5FFF777F942680368013242606BB193F82020472A0BD0002202606A
:203DA00003F12004204601F001FB2046FFF7ACF8FFF762FC93F821204E2AEFD193F8222073
:203DC000552AEBD193F82320432AE7D193F82420432AE3D193F825202B2ADFD193F826201F
:203DE0002B2ADBD193F82720012AD7D85A6952425A61D5E74068704710B543680C4A0446D9
:203E00000C49A3F10C00904282B0216005D12046FFF706F9204602B010BD53F8042C511E28
:203E2000002A43F8041CF2DC01A9FEF70FFEEEE7681200107827010010B50446FFF7DCFFA4
:203E40002046FDF753FE204610BD00BF10B5034B04460360FFF7D0FF204610BDB027010035
:203E600010B5054B04460360FFF7C6FF2046FDF73DFE204610BD00BFB0270100064B10B550
:203E8000044640F8043BFEF7DBFE204610BD2046FFF7C6F8FEF772FF7827010010B5044631
:203EA000FFF7ECFF014B2046236010BDB027010081F0004102E000BF83F0004330B54FEA20
:203EC00041044FEA430594EA050F08BF90EA020F1FBF54EA000C55EA020C7FEA645C7FEA31
:203EE000655C00F0E2804FEA5454D4EB5555B8BF6D420CDD2C4480EA020281EA030382EA9B
:203F0000000083EA010180EA020281EA0303362D88BF30BD11F0004F4FEA01314FF4801C22
:203F20004CEA113102D0404261EB410113F0004F4FEA03334CEA133302D0524263EB4303F0
:203F400094EA050F00F0A780A4F10104D5F1200E0DDB02FA0EFC22FA05F2801841F100015E
:203F600003FA0EF2801843FA05F359410EE0A5F120050EF1200E012A03FA0EFC28BF4CF0B2
:203F8000020C43FA05F3C01851EBE37101F0004507D54FF0000EDCF1000C7EEB00006EEB7C
:203FA0000101B1F5801F1BD3B1F5001F0CD349085FEA30004FEA3C0C04F101044FEA445214
:203FC00012F5800F80F09A80BCF1004F08BF5FEA500C50F1000041EB045141EA050130BD79
:203FE0005FEA4C0C404141EB010111F4801FA4F10104E9D191F0000F04BF01460020B1FA14
:2040000081F308BF2033A3F10B03B3F120020CDA0C3208DD02F1140CC2F10C0201FA0CF0D6
:2040200021FA02F10CE002F11402D8BFC2F1200C01FA02F120FA0CFCDCBF41EA0C01904054
:20404000E41AA2BF01EB0451294330BD6FEA04041F3C1CDA0C340EDC04F11404C4F12002A7
:2040600020FA04F001FA02F340EA030021FA04F345EA030130BDC4F10C04C4F1200220FA2D
:2040800002F001FA04F340EA0300294630BD21FA04F0294630BD94F0000F83F4801306BFE6
:2040A00081F480110134013D4EE77FEA645C18BF7FEA655C29D094EA050F08BF90EA020F4B
:2040C00005D054EA000C04BF1946104630BD91EA030F1EBF0021002030BD5FEA545C05D1F5
:2040E0004000494128BF41F0004130BD14F580043CBF01F5801130BD01F0004545F0FE410A
:2041000041F470014FF0000030BD7FEA645C1ABF194610467FEA655C1CBF0B46024650EA3E
:20412000013406BF52EA033591EA030F41F4002130BD00BF90F0000F04BF0021704730B573
:204140004FF4806404F132044FF000054FF0000150E700BF90F0000F04BF0021704730B584
:204160004FF4806404F1320410F0004548BF40424FF000013EE700BF42004FEAE2014FEA64
:2041800031014FEA02701FBF12F07F4393F07F4F81F06051704792F0000F14BF93F07F4FC1
:2041A000704730B54FF4607401F0004521F0004120E700BF50EA010208BF704730B54FF01F
:2041C00000050AE050EA010208BF704730B511F0004502D5404261EB41014FF4806404F107
:2041E00032045FEA915C3FF4DCAE4FF003025FEADC0C18BF03325FEADC0C18BF033202EBEB
:20420000DC02C2F1200300FA03FC20FA02F001FA03FE40EA0E0021FA02F11444C1E600BFE5
:204220004FEA410212F5001215D211D56FF47873B3EB625212D94FEAC12343F0004343EAD1
:20424000505311F0004F23FA02F018BF404270474FF00000704750EA013005D111F00040D4
:2042600008BF6FF0004070474FF00000704700BF80F0004002E000BF81F0004142001FBF49
:204280005FEA410392EA030F7FEA226C7FEA236C6AD04FEA1262D2EB1363C1BFD21841400F
:2042A00048404140B8BF5B42192B88BF704710F0004F40F4000020F07F4018BF404211F0F3
:2042C000004F41F4000121F07F4118BF494292EA030F3FD0A2F1010241FA03FC10EB0C00B2
:2042E000C3F1200301FA03F100F0004302D5494260EB4000B0F5000F13D3B0F1807F06D3C5
:2043000040084FEA310102F10102FE2A51D2B1F1004F40EBC25008BF20F0010040EA030076
:204320007047490040EB000010F4000FA2F10102EDD1B0FA80FCACF1080CB2EB0C0200FA6F
:204340000CF0AABF00EBC25052421843BCBFD0401843704792F0000F81F4000106BF80F42F
:2043600000000132013BB5E74FEA41037FEA226C18BF7FEA236C21D092EA030F04D092F01A
:20438000000F08BF0846704790EA010F1CBF0020704712F07F4F04D1400028BF40F00040CA
:2043A000704712F100723CBF00F50000704700F0004343F0FE4040F4000070477FEA2262AE
:2043C00016BF08467FEA23630146420206BF5FEA412390EA010F40F4800070474FF0000397
:2043E00004E000BF10F0004348BF40425FEA000C08BF704743F0964301464FF000001CE0ED
:2044000050EA010208BF70474FF000030AE000BF50EA010208BF704711F0004302D540429E
:2044200061EB41015FEA010C02BF84460146002043F0B64308BFA3F18053A3F50003BCFAFB
:204440008CF2083AA3EBC25310DB01FA02FC634400FA02FCC2F12002BCF1004F20FA02F297
:2044600043EB020008BF20F00100704702F1200201FA02FCC2F1200250EA4C0021FA02F205
:2044800043EB020008BF20EADC7070474FF0FF0C1CEAD0521EBF1CEAD15392EA0C0F93EA8B
:2044A0000C0F6FD01A4480EA010C400218BF5FEA41211ED04FF0006343EA501043EA51115D
:2044C000A0FB01310CF00040B1F5000F3EBF490041EAD3715B0040EA010062F17F02FD2AE8
:2044E0001DD8B3F1004F40EBC25008BF20F00100704790F0000F0CF0004C08BF49024CEAE9
:20450000502040EA51207F3AC2BFD2F1FF0340EAC250704740F400004FF00003013A5DDCB4
:2045200012F1190FDCBF00F000407047C2F10002410021FA02F1C2F1200200FA02FC5FEAB4
:20454000310040F1000053EA4C0308BF20EADC70704792F0000F00F0004C02BF400010F4C7
:20456000000F013AF9D040EA0C0093F0000F01F0004C02BF490011F4000F013BF9D041EAD5
:204580000C018FE70CEAD15392EA0C0F18BF93EA0C0F0AD030F0004C18BF31F0004CD8D145
:2045A00080EA010000F00040704790F0000F17BF90F0004F084691F0000F91F0004F14D0E3
:2045C00092EA0C0F01D142020FD193EA0C0F03D14B0218BF084608D180EA010000F00040FC
:2045E00040F0FE4040F40000704740F0FE4040F4400070474FF0FF0C1CEAD0521EBF1CEA74
:20460000D15392EA0C0F93EA0C0F69D0A2EB030280EA010C49024FEA402037D04FF0805308
:2046200043EA111143EA10130CF000408B4238BF5B0042F17D024FF4000C8B4224BF5B1A5A
:2046400040EA0C00B3EB510F24BFA3EB510340EA5C00B3EB910F24BFA3EB910340EA9C00D2
:20466000B3EBD10F24BFA3EBD10340EADC001B0118BF5FEA1C1CE0D1FD2A3FF650AF8B4224
:2046800040EBC25008BF20F0010070470CF0004C4CEA50207F32C2BFD2F1FF0340EAC2502D
:2046A000704740F400004FF00003013A37E792F0000F00F0004C02BF400010F4000F013A58
:2046C000F9D040EA0C0093F0000F01F0004C02BF490011F4000F013BF9D041EA0C0195E735
:2046E0000CEAD15392EA0C0F08D142027FF47DAF93EA0C0F7FF470AF084676E793EA0C0FE0
:2047000004D14B023FF44CAF08466EE730F0004C18BF31F0004CCAD130F000427FF45CAF7B
:2047200031F000437FF43CAF5FE700BF4FEA4002B2F1FE4F0FD34FF09E03B3EB12620DD98D
:204740004FEA002343F0004310F0004F23FA02F018BF404270474FF00000704712F1610FB0
:2047600001D1420205D110F0004008BF6FF0004070474FF00000704742000ED2B2F1FE4FE8
:204780000BD34FF09E03B3EB126209D44FEA002343F0004323FA02F070474FF000007047DE
:2047A00012F1610F01D1420202D14FF0FF3070474FF00000704700BF4BB942B9002908BFD4
:2047C000002802D04FF0FF31084600F0C3BF82B0EC462DE9005000F01DF8DDF804E002B076
:2047E0000CBC70472DE9704F089E14461D468046894600F0B1FF04FB01F3A4FB00AB00FB95
:2048000005329344B8EB0A0869EB0B09C6E90089BDE8708F2DE9704F089E14461D46804693
:20482000894601F0E9F800FB05F5A0FB04AB04FB0154A344B8EB0A0869EB0B09C6E9008908
:20484000BDE8708F03685A004CBF43F0004323F000431844704700BF2DE9F04F064683B072
:20486000914621B3013901918846002707EB080404EBD4746410E50006EB050B5846FFF7A9
:20488000E1FF019B8246A34205F10800304419D0FFF7D8FFCA4500F1FF3004D9BC420BD0E2
:2048A00004F1FF38E2E7484502D2671CDEE78B46584603B0BDE8F08F4FF0000B584603B079
:2048C000BDE8F08FCA45E9D8F2E700BF012807D0022807D0044B00280CBF184600207047D4
:2048E000024870470248704709500000115000001950000030B5274B83B004468D1E002BE9
:2049000042D0284601A9AFF30080034623B32A460199FFF7A1FF054618B3FFF793FF6B681B
:20492000A064012B12D0002B05F1040028DBFFF789FF0023E06423650368002B16DBFFF753
:2049400081FF00232061184603B030BD002323610523184603B030BD23610923184603B0A7
:2049600030BD09232061184603B030BDC3F30360FFF7ACFF0028206114BF00230923E2E751
:204980000123E0642365D7E7034B04481B1ADB100193BCE700000000B836010068340100EC
:2049A000036810B5DA07044606D49B0700F1480009D500F06FFC2368590709D51A070ED5E1
:2049C000DB0613D510BD00F05DFC23685907F5D404F1D00000F066FC23681A07F0D404F5C4
:2049E000A87000F067FC2368DB06EBD404F5E870BDE8104000F0A2BC03680BB11844704753
:204A00001846704709207047704700BF70B504460D4608E02A6C23696261012021462A46A4
:204A20009847082808D12046296CFFF763FF06460028EFD001F028F90728FBD13046296CF0
:204A4000FFF7E2FF281D00F011FC00BF2DE9F047ADF5727D0C1D03AE054617460FCC0FC66E
:204A60000FCC0FC60FCC0FC694E80F0002AC4FF0000ED5F80C80D5F8189086E80F00284697
:204A8000216CC4F800E0FFF735FF002F064614BF0A27092786B1A06B2A468DE8100247F0A4
:204AA000100160642B460120C04700282FD130460DF5727DBDE8F087236C21466B614FF4D8
:204AC000F0727AA802F0D0FB2B6929467AAA38469847889B82468DE8100239466364012038
:204AE0002A462B46C04790B920467AA94FF4F07202F0BAFBBAF1080F06D12846216CFFF726
:204B0000F9FE09270646C5E7BAF1070F04D009200DF5727DBDE8F0873046216CFFF774FF3F
:204B200003A800F0A3FB00BF406C7047F0B5CB6BF9B00B640E1D01AD0F4604460FCE0FC5FE
:204B40000FCE0FC50FCE0FC596E80F004FF0FF3685E80F00009606E0236921466A46984778
:204B60000828054608D120461099FFF7C3FE0028F2D0092079B0F0BD6846FFF711FF062D4B
:204B8000F7D120463946FFF741FF00BF30B4DD6BC160826119461D64002230BCFFF756BF4A
:204BA00070B54369C66804460D460B6426B10122FFF74CFF01F068F80369214602202A46F9
:204BC0009847072807D0082803D120462946FFF71DFF01F059F83046296CFFF715FF281D69
:204BE00000F044FBC26810B432B1CC6B00220C645DF8044BFFF72ABF5DF8044B96E700BF89
:204C0000704700BF08B5836813B101460120984708BD00BF10B4042909D8DFE801F0070353
:204C20000803030001205DF8044B70471BB102205DF8044B70470F2AF9D800EB820252686E
:204C40001846019B1A60EEE700B585B00A4603AB002100930B46FFF7DDFF039805B05DF8A7
:204C600004FB00BF10B4042909D8DFE801F007030803030001205DF8044B70471BB102206A
:204C80005DF8044B70470F2AF9D8019C00EB8202216818465160EEE710B584B004AB43F853
:204CA000042D0C460021009322460B46FFF7DAFF04B010BDF0B5D36BADF50F7D1364151DFA
:204CC00017AC07460E460FCD0FC40FCD0FC40FCD0FC495E80F004FF0FF3584E80F0016953E
:204CE00010E016A8FFF7D8FF314616A8B847694616AA78B9049B08209847052804460AD06E
:204D0000092807D026996846FFF7F4FD6A460C210028E6D0092416A8FFF742FE20460DF5F3
:204D20000F7DF0BD2DE9F04FCE6C0C4631688BB004361D4690460791089600F00309002BB5
:204D400040F089800902032307918DF825508DF82430236DB9F1020F08BFA66B13F0010354
:204D600042D100F00800C0B2039002933768002F3CD0022D6BD03788B6F802A00436A36CF2
:204D80002AF0010B40460F219B44FFF75DFF834536D827F001039B440AF0010A07F0010732
:204DA000584547EA4A072CBF00200120012F31D060D3022F20D1336823F000410191B9F1F7
:204DC000000F40F0858030B1039A002A00F08D80002900F0B080002BC0F28580019B03F12F
:204DE000010A06EB8A06C1E700210291022D49DDFFF708FE00284BD009200BB0BDE8F08F2F
:204E00000AF0010A07F0010747EA4A07012F4FF00000CDD1B9F1000F41D1B0B196E80C0049
:204E2000D70F9A1CE8D004F158010133069100F0AD80301DFFF7E0FD3A46014606AB2046EA
:204E4000FDF7A2FF002840F0CF8008368EE7D6F804A0083693E7022B3FF77BAF0B0CDFB204
:204E6000090402228DF8253006EB870607918DF824206EE7B9F1000F02D0002840F0908000
:204E8000043673E7404607A900F0F0FA0028B3D1029A002A59D108200BB0BDE8F08F404645
:204EA0000D21276AFFF7D0FE8742CED1A36A9E42CBD13046FFF7C6FC0F2102464046FFF75C
:204EC000EBFE404622460021FFF7E6FE072094E740460D21276AFFF7B7FE874245D03368F5
:204EE000002BBFF67BAF043678E7019919B304F1580CCDF810900595371DDDF80CB0DDF897
:204F00000490654602E0CA4515D0D34638460695FFF772FD0022014606AB2046FDF734FF3E
:204F20000BF1010A04370028EDD0019BDDF810905B45059DD3D140460D21FFF785FE069B85
:204F40002062A6626362062057E70F214046FFF77BFE0E2102464046FFF79EFE40460F2134
:204F6000284AFFF799FE072047E7A36A9E42B6D1042201990027B318A162E7622263636320
:204F80003368BB421FDB0122029227E740460D21FFF75AFE2062069B6362A66206202CE78F
:204FA0003046FFF74FFC04360546A6632046FDF741FF00283FF420AF40462A460F21FFF7CC
:204FC0006BFE072019E7481C06EB8000FFF73AFC0F2102464046FFF75FFE40463946224682
:204FE000FFF75AFE072008E707460D214046FFF72BFE022F2062CED1069A234643F82C2F3C
:205000006362CAE7D53B00000023FFF78BBE00BF0123FFF787BE00BF0223FFF783BE00BFB0
:205020002DE9F0410446C4B004290BD8DFE801F059030A300E00012B4FEA124596B266D0C5
:20504000052B6BD0022044B0BDE8F081002BF9D1102AF7D82368D90600F1D38022AE3046C7
:20506000019200F075F9A56B019A0023012000FA03F1114203D02968043546F823100133CD
:20508000042BF4D13046A56300F058F90020DAE7032BD7D1150C97B27B19102BD2D8236838
:2050A0001E0700F1BF8022AE304600F025F9D4F838E07F0006EBC5007B1E72465FB1CEEB14
:2050C0000000AEF1040252F8041F013B5D1C8150F9D10EEB87023046A26300F0EBF800207E
:2050E000B1E7002BAED1A56B96B2012000FA03F1314204D02F6804EB830104354F6001339A
:20510000102BF3D112F4005075D1A5639BE77219102A97D80F2D95D8002708E07719202F9F
:2051200090D80F2D69D9374646B30F2D11D82268D0070ED522F00101052B216000F08C80E9
:2051400022F00302204640F8482B019300F09EF8019B17B1226851076CD4012B74D00F2DDB
:2051600004D822A8019300F099F8019B37B102A8019300F09BF8019BC5F11006D4F8388043
:20518000002EC44612DD22AA4FEA460C02EBC506C8EB06060CF1FF31A8F1040252F8040FF1
:2051A0000139B050481CF9D108EB8C0CB7B144AA102D2CBF2846102002EBC0004FEA4708AB
:2051C000A0F5C47008F1FF32614651F8046B013A40F8046B561CF8D10CEB880C012B1AD0BF
:2051E0000F2DC4F838C002D822A800F053F817B102A800F057F8002025E7102F8CD9103F10
:2052000093E723F01003236004F5E870019200F09FF8019A22E70CF10403A36322A800F098
:2052200031F8E8E723F00803236004F5A87000F063F838E722F00402204640F8D02B019315
:2052400000F034F8019B88E722A8019300F01EF8019B002F90D191E741F00201204640F84D
:20526000481B019300F01AF8019B72E700F1340191E838009C46A6464CF8045D90E8FF0F70
:20528000E54600BD90EC210B704700BF80EC210B704700BF90EC200B704700BF80EC200B46
:2052A000704700BFD0EC200B704700BFC0EC200B704700BFF0EC0201F0EC0211F0EC022101
:2052C000F0EC0231F0EC0241F0EC0251F0EC0261F0EC0271F0EC0281F0EC0291F0EC02A196
:2052E000F0EC02B1F0EC02C1F0EC02D1F0EC02E1F0EC02F1704700BFE0EC0201E0EC02111F
:20530000E0EC0221E0EC0231E0EC0241E0EC0251E0EC0261E0EC0271E0EC0281E0EC029155
:20532000E0EC02A1E0EC02B1E0EC02C1E0EC02D1E0EC02E1E0EC02F1704700BFB0FC01813F
:20534000B0FC0191B0FC01A1B0FC01B1704700BFA0FC0181A0FC0191A0FC01A1A0FC01B115
:20536000704700BFEC4600B52DE900502DE9FF1F4FF000032DE90C0001A9FFF7D7FBDDF88B
:2053800040E012B0704700BFEC4600B52DE900502DE9FF1F4FF000032DE90C0001A9FFF730
:2053A000FFFBDDF840E012B0704700BFEC4600B52DE900502DE9FF1F4FF000032DE90C00E1
:2053C00001A9FFF70FFCDDF840E012B0704700BFEC4600B52DE900502DE9FF1F4FF0000332
:2053E0002DE90C0001ABFFF7D1FBDDF840E012B0704700BFEC4600B52DE900502DE9FF1F6F
:205400004FF000032DE90C0001AAFFF753FCDDF840E012B0704700BF037A1BB9437A43B901
:20542000B02070470268013B037213020360100E70474268013B4372111D1268032303729F
:20544000130241600360100E704700BF00B585B003AB002100930C220B46FFF7DBFB03986D
:2054600005B05DF804FB00BFFFF7F0BF2DE9F043064685B00D464FF000082846FFF7CCFF2C
:20548000B028044600F0AC8020F07F0212F0FF0120D000F0F002802A73D0902A36D0A02AF2
:2054A00042D0B02A56D0C02A00F0828000F0F803D02B0BD100F00704621C42F400223046F5
:2054C00001210523FFF7ACFD0028D6D0092005B0BDE8F08303AF4FEA80090B46009730464D
:2054E0000D22FFF797FB5FFA89F9039B09F1040960064CBFC9EB03034B440393002100976D
:205500000B4630460D22FFF7ADFBB6E700F00D030D2BDBD003AF002100F00F0200970B46BB
:205520003046FFF777FBE9E7C2434FF47F6302F0070243FA02F2010702EA03024FF000012E
:2055400048BF42F480420B463046FFF769FD0028BCD192E7B12848D0B22851D0B3287DD0E7
:2055600000F0FC03B42BB1D000F007020132012142F400220B463046FFF752FD0028A5D18C
:205580007BE72846FFF748FF24022043B0F5004F9CD004010021A2B20B463046FFF740FDA1
:2055A000002893D114F4004F18BF4FF0010864E7C6285FD0C72869D000F0F803C02B78D03B
:2055C000C82800F08E80C92880D12846FFF724FF00F00F03013300F0F00243EA02326EE746
:2055E000B8F1000F6CD0002071E72846FFF714FF024600283FF46AAF10F0F001BAD065E745
:20560000002103AF0D220B4600973046FFF702FB2846FFF701FF02064FF002040DD500F0B4
:205620007F0000FA04F2039B284613440393FFF7F3FE030604F10704F1D400F07F0000FAE4
:2056400004F4039B002103F501731C4400970B4630460D220394FFF705FB0EE72846FFF754
:20566000DBFE00F00F03013300F0F002012143EA02327FE72846FFF7CFFE00F00F030133E9
:2056800000F0F002032143EA023273E72846FFF7C3FE024600283FF419AF10F0F0037FF453
:2056A00015AF30460421FFF7BBFC00287FF40EAFE3E600F00F020132032142F4202259E7AD
:2056C00003AC41460E22434600943046FFF7A2FA0094304641460F224346FFF7C3FA4046BB
:2056E000F5E62846FFF798FE00F0F00200F00F031032013343EA0232E1E600BF10B5C36CA0
:2057000084B003225C688DF80C20DA7908460833240201A901948DF80D200293FFF7A6FE99
:2057200004B010BD08B5FFF79FFE806C08BD00BF08B5FFF799FEC36CDA7903EB82000830B4
:2057400008BD00BF08B500F09FFA00BF08B500F09BFA00BF704700BF00292DE9F00FC0F259
:20576000A1800024002BC0F29880154606460F46002B3FD18A4258D9B2FA82F34BB1C3F1EA
:20578000200201FA03F720FA02F29D4000FA03F61743290CB7FBF1F201FB1277A8B200FB16
:2057A00002F34FEA164C4CEA0747BB4209D97F1902F1FF3C80F00581BB4240F20281023A4C
:2057C0002F44FF1AB7FBF1F301FB137100FB03F0B6B246EA0141884208D9491903F1FF3728
:2057E00080F0F180884240F2EE80023B43EA0242002303E08B420AD900231A4610461946C2
:2058000014B1404261EB4101BDE8F00F7047B3FA83F8B8F1000F40F088808B4202D38242DA
:2058200000F2E28000230122E8E712B90123B3FBF2F5B5FA85F2002A3AD17F1B280C1FFA39
:2058400085FC0123B7FBF0F100FB11770CFB01F24FEA164848EA0747BA4207D97F1901F116
:20586000FF3802D2BA4200F2C4804146BF1AB7FBF0F200FB12700CFB02FCB6B246EA00409D
:20588000844507D9401902F1FF3702D2844500F2AE803A4642EA0142B0E7E443524263EB91
:2058A000430362E7404261EB41014FF0FF3459E79540C2F1200927FA09F126FA09F99740D2
:2058C000280CB1FBF0F800FB18111FFA85FC0CFB08F349EA07094FEA194747EA01418B4224
:2058E00006FA02F608D9491908F1FF327AD28B4278D9A8F102082944C91AB1FBF0F300FB5C
:2059000013170CFB03F21FFA89F949EA0747BA4207D97F1903F1FF3160D2BA425ED9023B0B
:205920002F44BF1A43EA08438CE7C8F1200225FA02F103FA08FC27FA02F320FA02F207FA1D
:2059400008F741EA0C0C4FEA1C49B3FBF9F109FB11331FFA8CFA0AFB01FB17433A0C42EA1B
:2059600003439B4505FA08F008D913EB0C0301F1FF3235D29B4533D902396344CBEB030368
:20598000B3FBF9F209FB12330AFB02FABFB247EA0347BA4508D917EB0C0702F1FF331BD231
:2059A000BA4519D9023A674442EA0145A5FB0001CAEB07078F424FF000030AD305D02A4604
:2059C0001CE76246FDE63B4610E706FA08F68642F5D26A1E002311E71A46E5E70B46A0E78D
:2059E0001146CBE7904687E74346424606E7023A50E702392F4439E72DE9F00F1446054661
:205A00000E46002B43D18A4253D9B2FA82F757B1C7F1200620FA06F601FA07F302FA07F4EE
:205A200000FA07F51E43210CB6FBF1F201FB1266A0B200FB02F32F0C47EA0646B34209D909
:205A4000361902F1FF3780F0FD80B34240F2FA80023A2644F61AB6FBF1F301FB136100FB8A
:205A600003F0ADB245EA0141884208D9091903F1FF3680F0E980884240F2E680023B43EAC8
:205A80000242002310461946BDE8F00F70478B424CD8B3FA83F6002E4FD18B4202D38242C4
:205AA00000F2DD80BDE8F00F0023012210461946704712B90124B4FBF2F4B4FA84F2002A6E
:205AC00040F08280091B260CA7B20123B1FBF6F006FB101107FB00F24FEA154C4CEA014107
:205AE0008A4207D9091900F1FF3C02D28A4200F2C8806046891AB1FBF6F206FB121107FBCF
:205B000002F7ADB245EA0145AF4208D92C1902F1FF3180F09B80A74240F29880023A42EA58
:205B2000004210461946BDE8F00F704700231A4610461946BDE8F00F7047C6F1200522FA88
:205B400005F703FA06F421FA05F301FA06FB20FA05F53C434FEA1448B3FBF8FC08FB1C3327
:205B60001FFA84F909FB0CFA45EA0B0B4FEA1B4545EA03439A4502FA06F204D91B190CF151
:205B8000FF356FD3AC46CAEB0303B3FBF8F508FB153309FB05F91FFA8BFB4BEA0347B945DE
:205BA00004D93F1905F1FF3362D31D4645EA0C4CACFB0223C9EB07079F424FF000054AD399
:205BC00046D062462B465DE79440C2F1200921FA09FC914020FA09F9260CBCFBF6F806FBBD
:205BE00018CCA7B207FB08F349EA01094FEA194141EA0C4C634500FA02F509D91CEB040C86
:205C000008F1FF323BD2634539D9A8F10208A444C3EB0C0CBCFBF6F306FB13C107FB03F2D6
:205C20001FFA89F949EA01418A4207D9091903F1FF3022D28A4220D9023B2144891A43EA38
:205C4000084343E73A4605E7334618E70A4666E7B0409042B5D20CF1FF32002312E7334642
:205C600032460FE79A458DD9ACF1020C23448AE7B9459AD9023D274498E70346DEE7904670
:205C8000C6E70238214435E708B5062002F0F8FC0120FBF7F1FE00BF0028B8BF404270473A
:205CA00010B502FB01F1FBF7B0FC044668B150F8042C22F00302043A242A18D8132A06D809
:205CC000034600221A605A609A60204610BD00231B2A036043600FD9242A8360C36005BF8A
:205CE0000361436100F1100300F11803E9E7002101F096FB204610BD00F10803E1E700BF63
:205D0000014B1868704700BF1805001070B50C46054631B110B1836B002B2FD0B4F90C30AE
:205D20000BB9002070BD2846214600F0DBF8E36A064633B12846E16998470028B8BF4FF0C8
:205D4000FF36A3891B061CD4216B41B104F14003994202D02846FBF75CFC00232363616C40
:205D600021B12846FBF755FC0023636400F0DEF90023A38100F0DCF9304670BD00F016F941
:205D8000CCE728462169FBF744FCDDE7024B01461868FFF7BBBF00BF180500108B892DE9C8
:205DA000F0419AB20D46110780463CD46A6843F40063002AAB8159DDAC6A002C4BD09BB283
:205DC00003F48052002192B2D8F80060C8F80010002A4FD02A6D5F0705D569682B6B521AA2
:205DE0000BB1EB6BD21A4046E9690023A047441C4AD0AB892A6923F400639BB200212A6010
:205E0000DA04AB8169604CD4296BC8F8006011B305F14003994202D04046FBF7FAFB0020A4
:205E20002863BDE8F0812E69AEB191072C680CBF6B6900232E60A41BAB600AE032462346BA
:205E40006F6A4046E969B8470028C0EB0404064404DD002CF2DC0020BDE8F081AB894FF0E9
:205E6000FF3043F04003AB81BDE8F081EA6B002AA2DCF0E701234046E969A047431C0246DD
:205E80001ED0AB89AC6AA6E7D8F800305BB9AA89296922F4006292B26B60D304AA81296052
:205EA000B2D52865B0E71D2B01D0162B13D1A9892B6921F400610022A9812B606A60A3E792
:205EC000D8F80030002BDCD01D2B01D0162BC5D1C8F80060BFE7AB8943F04003AB81BDE8BA
:205EE000F08100BF10B5044682B008B1836B53B1B1F90C0008B902B010BD204602B0BDE8D3
:205F00001040FFF74BBF019100F050F80199EFE720B1054B01461868FFF7E4BF034B0449DB
:205F2000186800F0E1BD00BF18050010C4270100E55E000038B50D4B04461D680DB1AB6B50
:205F40004BB16368013B002B636008DB23685A1C2260187838BD284600F028F8F1E72846A1
:205F60002146BDE8384002F0ABBA00BF18050010014900F095BD00BF8D5D000070B54B1E97
:205F8000682505FB03F50E4605F17401FBF73DFB044640B100210C30666005F16802216054
:205FA000A06001F03DFA204670BD00BF2DE9F04F846B83B00746002C65D17D6833480423BA
:205FC000032107F53B72F863C7F8E412C7F8E822C7F8E04205F15C00AB812C606C60AC6058
:205FE0006C66EC812C616C61AC612146082201F017FADFF89CB0BE68DFF898A0DFF8989011
:20600000DFF8988001230922ED61C5F820B0C5F824A0C5F82890C5F82C802146F381B281FA
:2060200034607460B460746634617461B461082206F15C00019301F0F3F9FD6812200222E2
:20604000F661C6F820B0C6F824A0C6F82890C6F82C802146A881EA812C606C60AC606C66C8
:206060002C616C61AC6105F15C00082201F0D8F9019BED61C5F820B0C5F824A0C5F828900E
:20608000C5F82C80BB6303B0BDE8F08F715F0000658700008D870000C5870000E58700001A
:2060A000214B70B51D680646AB6B002B2CD005F538756B68AC68013B05D521E0013B5A1CEA
:2060C00004F168041CD0B4F90C20002AF6D1002501234FF6FF72E281A38165662560A560CE
:2060E000656025616561A561294604F15C00082201F096F9256365636564A564204670BD6A
:206100002B682BB11D46D4E72846FFF74FFFCEE730460421FFF732FF286008B10546C8E78E
:206120000C23336070BD00BFC4270100704700BF704700BFF0B583B00F46114601AA06465E
:2061400007F02EFC0546E8B13046FFF7A9FF0446C0B139463046019A4FF4DB7301F0E8FE73
:2061600000281BDB114B124F1249134AE362EB05E081A581E46127626162A26205D42046FC
:2061800003B0F0BD002003B0F0BD304621460022022300F077F9204603B0F0BD0025FFF7BA
:2061A000C5FFA581FFF7C4FF2846E9E7E5870000658700008D870000C5870000024B0A46A9
:2061C00001461868FFF7B6BF18050010084B70B51C6806460D4624B1A36B13B92046FFF7BA
:2061E000E5FE204631462A46BDE8704001F0C8BE1805001030B5054687B0084614460191D5
:2062000002F0EAFD01AA012305900290039204930DB1AB6B83B1A3899A0406D4626E43F4D0
:20622000005322F40052A38162662846214603AA00F0AAFA07B030BD2846FFF7B7FEEAE713
:20624000024B0A4601461868FFF7D4BF18050010F8B5234D0F460446FBF734FCAB685E686D
:2062600026F00306F11B01F6EF7121F47F6121F00F01A1F58057B7F5805F07DB2046002125
:2062800002F038F9AB683344984204D02046FBF71DFC0020F8BD2046794202F02BF90130F5
:2062A0000DD0104BAA681968F61B46F001062046C91B56601960FBF709FC0120F8BD204619
:2062C000002102F017F9AB68C21A0F2ADEDD064D04492D6842F00102401B5A600860D5E715
:2062E0001C0500109C1A0010280900102DE9F0410D460646002955D0FBF7E4FB55F8041CF4
:20630000DFF870C1A5F1080421F00103E218DCF808005768904227F0030768D011F00101FB
:20632000576032D00021D0194068C00706D43B44906800294DD0D268C260906043F0010212
:206340006260E350E1B9B3F5007F2DD35A0A042A69D89809383041000CEB810CDCF80820EA
:206360004449624565D0516821F003018B4202D292689445F7D1D368E360A2609C60D460FA
:206380003046BDE8F041FBF7A1BB55F8085C0CF10808641BA0682B44404542D0E568C560A6
:2063A000A860C0E7BDE8F081DB089A1001209040DCF804100CEBC3039A680143A260E3606A
:2063C000CCF8041030469C60D460BDE8F041FBF77DBB294DA842AED143F00102CCF8144012
:2063E000CCF81040E060A0606260E350C8E71F44CB0707D455F8081C641AE368A2680F44FE
:20640000D3609A601D4B47F001021B6862609F42CCF80840B4D31A4B30461968FFF718FF8B
:20642000AEE701217FE7142A0BD802F15B00410092E780100125854048681346284348607F
:206440009AE7542A03D8180B6E30410084E7B2F5AA7F03D8D80B773041007DE740F2545144
:206460008A4203D8980C7C30410075E7FC217E2072E700BF1C05001024050010240900100E
:20648000981A001000F000B82DE9F04F0C4691B091461E46054610B1836B002B72D0A389DC
:2064A00003F48473B3F5847F74D0A76A002F00F05081012E4AD0022E08D03EB116232B60FA
:2064C0004FF0FF38404611B0BDE8F08F4FF0000A2369D046002B00F02681A08940F61A03B2
:2064E00081B20B4043B949055FD49C4B9F4200F0078140F40060A08128462146FFF7F2FCF3
:2065000080460028DCD14A4633462846E169B8470130D5D0216B41B104F14003994202D0E7
:206520002846FBF776F800232363A2892369002122F40262A2812360616004F15C000822B0
:2065400000F06EFF404611B0BDE8F08F28462146FFF7C8FCA38903F4805292B2002A00F091
:20656000C480D4F850805E0760D4180740F1BB80226823690AB1D21A9044C1444FF0010A37
:206580000026A7E7FFF712FDA38903F48473B3F5847F8AD128462146FFF7A4FC85E7A28920
:2065A0004FF480631A43A281E364002E49D1CB46BAF1000F54D1A389DA0440F1B980206DB5
:2065C0006268216BC2EB0008002900F0BA80D4F83CE0CEEB0808A36B206990441B1AC3EB5E
:2065E00008087344C34542DB08EB030293453ED2C8EB0B084044C8EB030384E8090041B165
:2066000004F14003994202D02846FBF702F800232363A38904F15C0023F02003A38100219A
:20662000082200F0FDFE4FF000084BE76268236BC2EB0808002B56D0E26B2369C2EB0808D0
:206640009BE72846B4F90E1001AA00F089F800287FF452AF059B09EB030BBAF1000FAAD0F1
:20666000216B626800296CD0D4F83CE0B3E7E36C28465B420BEA03084246E1690023B8478F
:2066800001303FF439AF2369216B00222360626041B104F14003994202D02846FAF7B9FF41
:2066A00000232363A389BBEB080B23F02003A38110D02846214601F079FE00287FF41CAF6F
:2066C00063689B453FF618AF2268CBEB03035A4484E80C0004F15C000021082200F0A0FE8D
:2066E0004FF00008EEE6236947E733462846E169B847B0F1FF3F80463FF4E2AEA38932E7E8
:20670000B4F90E100029FFF6F4AE284601AA00F027F830B9029B03F47043B3F5004F3FF46C
:206720003EAFA089E5E62846214600F037FAD4E6012352462846E169B847431C7FF440AF94
:20674000DAE62368206900211B1AC3EB0808134448E71D232B604FF0FF38B3E6C5870000A5
:2067600038B5084C00230546084611462360FBF737F9431C00D038BD2368002BFBD02B60F0
:2067800038BD00BFD01A00102DE9F04F936883B0164681460C462BB38B89190726D52269BB
:2067A00022B303F0020292B23568002A2CD04FF0000ADFF8E8B2D046D84534BF43465B46FC
:2067C00052464846B8F1000F4FD0E169676AB847002856DDB36882441B1AC0EB0808B36063
:2067E000002BE9D1002003B0BDE8F08F4846214606F08CF8002840F04881A389356803F071
:20680000020292B2002AD2D113F0010A42D1D046B8F1000F23D09A05A76876D5B845C0F0DB
:20682000A48013F4906F40F0B2802068BB4651465A4600F08FFDA2682168D21B01EB0B0316
:20684000A26023604246B36892449B1AC2EB0808B360002BC6D0A389B8F1000FDBD1D5F897
:2068600000A0D5F804800835D2E7D5F800A0D5F804800835A0E748462146FFF733FB00286E
:2068800059D0A38943F040034FF0FF30A38103B0BDE8F08F9246019293469046B8F1000FF2
:2068A0002BD0019F002F64D020682169C24534BF5346434688421F46D4F808C0626903D942
:2068C0009444634500F3AE80934236DB1346676A4846E1695A46B847071ED2DDBAEB070A06
:2068E0003AD0B368BB44DB1BC7EB0808B360002B3FF478AFB8F1000FD3D10027D5F800B024
:20690000D5F8048001970835C8E720682369984202D86369984572D2B84538BF47463A46EC
