:020000040000FA
:20000000E07F0010810E0000B10E0000B30E0000B50E0000B70E0000B90E00000000000013
:20002000000000000000000000000000BB0E0000BD0E000000000000BF0E0000C10E000090
:20004000C30E0000C30E0000C30E0000C30E0000C30E0000C30E0000C30E0000C30E000018
:20006000C30E0000C30E0000C30E0000C30E0000C30E0000C30E0000C30E0000C30E0000F8
:20008000C30E0000C30E0000C30E0000C30E0000C30E0000C30E0000C30E0000C30E0000D8
:2000A000C30E0000C30E0000C30E0000C30E0000C30E0000C30E0000C30E0000C30E0000B8
:2000C000C30E0000C30E0000C30E000010B5054C237833B9044B13B10448AFF3008001236B
:2000E000237010BDB00A001000000000D4E600000C4B43B10C4810B50C49AFF300800C48ED
:20010000036823B910BD0A48036833B97047094B002BF7D0BDE810401847064B002BF5D090
:20012000184700BF00000000D4E60000B40A0010B00A001000000000154B002B08BF134B9F
:200140009D46A3F5803A00218B460F461348144A121A06F061F80F4B002B00D098470E4B62
:20016000002B00D098470020002104000D000D48002802D00C4800F042FD05F061FB200010
:20018000290000F045FE00F037FD00BF00000800E07F001000000000010E0000B00A0010D0
:2001A0008D0E0010FF0B0000000000000368184708B10B68036070477047C36810B5044689
:2001C0000BB19B689847204610BD884238B504460D460AD0FFF7F1FF3CB1EB681BB15B686B
:2001E000294620469847EB68E360204638BD000070B50546094B064645F80C3B5DB100F1C7
:200200002C04AC4207D0103CE368002BF9D09B6820469847F5E7304670BD00BF1CD50000E7
:2002200010B50446FFF7E4FF204600F023FD204610BD03681B69184703689B6918470368A6
:200240009B6A18474FF0FF3070471120704770477047A0F13000FFF7FBBFA0F13000FFF797
:20026000F7BF00F06CB8A0F13000FFF7FABF00F069B8A0F13000FFF7FABF000010B50446B4
:20028000084B303003F1080240F8302C03F1280284330260436000F0EBFA2046FFF7A8FF67
:2002A000204610BD88D40000A0F13000E6E7A0F13400E3E710B50446FFF7E0FF204600F058
:2002C000D9FC204610BDA0F13000F3E7A0F13400F0E7000038B504461D46049B00F03AF884
:2002E000294604F1300000F09BFA054B204603F10802226003F1280284332263636338BD9A
:2003000088D4000070477047704700EB0112936902F10C001B68184770B505460E46044673
:2003200055F8043B1B6898472846314600F058FF2368E6622046BDE870405B6818470430BF
:2003400001F046B810B50C46043001F081F8204610BD00002DE9FF410F46002104469046DA
:20036000174A184E184DC3620260416081608161816269460C3003950096FFF726FF6846A1
:20038000FFF71BFF694604F11C0003950096251DFFF71BFF6846FFF710FF424639462846E5
:2003A00001F0F2F8E16A284600F01AFF28462246064901F001F8204604B0BDE8F08100BFA2
:2003C0001CD50000050300007CD400000B030000036801221B690021184700220368114650
:2003E0001B69184770B50E460446154600F0C6FD013609D02046002100F0DAFD2946204616
:20040000BDE8704000F0D1BD70BD38B504460D4643685AB1C26820461360012100F0C8FDC2
:2004200029462046BDE8384000F0BFBD0269F2E70322FFF7D7BF70B50E460446154600F05B
:200440009DFD013606D02A462046BDE870400221FFF7DBBF70BD0022FFF7EDBF10B5044617
:2004600001300DD110BD9C4209D12046896800F0AFFD2046BDE81040022100F0C2BD0C31CB
:200480000B685A1CEFD10248BDE8104000F076BA5DD50000884208B508D0431C06D001315C
:2004A00006D0044800F06AFA4FF0FF31084608BD0146FBE72CD500000B685A1C01D1184601
:2004C0007047834201D1486870470C31F4E70000421C10B5044607D0FFF7EEFF431C04467F
:2004E00002D1024800F04AFA204610BD3DD500000368D0B544685B68D4E9026798470022E0
:20050000B04242EA00023B4602D2003247F10103C4E90223D0BD2DE970430646FFF7E8FFA7
:2005200073685A68DAB1D3E90245D2E90001A94208BFA04211D3B0EB040861EB0509B9F1B1
:20054000000F08BFB8F1E04F09D2001B9A68336810441B69BDE8704318470020F6E74FF08F
:20056000E040F3E7036870B5DB680446984763685B68A3B12046FFF7BBFF65686E68D5E92C
:200580000201D6E90023994208BF904207D3F3686B602B68002BEAD0B0689847E7E720465F
:2005A000BDE87040FFF7B7BF0148FFF7DBBF00BF70D50000007B704703680BB9031D0360B9
:2005C0000068704738B50B4B0446036000230D464360A16002730848FFF7EEFF45B1074B02
:2005E0001A681C6062600448FFF7E6FF204638BD6560F8E794D50000EC0A0010E80A0010A4
:2006000010B504460E4B03600E48FFF7D5FFA3682BB10D4A13689C420CD1636813600948EC
:20062000FFF7CAFF237B13B9201F00F025FB204610BD13465A689442FBD162685A60EEE7F9
:2006400094D50000EC0A0010E80A001010B50446FFF7D6FF204600F00DFB204610BD0000BE
:2006600070B506460C480D46FFF7A6FF0B4B1C685CB1A06870B12A46314606F043FD48B999
:20068000A06806F011FD854204D10348FFF794FF204670BD6468EBE7EC0A0010E80A0010A5
:2006A0000020704700207047036870B51B690122002104469847051E0DDB236802221B69CD
:2006C0000021204698470646236829461B690022204698473546284670BD00F095BA00230B
:2006E00010B5036043600A7804462F2A0DD14A785AB1481C1946206023681A782F2A06D1CF
:2007000001332360FFF7ACFF6060204610BD002AF8D0013301312360EEE700687047406817
:2007200008B520B1FFF746FF431E5842584108BD10B50446FFF7F3FF10B1606800B104382A
:2007400010BD406808B520B1FFF734FFB0FA80F0400908BD10B50446FFF7F3FF10B16068C5
:2007600000B1043810BD4068003018BF0120704770477047F8B50E4603680446DB6C8F1826
:2007800035469847BD4207D0236815F8011B5B6C204698470130F5D1236820461B6D98471A
:2007A000A81BF8BDF8B50E4603680446DB6C8F1835469847BD4208D0236820469B6C984715
:2007C000431C02D005F8010BF4E7236820461B6D9847A81BF8BD00207047704700207047CF
:2007E0000020704710B50446044B03604C3340F8043FFFF705FF204610BD00BFF0D50000B6
:20080000A0F10400EEE700BF10B50446FFF7EAFF204600F02FFA204610BDA0F10400F3E7A0
:2008200010B504460E4B002240F8043BFFF7CAFE0C4B0D4923605C3363600023204663612A
:20084000FFF74BFF606118B100F0DBF9204610BD04F07EF80168054800F090F8F6E700BFA3
:20086000A4D5000070D6000044D6000047D6000010B50446064B03F1080264330260436088
:20088000406904F0CDF82046FFF7ACFF204610BD68D6000038B504460D460368DB6C984763
:2008A000606904F08BF96169284604F01BFB0546236820461B6D9847284638BD05F0A6B85C
:2008C00005F00EBD04F066BB04F012B800B599B000F03EF817496846FFF7BDFD164906A896
:2008E000FFF7B9FD15490CA8FFF7B5FD144912A8FFF7B1FD019A039B96201A60079A0A9B28
:200900001A600D9A109B1A60139A159B1A6000F0B1FA019A049B96201A60079A099B1A60F6
:200920000D9A0F9B1A60139A169B1A6000F0A2FAE0E700BF32C0092034C0092035C00920AC
:2009400037C00920EFF31080C04300F00100704708B5FFF7F7FF72B6064B1A6822B980F06B
:200960000100054AC0B210701A681A6801321A6008BD00BFF80A0010F40A00100FB408B560
:20098000054B1A781AB90120187000F035F9BDE8084004B0704700BFFC0A001000F04ABABA
:2009A00008B5084B1B685BB907490848084A00F0EBFDBDE808404FF41651044800F010BC27
:2009C00008BD00BF140C001002C00920600E001003C00920022810B501DC002010BD002134
:2009E0000B4AC31E52F8230042F8231030B903F0AFFF092303604FF0FF3010BD03685B6964
:200A00009847041EE9DA03F0A3FF64420460F2E7000B00100228F8B50D4614460EDC134BB3
:200A20001B680BB9FFF7BCFF114E2F19BD4210D015F8011B304600F00BFDF7E70D4B033830
:200A400053F8200038B903F083FF09234FF0FF3403602046F8BD0368DB689847041EF8DA28
:200A600003F076FF63420360F3E700BF140C0010600E0010000B0010022810B50C460BDC7C
:200A8000104B1B680BB9FFF78BFF0F4800F0A0FC20700124204610BD0C4B033853F820006C
:200AA00030B903F055FF09234FF0FF340360F1E703689B689847041EECDA03F049FF634218
:200AC0000360E7E7140C0010600E0010000B0010022810B516DD0C4B033853F820402CB918
:200AE00003F036FF09230360204610BD23682046DB699847041EF7DA03F02AFF64420460DF
:200B00000024F1E70124EFE7000B0010022810B506DC03F01DFF1D2303604FF0FF3010BD05
:200B20000A4B033853F8200018B903F011FF0923F2E703681B699847041E04DA03F008FF19
:200B400064420460E9E7204610BD00BF000B0010022808B504DC4FF4005300204B6008BDC1
:200B600003F0F6FE092303604FF0FF3008BD00000148FFF703BF00BFD8D6000008B5012080
:200B800000F03AF80C4A10B513681844EFF30881884205D30C22094B4FF0FF301A6010BDFD
:200BA00007490C6824B10749096821448842F1D21060184610BD00BFCC000010680E00102D
:200BC000080C00100C0C0010094C08B523680546986803F0F3FF2368D86803F0EFFFFFF75A
:200BE000DDFE08B100F01BF90DB1FFF76FFEFEE7E40000100120704708B5FFF7E5FF0120D3
:200C00007047002105F0CABD30B50C4685B002460A49054601A805F0DFFE214601A804F0AF
:200C200015F9044638B12B682846DB69984710B12046FFF7E6FF204605B030BDD4D600009B
:200C40007047704708B5FFF7FBFF08BD08B5FFF7F8FF08BD10B504F0C9FE044610B9024868
:200C6000FFF78CFE204610BDE2D6000008B104F0C5BE7047FFF7FABF10B504460948FFF71D
:200C80009BFC00231946084A52F82300A04208BF42F823100133402BF6D10248FFF78CFC38
:200CA00010BD00BF000C0010000B00102DE9FF4789464049064605F027FF044628B9FFF735
:200CC0006FFE204604B0BDE8F0873B49304605F01BFF18B9FFF764FE0124F2E7374930464B
:200CE00005F012FF18B9FFF75BFE0224E9E7344D3448FFF761FC0024A84655F82470002F66
:200D000040D00134402CF8D103F022FE182303602C48FFF751FC0EE0314602A8FFF7DFFC11
:200D200002A8FFF720FD064640B903F011FE0223036045F824604FF0FF34C2E702A8FFF7AB
:200D400000FD074602A81FB1FFF704FD01902BE0FFF7EEFC06460028E7D0036802A8D3F851
:200D600008A0FFF7DAFC29F48033024601A93046D0470646C0B103F0EBFD7642066045F8BD
:200D80002470D8E74FF0FF330E4845F82430FFF713FC337801973A2BBED102AA0A493046F7
:200DA00005F040FE029B0193019B48F82430033487E700BF07D700000ED70000FFD60000A3
:200DC000000B0010000C0010D4D600007047704770470000074B10B59A6807490748043A17
:200DE00052F8044F41F8044F8142F9D14FF080529A6010BD00ED00E0FCFFFF0FC0000010BF
:200E000008B5FFF7E7FFFFF7E2FFFFF7E1FF08BD08B5FFF7DBFFBDE8084000F0B1BC30B50B
:200E200085B06D46182420462946ABBE0446204605B030BD024B186800F00100704700BFCA
:200E4000F0ED00E038B5044600F074FC054600F071FC401BA042FAD338BD000008B504498D
:200E600002F0B6FA02F004FCBDE80840FFF7EABF002474494FF47A735843FFF7E3BF00000E
:200E80000649074A074B9A42BEBF51F8040B42F8040BF8E7044880470448004700EA0000F7
:200EA000C8000010B00A0010C50E000039010000FEE7FEE7FEE7FEE7FEE7FEE7FEE7FEE75B
:200EC000FEE7FEE72022264BC3F8A021D3F8A021920603D5D3F8A0215006FBD50222C3F88C
:200EE000042100220120C3F8A821C3F8AC210B22C3F80C01AA21C3F884205522C3F88C1091
:200F0000C3F88C20C3F88000C3F88C10C3F88C20134B1A46D3F888104901FBD50321C3F857
:200F20008010AA21C3F88C105521C3F88C10D2F8883013F0407FFAD00523C2F80831094BB5
:200F4000C2F8C4300023C2F8C831136823F4704323F03A0343F4405343F03A031360704714
:200F600000C00F40DE87280410B50021044600F02FF8012004F01F04A04010BD38B505466D
:200F80004B1C0C4629600FD00846FFF7EDFF24F01F0404F11803EB6004F11C032B6104F1D9
:200FA000140368606B61AC6038BD006800F029B811B1012907D0704782684168136823EAB7
:200FC0000103136070478268416813680B43F8E710B5032400F16040A0F51C20430000090E
:200FE000800000F1804000F53030026803F01E039C4022EA040202600268994011430160A5
:2010000010BD00F16040A0F51C2043099B0003F1804303F5303330B500F01F029C6EC1F3F4
:20102000800505FA02F224EA02049C669C6E22439A6695B9032443000009800000F18040C1
:2010400000F53030026C03F01E039C4022EA04020264026C99401143016430BD012810B48B
:2010600008D0022808D010BC7047506820F00100506010E003460EE038230F4803FB0103BF
:201080005868013006D018699C68046093F83630002BEAD000233822514307484218405878
:2010A0000028E0D01BB992F83620002ADBD0034A1946126810BC1047180C0010100C001026
:2010C000034A00219068C0F34200FFF7C7BF00BF00C00040034A01219068C0F34200FFF728
:2010E000BDBF00BF00000140034A02219068C0F34200FFF7B3BF00BF00800940034A0321B6
:201100009068C0F34200FFF7A9BF00BF00C0094030B52A4B04689C4224D006DCA3F58043E7
:201120009C420CD000231D460BE0254B9C421CD003F580439C42F5D1224B082501E0052546
:20114000214BAAB10122606802FA01F1014361601E4905F110008968AA4041F820301C4BB2
:201160001A6030BD1B4B0625EBE71B4B0725E8E701290AD042683820184B00FB023292F822
:20118000363092F83520D34216D1012303FA01F2B1FA81F16068490920EA0200606062682D
:2011A00003FA01F1114207D1094AAB40C2F88030BFF34F8FBFF36F8F30BD00BF0000014040
:2011C00000800940FD100000C110000000ED00E000E100E0D5100000E9100000180C0010C8
:2011E0002DE9F04F0368704A8DB0934208900E4600F09A8077DCA2F58042934200F08680F6
:201200006A4BD3F800903301B9FBF3F5ACB203FB1595002D00F0BF800127224600214FEAA2
:2012200049030693DDF818B04FEA8903059301960393CDF81090079602974FF00008019B24
:201240005FFA87FABBF1000FABBF0398BBFBF3F4B0FBF3F42409A8BF64090134C4F34F0485
:201260005FFA88F5002C00F09980B8F1000F02D0012C08BF022407EB080060430B93049BE5
:20128000C000B3FBF0F00130C6EB50000A91099203F02AFB079B099A98420A990B9B62DADC
:2012A00086425BD10F2F07D129462246CDF808A00D461446DDF808A0089B45EA0A151B6842
:2012C000EDB21A7B42F080021A73C4F30722E4B21A711C7083F828501A7B02F07F021A7384
:2012E0000DB0BDE8F08F324A934229D002F58042934285D12F4BD3F8AC2122F44022C3F89A
:20130000AC21D3F8AC2142F4802224E0294BD3F8A82122F0C002C3F8A821D3F8A82142F066
:201320004002C3F8A8216BE7224BD3F8A82122F44072C3F8A821D3F8A82142F48072F0E7B5
:201340001C4BD3F8AC2122F44032C3F8AC21D3F8AC2142F48032C3F8AC2151E72946224667
:201360000790CDF808A008F101085FFA88F050453344FFF467AF0F2F9AD0049B05984B440E
:201380000493069B01379B44039B03440393019B3344019351E74FF0010A8DE7B8F1000F2E
:2013A0000CBF0124022466E700000140D00000100080094000C00F40034B19603823416806
:2013C0004B430249CA507047100C0010180C001010B50268137DDB07FCD53824436808483A
:2013E000117804FB03035868C9B2013006D058699B680360536843F001035360084610BD36
:20140000180C00103821114A436801FB0323DA69013209D01A6B1B6A12681A4214D1036898
:20142000187DC0F3801070470268127D920604D50022012083F83420704793F834000F28F4
:201440008CBF00200120704700207047180C001038B504460D462046FFF7D4FF0028FAD093
:2014600038212368EDB21D706368044A01FB032393F83420013283F8342038BD180C001017
:201480002DE9F84F9A463C4C03680546A34218BF00248946904647681CB1237C03F03F03FC
:2014A000237438234FF0FF32344E284603FB0763DA615A60002283F835201146FFF728FE18
:2014C000B9F1000F55D02E494046FEF7F5FF2D4983465046FEF7F0FFA9F10203012B1BD8D1
:2014E000BAF1FF3F0BD0244B98420DD164B1237C244943F0800323745046FEF7AFFFB9F1B0
:20150000030F0CD0BDE8F88F382000FB076051461C30FEF78DFFF2E7B9F1010F29D1B8F15D
:20152000FF3F01D1BDE8F88F07222B681A72124B9B450AD14CB1237C404643F040032374E0
:201540000F49BDE8F84FFEF789BF382404FB0760414600220430FEF76EFF01226B682846A5
:2015600004FB036686F835200021BDE8F84FFFF7CFBDBDE8F88F00BF00000140180C001041
:201580003CD7000018D700002DE9F0410F460546474938461646FEF79BFF4649044630461A
:2015A000FEF796FF01462046FEF774FF424B0446984228605ED048D8A3F58043984251D0AF
:2015C00001234FF0000823724FF416512846C4F80480FFF705FE03222B6835491A73384679
:2015E000FEF73CFF33493046FEF738FF7A1C03D041463846FFF705FD731C03D0002130463E
:20160000FFF7FFFC2C4B9C424CD03FD8A3F580439C4244D038216A68284B284601FB0232C8
:201620004FF0FF3300215360D3611A46FFF728FF234B9C423AD10122224B2946BDE8F04188
:201640001A602148082204F00DBD204B984217D003F580439842B3D11D4AD2F8C43043F022
:20166000007304E01A4AD2F8C43043F00803C2F8C430A5E7164AD2F8C43043F01003F6E738
:20168000134AD2F8C43043F08073F0E70F4B9C420AD003F580439C42BCD1032300E00023D1
:2016A0006B60B7E70123FBE70223F9E7BDE8F081CCD7000060D7000000000140180C001051
:2016C00000C00040140C0010600E00100080094000C00F40104B1868E0B901210F4A19601C
:2016E000D2F8C43043F40003C2F8C430A2F5D022106702200A4B1B6850600A48B3FBF0F3B7
:20170000013BD360084B51609B68084A1A651022074B1A60704700BFF80C001000C00F40EB
:20172000D000001000093D0000ED00E0A905000000E100E008B5044B1B680BB9FFF7CAFF35
:20174000024B986808BD00BFF80C001000400940034B98615A6942F001025A61704700BFAB
:2017600000400940024A536923F0010353617047004009400122014B1A60704700400940A4
:2017800080B54FF4165188B01948FEF7C5FD00274FF07E564FF07C5504AB02931A2308A99E
:2017A00041F81C3D002202A800F056F8114A019BA2F11A010290049300F07AF8019B029A25
:2017C0000D4C0393D75402990C48FFF763F8E368626830461A60FFF741FB236962682846B4
:2017E0001A60FFF73BFB02A800F05AF8D4E700BF140D001052D80000FC0C0010440D001009
:2018000013B50E4C18220021204604F005FD20460B49FEF720FE4FF416530A4C00930A4A39
:2018200000230A492046FEF755FD2046084A094902B0BDE81040FFF7DDB900BFFC0C001071
:2018400042C00920140D001010C009200FC00920C80000107D020000086808B500281ADB9A
:2018600090420AD95200904207D2002A0ADBBDE808400A60501CFFF7EDB90130BDE808402A
:20188000FFF7E8B96FF000434FF000400B60BDE80840FFF7DFB9014800F0AEFD54D800009A
:2018A00050F8083B834202D01846FFF7E3B97047521A012A03D002B9704704F0D3BB0B787E
:2018C00010B4037010BC70471EB400F091F81EBC02F0F6FDF0B5027883B0472A0D461F46C9
:2018E0001ED00023274C0193236820469B68984780B10226019B1B6801932B682146284689
:201900001C6901AA0123A04730B13046019B3B6003B0F0BD0126F0E70646304603B0F0BD7E
:2019200043784E2BDDD18378552BDAD1C378432B19D0C378432BD4D10379432BD1D1437977
:201940002B2BCED183792B2BCBD1C379012BC8D804D050F8204C58300190C5E750F8200CDB
:2019600050F8784CF8E70379462BE2D143794F2BDFD18379522BDCD1C379002BD9D101932B
:20198000014CB1E788D8000080D8000010B5044600F000F92378A4F12002472B04D083682F
:2019A00023BB8260012010BD63784E2BF7D1A378552BF4D1E378432BF1D12379432BEED1A9
:2019C00063792B2BEBD1A3792B2BE8D1E379012BE5D854F8043C0133012B44F8043CE1D18F
:2019E000836844F8083C8260012010BD00F012FC08B500F0CFF8836883B393F82020472ADD
:201A000004D00022826003F1200008BD93F821204E2AF6D193F82220552AF2D193F823202D
:201A2000432AEED193F82420432AEAD193F825202B2AE6D193F826202B2AE2D193F82720FC
:201A4000012ADED8DA69013ADA61002ADBD10022996981609A6103F1200008BD00F0DAFB78
:201A600038B5044600F096F822780368472AA4F1200105D0002B31D11C460160204638BD65
:201A800062784E2AF6D1A278552AF3D1E278432AF0D12279432AEDD162792B2AEAD1A2797C
:201AA0002B2AE7D1E279012AE4D854F80C2C002A11DB013245688B4205F1FF3544F80C2CF2
:201AC00045601CBF44F8103C01602046646A02F045F9204638BDC2F10102EBE700F09AFBD1
:201AE00008B500F053F80246006800283DD090F82030472B06D0002320301360BDE8084016
:201B000002F02EB990F821304E2BF4D190F82230552BF0D190F82330432BECD190F82430D8
:201B2000432BE8D190F825302B2BE4D190F826302B2BE0D190F82730012BDCD84369002B1B
:201B400005DB013B08D05A1C0DD0436108BD0133FBD101691160F8E7036920301360BDE847
:201B6000084002F0FDB800F055FB08BD704700BF704700BF004870476CD8000010B5044633
:201B8000042100F093FD204610BD00BF00487047600D001000487047600D00105028F8B591
:201BA00054D000F00F040C2C4ED8DFE804F007394907174D4D4D4D1F1B071700154655F80A
:201BC000044B44B100F07006102E08BF114602060C4448BF24681C602846F8BD154655F8CD
:201BE000084BEEE7154635F9024BEAE700241546274615F801EB0EF07F06BE401EF0800F13
:201C000044EA060407F10707F3D11F2FD9D81EF0400FD6D04FF0FF3606FA07F73C43D1E717
:201C200000241546274615F801EB0EF07F06BE401EF0800F44EA060407F10707F3D1C0E7F8
:201C4000154635F8024BBCE702F046FE033222F0030555F8044B1C602846F8BDFF280DD048
:201C600000F07000202815D00AD940280FD0502804D0302808D1084602F028BE0020704733
:201C80000028FBD01028F9D008B502F025FE084602F008BE084602F015BE00BFF8B50C46A7
:201CA00015460746002842D002F0FCFD286026780134FF2E32D039463046FFF7CFFF2246AC
:201CC00001462B1D3046FFF769FF04462378601CFF2B2B7528D00024102322462B7510F817
:201CE000011B01F07F039340090644EA030402F10702F4D40444EC600024224603780130AE
:201D00006B7510F8011B01F07F0393401C430B0602F10702F5D404442C61F8BD6860237857
:201D2000601CFF2B2B75D6D10023EB60E4E7BDE700232DE9F04F00F0030497B0012C894627
:201D400017460A931ED00ED3022C0AD13946484602F092FD002800F0A580092017B0BDE851
:201D6000F08F02F0B9FD0007F0D401230393002316AA42F82C9D009219460C22384602F042
:201D80001BF80FE010F0080400F0908016AA42F82C1D009244F0020419460C223846039484
:201DA00002F00AF8384602F083FD05900028CDD010AB1A46059938460693FFF76FFF394632
:201DC00004469DF85400FFF749FF00230DF13C0B129019460F22CDF800B0384601F0C6FF4F
:201DE0000F9B149A23F00103A24203F1FF3675D90DF1340A0DF138089DF8555000212846D6
:201E0000FFF72CFF2246534601462846FFF7C6FE9DF85540054600212046FFF71FFF2A46B1
:201E2000434601462046FFF7B9FE9DF85540054600212046FFF712FF2A4601465B462046FE
:201E4000FFF7ACFE04460020024614F8011B01F07F039340090640EA030002F10702F4D4C2
:201E6000109B0D9A13449E4231D2039BDB0739D50025049500230D221946CDF80080384616
:201E80000A9C01F073FF059A0E9BC9F82C20049AC9F82440C9F82850C9F83020C9F82030C6
:201EA00006205BE7082017B0BDE8F08F10AB009306930D22234621463846D9F8205001F011
:201EC00055FF109B9D4212D0022303934FE70E9A13449E4259D3149BA3428DD80025012403
:201EE000049507E1039B1B074CD500F093F916AB43F82C9D0093214623460C22384601F03F
:201F00005BFFD9F830300493002B3BD00324D9F82850D9F82C10002DC0F208810DF1340A48
:201F20000DF13808002316AA42F8289D1946009238461A4601F040FF002301221946CDF818
:201F400000A038460D9501F037FF00230F221946CDF80080384601F009FF00230E9A049DBF
:201F600002F001021543CDF80080384619460F220E9501F021FF022C00F08280072017B0FF
:201F8000BDE8F08F484600F05FFC0F9B1A460493002B7AD100283FF4D9AE149B049A0138C5
:201FA0000344002A3FF4D2AE002B77D0039A12F00802099200F0F88047254E245520432128
:201FC00046224F264FF0520E4FF0000C89F8005089F8014089F8020089F8031089F80420EB
:201FE00089F8056089F806E089F807C00022079708920025294600E023461C4614F8010B9B
:2020000000F07F028A40060645EA020501F10701F2D41F2905D8420603D501228A405242BD
:2020200015430026314613F8010F00F07F028A40070646EA020601F10701F4D41F2905D829
:20204000400603D501238B405B421E43002D5CD05EDD9DF85400FF2800F0A48000F00703C3
:20206000042B3FF67EAE01A252F823F0D7200000631D0000DD200000D7200000B520000090
:202080004846FFF783FC072068E6119B1A440492002882D1049B002B3FF458AE039B13F009
:2020A00001037FF453AE039A12F0080540F09780022437E7EB005B42139A12991A444346AA
:2020C000FFF76CFD0E9999B1B9F1000F09D1002E77D0A3198DE7AB005B42EDE76B005B4254
:2020E000EAE70AAB00224846FFF7F4FB0028EED00324079F039BDA0760D4039B190766D467
:20210000012C3FF43FAF059905E701230893DEE7B9F1000F01D0099B5BB36B1C139AC3EB45
:20212000837352F82330002BD1D1E1E7069A3846FFF7B4FD39469DF85400FFF78FFDAA001E
:2021400082F00302D243139E1290B358164433B13246002352F8041F01330029FAD1042201
:20216000C9F82830C9F82C00C9F83460C9F83020D4E6139F6B1CC3EB837357F823100A9A36
:2021800007EB83070F9221B9B2E757F8041F0029AED039445B4600224846FFF79BFB002814
:2021A000F3D094E7002387E799F80720012A0CBF59F8202C09F158020A9217E70DF13808D9
:2021C00058E6089B079F002B7FF468AFBEE5012C3FF48BAE002DBFF6A1AE00F029F81D46E2
:2021E00002249FE6FFF73CFC7FE600BF08B5804702F072FBFFF734FC02F06EFB0D460446E1
:20220000FFF76EFC013501D0FFF75EFB204600F02BFB00BF08B5034B1868BFF35B8FFFF7B0
:20222000E5FF00BFE000001008B58047FFF7F2FF08B5034B1868BFF35B8FFFF7F5FF00BFD0
:20224000D4000010024B1868BFF35B8F704700BFE0000010024B1868BFF35B8F704700BFEC
:20226000D400001010B50446024B036000F0C4F9204610BD5CD9000010B50446044B0360E5
:2022800000F0BAF920460C2100F010FA204610BD5CD9000070B582B0069C0D469442064638
:2022A00009D0B068294606680694346AA44602B0BDE87040604719460192009300F06EF8A5
:2022C000009B019A0028ECD0062002B070BD00BF2DE9F04F894681B019461D461646074660
:2022E0000A9CDDF82CB0DDF830A0DDF8348000F055F888B1B9F1000FC8F8004088F8046046
:202300001EDB4C44A2450CBF0624012488F80640002001B0BDE8F08F544518D0B8682B4666
:202320000568CDF83480CDF830A0CDF82CB00A94EC6932464946A44601B0BDE8F04F604761
:2023400019F1020FE4D1012388F80630E0E75946384600F023F80028E0D0002088F8056007
:2023600001B0BDE8F08F00BF2DE9F04107460C4615461E4600F058F908B1BDE8F081B868F4
:20238000334606682146B4692A46A446BDE8F041604700BF704700BF00207047814211D04B
:2023A00008B5406803782A2B0AD049680B782A2B08BF013104F0A8FBB0FA80F0400908BDCD
:2023C000002008BD0120704738B50546082000F0E1F92946044600F097FB2046044A0549D9
:2023E00000F0D6FA204600F0EDF9FFF76DFA00BF852A000014DB000038B50546082000F0D7
:20240000C9F92946044600F093FB2046044A054900F0BEFA204600F0D5F9FFF755FA00BFF1
:20242000D92A000020DB000000487047A0D900000048704798D9000002604160704700BF3D
:202440004B68834201D0002070470868801AB0FA80F04009704700BF704700BF704700BF8D
:2024600010B50446FEF706FC204610BD10B50446FEF700FC204610BD10B504460B6886B038
:2024800068461B6998479DE80600204600F05AFB009802AB984201D0FEF7ECFB204606B00D
:2024A00010BD009802AB984201D0FEF7E3FBFFF70BFA00BF70B5054682B001B3541A0F2CD3
:2024C0000E4601940AD82B68012C184613D064B90021019A6A60995402B070BD002201A9F5
:2024E000FFF7BAF9019B2860AB602246314603F0B9FD2B68ECE732781A702B68E8E712B1BD
:202500000248FFF761FF01920368E1E7A8D9000038B50446104604F0BBFD04F10803236018
:20252000054640B104F0C0FD29462A182046FFF7C1FF204638BD20464FF0FF322946FFF74B
:20254000B9FF204638BD00BF30B503680C4D5B6983B0AB4214460CD16368834202D0002063
:2025600003B030BD2068401AB0FA80F0400903B030BD0A4601466846984700990198EBE7AE
:202580003924000010B5064C064922460648FEF731FB2246BDE8104004490548FEF72ABBD0
:2025A000C80000105D240000DC00001059240000D800001070B500241026036884B01546F8
:2025C000029612689E6900946B468DF804400394B0479DF8043003F00603062B09BF012067
:2025E0002046009B2B6004B070BD00BF009890420CBF06200120704710B50446024B0360BD
:20260000FFF7C8FE204610BDF0DA000010B50446044B0360FFF7BEFE2046082100F046F8D1
:20262000204610BDF0DA000038B515461C46FFF7B5FE20B1082206232560E260237138BDD6
:202640002DE9F04117461C4606460D46FFF7A6FE08B9032C01D9BDE8F0812B683A463146D1
:202660002846BDE8F0415B69184700BFF0B583B0089D0A9917468D4206460B9C0BD01946BB
:202680003046FFF78BFE18B1012325602771A371002003B0F0BD09990193FFF77FFE18B135
:2026A0000020677103B0F0BD019BE8E7FEF7E2BAF0B41D4CA0F10806616850F8087CC9B10B
:2026C000F519A9421BD04A682AB3954204D326E09D42114604D21A4653680C1D002BF7D190
:2026E00011685518AE4213D040F8043C23685E60F0BC704740F8041C6660F0BC70470B6809
:202700004A681F4440F8087C40F8042C6660EFE70F441760ECE7134604340A46E0E7134646
:2027200004340A46DCE700BF6C0D001030B4184C00F108016368082938BF082113B30731AA
:202740001A6821F00701914204D81DE00268914205D9034658680028F8D130BC7047043343
:20276000521A072A0AD9446845186C601C68425021601D6004F1080030BC7047426804465C
:202780001A60F7E71846E8E71846231DE8E700BF6C0D001038B500F18005284603F026F91C
:2027A000044638B180220021204603F035FD04F1800038BD2846FFF7B9FF04460028F1D1DE
:2027C000FFF728FD064A80389368984205D9D2681344984201D2FFF76BBF03F00FB900BF4B
:2027E0006C0D001038B54FF41E65074C2846E56003F0FCF8A06020B10023606005604360F4
:2028000038BDE060606038BD6C0D00100378472B01D00020704743784E2BFAD18378552B36
:20282000F7D1C378432BF4D10379432BF1D143792B2BEED183792B2BEBD1C07901288CBF2A
:2028400000200120704700BF10B530B10446FFF707F92046FFF7DAFF08B9FFF7DBFC54F8CC
:20286000140CFFF7C3FC00BF2DE9F04F85B00246FFF7CCFF68B152F8184C104652F8145C5A
:20288000966A176BD2F83490FFF7EAF82046FFF7CBFC1046FFF7E4F8FFF7CAFCFFF7E0F87B
:2028A000FFF7B8FCFFF7DCF8FFF770F9036893F82720012A37D003F178024FF000084C468F
:2028C000C1460DF1100A203327F0030B01934AF8082DB1451BDA276807B1274453460022FE
:2028E00039460198FEF7F6FF10BB3B6804AA1B6942F8040D0093384601231149009FB847BE
:20290000002818BF804609F101095C44E1E7B8F1000F0AD00420FFF73DFF0A4B0A4A036092
:20292000074900F035F81A68C7E72846FFF75EFC00F06EF8FFF7D4F8FFF7D2F8FEF7C4FFAC
:2029400090D8000014D90000711B0000012810B51AD8BFF35B8FA1F1280353E8002F013AB8
:2029600043E800200028F8D1BFF35B8F5AB951F81C3C01F158040BB1204698472046BDE871
:202980001040FFF71FBF10BD51F8140CFFF72EFC2DE9F041044617468846FFF7FBF80126F1
:2029A0004368A4F158053344436044F8747C44F8806C44F8788CFFF74DFC44F8700CFFF7DF
:2029C00041FC472143222B234FF04E0E5527002604F8581C0D4944F86C0C04F857EC44F86D
:2029E000501C04F8552C04F8542C04F8533C04F8523C04F8567C04F8516C284601F04EFD2C
:202A00002846FFF72DF8FFF705FC00BF4D29000010B5FFF7BFF8426804680132426064B18F
:202A200094F82020472A0AD0002202602034204601F058FD2046FFF713F8FFF7EBFB94F82C
:202A400021204E2AF0D194F82220552AECD194F82320432AE8D194F82420432AE4D194F87F
:202A600025202B2AE0D194F826202B2ADCD194F82720012AD8D8626952426261D6E700BFEB
:202A80004068704710B5044643680C4A0C49A3F10C00904282B0216005D12046FFF766F8BD
:202AA000204602B010BD53F8042C511E002A43F8041CF2DC01A900F0A3F8EEE77C0D001051
:202AC00058DB000010B50446FFF7DCFF2046FEF7D1F8204610BD00BF10B50446024B03600E
:202AE000FFF7D0FF204610BD6CDB000010B50446044B0360FFF7C6FF2046FEF7BBF82046A7
:202B000010BD00BF6CDB000010B5084B82B0044601AA40F8043B00F095F8204602B010BDCA
:202B20002046FFF723F8FEF7CFFE00BF58DB000010B50446FFF7E8FF014B2046236010BD7C
:202B40006CDB000010B5044682B001AB00F06CF8204602B010BD00BF134B10B598421FD855
:202B60008842044614D94A00904238BF144604F11D02B2F5805F04F10D000BD9A14209D2A9
:202B800004F58054C2F30B02A41A9C4228BF1C4604F10D00FEF75EF800224460826010BDFF
:202BA0000248FFF729FC00BFFCFFFF3FA4DB000070B50C1A064600212046FFF7CDFF012C2C
:202BC000054600F10C0305D084B90C4A954206D1184670BD32780273084A9542F8D00022D7
:202BE00029192C60AA600A73184670BD18463146224603F037FA0346E7E700BF7C0D001025
:202C0000FEF738B8884202D018B1FFF7D1BF044870470029F9D008B50248FFF7D5FB00BF63
:202C2000880D001078DB000038B50D460446114428461A464FF00003FFF7E4FF20602046EE
:202C400038BD00BF70B5054616460C4661B1084604F02AFA2118324620464FF00003FFF7DB
:202C6000D1FF2860284670BD4FF0FF31F3E700BF244B1A68D0075CBF01221A60224B1A68EA
:202C8000D1075CBF01221A60204B1A68D2075CBF01221A601E4B1A68D0075CBF01221A60AC
:202CA0001C4B1A68D1075CBF01221A601A4B1A68D2075CBF01221A60184B1A68D0075CBF4C
:202CC00001221A60164B1A68D1075CBF01221A60144B1A68D2075CBF01221A60124B1A6893
:202CE000D0075CBF01221A60104B1A68D1075CBF01221A600E4B1A68D2075CBF01221A606C
:202D0000704700BFB80D0010B40D0010B00D0010AC0D0010A80D0010A40D0010A00D0010BE
:202D20009C0D0010980D0010940D0010900D00108C0D0010244B1A68D0075CBF01221A609E
:202D4000224B1A68D1075CBF01221A60204B1A68D2075CBF01221A601E4B1A68D0075CBF99
:202D600001221A601C4B1A68D1075CBF01221A601A4B1A68D2075CBF01221A60184B1A68E0
:202D8000D0075CBF01221A60164B1A68D1075CBF01221A60144B1A68D2075CBF01221A60BF
:202DA000124B1A68D0075CBF01221A60104B1A68D1075CBF01221A600E4B1A68D2075CBF69
:202DC00001221A60704700BFE80D0010E40D0010E00D0010DC0D0010D80D0010D40D0010FE
:202DE000D00D0010CC0D0010C80D0010C40D0010C00D0010BC0D0010184B1A68D1075CBFA9
:202E000001221A60164B1A68D2075CBF01221A60144B1A68D0075CBF01221A60124B1A6852
:202E2000D1075CBF01221A60104B1A68D2075CBF01221A600E4B1A68D0075CBF01221A602A
:202E40000C4B1A68D1075CBF01221A600A4B1A68D2075CBF01221A60704700BF080E001005
:202E6000040E0010000E0010FC0D0010F80D0010F40D0010F00D0010EC0D0010184B1A68D8
:202E8000D1075CBF01221A60164B1A68D2075CBF01221A60144B1A68D0075CBF01221A60BE
:202EA000124B1A68D1075CBF01221A60104B1A68D2075CBF01221A600E4B1A68D0075CBF68
:202EC00001221A600C4B1A68D1075CBF01221A600A4B1A68D2075CBF01221A60704700BF0E
:202EE000280E0010240E0010200E00101C0E0010180E0010140E0010100E00100C0E001012
:202F000081F0004102E000BF83F0004330B54FEA41044FEA430594EA050F08BF90EA020FE0
:202F20001FBF54EA000C55EA020C7FEA645C7FEA655C00F0E2804FEA5454D4EB5555B8BFB6
:202F40006D420CDD2C4480EA020281EA030382EA000083EA010180EA020281EA0303362D6D
:202F600088BF30BD11F0004F4FEA01314FF4801C4CEA113102D0404261EB410113F0004FD7
:202F80004FEA03334CEA133302D0524263EB430394EA050F00F0A780A4F10104D5F1200E15
:202FA0000DDB02FA0EFC22FA05F2801841F1000103FA0EF2801843FA05F359410EE0A5F15D
:202FC00020050EF1200E012A03FA0EFC28BF4CF0020C43FA05F3C01851EBE37101F0004569
:202FE00007D54FF0000EDCF1000C7EEB00006EEB0101B1F5801F1BD3B1F5001F0CD34908E3
:203000005FEA30004FEA3C0C04F101044FEA445212F5800F80F09A80BCF1004F08BF5FEAC1
:20302000500C50F1000041EB045141EA050130BD5FEA4C0C404141EB010111F4801FA4F1CB
:203040000104E9D191F0000F04BF01460020B1FA81F308BF2033A3F10B03B3F120020CDA70
:203060000C3208DD02F1140CC2F10C0201FA0CF021FA02F10CE002F11402D8BFC2F1200CE9
:2030800001FA02F120FA0CFCDCBF41EA0C019040E41AA2BF01EB0451294330BD6FEA040423
:2030A0001F3C1CDA0C340EDC04F11404C4F1200220FA04F001FA02F340EA030021FA04F374
:2030C00045EA030130BDC4F10C04C4F1200220FA02F001FA04F340EA0300294630BD21FA92
:2030E00004F0294630BD94F0000F83F4801306BF81F480110134013D4EE77FEA645C18BF70
:203100007FEA655C29D094EA050F08BF90EA020F05D054EA000C04BF1946104630BD91EAA9
:20312000030F1EBF0021002030BD5FEA545C05D14000494128BF41F0004130BD14F5800406
:203140003CBF01F5801130BD01F0004545F0FE4141F470014FF0000030BD7FEA645C1ABF82
:20316000194610467FEA655C1CBF0B46024650EA013406BF52EA033591EA030F41F4002171
:2031800030BD00BF90F0000F04BF0021704730B54FF4806404F132044FF000054FF000019E
:2031A00050E700BF90F0000F04BF0021704730B54FF4806404F1320410F0004548BF4042EA
:2031C0004FF000013EE700BF42004FEAE2014FEA31014FEA02701FBF12F07F4393F07F4F64
:2031E00081F06051704792F0000F14BF93F07F4F704730B54FF4607401F0004521F0004106
:2032000020E700BF50EA010208BF704730B54FF000050AE050EA010208BF704730B511F079
:20322000004502D5404261EB41014FF4806404F132045FEA915C3FF4DCAE4FF003025FEA90
:20324000DC0C18BF03325FEADC0C18BF033202EBDC02C2F1200300FA03FC20FA02F001FA9C
:2032600003FE40EA0E0021FA02F11444C1E600BF4FF0FF3C06E000BF4FF0010C02E000BF3D
:203280004FF0010C4DF804CD4FEA410C7FEA6C5C4FEA430C18BF7FEA6C5C1BD001B050EAAF
:2032A000410C0CBF52EA430C91EA030F02BF90EA020F0020704710F1000F91EA030F58BF07
:2032C000994208BF90422CBFD8176FEAE37040F0010070474FEA410C7FEA6C5C02D150EA48
:2032E000013C07D14FEA430C7FEA6C5CD6D152EA033CD3D05DF8040B704700BF8446104641
:2033000062468C461946634600E000BF01B5FFF7B7FF002848BF10F1000F01BD4DF808EDF3
:20332000FFF7F4FF0CBF012000205DF808FB00BF4DF808EDFFF7EAFF34BF012000205DF8DF
:2033400008FB00BF4DF808EDFFF7E0FF94BF012000205DF808FB00BF4DF808EDFFF7CEFFF4
:2033600094BF012000205DF808FB00BF4DF808EDFFF7C4FF34BF012000205DF808FB00BF64
:203380004FEA410212F5001215D211D56FF47873B3EB625212D94FEAC12343F0004343EA80
:2033A000505311F0004F23FA02F018BF404270474FF00000704750EA013005D111F0004083
:2033C00008BF6FF0004070474FF00000704700BF4FF0FF0C1CEAD0521EBF1CEAD15392EA26
:2033E0000C0F93EA0C0F6FD01A4480EA010C400218BF5FEA41211ED04FF0006343EA501025
:2034000043EA5111A0FB01310CF00040B1F5000F3EBF490041EAD3715B0040EA010062F1D1
:203420007F02FD2A1DD8B3F1004F40EBC25008BF20F00100704790F0000F0CF0004C08BF92
:2034400049024CEA502040EA51207F3AC2BFD2F1FF0340EAC250704740F400004FF0000378
:20346000013A5DDC12F1190FDCBF00F000407047C2F10002410021FA02F1C2F1200200FA58
:2034800002FC5FEA310040F1000053EA4C0308BF20EADC70704792F0000F00F0004C02BF95
:2034A000400010F4000F013AF9D040EA0C0093F0000F01F0004C02BF490011F4000F013B56
:2034C000F9D041EA0C018FE70CEAD15392EA0C0F18BF93EA0C0F0AD030F0004C18BF31F017
:2034E000004CD8D180EA010000F00040704790F0000F17BF90F0004F084691F0000F91F0F2
:20350000004F14D092EA0C0F01D142020FD193EA0C0F03D14B0218BF084608D180EA0100C9
:2035200000F0004040F0FE4040F40000704740F0FE4040F4400070474FF0FF0C1CEAD052F7
:203540001EBF1CEAD15392EA0C0F93EA0C0F69D0A2EB030280EA010C49024FEA402037D008
:203560004FF0805343EA111143EA10130CF000408B4238BF5B0042F17D024FF4000C8B4271
:2035800024BF5B1A40EA0C00B3EB510F24BFA3EB510340EA5C00B3EB910F24BFA3EB910311
:2035A00040EA9C00B3EBD10F24BFA3EBD10340EADC001B0118BF5FEA1C1CE0D1FD2A3FF6FB
:2035C00050AF8B4240EBC25008BF20F0010070470CF0004C4CEA50207F32C2BFD2F1FF036E
:2035E00040EAC250704740F400004FF00003013A37E792F0000F00F0004C02BF400010F437
:20360000000F013AF9D040EA0C0093F0000F01F0004C02BF490011F4000F013BF9D041EA44
:203620000C0195E70CEAD15392EA0C0F08D142027FF47DAF93EA0C0F7FF470AF084676E7BF
:2036400093EA0C0F04D14B023FF44CAF08466EE730F0004C18BF31F0004CCAD130F0004232
:203660007FF45CAF31F000437FF43CAF5FE700BF4FEA4002B2F1FE4F0FD34FF09E03B3EB3A
:2036800012620DD94FEA002343F0004310F0004F23FA02F018BF404270474FF0000070479A
:2036A00012F1610F01D1420205D110F0004008BF6FF0004070474FF00000704753B94AB949
:2036C000002908BF00281CBF4FF0FF314FF0FF3001F000B9ADF1080C6DE904CE00F006F8A8
:2036E000DDF804E0DDE9022304B070472DE9F0478C460E460446089D002B50D18A421746E4
:203700006CD9B2FA82FEBEF1000F0BD0CEF1200C01FA0EF620FA0CFC02FA0EF74CEA060C4A
:2037200000FA0EF43A0CBCFBF2F9BBB202FB19CC09FB03FA4FEA144848EA0C46B2450AD962
:20374000F61909F1FF3180F02581B24540F22281A9F102093E44A6EB0A06B6FBF2F002FBF6
:20376000106600FB03F3A4B244EA0644A34209D9E41900F1FF3280F00B81A34240F2088192
:2037800002383C440021E41A40EA0940002D62D0002324FA0EF42C606B60BDE8F0878B42FB
:2037A00007D9002D55D0002185E841000846BDE8F087B3FA83F1002940F08F80B34202D34B
:2037C000824200F2FC80841A66EB03060120B446002D40D085E81010BDE8F08712B90127CB
:2037E000B7FBF2F7B7FA87FEBEF1000F35D10121F61B4FEA174C1FFA87F8B6FBFCF20CFB27
:20380000126608FB02F0230C43EA0646B04207D9F61902F1FF3302D2B04200F2D2801A4623
:20382000361AB6FBFCF00CFB106608FB00F8A3B243EA0644A04507D9E41900F1FF3302D29E
:20384000A04500F2B9801846A4EB080440EA02409CE729462846BDE8F08707FA0EF7CEF1B2
:20386000200326FA03F24FEA174CB2FBFCF11FFA87F80CFB112206FA0EF620FA03F301FBF8
:2038800008F933431E0C46EA0246B14500FA0EF409D9F61901F1FF3280F08C80B14540F265
:2038A000898002393E44A6EB0906B6FBFCF00CFB106200FB08F99EB246EA0246B14507D9F2
:2038C000F61900F1FF3371D2B1456FD902383E44A6EB090640EA01418FE7C1F1200722FA02
:2038E00007F88B4048EA030326FA07F44FEA134EB4FBFEF91FFA83FC0EFB19448E4020FA85
:2039000007F809FB0CFA48EA06084FEA184646EA0444A24502FA01F200FA01F608D9E418AB
:2039200009F1FF3044D2A24542D9A9F102091C44A4EB0A04B4FBFEF00EFB104400FB0CFCA7
:203940001FFA88F848EA0444A44507D9E41800F1FF3E29D2A44527D902381C4440EA094070
:20396000A0FB0289A4EB0C0CCC45C246CE4615D312D055B1B6EB0A036CEB0E0606FA07F766
:20398000CB401F43CE402F606E600021BDE8F0871046F7E68946DEE64645EAD2B8EB020A56
:2039A00069EB030E0138E4E77046D7E718468FE78146BDE7114676E702383C4444E7084604
:2039C00006E7023A3E442BE703685A004CBF43F0004323F000431844704700BF61B32DE992
:2039E000F84F01F1FF3A90460646D146002707EB090404EBD4746410E50071190846FFF798
:203A0000E3FFA245834605F10800304409D0FFF7DBFFC34500F1FF3005D8404509D2671C11
:203A2000E5E7C34505D9A74202D004F1FF39DEE700210846BDE8F88F08467047012807D087
:203A4000022807D0044B00280CBF18460020704702487047024870474D41000051410000CC
:203A60005541000030B5254B83B004468D1E73B301A92846AFF3008018B301992A46FFF708
:203A8000ADFF0146E8B1FFF79FFF4B68A064012B11D0002B22DB081DFFF796FF0023E06403
:203AA00023650368002B1EDBFFF78EFF00232061184603B030BD052300221846226103B0EC
:203AC00030BD092300221846226103B030BD0C4B0C491846C91AC9100191CFE70123081DD3
:203AE000E0642365DDE7C3F30360FFF7A7FF0028206114BF00230923DAE700BF0000000036
:203B000000E8000000EA0000036810B5DA07044606D49B0700F1480009D500F057FC236817
:203B2000590709D51A070ED5DB0613D510BD00F045FC23685907F5D404F1D00000F04EFCC9
:203B400023681A07F0D404F5A87000F04FFC2368DB06EBD404F5E870BDE8104000F08ABC02
:203B6000036803B103441846704700BF09207047704700BF70B504460D4608E02A6C2369E9
:203B8000626121462A4601209847082808D1296C2046FFF767FF06460028EFD000F09CFE6E
:203BA0000728FBD13046296CFFF7E2FF281D00F0F9FB00BF2DE9F04705460027ADF5727DF0
:203BC00003AC0E1D92460FCE0FC40FCE0FC40FCE0FC496E80F00D5F80C80D5F8189084E85C
:203BE0000F0002AC2846216C2760FFF73BFFBAF1000F074614BF0A2609267FB1A36B46F0A9
:203C000010018DE810022A46636401202B46C04778BB38460DF5727DBDE8F087236C4FF4AC
:203C2000F0726B6121467AA802F01CFA2B697AAA294630469847889B82468DE81002314660
:203C400063642A462B460120C04790B94FF4F0727AA9204602F006FABAF1080F06D1216C05
:203C60002846FFF7FFFE09260746C6E7BAF1070F05D0092738460DF5727DBDE8F0873846EB
:203C8000216CFFF775FF03A800F08CFB406C7047F0B54FF0FF3ECB6BF9B00B640E1D01AD60
:203CA0000F4604460FCE0FC50FCE0FC50FCE0FC596E80F0085E80F00CDF800E006E0236932
:203CC0006A46214698470828054608D110992046FFF7C8FE0028F2D0092079B0F0BD684638
:203CE000FFF712FF062DF7D139462046FFF742FF30B4DD6BC160826119461D64002230BC88
:203D000058E700BF70B54369C6680B6426B10122FFF750FF00F0E0FD03690A4604460D46D2
:203D2000014602209847072807D0082803D129462046FFF71FFF00F0CFFD3046296CFFF78B
:203D400017FF281D00F02EFBC2682AB110B4CC6B00220C6410BC2DE79AE700BF704700BFC7
:203D6000836813B1014601201847704700B5042907D8DFE801F00309060909000BB90F2A7C
:203D800005D902205DF804FB01205DF804FB00EB820252681846019B1A605DF804FB00BFAA
:203DA000002310B584B003AC0A4600941946FFF7DDFF039804B010BD00B5042907D8DFE87F
:203DC00001F00309060909000BB90F2A05D902205DF804FB01205DF804FB019900EB8202FF
:203DE0000968184651605DF804FB00BF002310B584B004AC44F8042D00940A461946FFF7BE
:203E0000DBFF04B010BD00BFF0B54FF0FF3ED36BADF50F7D1364151D17AC07460E460FCD12
:203E20000FC40FCD0FC40FCD0FC495E80F0084E80F00CDF858E012E00C2116A86A46FFF7CA
:203E4000D5FF314616A8B84778B9049B16AA6946082098470528044608D0092805D0269900
:203E60006846FFF7FFFD0028E6D0092416A8FFF74BFE20460DF50F7DF0BD00BF2DE9F04FE5
:203E8000CC6C914622688BB004340D460792089400F0030B1E46002B60D1032312020792FD
:203EA0008DF825608DF824302B6DBBF1020F08BFAC6B13F0010340D1019300F008030393AF
:203EC000D4F80080B8F1000F39D0022E43D0B4F8008067880434AB6C27F0010A0F21484648
:203EE0009A44FFF75DFF824533D828F001039A4450452CBF002001207F0007F0020708F08E
:203F0000010847EA0807012F3ED035D3022F1CD1236823F000420292BBF1000F76D128B1A5
:203F2000039900297ED0002A00F0A680002B77DB029B013304EB8304C2E700230193022EDA
:203F40003EDDFFF713FE002840D009200BB0BDE8F08F0020D0E767680834BCE7022BA3DCCE
:203F60000221130C8DF825301204DBB204EB830407928DF8241097E7BBF1000F02D0002887
:203F800040F0BD8004349BE7BBF1000F25D1A8B194E80C00991C4FEAD272D6D005F1580141
:203FA0000133069100F0A380201DFFF7D9FD06AB01462846FDF78EFC002877D108347FE724
:203FC00007A9484600F0F0FA0028BED1019B002B5CD108200BB0BDE8F08F0D2148462F6AC2
:203FE000FFF7DEFE8742E9D1AB6A9C42E6D12046FFF7EAFC0F2102464846FFF7F7FE484601
:204000002A460021FFF7F2FE07209FE70D2148462F6AFFF7C5FE874258D02368002B87DA66
:20402000043485E7029B3BB305F15803271DCDF810B0DDF80C80A346DDF808A01C46059673
:2040400002E0B245B04616D038460694FFF788FD06AB014600222846FDF73CFC08F1010664
:2040600004370028EDD0029B5C464345DDF810B0059ED2D100E05C4648460D21FFF790FEBC
:20408000069B2862AC626B6206205FE70F214846FFF786FE0E2102464846FFF7A7FE484648
:2040A000294A0F21FFF7A2FE07204FE707460D214846FFF775FE022F28621DD12B46069A3E
:2040C00043F82C2F6B62AC6206203FE7AB6A9C42A3D1042200270299A318A962EF622A6330
:2040E0006B632368BB421DDB0123019320E748460D21FFF755FE2862069B6B62E3E7204686
:20410000FFF762FC04340646AC632846FDF73EFC00283FF41AAF484632460F21FFF766FE68
:20412000072013E70846013004EB8000FFF74CFC0F2102464846FFF759FE48462A46394662
:20414000FFF754FE072001E769280000002395E6012393E6022391E6F0B50446C5B004290F
:204160000DD8DFE801F055030C310F00012B4FEA124695B264D17219102A40F29D8002208F
:2041800045B0F0BD002BFAD1102AF8D82368D80600F1C88022AE30460192012500F074F97F
:2041A0000023A06B019A05FA03F1114203D00168043046F823100133042BF4D1A06330466E
:2041C00000F058F90020DBE7032BD8D1150C97B2EB19102BD3D823681E0700F1B78022AEE9
:2041E000304600F025F9ED00A06B5FB1043D0346711900EBC70053F8042B834241F8042FC2
:20420000F9D11846A063304600F0F0F80020B7E7002BB4D10127A56B96B2201D07FA03F105
:20422000314203F1010302D0296804350160102B00F10400F2D112F400503BD1A5639FE733
:20424000052B9CD17719202F99D80F2E66D92F46002D3AD12A460027002AA06B72DD00EB42
:20426000C202014644A800EBC6008C3851F8045B914240F8045FF9D1084697B1102E3246A6
:2042800038BF102244A901EBC202A2F5C4727900043A00EB810150F8045B884242F8045F59
:2042A000F9D1012B48D00F2EA16333D917B102A800F094F8002063E70F2E3FF660AF0027A3
:2042C0002268D10717D4002F60D02268510745D4012B4DD00F2E06D822A8019300F07AF813
:2042E000019B002FB6D002A8019300F07BF8019BC6F11002B0E722F00101052B2160019377
:2043000020463BD022F0030240F8482B00F05AF8019BD8E722A800F059F8C7E7102FCED92E
:20432000103FCDE723F01003236004F5E870019200F0AAF8019A2DE70431A16322A800F0B9
:204340003DF8B7E7002F99D10146AAE723F00803236004F5A87000F06BF840E7204622F075
:20436000040240F8D02B019300F03CF8019BAFE722A8019300F026F8019BB9E741F002013E
:2043800040F8481B00F026F8019B9CE7012B03D00F2E3FF65FAF9FE722A8019300F012F8F8
:2043A000019B57E700F1340191E838009C46A6464CF8045D90E8FF0FE54600BD90EC210BC3
:2043C000704700BF80EC210B704700BF90EC200B704700BF80EC200B704700BFD0EC200B48
:2043E000704700BFC0EC200B704700BFF0EC0201F0EC0211F0EC0221F0EC0231F0EC0241FF
:20440000F0EC0251F0EC0261F0EC0271F0EC0281F0EC0291F0EC02A1F0EC02B1F0EC02C164
:20442000F0EC02D1F0EC02E1F0EC02F1704700BFE0EC0201E0EC0211E0EC0221E0EC02312D
:20444000E0EC0241E0EC0251E0EC0261E0EC0271E0EC0281E0EC0291E0EC02A1E0EC02B124
:20446000E0EC02C1E0EC02D1E0EC02E1E0EC02F1704700BFB0FC0181B0FC0191B0FC01A170
:20448000B0FC01B1704700BFA0FC0181A0FC0191A0FC01A1A0FC01B1704700BFEC4600B513
:2044A0002DE900502DE9FF1F4FF000032DE90C0001A9FFF7EDFBDDF840E012B0704700BF49
:2044C000EC4600B52DE900502DE9FF1F4FF000032DE90C0001A9FFF715FCDDF840E012B08F
:2044E000704700BFEC4600B52DE900502DE9FF1F4FF000032DE90C0001A9FFF725FCDDF8CB
:2045000040E012B0704700BFEC4600B52DE900502DE9FF1F4FF000032DE90C0001ABFFF7BC
:20452000E7FBDDF840E012B0704700BFEC4600B52DE900502DE9FF1F4FF000032DE90C0087
:2045400001AAFFF761FCDDF840E012B0704700BF027A1AB9437A43B9B02070470368013AFB
:2045600002721A020260180E704703214268013B10B443721368141D01721A0244600260A8
:2045800010BC180E704700BF002300B585B003AA009219460C22FFF7E9FB039805B05DF85B
:2045A00004FB00BFF0E700BF2DE9F04306460F464FF0000885B03846FFF7CAFFB0280446E2
:2045C00023D0050627D400230DF10C09194685000D22CDF800903046FFF7C8FBEDB2039BD8
:2045E000600605F104054CBF5D1BED1800230D221946CDF8009030460395FFF7DDFB38466E
:20460000FFF7A6FFB0280446DBD1B8F1000F00F0948000201CE000F0F003802B5CD0902BE4
:2046200019D0A02B2CD0B02B3ED0C02B6BD000F0F803D02B0BD100F00702013242F4002275
:20464000052301213046FFF787FD0028B3D0092005B0BDE8F08300F00D030D2BF7D000235D
:2046600003AD00F00F02194600953046FFF77EFB0023009519460D223046FFF79DFB9AE7E5
:20468000C3434FF47F6203F007031A410023010702F47F6248BF42F4804219463046FFF7CC
:2046A0005BFD0028D3D186E7B12857D0B22868D0B32800F0958000F0FC03B42BC7D00123EE
:2046C00000F007021A4442F4002219463046FFF743FD0028BBD16EE73846FFF739FF240245
:2046E0000443B4F5004FB2D000232401A2B219463046FFF731FD0028A9D114F4004F18BF94
:204700004FF0010857E7C6287DD0C72800F0868000F0F803C02B00F09480C82800F09F801A
:20472000C92894D13846FFF713FF020300F00F0002F470220130024382E703AC43460E22CA
:20474000414600943046FFF711FB0094304643460F224146FFF730FB404679E73846FFF700
:20476000F7FE00283FF473AF10F0F0037FF46FAF024619463046FFF7EFFC00287FF467AF94
:2047800019E700230DF10C090D221946CDF800903046FFF7EBFA3846FFF7DAFE02064FF01C
:2047A00002040CD5039B00F07F00A040034438460393FFF7CDFE030604F10704F2D4002317
:2047C000039900F07F02A24001F501718C18CDF8009019460D2230460394FFF7EDFAEAE641
:2047E0003846FFF7B5FE0123010300F00F0001F47021C2180A4330461946FFF7ADFC002822
:204800007FF425AFD7E63846FFF7A2FE010300F00F00032301F47021421CEBE73846FFF72D
:2048200097FE00283FF413AF10F0F0037FF40FAF024604213046FFF78FFC00287FF407AFED
:20484000B9E6032300F00F02013242F4202219463046FFF781FC00287FF4F9AEABE638464E
:20486000FFF776FE00F0F00200F00F031032013343EA0232E4E600BF30B503240D46C36CFC
:2048800085B05A688DF80C40DC791202083301A9284601928DF80D400293FFF785FE05B06C
:2048A00030BD00BF08B5FFF77DFE806C08BD00BF08B5FFF777FEC06CC37900EB8300083078
:2048C00008BD00BF08B500F007F800BF08B5FFF7F9FF00BF704700BF08B5062002F05EF8DE
:2048E0000120FCF771F900BF0028B8BF4042704710B502FB01F1FBF7E1FF0446D8B150F802
:20490000042C22F00302043A242A18D8132A14D900231B2A0360436016D9242A8360C360F9
:2049200011BF00F110020361436100F118020023136053609360204610BD0246F7E70021DB
:2049400001F06AFC204610BD00F10802EFE700BF014B1868704700BFE400001070B559B1D8
:2049600005460C4610B1836B002B3CD0636ED80705D5B4F90C302BB90026304670BDA38968
:2049800099053CD52146284600F052F8E36A064633B1E169284698470028B8BF4FF0FF3632
:2049A000A3891A0622D4216B41B104F14003994202D02846FBF786FF00232363616C21B125
:2049C0002846FBF77FFF0023636400F0D3F90022636EA281DB070ED5A06D00F089FF00F003
:2049E000CFF9304670BD00F041F9BFE721692846FBF768FFD7E7A06D00F07EFFECE7A06D13
:204A000000F078FFB4F90C30002BBBD1666E16F00106B1D1A06D00F06FFF304670BD00BF5F
:204A2000024B01461868FFF799BF00BFE4000010B1F90C302DE9F0419AB20D4611078046B7
:204A40003AD46A6843F40063002AAB8170DDAC6A002C4AD000229BB2D8F80060C8F800205E
:204A600013F4805268D02A6D5F0705D569682B6B521A0BB1EB6BD21A0023E9694046A0479B
:204A8000441C3DD00021B5F90C302A6923F40063AB81DB0469602A6048D4296BC8F8006063
:204AA00019B305F14003994202D04046FBF70AFF00202863BDE8F0812E69B6B1910718BF95
:204AC00000232C6808BF6B692E60A41BAB600AE0234632466F6AE9694046B8470028A4EBFA
:204AE0000004064404DD002CF2DC0020BDE8F081AB894FF0FF3043F04003AB81BDE8F081FD
:204B0000D8F800401D2CF3D8164BE340DB4313F00103EDD1B5F90C20296922F40062AA81FB
:204B2000D2046B602960B8D5002CB6D12865B4E7EA6B002A8BDCD8E70123E9694046A0475B
:204B4000431C024602D0AB89AC6A8DE7D8F80030002BF8D01D2B01D0162BC9D1C8F8006017
:204B6000C3E700BF0100402038B50D46044608B1836BBBB1B5F90C0088B16B6EDB0701D44B
:204B8000810517D520462946FFF752FF6B6E0446DA0702D4AB899B0507D5204638BD044658
:204BA000204638BD00F062F8E4E7A86D00F0A4FE204638BDA86D00F09DFEE3E720B1054BF8
:204BC00001461868FFF7D0BF034B0449186800F00FBE00BFE4000010C0DC0000694B0000AE
:204BE000014900F005BE00BF5D490000002310B504468181C28103604360836043660361E6
:204C000043618361194608225C3001F005FB07480749084A084B2062E4616162A262E362EF
:204C200004F15800BDE8104000F060BE7D6A0000A56A0000E16A0000016B000070B56825C5
:204C40004A1E05FB02F50E4605F17401FBF736FE044640B100210C30666005F168022160D1
:204C6000A06001F0D9FA204670BD00BF10B50446144800F03FFEA26BFAB90320124904F54F
:204C80003B73C4F8E832C4F8E022C4F8E402E16360680421FFF7AAFFA06801220921FFF715
:204CA000A5FFE06802221221FFF7A0FF01230548A363BDE8104000F01FBE0248BDE81040A4
:204CC00000F01ABE780E0010E14B000070B50646264800F00FFE264B1D68AB6B002B33D034
:204CE00005F538756B68AC68013B05D528E0013B5A1C04F1680423D0B4F90C20002AF6D138
:204D000000254FF6FF720123E281A38104F15800656600F0EBFD154800F0EEFD2560A5605B
:204D2000656025616561A5612946082204F15C0001F072FA256365636564A564204670BD60
:204D40002C682CB12546CDE72846FFF78FFFC7E704213046FFF772FF044628600028F1D165
:204D6000024800F0C9FD0C233360E7E77C0E0010C0DC0000014800F0BDBD00BF7C0E001061
:204D8000014800F0B9BD00BF7C0E00101346F0B583B00F4601AA1946064606F023FC0028F2
:204DA0002FD005463046FFF791FF0446002828D039464FF4DB73019A304601F07BFA071E97
:204DC00030DB636EDB0715D51C491D481D4A1E4B6162E905E781A581E4612062A262E36242
:204DE00013D4636EDA0702D4A3899B0514D5204603B0F0BDA3899805E6D4A06D00F07AFDD2
:204E0000E2E70024204603B0F0BD304602230022214600F0A5F9E4E7A06D00F06DFD204695
:204E200003B0F0BD0025FFF7A5FFA581A06D00F05FFD2C46FFF7A4FFD9E700BFA56A00003B
:204E40007D6A0000E16A0000016B0000024B0A4601461868FFF79ABFE400001030B50546DD
:204E600087B008461446019102F01EF9012201AB05900290049203930DB1AB6B33B3636E0B
:204E800013F0010FB4F90C309AB201D1900521D5910406D4626E43F4005322F40052A38118
:204EA0006266284603AA214600F004FB636E0546DA0702D4A3899B0502D5284607B030BD31
:204EC000A06D00F019FD284607B030BD2846FFF7CDFED4E7A06D00F00DFDB4F90C309AB287
:204EE000D6E700BF024B0A4601461868FFF7B6BFE4000010F8B50C46234F0646FBF7A2FE24
:204F0000BB68C4F57E615D680F3125F00305294421F47F6121F00F01A1F58054B4F5805F3F
:204F200007DB0021304601F027FCBB682B44984204D03046FBF78AFE0020F8BD61423046C6
:204F400001F01AFC01300DD0104BBA6819682D1B45F001053046091B55601960FBF776FE8D
:204F60000120F8BD0021304601F006FCBA68831A0F2BDEDD064C0549246843F00103001B9F
:204F800053600860D5E700BF7C0600102C0E0010840A0010002944D02DE9F0410D46804664
:204FA000FBF750FE55F8047C6949A5F1080427F00103E2188E685068B24220F003005ED098
:204FC000FE0750600BD455F8087C01F1080EE41BA5683B4475456DD0E768EF60BD601518FA
:204FE0006D68ED073ED543F001026260E350B3F5007F17D20122DB0898104D68134451F897
:205000003370824001EBC3002A430838E060A7604A6041F83340FC604046BDE8F041FBF788
:2050200015BE70475A0A042A52D89A0902F13907FF0002F13805C819CA59083890424FD0F0
:20504000516821F003018B4232D292689042F7D1C368A060E3609C60C4604046BDE8F04133
:20506000FBF7F4BD95683B4F0344BD4240D0D06843F00102E86085606260E350B7E7FF077C
:20508000034407D455F8085C641BE268A0682B44C2609060304A43F001001268606093422E
:2050A0008C60B9D32D4B40461968FFF723FFB3E71046CDE711184968C90744D4916803443B
:2050C000D26843F00100CA6091606060E350A3E7142A16D802F15C07FF0002F15B05AAE765
:2050E0000123AA104D6893402B434B600346B0E743F001024C610C61E560A5606260E350C2
:205100008AE7542A06D81A0B02F16F07FF0002F16E0590E7B2F5AA7F06D8DA0B02F1780753
:20512000FF0002F1770586E740F25450824206D89A0C02F17D07FF0002F17C057BE74FF4E7
:205140007E777E2577E743F001016160136063E77C06001084060010880A00105C0E00105E
:2051600000F000B82DE9F04F0C4691B091461F46064610B1836B002B67D0636E13F0010F22
:20518000A38902D19D0540F1B18003F48473B3F5847F00F0B580D4F82880B8F1000F00F032
:2051A000B980012F38D0022F0ED06FB11622636E3260D90702D4A3899A0529D54FF0FF35C2
:2051C000284611B0BDE8F08F4FF0000A55462369002B00F02D8140F61A01B4F90C309AB2BD
:2051E0000A4208D1520539D4A74A904500F0258143F40063A38121463046FFF7B5FC002860
:2052000000F09A80636ED907D8D4A3899A05D5D4A06D00F071FBD1E721463046FFF7A4FC1F
:20522000A38913F4805200F0E180256D5F0778D4180740F1D380226823690AB1D21A15441B
:20524000A9444FF0010A0027C2E7FFF70FFD94E74FF48062A389E2641343A381002F40F05A
:20526000CE80CB46BAF1000F40F0BA80A389DB0440F1F780206D6268216B851A9646002971
:2052800000F0FA80E36BED1A15442069A26B121AAD1A1344AB456CDBEA185A4569D9ABEB66
:2052A000050528445B1B84E8090041B104F14003994202D03046FBF705FB0023236308227B
:2052C000A38923F02003A381002104F15C0000F0A3FF656E15F0010503D1A3899B0540F195
:2052E000A3800025284611B0BDE8F08FA06D00F001FBA38903F48473B3F5847F7FF44BAFE8
:2053000021463046FFF730FCD4F82880B8F1000F7FF447AF1D22636E3260D8077FF54BAF0A
:205320004CE7D4F804E0236BA5EB0E05002B55D0E26B2369AD1A83E73B464A46E16930462E
:20534000C04701303FF45EAF216B41B104F14003994202D03046FBF7B5FA00232363002191
:20536000A389226923F402632260A38161600822ABE7E56C00236D4205EA0B052A46E169FB
:205380003046C04701303FF436AF00222369216B6260236041B104F14003994202D030467B
:2053A000FBF790FA00232363A389BBEB050B23F02003A38110D02146304601F051F900286C
:2053C0007FF419AF63689B453FF615AF2268A3EB0B035A4484E80C00082275E723692FE78A
:2053E000216B002946D06268E36B4DE7E1693B463046C047411C05460ED0A38916E701AAF4
:20540000B4F90E10304600F041F800287FF4F3AE059B09EB030B25E7636EDA073FF5CEAED6
:20542000A3899B053FF5CAAEA06D00F065FAC7E62146304600F090FACDE6B4F90E100029ED
:20544000FFF6D6AE01AA304600F020F830B9029B03F47043B3F5004F3FF4FAAEB4F90C30BF
:20546000C6E652460123E1693046C047451C7FF402AFC0E6D4F804E02368206900211B1AB8
:20548000ED1A734406E700BFE16A000070B50D460023074C0646114628462360FBF758FB90
:2054A000431C00D070BD2368002BFBD0336070BD680E00109368002B71D02DE9F04F8B89F9
:2054C00083B00C4619070090164625D522691AB313F0020035682BD04FF00009B0464F4679
:2054E000DFF8C0A2002F55D057453B464A4628BF5346E1690098666AB047002856DDD8F81E
:20550000083081441B1A3F1AC8F80830002BE9D1002003B0BDE8F08F2146009805F036F80A
:20552000002840F03581A389356813F00200D3D113F0010944D14F46019637B39A05D4F848
:20554000088040F185804745C346C0F0AD8013F4906F40F0AE80BA4620685A46494600F010
:20556000F7FDA2682368A2EB08025B44A2602360019AD1449368A7EB0A07A3EB0A0393600B
:20558000002BC5D0A389002FD8D1D5F800906F680835D2E7D5F800906F680835A2E7002003
:2055A000704721460098FFF7DFFA78B3B4F90C304FF0FF3043F04003A38103B0BDE8F08F73
:2055C000814633464E46A8469A464D4656B3002832D0B145CB4628BFB346206823695F46C3
:2055E0009842626904D9A36813449B4500F3A88093454DDB1346676A2A46E1690098B84751
:20560000071ED3DDB9EB0709CBD00120DAF808303D44DB1BF61BCAF80830002B3FF478AF34
:20562000002ED4D108F1080353F8046C984653F8085C0833002EF7D032460A21284600F01A
:20564000CBFC002800F0A1800130A0EB0509C0E720682369984202D863699F425DD2B84538
:2056600028BFB8464946424600F072FDA3682268A3EB08034244A36022600BB1C24677E774
:2056800021460098FFF770FA00288FD1C2466FE75A46294600F05CFDA2682368A2EB0B023E
:2056A0005B44A2602360ADE7B846BA46BB46206853E762692068216902EB4208A0EB010AC7
:2056C00008EBD8780AF101004FEA680838444045424684BF804642465B0544D51146009860
:2056E000FBF7ECF88346002855D05246216900F0B9FCA38923F4906343F08003A3810BEBF1
:205700000A00A8EB0A03C4F810B0C4F814802060A360B846BA46BB461FE76FF00042BA42EE
:2057200028BF3A4692FBF3F2E16903FB02F300984A46666AB047B0F1000A3FF719AF35E79F
:205740001A462946019300F003FD2268019B21461A4422600098FFF707FA019B00287FF4C3
:2057600025AF1F464EE70098FBF7AAF883460028C5D1009D21692846FBF7A4F80C22B4F90A
:205780000C302A6023F0800312E706F1010920E74FF0FF30BDE60C220099B4F90C300A6081
:2057A00006E700BF00FCFF7F2DE9F04110F538771AD0884600267D68BC68013D0ED4A38995
:2057C000013D012B06D9B4F90E30013302D02046C04706436B1C04F16804F0D13F68002F5A
:2057E000E9D13046BDE8F0813E463046BDE8F0812DE9F84310F538761ED0884607464FF007
:2058000000097568B468013D10D4A389013D012B08D9B4F90E30013304D021463846C0470E
:2058200049EA00096B1C04F16804EED13668002EE7D14846BDE8F883B1464846BDE8F883AE
:2058400070B50F4E0F4D761BB61018BF002405D0013455F8043B9847A642F9D10A4E0B4D41
:2058600007F000FE761BB61018BF002406D0013455F8043B9847A642F9D170BD70BD00BFA0
:205880008C0A00108C0A0010AC0A00108C0A0010FF2801D90020704710B5044600F018F869
:2058A0002044407800F0080010BD00BF044B054A1B685B6B002B08BF134693F828017047AB
:2058C000E400001010050010D0F8EC00704700BF044B054A1B685B6B002B08BF1346D3F888
:2058E000EC007047E400001010050010704700BF704700BF704700BF704700BF70B50C469D
:20590000B1F90E1090B0002915461E4614DB01AAFFF7BCFD00280FDB029A4FF4806302F484
:205920007042A2F50052B2FA82F24FF40060520932602B6010B070BD0023A289336012F0C1
:20594000800004D0402218462A6010B070BD4FF480632B6010B070BD8A890B46920706D546
:20596000012103F1430259611A601A617047F0B583B001AB6A460C460646FFF7BFFF009947
:2059800005463046FAF79AFFB4F90C30D8B19DE80600154F43F08003F763A3812060206126
:2059A00061611AB92B43A38103B0F0BD3046B4F90E1006F0FFF9A0B1A38923F0030343F068
:2059C00001031BB2EEE79A05EED4012123F0030304F1430243F00203A38161612260226128
:2059E000E2E7B4F90C30DDE7E14B0000024B01461868FAF763BF00BFE4000010024B014697
:205A00001868FAF75FBF00BFE40000102DE9F04F01F10B06162E83B0054640F29E8036F0B4
:205A2000070600F1BD80B14200F2BA80FBF70AF9B6F5FC7FC0F08582730A00F0B880042B66
:205A400000F26C81B30903F1390003F1380EC100B84F39444C680839A14206D10CE0002A3A
:205A600080F2AB80E468A14206D0636823F003039A1B0F2AF3DD70463C69DFF8CCE2744549
:205A800000F09E81636823F003039A1B0F2A00F38381002AC7F814E0C7F810E080F291801F
:205AA000B3F5007F80F054810122DB0879684FEAA30C134457F8338002FA0CF207EBC30C97
:205AC0000A43ACF10801E160C4F808807A6047F83340C8F80C40012483109C4094427DD8F7
:205AE000144206D120F003006400144200F10400FAD007EBC009CC468046DCF80C309C4569
:205B000007D15FE1002A80F26D81DB689C4500F05981596821F003018A1B0F2AF2DDDC682E
:205B2000D3F808C046F0010828461E4442F00105C3F80480CCF80C40C4F808C07E613E613A
:205B4000C6F80CE0C6F808E075605A500093FBF77DF8009B03F108041EE0102920D8FBF7C0
:205B600071F8102618230220724F3B445C68A3F10802944200F02F816368E16823F00303E4
:205B800023445A68A66842F00102F16028468E605A60FBF75BF80834204603B0BDE8F08F74
:205BA00000240C2320462B6003B0BDE8F08F40204FF400714FF03F0E4AE723445A68E16887
:205BC000E0E723445A68284642F001025A600834FBF73CF8204603B0BDE8F08FBC686368EA
:205BE00023F00308B04504D3A8EB06030F2B00F38580DFF85891504BD9F800201B680132EB
:205C0000334404EB080A00F0548103F580530F3323F47F6B2BF00F0B5946284600F0ACFD5E
:205C2000411C024600F0FB80824500F2F680434B19685944196000F04C81D9F80000013041
:205C40001BBFA2EB0A0A5144C9F80020196012F0070100F01481C1F10800C1F580510244C4
:205C6000083102EB0B09C9F30B09A1EB0909494628460193009200F07FFD431C9DE80C00FD
:205C800000F04281801A484440F001001968BC424944BA601960506017D0B8F10F0F40F2CB
:205CA000FA804FF0050C6268A8F10C0020F0070002F0010204EB000E02430F286260CEF89E
:205CC00004C0CEF808C000F216811D4BBC681A68914288BF19601B4B1A689142626888BF7C
:205CE000196022F003029642A2EB060301D80F2B04DC2846FAF7AAFF00244DE746F001021A
:205D000043F00103264462602846BE6008347360FAF79CFF204603B0BDE8F08F142B70D934
:205D2000542B00F2A280330B03F16F0003F16E0EC1008DE67C0600105C0E00102C0E001035
:205D4000540E0010580E001084060010840A00105A0A042A5BD9142A00F2AE8002F15C01AF
:205D6000C9005B3207EB010C7958ACF1080C8C4500F088804A6822F00302934273D28968AF
:205D80008C45F7D1DCF80C307A68E360C4F808C09C60CCF80C409EE646F0010C42F00101AA
:205DA0002644C4F804C028467E613E61C6F80CE0C6F808E07160E250FAF748FF0834EBE675
:205DC0007A6888E608F1010818F0030F0CF1080C7FF493AE2DE0DC68A34208BF02303FF430
:205DE0004BAEC9E61C4619444A68DB6854F8086F42F001024A602846F3609E60FAF726FFD0
:205E0000CAE603F15C0003F15B0EC10020E69A0902F13901C9003832A4E7BC4254D0BC688A
:205E2000626822F003025EE759F80839994540F0868010F0030F00F1FF30F5D17B6823EAAE
:205E400004037B6064009C423FF6C8AE002C3FF4C5AE1C4240467FF44CAE64001C4200F19D
:205E60000400FAD045E68C468CE7B3F5AA7F15D8F30B03F1780003F1770EC100E8E54FF472
:205E80008051EEE601217B68921001FA02F21A437A60634679E7012353602AE740F25452C7
:205EA000934222D8B30C03F17D0003F17C0EC100CEE503F1100BAFE6542A29D81A0B02F1B6
:205EC0006F01C9006E324DE7204B196859441960B3E6CAF30B0000287FF4AFAE08EB0B0359
:205EE000BA6843F001035360EFE67F204FF47E714FF07E0EACE504F1080128460093FAF7A4
:205F0000E1FC009B1968E0E601204FF00009BDE6B2F5AA7F05D8DA0B02F17801C900773246
:205F200020E740F254518A4205D89A0C02F17D01C9007C3216E74FF47E717E2212E77B68A1
:205F400080E7F00806F108030EE600BF2C0E0010F0B583B00746089D92B1114C114E24688E
:205F6000646B0095002C08BF3446D4F8E440A047431C03D100228A232A603B6003B0F0BDF2
:205F80001446074A074B12682146526B0095002A08BF1A460123D2F8E440034AA047E7E76C
:205FA000E40000101005001058E4000082B049B15AB16BB113780B601278101C18BF012095
:205FC00002B0704701A9002AF3D1104602B070476FF00100F4E700BF830770B4CDB23DD0CD
:205FE000541E0AB30378AB421FD0431C05E014F1FF3419D30278AA4217D013F0030F1846F3
:2060000003F10103F3D1032C11D84CB30378AB420BD00444431C02E00278AA4205D09C42C8
:20602000184603F10103F7D1002070BC7047090289B2294341EA0141036806464B40A3F14A
:20604000013222EA030313F0803F00F1040003D1043C032CF0D8D8E73046D7E71446D2E733
:206060002046E2E7844641EA000313F0030349D1403A23D30B6803604B6843608B68836064
:20608000CB68C3600B6903614B6943618B698361CB69C3610B6A03624B6A43628B6A83623C
:2060A000CB6AC3620B6B03634B6B43638B6B8363CB6BC36340304031403ADBD230320BD3CE
:2060C0000B6803604B6843608B688360CB68C36010301031103AF3D20C3205D351F8043B3A
:2060E00040F8043B043AF9D2043208D0D2071CBF11F8013B00F8013B01D30B880380604655
:20610000704700BF082A13D38B07B1D010F00303AED0C3F10403D21ADB071CBF11F8013BB1
:2061200000F8013BA4D331F8023B20F8023B9FE7043AD9D3013A11F8013B00F8013BF9D20A
:206140000B7803704B7843708B788370604670478842F0B50DD98B1898420AD28418002A0C
:2061600051D0224613F8014D994202F8014DF9D1F0BD0F2A48D941EA00039B0746D1154607
:2061800000F1100401F1100353F8106C103D44F8106C53F80C6C0F2D44F80C6C53F8086CB7
:2061A00004F1100444F8186C53F8046C03F1100344F8146CE8D8A2F1100323F00F0302F01B
:2061C0000F0E1033BEF1030F1944034421D90E4674461D1F56F8047B043C032C45F8047FBA
:2061E000F8D8AEF1040424F0030404342144234402F0030262B1013B0A4411F8014B8A4254
:2062000003F8014FF9D1F0BD0346F3E70346F2E7F0BD7246EEE700BF70B4860746D0541E45
:20622000002A41D0CAB2034602E014F1FF343BD303F8012B9D07F8D1032C2ED9CDB245EABE
:2062400005250F2C45EA054519D9264603F11002103E0F2E42F8105C42F80C5C42F8085C8B
:2062600042F8045C02F11002F2D8A4F1100222F00F0204F00F041032032C13440DD91E46D2
:206280002246043A032A46F8045BFAD8221F22F003020432134404F003042CB1C9B21C4424
:2062A00003F8011B9C42FBD170BC704714460346C2E700BFF8B50E460025084C1146074611
:2062C0001A4630462560FAF7F1FC431C00D0F8BD2368002BFBD03B60F8BD00BF680E00108B
:2062E000002900F094802DE9F04F0C46154683B0804605F10B06FAF7A5FC54F804EC162E5D
:206300002EF00307A4F108093CD810221646B5423DD8974243DAC64B09EB07009968884234
:2063200000F0C380436823F0010101444968C9074DD51EF0010F00F09B8029464046FAF773
:20634000BDFA054600283BD054F8043CA0F1080223F001034B449A4200F02B813A1F242A1C
:2063600000F21881132A00F2EB8003462246116819605168596092689A6021464046FAF711
:20638000A1FA1DE026F00706002E3246BFDA00250C232846C8F8003003B0BDE8F08F25460F
:2063A000BB1B0F2BD9F804201DD802F001023A4309EB0701C9F804204B6843F001034B60FB
:2063C0004046FAF743FC284603B0BDE8F08F23F00303F91891421DDBC36882682546D3601A
:2063E0000F469A60DCE702F0010209EB060143F001033243C9F804204F444B607B680831B0
:2064000043F001037B604046FAF75CFAD8E71146FAF754BA1EF0010F8FD154F8081CA9EB06
:20642000010ADAF8041021F003010B443B44934226DB5546C16880683A1FC160886055F857
:20644000080FDAF80C10242AC160886026D8132A40F2818021681B2ACAF808106168CAF83F
:206460000C1000F2AD8004F108000AF1100274E054F8083CA9EB030ADAF8041021F0030157
:206480007B189342FFF659AF5546DAF80C1055F8080F3A1F242AC1608860D8D92146284674
:2064A0001F46D146FFF754FE7AE7416806F1100021F0030BBB44834558DA1EF0010F7FF45E
:2064C0003CAF54F8081CA9EB010ADAF8041021F003018B445845D3DC5546DAF80C1055F8D6
:2064E000080F3A1F242AC160886000F28D80132A40F2878021681B2ACAF808106168CAF82D
:206500000C1000F2888004F108010AF11002086810604868506089689160ABEB06020AEBA5
:20652000060142F0010299604A60DAF80430404603F001031E43CAF80460FAF787FB42E7D6
:2065400023681B2A03606368436027D800F1080304F108020BE720462A4601681F46116099
:206560004168D14651608368936019E7ABEB060B09EB06014BF0010299604A6054F8043CBD
:20658000404603F001031E4344F8046CFAF75EFB254618E72146FFF7DBFDEEE6A368242A5B
:2065A0008360E368C36018D000F1100304F11002DDE650F8043C254623F003031F44EFE690
:2065C000A168242ACAF81010E168CAF814100DD004F110000AF11802BFE7226900F118031F
:2065E0000261616904F118024161C0E6226904F11800CAF8182061690AF12002CAF81C10B0
:20660000ABE721462A4682E7214628460193FFF79FFD019B81E7A168242ACAF81010E16827
:20662000CAF8141006D004F110010AF118026EE77C060010226904F11801CAF81820606940
:206640000AF12002CAF81C0061E700BF838903F00903092B01D000207047FEF7AFBA00BF34
:20666000F8B50C46054610B1836B002B47D0B4F90C309AB2970407D4626E43F4005322F4C4
:2066800000526266A3819AB200219606616033D4500722D5216B61B104F14003994202D01A
:2066A0002846FAF70FF90020E36B20636360002B40D12369002B4DD0B4F90C70BEB2B3075C
:2066C00020D1226928462260256A6369E169A8470028606009DD0020F8BDD1063FD5120713
:2066E0002BD443F00403A381E3E71CD00022A389626043F04003A3814FF0FF30F8BDFEF7C5
:20670000B5FAB4E701221A4BA2811868194906F00906FFF749F8092EA781D2D1214628468F
:20672000FEF786F9CDE7A3894FF0FF3043F02003A381F8BDA36B2360F8BD21462846FEF758
:2067400013FA0028D8D1B4F90C30A060A06123F00803C6E721462846FFF7FEF8ACE7092227
:2067600043F040032A604FF0FF30A381F8BD00BFC0DC00004D66000038B50023064C054617
:2067800008462360FAF7FEF9431C00D038BD2368002BFBD02B6038BD680E001000290CBFA1
:2067A000022200224FF4806300F000B82DE9F043614D83B02D6804460F4690461E4615B167
:2067C000AB6B002B64D0B8F1020F06D0B8F1010F00F29F80002EC0F29C80636ED80734D535
:2067E00021462846FEF7C0F9216B41B104F14003994202D02846FAF765F80023236300222C
:20680000B4F90C30A26162601A063AD423F44A6323F00303B8F1020FA3811DD001AB6A4698
:2068200021462846FFF76AF8A3891843A081002E32D1009E3046FFF7D9F8074600286BD0C7
:20684000A38943F08003A38128E0A3899905C7D4A06DFFF74FF8C3E7002500260120616E96
:2068600004F1430243F00203A660CE07A38160612260226101D498053ED5284603B0BDE896
:20688000F08321692846FAF71DF8B4F90C30BDE72846FEF7EBF996E7002FCBD0AB6B002B2B
:2068A00033D0009BB4F90C209E421CBF42F40062A281B8F1010F04BF42F00102A28192B2D3
:2068C00012F008032760276166610ED0D1071AD50023656E764215F00105A661A36009D094
:2068E0000025284603B0BDE8F083A360656E15F00105F5D19305C0D4A06DFEF7FDFF2846FB
:2069000003B0BDE8F083A660F0E72846FEF7AEF9C7E74FF0FF35B0E7DDF80090B14504D0DE
